{
  "contractName": "ContractorRepo",
  "abi": [
    {
      "constant": false,
      "inputs": [
        {
          "name": "contractorAddress",
          "type": "address"
        }
      ],
      "name": "getVerifier",
      "outputs": [
        {
          "name": "",
          "type": "address"
        }
      ],
      "payable": false,
      "stateMutability": "nonpayable",
      "type": "function"
    },
    {
      "constant": false,
      "inputs": [],
      "name": "getContractors",
      "outputs": [
        {
          "name": "",
          "type": "address[]"
        }
      ],
      "payable": false,
      "stateMutability": "nonpayable",
      "type": "function"
    },
    {
      "constant": false,
      "inputs": [
        {
          "name": "contractorAddress",
          "type": "address"
        }
      ],
      "name": "getVerificationStatus",
      "outputs": [
        {
          "name": "",
          "type": "bool"
        }
      ],
      "payable": false,
      "stateMutability": "nonpayable",
      "type": "function"
    },
    {
      "constant": false,
      "inputs": [
        {
          "name": "contractorAddress",
          "type": "address"
        },
        {
          "name": "verifierAddress",
          "type": "address"
        }
      ],
      "name": "verifyContractor",
      "outputs": [],
      "payable": false,
      "stateMutability": "nonpayable",
      "type": "function"
    },
    {
      "constant": false,
      "inputs": [
        {
          "name": "index",
          "type": "uint256"
        }
      ],
      "name": "getUnverifiedContractors",
      "outputs": [
        {
          "name": "",
          "type": "address"
        }
      ],
      "payable": false,
      "stateMutability": "nonpayable",
      "type": "function"
    },
    {
      "constant": false,
      "inputs": [
        {
          "name": "contractorAddress",
          "type": "address"
        }
      ],
      "name": "newContractor",
      "outputs": [],
      "payable": false,
      "stateMutability": "nonpayable",
      "type": "function"
    },
    {
      "constant": false,
      "inputs": [],
      "name": "getContractorsCount",
      "outputs": [
        {
          "name": "",
          "type": "uint256"
        }
      ],
      "payable": false,
      "stateMutability": "nonpayable",
      "type": "function"
    },
    {
      "constant": false,
      "inputs": [],
      "name": "getVerifiedContractors",
      "outputs": [
        {
          "name": "",
          "type": "address[]"
        }
      ],
      "payable": false,
      "stateMutability": "nonpayable",
      "type": "function"
    },
    {
      "constant": false,
      "inputs": [],
      "name": "getVerifiedContractorsCount",
      "outputs": [
        {
          "name": "",
          "type": "uint256"
        }
      ],
      "payable": false,
      "stateMutability": "nonpayable",
      "type": "function"
    },
    {
      "inputs": [],
      "payable": false,
      "stateMutability": "nonpayable",
      "type": "constructor"
    }
  ],
  "bytecode": "0x6060604052341561000f57600080fd5b6109e38061001e6000396000f300606060405260043610610099576000357c0100000000000000000000000000000000000000000000000000000000900463ffffffff168063059ce95d1461009e57806310163b67146100d45780636103681a146100fd5780636c542bc7146101335780637844adae14610155578063b6e4fa8e1461018b578063cac9986d146101ad578063d4450661146101d6578063f50c75d5146101ff575b600080fd5b34156100a957600080fd5b6100be60046100b990369061079b565b610228565b6040516100cb91906108b1565b60405180910390f35b34156100df57600080fd5b6100e7610291565b6040516100f491906108cc565b60405180910390f35b341561010857600080fd5b61011d600461011890369061079b565b610325565b60405161012a91906108ee565b60405180910390f35b341561013e57600080fd5b610153600461014e9036906107c4565b61037b565b005b341561016057600080fd5b6101756004610170903690610800565b6104b8565b60405161018291906108b1565b60405180910390f35b341561019657600080fd5b6101ab60046101a690369061079b565b6105a3565b005b34156101b857600080fd5b6101c0610661565b6040516101cd9190610909565b60405180910390f35b34156101e157600080fd5b6101e961066d565b6040516101f691906108cc565b60405180910390f35b341561020a57600080fd5b610212610701565b60405161021f9190610909565b60405180910390f35b6000600360008373ffffffffffffffffffffffffffffffffffffffff1673ffffffffffffffffffffffffffffffffffffffff16815260200190815260200160002060009054906101000a900473ffffffffffffffffffffffffffffffffffffffff169050919050565b61029961070e565b600080548060200260200160405190810160405280929190818152602001828054801561031b57602002820191906000526020600020905b8160009054906101000a900473ffffffffffffffffffffffffffffffffffffffff1673ffffffffffffffffffffffffffffffffffffffff16815260200190600101908083116102d1575b5050505050905090565b6000600260008373ffffffffffffffffffffffffffffffffffffffff1673ffffffffffffffffffffffffffffffffffffffff16815260200190815260200160002060009054906101000a900460ff169050919050565b6001805480600101828161038f9190610722565b9160005260206000209001600084909190916101000a81548173ffffffffffffffffffffffffffffffffffffffff021916908373ffffffffffffffffffffffffffffffffffffffff160217905550506001600260008473ffffffffffffffffffffffffffffffffffffffff1673ffffffffffffffffffffffffffffffffffffffff16815260200190815260200160002060006101000a81548160ff02191690831515021790555080600360008473ffffffffffffffffffffffffffffffffffffffff1673ffffffffffffffffffffffffffffffffffffffff16815260200190815260200160002060006101000a81548173ffffffffffffffffffffffffffffffffffffffff021916908373ffffffffffffffffffffffffffffffffffffffff1602179055505050565b600080805490508211156104cb57600080fd5b6002600080848154811015156104dd57fe5b906000526020600020900160009054906101000a900473ffffffffffffffffffffffffffffffffffffffff1673ffffffffffffffffffffffffffffffffffffffff1673ffffffffffffffffffffffffffffffffffffffff16815260200190815260200160002060009054906101000a900460ff1615156105995760008281548110151561056657fe5b906000526020600020900160009054906101000a900473ffffffffffffffffffffffffffffffffffffffff16905061059e565b600080fd5b919050565b600080548060010182816105b79190610722565b9160005260206000209001600083909190916101000a81548173ffffffffffffffffffffffffffffffffffffffff021916908373ffffffffffffffffffffffffffffffffffffffff160217905550506000600260008373ffffffffffffffffffffffffffffffffffffffff1673ffffffffffffffffffffffffffffffffffffffff16815260200190815260200160002060006101000a81548160ff02191690831515021790555050565b60008080549050905090565b61067561070e565b60018054806020026020016040519081016040528092919081815260200182805480156106f757602002820191906000526020600020905b8160009054906101000a900473ffffffffffffffffffffffffffffffffffffffff1673ffffffffffffffffffffffffffffffffffffffff16815260200190600101908083116106ad575b5050505050905090565b6000600180549050905090565b602060405190810160405280600081525090565b81548183558181151161074957818360005260206000209182019101610748919061074e565b5b505050565b61077091905b8082111561076c576000816000905550600101610754565b5090565b90565b600061077f823561097f565b905092915050565b6000610793823561099f565b905092915050565b6000602082840312156107ad57600080fd5b60006107bb84828501610773565b91505092915050565b600080604083850312156107d757600080fd5b60006107e585828601610773565b92505060206107f685828601610773565b9150509250929050565b60006020828403121561081257600080fd5b600061082084828501610787565b91505092915050565b61083281610949565b82525050565b600061084382610931565b80845260208401935061085583610924565b60005b828110156108875761086b868351610829565b6108748261093c565b9150602086019550600181019050610858565b50849250505092915050565b61089c81610969565b82525050565b6108ab81610975565b82525050565b60006020820190506108c66000830184610829565b92915050565b600060208201905081810360008301526108e68184610838565b905092915050565b60006020820190506109036000830184610893565b92915050565b600060208201905061091e60008301846108a2565b92915050565b6000602082019050919050565b600081519050919050565b6000602082019050919050565b600073ffffffffffffffffffffffffffffffffffffffff82169050919050565b60008115159050919050565b6000819050919050565b600073ffffffffffffffffffffffffffffffffffffffff82169050919050565b60008190509190505600a265627a7a72305820f390594d40ab3aff8211d9dcac61458f444509600bb21ba5a5fa8b5f693de7016c6578706572696d656e74616cf50037",
  "source": "pragma solidity ^0.4.20;\npragma experimental ABIEncoderV2;\n\n\ncontract ContractorRepo {\n    address[] contractors; //all contractors verified + unverified\n    address[] verifiedContractors;\n    //address[] unverifiedContractors;\n    \n    mapping (address=>bool) verifiedStatus; //false => unverified, true => verified\n    mapping (address=>address) contratorToVerifier;\n\n    function ContractorRepo() public {\n\n    }\n\n    function newContractor(address contractorAddress) public {\n        contractors.push(contractorAddress);\n        verifiedStatus[contractorAddress] = false;\n    }\n\n    function verifyContractor(address contractorAddress, address verifierAddress) public {\n        verifiedContractors.push(contractorAddress);\n        verifiedStatus[contractorAddress] = true;\n        contratorToVerifier[contractorAddress] = verifierAddress;\n    }\n\n    function getVerifiedContractorsCount() public returns (uint256) {\n        return verifiedContractors.length;\n    }\n        \n    function getVerifiedContractors() public returns (address[]) {\n        return verifiedContractors;\n    }\n\n    function getVerifier(address contractorAddress) public returns (address) {\n        return contratorToVerifier[contractorAddress];\n    }\n\n    function getContractors() public returns (address[]) {\n        return contractors;\n    }\n\n    function getContractorsCount() public returns (uint256) {\n        return contractors.length;\n    }\n\n    function getVerificationStatus(address contractorAddress) returns (bool) {\n        return verifiedStatus[contractorAddress];\n    }\n    \n    function getUnverifiedContractors(uint256 index) public returns (address) {\n        //loop at web3\n        if (index > contractors.length) revert();\n        if (!verifiedStatus[contractors[index]]) {\n            return contractors[index]; \n        }\n        revert();\n    }\n}",
  "sourcePath": "/home/scoco/Desktop/TenderSystem---Blockchain/contracts/ContractorRepo.sol",
  "compiler": {
    "name": "solc",
    "version": "0.4.20+commit.3155dd80.Emscripten.clang"
  },
  "schemaVersion": "1.0.1",
  "updatedAt": "2018-03-19T22:39:54.619Z"
}