{
  "contractName": "ContractRepo",
  "abi": [
    {
      "constant": true,
      "inputs": [
        {
          "name": "index",
          "type": "uint256"
        }
      ],
      "name": "getOngoingContracts",
      "outputs": [
        {
          "name": "",
          "type": "address"
        }
      ],
      "payable": false,
      "stateMutability": "view",
      "type": "function"
    },
    {
      "constant": true,
      "inputs": [
        {
          "name": "",
          "type": "uint256"
        }
      ],
      "name": "contractAddress",
      "outputs": [
        {
          "name": "",
          "type": "address"
        }
      ],
      "payable": false,
      "stateMutability": "view",
      "type": "function"
    },
    {
      "constant": true,
      "inputs": [],
      "name": "getAllContracts",
      "outputs": [
        {
          "name": "",
          "type": "address[]"
        }
      ],
      "payable": false,
      "stateMutability": "view",
      "type": "function"
    },
    {
      "constant": true,
      "inputs": [],
      "name": "getCompletedContracts",
      "outputs": [
        {
          "name": "",
          "type": "address[]"
        }
      ],
      "payable": false,
      "stateMutability": "view",
      "type": "function"
    },
    {
      "constant": true,
      "inputs": [],
      "name": "getContractCount",
      "outputs": [
        {
          "name": "",
          "type": "uint256"
        }
      ],
      "payable": false,
      "stateMutability": "view",
      "type": "function"
    },
    {
      "constant": true,
      "inputs": [
        {
          "name": "",
          "type": "uint256"
        }
      ],
      "name": "completedContracts",
      "outputs": [
        {
          "name": "",
          "type": "address"
        }
      ],
      "payable": false,
      "stateMutability": "view",
      "type": "function"
    },
    {
      "constant": true,
      "inputs": [
        {
          "name": "",
          "type": "address"
        }
      ],
      "name": "contractMapping",
      "outputs": [
        {
          "name": "",
          "type": "uint8"
        }
      ],
      "payable": false,
      "stateMutability": "view",
      "type": "function"
    },
    {
      "constant": false,
      "inputs": [
        {
          "name": "contractToAppend",
          "type": "address"
        }
      ],
      "name": "addToContracts",
      "outputs": [
        {
          "name": "",
          "type": "bool"
        }
      ],
      "payable": false,
      "stateMutability": "nonpayable",
      "type": "function"
    },
    {
      "constant": false,
      "inputs": [
        {
          "name": "contractAddress",
          "type": "address"
        }
      ],
      "name": "updateContractStatusToComplete",
      "outputs": [],
      "payable": false,
      "stateMutability": "nonpayable",
      "type": "function"
    },
    {
      "inputs": [],
      "payable": false,
      "stateMutability": "nonpayable",
      "type": "constructor"
    }
  ],
  "bytecode": "0x6060604052341561000f57600080fd5b61099e8061001e6000396000f300606060405260043610610099576000357c0100000000000000000000000000000000000000000000000000000000900463ffffffff1680630d0eec091461009e57806313c01368146100d457806318d3ce961461010a5780638db7a68f146101335780639399869d1461015c578063a475c3e714610185578063cd107444146101bb578063ea86abc3146101f1578063fd17c99e14610227575b600080fd5b34156100a957600080fd5b6100be60046100b9903690610769565b610249565b6040516100cb9190610829565b60405180910390f35b34156100df57600080fd5b6100f460046100ef903690610769565b61034c565b6040516101019190610829565b60405180910390f35b341561011557600080fd5b61011d61038b565b60405161012a9190610844565b60405180910390f35b341561013e57600080fd5b61014661041f565b6040516101539190610844565b60405180910390f35b341561016757600080fd5b61016f6104b3565b60405161017c919061089c565b60405180910390f35b341561019057600080fd5b6101a560046101a0903690610769565b6104bf565b6040516101b29190610829565b60405180910390f35b34156101c657600080fd5b6101db60046101d6903690610740565b6104fe565b6040516101e89190610881565b60405180910390f35b34156101fc57600080fd5b610211600461020c903690610740565b61051e565b60405161021e9190610866565b60405180910390f35b341561023257600080fd5b6102476004610242903690610740565b6105ec565b005b6000808054905082111561025c57600080fd5b6000600181111561026957fe5b60026000808581548110151561027b57fe5b906000526020600020900160009054906101000a900473ffffffffffffffffffffffffffffffffffffffff1673ffffffffffffffffffffffffffffffffffffffff1673ffffffffffffffffffffffffffffffffffffffff16815260200190815260200160002060009054906101000a900460ff1660018111156102fa57fe5b14156103425760008281548110151561030f57fe5b906000526020600020900160009054906101000a900473ffffffffffffffffffffffffffffffffffffffff169050610347565b600080fd5b919050565b60008181548110151561035b57fe5b90600052602060002090016000915054906101000a900473ffffffffffffffffffffffffffffffffffffffff1681565b6103936106b3565b600080548060200260200160405190810160405280929190818152602001828054801561041557602002820191906000526020600020905b8160009054906101000a900473ffffffffffffffffffffffffffffffffffffffff1673ffffffffffffffffffffffffffffffffffffffff16815260200190600101908083116103cb575b5050505050905090565b6104276106b3565b60018054806020026020016040519081016040528092919081815260200182805480156104a957602002820191906000526020600020905b8160009054906101000a900473ffffffffffffffffffffffffffffffffffffffff1673ffffffffffffffffffffffffffffffffffffffff168152602001906001019080831161045f575b5050505050905090565b60008080549050905090565b6001818154811015156104ce57fe5b90600052602060002090016000915054906101000a900473ffffffffffffffffffffffffffffffffffffffff1681565b60026020528060005260406000206000915054906101000a900460ff1681565b600080805480600101828161053391906106c7565b9160005260206000209001600084909190916101000a81548173ffffffffffffffffffffffffffffffffffffffff021916908373ffffffffffffffffffffffffffffffffffffffff160217905550506000600260008473ffffffffffffffffffffffffffffffffffffffff1673ffffffffffffffffffffffffffffffffffffffff16815260200190815260200160002060006101000a81548160ff021916908360018111156105de57fe5b021790555060019050919050565b6001600260008373ffffffffffffffffffffffffffffffffffffffff1673ffffffffffffffffffffffffffffffffffffffff16815260200190815260200160002060006101000a81548160ff0219169083600181111561064857fe5b02179055506001805480600101828161066191906106c7565b9160005260206000209001600083909190916101000a81548173ffffffffffffffffffffffffffffffffffffffff021916908373ffffffffffffffffffffffffffffffffffffffff1602179055505050565b602060405190810160405280600081525090565b8154818355818115116106ee578183600052602060002091820191016106ed91906106f3565b5b505050565b61071591905b808211156107115760008160009055506001016106f9565b5090565b90565b60006107248235610928565b905092915050565b60006107388235610948565b905092915050565b60006020828403121561075257600080fd5b600061076084828501610718565b91505092915050565b60006020828403121561077b57600080fd5b60006107898482850161072c565b91505092915050565b61079b816108dc565b82525050565b60006107ac826108c4565b8084526020840193506107be836108b7565b60005b828110156107f0576107d4868351610792565b6107dd826108cf565b91506020860195506001810190506107c1565b50849250505092915050565b610805816108fc565b82525050565b61081481610952565b82525050565b6108238161091e565b82525050565b600060208201905061083e6000830184610792565b92915050565b6000602082019050818103600083015261085e81846107a1565b905092915050565b600060208201905061087b60008301846107fc565b92915050565b6000602082019050610896600083018461080b565b92915050565b60006020820190506108b1600083018461081a565b92915050565b6000602082019050919050565b600081519050919050565b6000602082019050919050565b600073ffffffffffffffffffffffffffffffffffffffff82169050919050565b60008115159050919050565b600060028210151561091657fe5b819050919050565b6000819050919050565b600073ffffffffffffffffffffffffffffffffffffffff82169050919050565b6000819050919050565b600061095d82610908565b90509190505600a265627a7a72305820b522d7e59de813dedd27654f1e291764e4a4e3655307eb11290bef17400d19456c6578706572696d656e74616cf50037",
  "source": "pragma solidity ^0.4.20;\npragma experimental ABIEncoderV2;\n\n\ncontract ContractRepo {\n    address[] public contractAddress;\n    address[] public completedContracts; //used for quick access to Completed Contracts\n\n    enum ContractStatus {\n        onGoing,\n        complete\n    }\n\n    mapping (address=>ContractStatus) public contractMapping;\n\n    function ContractRepo() public {\n\n    }\n\n    function addToContracts(address contractToAppend) public returns (bool) {\n        contractAddress.push(contractToAppend);\n        contractMapping[contractToAppend] = ContractStatus.onGoing;\n        return true;\n    }\n\n    function getAllContracts() public view returns (address[]) {\n        return contractAddress;\n    }\n\n    function getContractCount() public view returns (uint256) {\n        return contractAddress.length;\n    }\n\n    function getOngoingContracts(uint256 index) public view returns (address) {\n        //loop at web3\n        if (index > contractAddress.length) revert();\n        if (contractMapping[contractAddress[index]] == ContractStatus.onGoing) {\n            return contractAddress[index]; \n        }\n        revert();\n    }\n\n    function getCompletedContracts() public view returns (address[]) {\n        return completedContracts;\n    }\n\n    function updateContractStatusToComplete(address contractAddress) public {\n        contractMapping[contractAddress] = ContractStatus.complete;\n        completedContracts.push(contractAddress);\n    }\n\n}",
  "sourcePath": "/home/scoco/Desktop/TenderSystem---Blockchain/contracts/ContractRepo.sol",
  "compiler": {
    "name": "solc",
    "version": "0.4.20+commit.3155dd80.Emscripten.clang"
  },
  "schemaVersion": "1.0.1",
  "updatedAt": "2018-03-20T23:00:43.340Z"
}