{
  "contractName": "ContractRepo",
  "abi": [
    {
      "constant": true,
      "inputs": [
        {
          "name": "index",
          "type": "uint256"
        }
      ],
      "name": "getOngoingContracts",
      "outputs": [
        {
          "name": "",
          "type": "address"
        }
      ],
      "payable": false,
      "stateMutability": "view",
      "type": "function"
    },
    {
      "constant": true,
      "inputs": [
        {
          "name": "",
          "type": "uint256"
        }
      ],
      "name": "contractAddress",
      "outputs": [
        {
          "name": "",
          "type": "address"
        }
      ],
      "payable": false,
      "stateMutability": "view",
      "type": "function"
    },
    {
      "constant": true,
      "inputs": [],
      "name": "getAllContracts",
      "outputs": [
        {
          "name": "",
          "type": "address[]"
        }
      ],
      "payable": false,
      "stateMutability": "view",
      "type": "function"
    },
    {
      "constant": true,
      "inputs": [],
      "name": "getCompletedContracts",
      "outputs": [
        {
          "name": "",
          "type": "address[]"
        }
      ],
      "payable": false,
      "stateMutability": "view",
      "type": "function"
    },
    {
      "constant": true,
      "inputs": [],
      "name": "getContractCount",
      "outputs": [
        {
          "name": "",
          "type": "uint256"
        }
      ],
      "payable": false,
      "stateMutability": "view",
      "type": "function"
    },
    {
      "constant": true,
      "inputs": [
        {
          "name": "",
          "type": "uint256"
        }
      ],
      "name": "completedContracts",
      "outputs": [
        {
          "name": "",
          "type": "address"
        }
      ],
      "payable": false,
      "stateMutability": "view",
      "type": "function"
    },
    {
      "constant": true,
      "inputs": [
        {
          "name": "",
          "type": "address"
        }
      ],
      "name": "contractMapping",
      "outputs": [
        {
          "name": "",
          "type": "uint8"
        }
      ],
      "payable": false,
      "stateMutability": "view",
      "type": "function"
    },
    {
      "constant": false,
      "inputs": [
        {
          "name": "contractToAppend",
          "type": "address"
        }
      ],
      "name": "addToContracts",
      "outputs": [],
      "payable": false,
      "stateMutability": "nonpayable",
      "type": "function"
    },
    {
      "constant": false,
      "inputs": [
        {
          "name": "contractAddress",
          "type": "address"
        }
      ],
      "name": "updateContractStatusToComplete",
      "outputs": [],
      "payable": false,
      "stateMutability": "nonpayable",
      "type": "function"
    },
    {
      "inputs": [],
      "payable": false,
      "stateMutability": "nonpayable",
      "type": "constructor"
    }
  ],
  "bytecode": "0x6060604052341561000f57600080fd5b61094d8061001e6000396000f300606060405260043610610099576000357c0100000000000000000000000000000000000000000000000000000000900463ffffffff1680630d0eec091461009e57806313c01368146100d457806318d3ce961461010a5780638db7a68f146101335780639399869d1461015c578063a475c3e714610185578063cd107444146101bb578063ea86abc3146101f1578063fd17c99e14610213575b600080fd5b34156100a957600080fd5b6100be60046100b990369061074e565b610235565b6040516100cb91906107ff565b60405180910390f35b34156100df57600080fd5b6100f460046100ef90369061074e565b610338565b60405161010191906107ff565b60405180910390f35b341561011557600080fd5b61011d610377565b60405161012a919061081a565b60405180910390f35b341561013e57600080fd5b61014661040b565b604051610153919061081a565b60405180910390f35b341561016757600080fd5b61016f61049f565b60405161017c9190610857565b60405180910390f35b341561019057600080fd5b6101a560046101a090369061074e565b6104ab565b6040516101b291906107ff565b60405180910390f35b34156101c657600080fd5b6101db60046101d6903690610725565b6104ea565b6040516101e8919061083c565b60405180910390f35b34156101fc57600080fd5b610211600461020c903690610725565b61050a565b005b341561021e57600080fd5b610233600461022e903690610725565b6105d1565b005b6000808054905082111561024857600080fd5b6000600181111561025557fe5b60026000808581548110151561026757fe5b906000526020600020900160009054906101000a900473ffffffffffffffffffffffffffffffffffffffff1673ffffffffffffffffffffffffffffffffffffffff1673ffffffffffffffffffffffffffffffffffffffff16815260200190815260200160002060009054906101000a900460ff1660018111156102e657fe5b141561032e576000828154811015156102fb57fe5b906000526020600020900160009054906101000a900473ffffffffffffffffffffffffffffffffffffffff169050610333565b600080fd5b919050565b60008181548110151561034757fe5b90600052602060002090016000915054906101000a900473ffffffffffffffffffffffffffffffffffffffff1681565b61037f610698565b600080548060200260200160405190810160405280929190818152602001828054801561040157602002820191906000526020600020905b8160009054906101000a900473ffffffffffffffffffffffffffffffffffffffff1673ffffffffffffffffffffffffffffffffffffffff16815260200190600101908083116103b7575b5050505050905090565b610413610698565b600180548060200260200160405190810160405280929190818152602001828054801561049557602002820191906000526020600020905b8160009054906101000a900473ffffffffffffffffffffffffffffffffffffffff1673ffffffffffffffffffffffffffffffffffffffff168152602001906001019080831161044b575b5050505050905090565b60008080549050905090565b6001818154811015156104ba57fe5b90600052602060002090016000915054906101000a900473ffffffffffffffffffffffffffffffffffffffff1681565b60026020528060005260406000206000915054906101000a900460ff1681565b6000805480600101828161051e91906106ac565b9160005260206000209001600083909190916101000a81548173ffffffffffffffffffffffffffffffffffffffff021916908373ffffffffffffffffffffffffffffffffffffffff160217905550506000600260008373ffffffffffffffffffffffffffffffffffffffff1673ffffffffffffffffffffffffffffffffffffffff16815260200190815260200160002060006101000a81548160ff021916908360018111156105c957fe5b021790555050565b6001600260008373ffffffffffffffffffffffffffffffffffffffff1673ffffffffffffffffffffffffffffffffffffffff16815260200190815260200160002060006101000a81548160ff0219169083600181111561062d57fe5b02179055506001805480600101828161064691906106ac565b9160005260206000209001600083909190916101000a81548173ffffffffffffffffffffffffffffffffffffffff021916908373ffffffffffffffffffffffffffffffffffffffff1602179055505050565b602060405190810160405280600081525090565b8154818355818115116106d3578183600052602060002091820191016106d291906106d8565b5b505050565b6106fa91905b808211156106f65760008160009055506001016106de565b5090565b90565b600061070982356108d7565b905092915050565b600061071d82356108f7565b905092915050565b60006020828403121561073757600080fd5b6000610745848285016106fd565b91505092915050565b60006020828403121561076057600080fd5b600061076e84828501610711565b91505092915050565b61078081610897565b82525050565b60006107918261087f565b8084526020840193506107a383610872565b60005b828110156107d5576107b9868351610777565b6107c28261088a565b91506020860195506001810190506107a6565b50849250505092915050565b6107ea81610901565b82525050565b6107f9816108cd565b82525050565b60006020820190506108146000830184610777565b92915050565b600060208201905081810360008301526108348184610786565b905092915050565b600060208201905061085160008301846107e1565b92915050565b600060208201905061086c60008301846107f0565b92915050565b6000602082019050919050565b600081519050919050565b6000602082019050919050565b600073ffffffffffffffffffffffffffffffffffffffff82169050919050565b60006002821015156108c557fe5b819050919050565b6000819050919050565b600073ffffffffffffffffffffffffffffffffffffffff82169050919050565b6000819050919050565b600061090c826108b7565b90509190505600a265627a7a723058200906fc6fb317dead9eecaae4d8e05de749d857248708312be98b4b856545786c6c6578706572696d656e74616cf50037",
  "source": "pragma solidity ^0.4.20;\npragma experimental ABIEncoderV2;\n\n\ncontract ContractRepo {\n    address[] public contractAddress;\n    address[] public completedContracts; //used for quick access to Completed Contracts\n\n    enum ContractStatus {\n        onGoing,\n        complete\n    }\n\n    mapping (address => ContractStatus) public contractMapping;\n\n    function ContractRepo() public {\n\n    }\n\n    function addToContracts(address contractToAppend) public {\n        contractAddress.push(contractToAppend);\n        contractMapping[contractToAppend] = ContractStatus.onGoing;\n    }\n\n    function getAllContracts() public view returns (address[]) {\n        return contractAddress;\n    }\n\n    function getContractCount() public view returns (uint256) {\n        return contractAddress.length;\n    }\n\n    function getOngoingContracts(uint256 index) public view returns (address) {\n        //loop at web3\n        if (index > contractAddress.length) revert();\n        if (contractMapping[contractAddress[index]] == ContractStatus.onGoing) {\n            return contractAddress[index]; \n        }\n        revert();\n    }\n\n    function getCompletedContracts() public view returns (address[]) {\n        return completedContracts;\n    }\n\n    function updateContractStatusToComplete(address contractAddress) public {\n        contractMapping[contractAddress] = ContractStatus.complete;\n        completedContracts.push(contractAddress);\n    }\n\n}",
  "sourcePath": "/home/scoco/Desktop/TenderSystem---Blockchain/contracts/ContractRepo.sol",
  "compiler": {
    "name": "solc",
    "version": "0.4.20+commit.3155dd80.Emscripten.clang"
  },
  "schemaVersion": "1.0.1",
  "updatedAt": "2018-03-19T22:39:54.611Z"
}