{
  "contractName": "ContractorRepo",
  "abi": [
    {
      "constant": false,
      "inputs": [
        {
          "name": "contractorAddress",
          "type": "address"
        }
      ],
      "name": "getVerifier",
      "outputs": [
        {
          "name": "",
          "type": "address"
        }
      ],
      "payable": false,
      "stateMutability": "nonpayable",
      "type": "function"
    },
    {
      "constant": false,
      "inputs": [],
      "name": "getContractors",
      "outputs": [
        {
          "name": "",
          "type": "address[]"
        }
      ],
      "payable": false,
      "stateMutability": "nonpayable",
      "type": "function"
    },
    {
      "constant": false,
      "inputs": [
        {
          "name": "walletAddress",
          "type": "address"
        },
        {
          "name": "nodeAddress",
          "type": "address"
        }
      ],
      "name": "mapWalletAddressToNode",
      "outputs": [],
      "payable": false,
      "stateMutability": "nonpayable",
      "type": "function"
    },
    {
      "constant": false,
      "inputs": [
        {
          "name": "walletAddress",
          "type": "address"
        },
        {
          "name": "nodeAddress",
          "type": "address"
        }
      ],
      "name": "newContractor",
      "outputs": [
        {
          "name": "",
          "type": "bool"
        }
      ],
      "payable": false,
      "stateMutability": "nonpayable",
      "type": "function"
    },
    {
      "constant": false,
      "inputs": [
        {
          "name": "contractorAddress",
          "type": "address"
        }
      ],
      "name": "getVerificationStatus",
      "outputs": [
        {
          "name": "",
          "type": "bool"
        }
      ],
      "payable": false,
      "stateMutability": "nonpayable",
      "type": "function"
    },
    {
      "constant": false,
      "inputs": [
        {
          "name": "contractorAddress",
          "type": "address"
        },
        {
          "name": "verifierAddress",
          "type": "address"
        }
      ],
      "name": "verifyContractor",
      "outputs": [],
      "payable": false,
      "stateMutability": "nonpayable",
      "type": "function"
    },
    {
      "constant": false,
      "inputs": [
        {
          "name": "index",
          "type": "uint256"
        }
      ],
      "name": "getUnverifiedContractors",
      "outputs": [
        {
          "name": "",
          "type": "address"
        }
      ],
      "payable": false,
      "stateMutability": "nonpayable",
      "type": "function"
    },
    {
      "constant": false,
      "inputs": [],
      "name": "getContractorsCount",
      "outputs": [
        {
          "name": "",
          "type": "uint256"
        }
      ],
      "payable": false,
      "stateMutability": "nonpayable",
      "type": "function"
    },
    {
      "constant": false,
      "inputs": [],
      "name": "getVerifiedContractors",
      "outputs": [
        {
          "name": "",
          "type": "address[]"
        }
      ],
      "payable": false,
      "stateMutability": "nonpayable",
      "type": "function"
    },
    {
      "constant": true,
      "inputs": [
        {
          "name": "",
          "type": "address"
        }
      ],
      "name": "walletAddressToNode",
      "outputs": [
        {
          "name": "",
          "type": "address"
        }
      ],
      "payable": false,
      "stateMutability": "view",
      "type": "function"
    },
    {
      "constant": false,
      "inputs": [],
      "name": "getVerifiedContractorsCount",
      "outputs": [
        {
          "name": "",
          "type": "uint256"
        }
      ],
      "payable": false,
      "stateMutability": "nonpayable",
      "type": "function"
    },
    {
      "inputs": [],
      "payable": false,
      "stateMutability": "nonpayable",
      "type": "constructor"
    }
  ],
  "bytecode": "0x6060604052341561000f57600080fd5b610b2c8061001e6000396000f3006060604052600436106100af576000357c0100000000000000000000000000000000000000000000000000000000900463ffffffff168063059ce95d146100b457806310163b67146100ea57806323ff85f914610113578063492e4475146101355780636103681a1461016b5780636c542bc7146101a15780637844adae146101c3578063cac9986d146101f9578063d445066114610222578063e544a7fd1461024b578063f50c75d514610281575b600080fd5b34156100bf57600080fd5b6100d460046100cf9036906108e4565b6102aa565b6040516100e191906109fa565b60405180910390f35b34156100f557600080fd5b6100fd610313565b60405161010a9190610a15565b60405180910390f35b341561011e57600080fd5b610133600461012e90369061090d565b6103a7565b005b341561014057600080fd5b610155600461015090369061090d565b610429565b6040516101629190610a37565b60405180910390f35b341561017657600080fd5b61018b60046101869036906108e4565b6104f9565b6040516101989190610a37565b60405180910390f35b34156101ac57600080fd5b6101c160046101bc90369061090d565b61054f565b005b34156101ce57600080fd5b6101e360046101de903690610949565b61068c565b6040516101f091906109fa565b60405180910390f35b341561020457600080fd5b61020c610777565b6040516102199190610a52565b60405180910390f35b341561022d57600080fd5b610235610783565b6040516102429190610a15565b60405180910390f35b341561025657600080fd5b61026b60046102669036906108e4565b610817565b60405161027891906109fa565b60405180910390f35b341561028c57600080fd5b61029461084a565b6040516102a19190610a52565b60405180910390f35b6000600360008373ffffffffffffffffffffffffffffffffffffffff1673ffffffffffffffffffffffffffffffffffffffff16815260200190815260200160002060009054906101000a900473ffffffffffffffffffffffffffffffffffffffff169050919050565b61031b610857565b600080548060200260200160405190810160405280929190818152602001828054801561039d57602002820191906000526020600020905b8160009054906101000a900473ffffffffffffffffffffffffffffffffffffffff1673ffffffffffffffffffffffffffffffffffffffff1681526020019060010190808311610353575b5050505050905090565b80600460008473ffffffffffffffffffffffffffffffffffffffff1673ffffffffffffffffffffffffffffffffffffffff16815260200190815260200160002060006101000a81548173ffffffffffffffffffffffffffffffffffffffff021916908373ffffffffffffffffffffffffffffffffffffffff1602179055505050565b600080805480600101828161043e919061086b565b9160005260206000209001600084909190916101000a81548173ffffffffffffffffffffffffffffffffffffffff021916908373ffffffffffffffffffffffffffffffffffffffff160217905550506000600260008473ffffffffffffffffffffffffffffffffffffffff1673ffffffffffffffffffffffffffffffffffffffff16815260200190815260200160002060006101000a81548160ff0219169083151502179055506104ef83836103a7565b6001905092915050565b6000600260008373ffffffffffffffffffffffffffffffffffffffff1673ffffffffffffffffffffffffffffffffffffffff16815260200190815260200160002060009054906101000a900460ff169050919050565b60018054806001018281610563919061086b565b9160005260206000209001600084909190916101000a81548173ffffffffffffffffffffffffffffffffffffffff021916908373ffffffffffffffffffffffffffffffffffffffff160217905550506001600260008473ffffffffffffffffffffffffffffffffffffffff1673ffffffffffffffffffffffffffffffffffffffff16815260200190815260200160002060006101000a81548160ff02191690831515021790555080600360008473ffffffffffffffffffffffffffffffffffffffff1673ffffffffffffffffffffffffffffffffffffffff16815260200190815260200160002060006101000a81548173ffffffffffffffffffffffffffffffffffffffff021916908373ffffffffffffffffffffffffffffffffffffffff1602179055505050565b6000808054905082111561069f57600080fd5b6002600080848154811015156106b157fe5b906000526020600020900160009054906101000a900473ffffffffffffffffffffffffffffffffffffffff1673ffffffffffffffffffffffffffffffffffffffff1673ffffffffffffffffffffffffffffffffffffffff16815260200190815260200160002060009054906101000a900460ff16151561076d5760008281548110151561073a57fe5b906000526020600020900160009054906101000a900473ffffffffffffffffffffffffffffffffffffffff169050610772565b600080fd5b919050565b60008080549050905090565b61078b610857565b600180548060200260200160405190810160405280929190818152602001828054801561080d57602002820191906000526020600020905b8160009054906101000a900473ffffffffffffffffffffffffffffffffffffffff1673ffffffffffffffffffffffffffffffffffffffff16815260200190600101908083116107c3575b5050505050905090565b60046020528060005260406000206000915054906101000a900473ffffffffffffffffffffffffffffffffffffffff1681565b6000600180549050905090565b602060405190810160405280600081525090565b815481835581811511610892578183600052602060002091820191016108919190610897565b5b505050565b6108b991905b808211156108b557600081600090555060010161089d565b5090565b90565b60006108c88235610ac8565b905092915050565b60006108dc8235610ae8565b905092915050565b6000602082840312156108f657600080fd5b6000610904848285016108bc565b91505092915050565b6000806040838503121561092057600080fd5b600061092e858286016108bc565b925050602061093f858286016108bc565b9150509250929050565b60006020828403121561095b57600080fd5b6000610969848285016108d0565b91505092915050565b61097b81610a92565b82525050565b600061098c82610a7a565b80845260208401935061099e83610a6d565b60005b828110156109d0576109b4868351610972565b6109bd82610a85565b91506020860195506001810190506109a1565b50849250505092915050565b6109e581610ab2565b82525050565b6109f481610abe565b82525050565b6000602082019050610a0f6000830184610972565b92915050565b60006020820190508181036000830152610a2f8184610981565b905092915050565b6000602082019050610a4c60008301846109dc565b92915050565b6000602082019050610a6760008301846109eb565b92915050565b6000602082019050919050565b600081519050919050565b6000602082019050919050565b600073ffffffffffffffffffffffffffffffffffffffff82169050919050565b60008115159050919050565b6000819050919050565b600073ffffffffffffffffffffffffffffffffffffffff82169050919050565b60008190509190505600a265627a7a72305820680694b08c3b33ca5a8e92dbd95af955195f2fb5ccdacf7bf95abfd5fd9fa8dd6c6578706572696d656e74616cf50037",
  "source": "pragma solidity ^0.4.20;\npragma experimental ABIEncoderV2;\n\n\ncontract ContractorRepo {\n    address[] contractors; //all contractors verified + unverified\n    address[] verifiedContractors;\n    //address[] unverifiedContractors;\n    \n    mapping (address=>bool) verifiedStatus; //false => unverified, true => verified\n    mapping (address=>address) contratorToVerifier;\n    mapping (address=>address) public walletAddressToNode;\n\n\n    function ContractorRepo() public {\n\n    }\n\n    function newContractor(address walletAddress, address nodeAddress) public returns (bool) {\n        contractors.push(nodeAddress);\n        verifiedStatus[nodeAddress] = false;\n        mapWalletAddressToNode(walletAddress,nodeAddress);\n        return true;\n    }\n\n    function mapWalletAddressToNode(address walletAddress, address nodeAddress) public {\n        walletAddressToNode[walletAddress] = nodeAddress;\n    }\n\n    function verifyContractor(address contractorAddress, address verifierAddress) public {\n        verifiedContractors.push(contractorAddress);\n        verifiedStatus[contractorAddress] = true;\n        contratorToVerifier[contractorAddress] = verifierAddress;\n    }\n\n    function getVerifiedContractorsCount() public returns (uint256) {\n        return verifiedContractors.length;\n    }\n        \n    function getVerifiedContractors() public returns (address[]) {\n        return verifiedContractors;\n    }\n\n    function getVerifier(address contractorAddress) public returns (address) {\n        return contratorToVerifier[contractorAddress];\n    }\n\n    function getContractors() public returns (address[]) {\n        return contractors;\n    }\n\n    function getContractorsCount() public returns (uint256) {\n        return contractors.length;\n    }\n\n    function getVerificationStatus(address contractorAddress) returns (bool) {\n        return verifiedStatus[contractorAddress];\n    }\n    \n    function getUnverifiedContractors(uint256 index) public returns (address) {\n        //loop at web3\n        if (index > contractors.length) revert();\n        if (!verifiedStatus[contractors[index]]) {\n            return contractors[index]; \n        }\n        revert();\n    }\n}",
  "sourcePath": "/home/scoco/Desktop/TenderSystem---Blockchain/contracts/ContractorRepo.sol",
  "compiler": {
    "name": "solc",
    "version": "0.4.20+commit.3155dd80.Emscripten.clang"
  },
  "schemaVersion": "1.0.1",
  "updatedAt": "2018-03-20T23:00:43.346Z"
}