{
  "contractName": "Contract",
  "abi": [
    {
      "constant": true,
      "inputs": [
        {
          "name": "",
          "type": "uint256"
        }
      ],
      "name": "constraints",
      "outputs": [
        {
          "name": "",
          "type": "string"
        }
      ],
      "payable": false,
      "stateMutability": "view",
      "type": "function"
    },
    {
      "constant": true,
      "inputs": [],
      "name": "creationDate",
      "outputs": [
        {
          "name": "",
          "type": "uint256"
        }
      ],
      "payable": false,
      "stateMutability": "view",
      "type": "function"
    },
    {
      "constant": true,
      "inputs": [
        {
          "name": "index",
          "type": "uint256"
        }
      ],
      "name": "getTask",
      "outputs": [
        {
          "name": "",
          "type": "string"
        },
        {
          "name": "",
          "type": "uint256"
        },
        {
          "name": "",
          "type": "uint256"
        },
        {
          "name": "",
          "type": "uint8"
        },
        {
          "name": "",
          "type": "uint256"
        }
      ],
      "payable": false,
      "stateMutability": "view",
      "type": "function"
    },
    {
      "constant": false,
      "inputs": [
        {
          "name": "_contractName",
          "type": "string"
        },
        {
          "name": "_finalQuotationAmount",
          "type": "uint256"
        },
        {
          "name": "_taskDescription",
          "type": "string[]"
        },
        {
          "name": "_deadlineForEachTask",
          "type": "uint256[]"
        },
        {
          "name": "_amountForEachTask",
          "type": "uint256[]"
        },
        {
          "name": "_reviewtime",
          "type": "uint256"
        }
      ],
      "name": "setContractAdvanced",
      "outputs": [],
      "payable": true,
      "stateMutability": "payable",
      "type": "function"
    },
    {
      "constant": false,
      "inputs": [
        {
          "name": "_taskIndex",
          "type": "uint256"
        }
      ],
      "name": "taskCompletedByContractor",
      "outputs": [],
      "payable": false,
      "stateMutability": "nonpayable",
      "type": "function"
    },
    {
      "constant": true,
      "inputs": [],
      "name": "getContractAdvanced",
      "outputs": [
        {
          "name": "",
          "type": "string"
        },
        {
          "name": "",
          "type": "uint256"
        },
        {
          "name": "",
          "type": "string[]"
        }
      ],
      "payable": false,
      "stateMutability": "view",
      "type": "function"
    },
    {
      "constant": false,
      "inputs": [
        {
          "name": "_taskIndex",
          "type": "uint256"
        }
      ],
      "name": "withdrawForTask",
      "outputs": [
        {
          "name": "",
          "type": "bool"
        }
      ],
      "payable": false,
      "stateMutability": "nonpayable",
      "type": "function"
    },
    {
      "constant": true,
      "inputs": [],
      "name": "governmentOfficerAddress",
      "outputs": [
        {
          "name": "",
          "type": "address"
        }
      ],
      "payable": false,
      "stateMutability": "view",
      "type": "function"
    },
    {
      "constant": false,
      "inputs": [
        {
          "name": "_taskIndex",
          "type": "uint256"
        }
      ],
      "name": "verifyTask",
      "outputs": [
        {
          "name": "",
          "type": "bool"
        }
      ],
      "payable": false,
      "stateMutability": "nonpayable",
      "type": "function"
    },
    {
      "constant": true,
      "inputs": [],
      "name": "contractName",
      "outputs": [
        {
          "name": "",
          "type": "string"
        }
      ],
      "payable": false,
      "stateMutability": "view",
      "type": "function"
    },
    {
      "constant": true,
      "inputs": [],
      "name": "getCompletionDate",
      "outputs": [
        {
          "name": "",
          "type": "uint256"
        }
      ],
      "payable": false,
      "stateMutability": "view",
      "type": "function"
    },
    {
      "constant": true,
      "inputs": [
        {
          "name": "",
          "type": "uint256"
        }
      ],
      "name": "tasks",
      "outputs": [
        {
          "name": "description",
          "type": "string"
        },
        {
          "name": "deadlineTime",
          "type": "uint256"
        },
        {
          "name": "amount",
          "type": "uint256"
        },
        {
          "name": "status",
          "type": "uint8"
        },
        {
          "name": "completionTime",
          "type": "uint256"
        }
      ],
      "payable": false,
      "stateMutability": "view",
      "type": "function"
    },
    {
      "constant": true,
      "inputs": [],
      "name": "governmentOfficerVerified",
      "outputs": [
        {
          "name": "",
          "type": "bool"
        }
      ],
      "payable": false,
      "stateMutability": "view",
      "type": "function"
    },
    {
      "constant": false,
      "inputs": [
        {
          "name": "_governmentOfficerAddress",
          "type": "address"
        },
        {
          "name": "_contractorAddress",
          "type": "address"
        },
        {
          "name": "_tenderId",
          "type": "string"
        },
        {
          "name": "_completionDate",
          "type": "uint256"
        },
        {
          "name": "_constraints",
          "type": "string[]"
        }
      ],
      "name": "setContractBasic",
      "outputs": [],
      "payable": true,
      "stateMutability": "payable",
      "type": "function"
    },
    {
      "constant": true,
      "inputs": [],
      "name": "getContractBasic",
      "outputs": [
        {
          "name": "",
          "type": "string"
        },
        {
          "name": "",
          "type": "address"
        },
        {
          "name": "",
          "type": "address"
        },
        {
          "name": "",
          "type": "string"
        },
        {
          "name": "",
          "type": "uint256"
        },
        {
          "name": "",
          "type": "uint256"
        }
      ],
      "payable": false,
      "stateMutability": "view",
      "type": "function"
    },
    {
      "constant": true,
      "inputs": [],
      "name": "completionDate",
      "outputs": [
        {
          "name": "",
          "type": "uint256"
        }
      ],
      "payable": false,
      "stateMutability": "view",
      "type": "function"
    },
    {
      "constant": true,
      "inputs": [],
      "name": "contractorAddress",
      "outputs": [
        {
          "name": "",
          "type": "address"
        }
      ],
      "payable": false,
      "stateMutability": "view",
      "type": "function"
    },
    {
      "constant": true,
      "inputs": [],
      "name": "getContractName",
      "outputs": [
        {
          "name": "",
          "type": "string"
        }
      ],
      "payable": false,
      "stateMutability": "view",
      "type": "function"
    },
    {
      "constant": true,
      "inputs": [],
      "name": "getNumberOfTasks",
      "outputs": [
        {
          "name": "",
          "type": "uint256"
        }
      ],
      "payable": false,
      "stateMutability": "view",
      "type": "function"
    },
    {
      "inputs": [],
      "payable": false,
      "stateMutability": "nonpayable",
      "type": "constructor"
    }
  ],
  "bytecode": "0x6060604052341561000f57600080fd5b611c328061001e6000396000f300606060405260043610610107576000357c0100000000000000000000000000000000000000000000000000000000900463ffffffff168063041f624f1461010c57806305b34410146101425780631d65e77e1461016b5780632e498b90146101a55780633e959bc8146101bc57806344e446a4146101de57806345bf2d2c1461020957806346d722e71461023f5780635573e3ef1461026857806375d0c0dc1461029e5780638a2cfcc4146102c75780638d977672146102f0578063a783fd921461032a578063a837520214610353578063c2f218b91461036a578063e87870b614610398578063f21376af146103c1578063f5f5ba72146103ea578063f6397fd314610413575b600080fd5b341561011757600080fd5b61012c6004610127903690611639565b61043c565b6040516101399190611834565b60405180910390f35b341561014d57600080fd5b6101556104f8565b60405161016291906119e0565b60405180910390f35b341561017657600080fd5b61018b6004610186903690611639565b6104fe565b60405161019c95949392919061192c565b60405180910390f35b6101ba60046101b5903690611550565b61066c565b005b34156101c757600080fd5b6101dc60046101d7903690611639565b61084c565b005b34156101e957600080fd5b6101f16108ae565b604051610200939291906118e7565b60405180910390f35b341561021457600080fd5b6102296004610224903690611639565b610a52565b6040516102369190611819565b60405180910390f35b341561024a57600080fd5b610252610aba565b60405161025f91906117fe565b60405180910390f35b341561027357600080fd5b6102886004610283903690611639565b610adf565b6040516102959190611819565b60405180910390f35b34156102a957600080fd5b6102b1610b43565b6040516102be9190611834565b60405180910390f35b34156102d257600080fd5b6102da610be1565b6040516102e791906119e0565b60405180910390f35b34156102fb57600080fd5b610310600461030b903690611639565b610beb565b604051610321959493929190611986565b60405180910390f35b341561033557600080fd5b61033d610c3c565b60405161034a9190611819565b60405180910390f35b61036860046103639036906114a9565b610c4f565b005b341561037557600080fd5b61037d610d13565b60405161038f96959493929190611878565b60405180910390f35b34156103a357600080fd5b6103ab610ec4565b6040516103b891906119e0565b60405180910390f35b34156103cc57600080fd5b6103d4610eca565b6040516103e191906117fe565b60405180910390f35b34156103f557600080fd5b6103fd610ef0565b60405161040a9190611856565b60405180910390f35b341561041e57600080fd5b610426610f98565b60405161043391906119e0565b60405180910390f35b60058181548110151561044b57fe5b90600052602060002090016000915090508054600181600116156101000203166002900480601f0160208091040260200160405190810160405280929190818152602001828054600181600116156101000203166002900480156104f05780601f106104c5576101008083540402835291602001916104f0565b820191906000526020600020905b8154815290600101906020018083116104d357829003601f168201915b505050505081565b60035481565b610506610fa5565b600080600080600a8681548110151561051b57fe5b9060005260206000209060050201600001600a8781548110151561053b57fe5b906000526020600020906005020160010154600a8881548110151561055c57fe5b906000526020600020906005020160020154600a8981548110151561057d57fe5b906000526020600020906005020160030160009054906101000a900460ff16600a8a8154811015156105ab57fe5b906000526020600020906005020160040154848054600181600116156101000203166002900480601f0160208091040260200160405190810160405280929190818152602001828054600181600116156101000203166002900480156106525780601f1061062757610100808354040283529160200191610652565b820191906000526020600020905b81548152906001019060200180831161063557829003601f168201915b505050505094509450945094509450945091939590929450565b60008060008860089080519060200190610687929190610fb9565b508760068190555060009250600091505b865182101561081b57600a8080548091906001016106b69190611039565b8154811015156106c257fe5b9060005260206000209060050201905086828151811015156106e057fe5b90602001906020020151816000019080519060200190610701929190610fb9565b50858281518110151561071057fe5b906020019060200201518160010181905550848281518110151561073057fe5b906020019060200201518160020181905550670de0b6b3a76400008160020154028301925060008160030160006101000a81548160ff0219169083600481111561077657fe5b02179055508060096000848152602001908152602001600020600082018160000190805460018160011615610100020316600290046107b692919061106b565b5060018201548160010155600282015481600201556003820160009054906101000a900460ff168160030160006101000a81548160ff021916908360048111156107fc57fe5b0217905550600482015481600401559050508180600101925050610698565b670de0b6b3a7640000340283111561083257600080fd5b60065483111561084157600080fd5b505050505050505050565b6000600160009054906101000a900473ffffffffffffffffffffffffffffffffffffffff1673ffffffffffffffffffffffffffffffffffffffff163373ffffffffffffffffffffffffffffffffffffffff161415156108aa57600080fd5b5050565b6108b6610fa5565b60006108c06110f2565b60086006546005828054600181600116156101000203166002900480601f01602080910402602001604051908101604052809291908181526020018280546001816001161561010002031660029004801561095c5780601f106109315761010080835404028352916020019161095c565b820191906000526020600020905b81548152906001019060200180831161093f57829003601f168201915b5050505050925080805480602002602001604051908101604052809291908181526020016000905b82821015610a4157838290600052602060002090018054600181600116156101000203166002900480601f016020809104026020016040519081016040528092919081815260200182805460018160011615610100020316600290048015610a2d5780601f10610a0257610100808354040283529160200191610a2d565b820191906000526020600020905b815481529060010190602001808311610a1057829003601f168201915b505050505081526020019060010190610984565b505050509050925092509250909192565b6000806000600160009054906101000a900473ffffffffffffffffffffffffffffffffffffffff1673ffffffffffffffffffffffffffffffffffffffff163373ffffffffffffffffffffffffffffffffffffffff16141515610ab357600080fd5b5050919050565b6000809054906101000a900473ffffffffffffffffffffffffffffffffffffffff1681565b6000806000809054906101000a900473ffffffffffffffffffffffffffffffffffffffff1673ffffffffffffffffffffffffffffffffffffffff163373ffffffffffffffffffffffffffffffffffffffff16141515610b3d57600080fd5b50919050565b60088054600181600116156101000203166002900480601f016020809104026020016040519081016040528092919081815260200182805460018160011615610100020316600290048015610bd95780601f10610bae57610100808354040283529160200191610bd9565b820191906000526020600020905b815481529060010190602001808311610bbc57829003601f168201915b505050505081565b6000600454905090565b600a81815481101515610bfa57fe5b906000526020600020906005020160009150905080600001908060010154908060020154908060030160009054906101000a900460ff16908060040154905085565b600760009054906101000a900460ff1681565b846000806101000a81548173ffffffffffffffffffffffffffffffffffffffff021916908373ffffffffffffffffffffffffffffffffffffffff16021790555083600160006101000a81548173ffffffffffffffffffffffffffffffffffffffff021916908373ffffffffffffffffffffffffffffffffffffffff1602179055508260029080519060200190610ce6929190610fb9565b508060059080519060200190610cfd929190611106565b5042600381905550816004819055505050505050565b610d1b610fa5565b600080610d26610fa5565b60008060086000809054906101000a900473ffffffffffffffffffffffffffffffffffffffff16600160009054906101000a900473ffffffffffffffffffffffffffffffffffffffff166002600354600454858054600181600116156101000203166002900480601f016020809104026020016040519081016040528092919081815260200182805460018160011615610100020316600290048015610e0d5780601f10610de257610100808354040283529160200191610e0d565b820191906000526020600020905b815481529060010190602001808311610df057829003601f168201915b50505050509550828054600181600116156101000203166002900480601f016020809104026020016040519081016040528092919081815260200182805460018160011615610100020316600290048015610ea95780601f10610e7e57610100808354040283529160200191610ea9565b820191906000526020600020905b815481529060010190602001808311610e8c57829003601f168201915b50505050509250955095509550955095509550909192939495565b60045481565b600160009054906101000a900473ffffffffffffffffffffffffffffffffffffffff1681565b610ef8610fa5565b60088054600181600116156101000203166002900480601f016020809104026020016040519081016040528092919081815260200182805460018160011615610100020316600290048015610f8e5780601f10610f6357610100808354040283529160200191610f8e565b820191906000526020600020905b815481529060010190602001808311610f7157829003601f168201915b5050505050905090565b6000600a80549050905090565b602060405190810160405280600081525090565b828054600181600116156101000203166002900490600052602060002090601f016020900481019282601f10610ffa57805160ff1916838001178555611028565b82800160010185558215611028579182015b8281111561102757825182559160200191906001019061100c565b5b5090506110359190611166565b5090565b81548183558181151161106657600502816005028360005260206000209182019101611065919061118b565b5b505050565b828054600181600116156101000203166002900490600052602060002090601f016020900481019282601f106110a457805485556110e1565b828001600101855582156110e157600052602060002091601f016020900482015b828111156110e05782548255916001019190600101906110c5565b5b5090506110ee9190611166565b5090565b602060405190810160405280600081525090565b828054828255906000526020600020908101928215611155579160200282015b828111156111545782518290805190602001906111449291906111e6565b5091602001919060010190611126565b5b5090506111629190611266565b5090565b61118891905b8082111561118457600081600090555060010161116c565b5090565b90565b6111e391905b808211156111df57600080820160006111aa9190611292565b600182016000905560028201600090556003820160006101000a81549060ff0219169055600482016000905550600501611191565b5090565b90565b828054600181600116156101000203166002900490600052602060002090601f016020900481019282601f1061122757805160ff1916838001178555611255565b82800160010185558215611255579182015b82811115611254578251825591602001919060010190611239565b5b5090506112629190611166565b5090565b61128f91905b8082111561128b57600081816112829190611292565b5060010161126c565b5090565b90565b50805460018160011615610100020316600290046000825580601f106112b857506112d7565b601f0160209004906000526020600020908101906112d69190611166565b5b50565b60006112e68235611b69565b905092915050565b600082601f830112151561130157600080fd5b813561131461130f82611a28565b6119fb565b9150818183526020840193506020810190508360005b8381101561135a578135860161134088826113e9565b84526020840193506020830192505060018101905061132a565b5050505092915050565b600082601f830112151561137757600080fd5b813561138a61138582611a50565b6119fb565b915081818352602084019350602081019050838560208402820111156113af57600080fd5b60005b838110156113df57816113c58882611495565b8452602084019350602083019250506001810190506113b2565b5050505092915050565b600082601f83011215156113fc57600080fd5b813561140f61140a82611a78565b6119fb565b9150808252602083016020830185838301111561142b57600080fd5b611436838284611ba5565b50505092915050565b600082601f830112151561145257600080fd5b813561146561146082611aa4565b6119fb565b9150808252602083016020830185838301111561148157600080fd5b61148c838284611ba5565b50505092915050565b60006114a18235611b89565b905092915050565b600080600080600060a086880312156114c157600080fd5b60006114cf888289016112da565b95505060206114e0888289016112da565b945050604086013567ffffffffffffffff8111156114fd57600080fd5b6115098882890161143f565b935050606061151a88828901611495565b925050608086013567ffffffffffffffff81111561153757600080fd5b611543888289016112ee565b9150509295509295909350565b60008060008060008060c0878903121561156957600080fd5b600087013567ffffffffffffffff81111561158357600080fd5b61158f89828a0161143f565b96505060206115a089828a01611495565b955050604087013567ffffffffffffffff8111156115bd57600080fd5b6115c989828a016112ee565b945050606087013567ffffffffffffffff8111156115e657600080fd5b6115f289828a01611364565b935050608087013567ffffffffffffffff81111561160f57600080fd5b61161b89828a01611364565b92505060a061162c89828a01611495565b9150509295509295509295565b60006020828403121561164b57600080fd5b600061165984828501611495565b91505092915050565b61166b81611b1d565b82525050565b600061167c82611aef565b8084526020840193508360208202850161169585611ad0565b60005b848110156116ce5783830388526116b0838351611733565b92506116bb82611b10565b9150602088019750600181019050611698565b508196508694505050505092915050565b6116e881611b3d565b82525050565b6116f781611b93565b82525050565b600061170882611b05565b80845261171c816020860160208601611bb4565b61172581611be7565b602085010191505092915050565b600061173e82611afa565b808452611752816020860160208601611bb4565b61175b81611be7565b602085010191505092915050565b60008154600181166000811461178657600181146117a6576117e7565b607f600283041680865260ff1983166020870152604086019350506117e7565b600282048086526020860195506117bc85611add565b60005b828110156117de578154818901526001820191506020810190506117bf565b80880195505050505b505092915050565b6117f881611b5f565b82525050565b60006020820190506118136000830184611662565b92915050565b600060208201905061182e60008301846116df565b92915050565b6000602082019050818103600083015261184e8184611733565b905092915050565b6000602082019050818103600083015261187081846116fd565b905092915050565b600060c082019050818103600083015261189281896116fd565b90506118a16020830188611662565b6118ae6040830187611662565b81810360608301526118c081866116fd565b90506118cf60808301856117ef565b6118dc60a08301846117ef565b979650505050505050565b6000606082019050818103600083015261190181866116fd565b905061191060208301856117ef565b81810360408301526119228184611671565b9050949350505050565b600060a082019050818103600083015261194681886116fd565b905061195560208301876117ef565b61196260408301866117ef565b61196f60608301856116ee565b61197c60808301846117ef565b9695505050505050565b600060a08201905081810360008301526119a08188611769565b90506119af60208301876117ef565b6119bc60408301866117ef565b6119c960608301856116ee565b6119d660808301846117ef565b9695505050505050565b60006020820190506119f560008301846117ef565b92915050565b6000604051905081810181811067ffffffffffffffff82111715611a1e57600080fd5b8060405250919050565b600067ffffffffffffffff821115611a3f57600080fd5b602082029050602081019050919050565b600067ffffffffffffffff821115611a6757600080fd5b602082029050602081019050919050565b600067ffffffffffffffff821115611a8f57600080fd5b601f19601f8301169050602081019050919050565b600067ffffffffffffffff821115611abb57600080fd5b601f19601f8301169050602081019050919050565b6000602082019050919050565b60008160005260206000209050919050565b600081519050919050565b600081519050919050565b600081519050919050565b6000602082019050919050565b600073ffffffffffffffffffffffffffffffffffffffff82169050919050565b60008115159050919050565b6000600582101515611b5757fe5b819050919050565b6000819050919050565b600073ffffffffffffffffffffffffffffffffffffffff82169050919050565b6000819050919050565b6000611b9e82611b49565b9050919050565b82818337600083830152505050565b60005b83811015611bd2578082015181840152602081019050611bb7565b83811115611be1576000848401525b50505050565b6000601f19601f83011690509190505600a265627a7a72305820188eccf48da829d3973baa22afa407103e7f830017f44ca85a5fea458fb8830b6c6578706572696d656e74616cf50037",
  "source": "pragma solidity ^0.4.20;\r\npragma experimental ABIEncoderV2;\r\n\r\n\r\ncontract Contract {   \r\n    address public governmentOfficerAddress;\r\n    address public contractorAddress;\r\n    string tenderId;\r\n    uint public creationDate;\r\n    uint public completionDate;\r\n    string[] public constraints;\r\n    uint finalQuotationAmount;\r\n    //address public specialOfficerAddress;\r\n\r\n    bool public governmentOfficerVerified;\r\n    //bool public specialOfficerVerified;\r\n\r\n    string public contractName;\r\n\r\n    mapping (uint=>Task) private taskIndexMapping;\r\n    \r\n    struct Task {\r\n        string description;\r\n        uint deadlineTime;\r\n        uint amount; \r\n        TaskStatus status;\r\n        uint completionTime; \r\n    }\r\n\r\n    enum TaskStatus {\r\n        pending,\r\n        reportedComplete,\r\n        partiallyVerified,\r\n        complete,\r\n        contractorPaid\r\n    }\r\n\r\n    Task[] public tasks;\r\n\r\n    modifier onlyGovernmentOfficer {\r\n        if (msg.sender != governmentOfficerAddress) {\r\n            revert();\r\n            _;\r\n        }\r\n    }\r\n\r\n    modifier onlyContractor {\r\n        if (msg.sender != contractorAddress) {\r\n            revert();\r\n            _;\r\n        }\r\n    }\r\n\r\n    // modifier onlySpecialOfficer {\r\n    //     if (msg.sender != specialOfficerAddress) {\r\n    //         revert();\r\n    //         _;\r\n    //     }\r\n    // }\r\n\r\n    function Contract() public {\r\n\r\n    }\r\n    \r\n    function setContractBasic (\r\n        address _governmentOfficerAddress, \r\n        address _contractorAddress, \r\n        string _tenderId,\r\n        uint _completionDate,\r\n        string[] _constraints\r\n        ) public payable {\r\n        governmentOfficerAddress = _governmentOfficerAddress;\r\n        contractorAddress = _contractorAddress;\r\n        tenderId = _tenderId;\r\n        constraints = _constraints;\r\n        creationDate = now;\r\n        completionDate = _completionDate;\r\n    }\r\n\r\n    function setContractAdvanced (\r\n        string _contractName, \r\n        uint _finalQuotationAmount,\r\n        string[] _taskDescription, \r\n        uint[] _deadlineForEachTask, \r\n        uint[] _amountForEachTask, \r\n        uint _reviewtime) public payable {\r\n        \r\n        contractName = _contractName;\r\n        finalQuotationAmount = _finalQuotationAmount;\r\n        uint totalAmount = 0;\r\n        for (uint i=0; i < _taskDescription.length; i++) {\r\n            Task storage task = tasks[tasks.length++];\r\n            task.description = _taskDescription[i];\r\n            task.deadlineTime = _deadlineForEachTask[i];\r\n            task.amount = _amountForEachTask[i];\r\n            totalAmount += task.amount*(1 ether);\r\n            task.status = TaskStatus.pending;\r\n            taskIndexMapping[i] = task;\r\n        }\r\n        if (totalAmount > msg.value*(1 ether)) {\r\n            revert();\r\n        }\r\n        if (totalAmount > finalQuotationAmount) {\r\n            revert();\r\n        }\r\n        //ContractDeployed();\r\n    }\r\n\r\n    function getContractBasic() public view returns (string, address, address, string,\r\n    uint, uint) {\r\n        return (contractName, governmentOfficerAddress, contractorAddress, tenderId,\r\n        creationDate, completionDate);\r\n    }\r\n\r\n    function getContractAdvanced() public view returns (string, uint, string[]) {\r\n        return (contractName, finalQuotationAmount, \r\n        constraints);\r\n    }\r\n\r\n    function getContractName() public view returns (string) {\r\n        return contractName;\r\n    }\r\n\r\n    function getCompletionDate() public view returns (uint) {\r\n        return completionDate;\r\n    }\r\n\r\n    function getNumberOfTasks() public view returns (uint) {\r\n        return tasks.length;\r\n    }\r\n\r\n    function getTask(uint256 index) public view returns (string, uint, uint, TaskStatus, uint) {\r\n        return (tasks[index].description, tasks[index].deadlineTime, tasks[index].amount,\r\n        tasks[index].status, tasks[index].completionTime);\r\n    }\r\n\r\n    function taskCompletedByContractor(uint _taskIndex) public onlyContractor {\r\n        if (_taskIndex >= tasks.length) revert();\r\n        Task storage task = tasks[_taskIndex];\r\n\r\n        if (msg.sender != contractorAddress) revert();\r\n        if (task.status != TaskStatus.pending) revert();\r\n        if (now > task.deadlineTime) revert();\r\n        task.status = TaskStatus.reportedComplete;\r\n        task.completionTime = now;\r\n        //eventToFire\r\n    }\r\n\r\n    function verifyTask(uint _taskIndex) public onlyGovernmentOfficer returns (bool) {\r\n        if (_taskIndex >= tasks.length) revert();\r\n        Task storage task = tasks[_taskIndex];\r\n\r\n        if (task.status != TaskStatus.reportedComplete) revert();\r\n        if (msg.sender == governmentOfficerAddress) {\r\n            governmentOfficerVerified = true;\r\n            task.status = TaskStatus.complete;\r\n            return true;\r\n        // }else if (msg.sender == specialOfficerAddress) {\r\n        //     specialOfficerVerified = true;\r\n        //     task.status = TaskStatus.partiallyVerified;\r\n        // }\r\n        }else {\r\n            revert();\r\n        }\r\n\r\n        // if (governmentOfficerVerified && specialOfficerVerified) {\r\n        //     task.status = TaskStatus.complete;\r\n        // }\r\n    }\r\n\r\n    function withdrawForTask(uint _taskIndex) public onlyContractor returns (bool) {\r\n        if (_taskIndex >= tasks.length) revert();\r\n        Task storage task = tasks[_taskIndex];\r\n\r\n        if (msg.sender != contractorAddress) revert();\r\n        if (task.status != TaskStatus.complete) revert();\r\n\r\n        uint amount = task.amount*(1 ether);\r\n        task.status = TaskStatus.contractorPaid;\r\n        msg.sender.transfer(amount);\r\n        return true;\r\n    }\r\n}\r\n",
  "sourcePath": "/home/scoco/Desktop/TenderSystem---Blockchain/contracts/Contract.sol",
  "compiler": {
    "name": "solc",
    "version": "0.4.20+commit.3155dd80.Emscripten.clang"
  },
  "schemaVersion": "1.0.1",
  "updatedAt": "2018-03-20T23:00:43.327Z"
}