{
  "contractName": "Contractor",
  "abi": [
    {
      "constant": false,
      "inputs": [
        {
          "name": "_walletAddress",
          "type": "address"
        },
        {
          "name": "_email",
          "type": "string"
        },
        {
          "name": "_name",
          "type": "string"
        },
        {
          "name": "_phoneNumber",
          "type": "string"
        },
        {
          "name": "_panNumber",
          "type": "string"
        },
        {
          "name": "_gstNumber",
          "type": "string"
        }
      ],
      "name": "setContractor",
      "outputs": [],
      "payable": false,
      "stateMutability": "nonpayable",
      "type": "function"
    },
    {
      "inputs": [],
      "payable": false,
      "stateMutability": "nonpayable",
      "type": "constructor"
    }
  ],
  "bytecode": "0x6060604052341561000f57600080fd5b6103f58061001e6000396000f300606060405260043610610041576000357c0100000000000000000000000000000000000000000000000000000000900463ffffffff168063dfeb3cf814610046575b600080fd5b341561005157600080fd5b6100666004610061903690610232565b610068565b005b856000806101000a81548173ffffffffffffffffffffffffffffffffffffffff021916908373ffffffffffffffffffffffffffffffffffffffff16021790555083600190805190602001906100be929190610123565b5084600290805190602001906100d5929190610123565b5082600390805190602001906100ec929190610123565b508160049080519060200190610103929190610123565b50806005908051906020019061011a929190610123565b50505050505050565b828054600181600116156101000203166002900490600052602060002090601f016020900481019282601f1061016457805160ff1916838001178555610192565b82800160010185558215610192579182015b82811115610191578251825591602001919060010190610176565b5b50905061019f91906101a3565b5090565b6101c591905b808211156101c15760008160009055506001016101a9565b5090565b90565b60006101d4823561038c565b905092915050565b600082601f83011215156101ef57600080fd5b81356102026101fd82610360565b610333565b9150808252602083016020830185838301111561021e57600080fd5b6102298382846103ac565b50505092915050565b60008060008060008060c0878903121561024b57600080fd5b600061025989828a016101c8565b965050602087013567ffffffffffffffff81111561027657600080fd5b61028289828a016101dc565b955050604087013567ffffffffffffffff81111561029f57600080fd5b6102ab89828a016101dc565b945050606087013567ffffffffffffffff8111156102c857600080fd5b6102d489828a016101dc565b935050608087013567ffffffffffffffff8111156102f157600080fd5b6102fd89828a016101dc565b92505060a087013567ffffffffffffffff81111561031a57600080fd5b61032689828a016101dc565b9150509295509295509295565b6000604051905081810181811067ffffffffffffffff8211171561035657600080fd5b8060405250919050565b600067ffffffffffffffff82111561037757600080fd5b601f19601f8301169050602081019050919050565b600073ffffffffffffffffffffffffffffffffffffffff82169050919050565b828183376000838301525050505600a265627a7a7230582019de21cd2ad152c9863bb9c083e63db8a726f77b09d14a0020f9bf98f7a4cb1b6c6578706572696d656e74616cf50037",
  "source": "pragma solidity ^0.4.20;\npragma experimental ABIEncoderV2;\n\n\ncontract Contractor {\n\n    address walletAddress;\n    string name;\n    string email;\n    string phoneNumber;\n    string panNumber;\n    string gstNumber;\n\n    function Contractor() public {\n\n    }\n    \n    function setContractor(address _walletAddress, string _email, string _name,\n    string _phoneNumber, string _panNumber, string _gstNumber) public {\n        walletAddress = _walletAddress;\n        name = _name;\n        email = _email;\n        phoneNumber = _phoneNumber;\n        panNumber = _panNumber;\n        gstNumber = _gstNumber;\n    }\n}",
  "sourcePath": "/home/scoco/Desktop/TenderSystem---Blockchain/contracts/Contractor.sol",
  "compiler": {
    "name": "solc",
    "version": "0.4.20+commit.3155dd80.Emscripten.clang"
  },
  "schemaVersion": "1.0.1",
  "updatedAt": "2018-03-19T22:39:54.645Z"
}