{
  "contractName": "FactoryTender",
  "abi": [
    {
      "constant": false,
      "inputs": [
        {
          "name": "governmentOfficerAddress",
          "type": "address"
        },
        {
          "name": "tenderName",
          "type": "string"
        },
        {
          "name": "tenderId",
          "type": "string"
        },
        {
          "name": "bidSubmissionClosingDate",
          "type": "uint256"
        },
        {
          "name": "bidOpeningDate",
          "type": "uint256"
        },
        {
          "name": "covers",
          "type": "uint256"
        },
        {
          "name": "clauses",
          "type": "string[]"
        },
        {
          "name": "taskName",
          "type": "string[]"
        },
        {
          "name": "taskDays",
          "type": "uint256[]"
        },
        {
          "name": "constraints",
          "type": "string[]"
        }
      ],
      "name": "createTender",
      "outputs": [
        {
          "name": "",
          "type": "address"
        }
      ],
      "payable": false,
      "stateMutability": "nonpayable",
      "type": "function"
    },
    {
      "inputs": [],
      "payable": false,
      "stateMutability": "nonpayable",
      "type": "constructor"
    }
  ],
  "bytecode": "0x6060604052341561000f57600080fd5b6133418061001e6000396000f300606060405260043610610041576000357c0100000000000000000000000000000000000000000000000000000000900463ffffffff1680637db449b214610046575b600080fd5b341561005157600080fd5b6100666004610061903690610458565b61007c565b6040516100739190610725565b60405180910390f35b600080610087610228565b604051809103906000f080151561009d57600080fd5b90508073ffffffffffffffffffffffffffffffffffffffff1663d706f1c9308d8d8d8d8d6040518763ffffffff167c01000000000000000000000000000000000000000000000000000000000281526004016100fe969594939291906107a1565b600060405180830381600087803b151561011757600080fd5b6102c65a03f1151561012857600080fd5b5050508073ffffffffffffffffffffffffffffffffffffffff166340588921878787876040518563ffffffff167c01000000000000000000000000000000000000000000000000000000000281526004016101869493929190610740565b600060405180830381600087803b151561019f57600080fd5b6102c65a03f115156101b057600080fd5b505050600080548060010182816101c79190610238565b9160005260206000209001600083909190916101000a81548173ffffffffffffffffffffffffffffffffffffffff021916908373ffffffffffffffffffffffffffffffffffffffff16021790555050809150509a9950505050505050505050565b604051612909806109ff83390190565b81548183558181151161025f5781836000526020600020918201910161025e9190610264565b5b505050565b61028691905b8082111561028257600081600090555060010161026a565b5090565b90565b6000610295823561096f565b905092915050565b600082601f83011215156102b057600080fd5b81356102c36102be8261083d565b610810565b9150818183526020840193506020810190508360005b8381101561030957813586016102ef8882610398565b8452602084019350602083019250506001810190506102d9565b5050505092915050565b600082601f830112151561032657600080fd5b813561033961033482610865565b610810565b9150818183526020840193506020810190508385602084028201111561035e57600080fd5b60005b8381101561038e57816103748882610444565b845260208401935060208301925050600181019050610361565b5050505092915050565b600082601f83011215156103ab57600080fd5b81356103be6103b98261088d565b610810565b915080825260208301602083018583830111156103da57600080fd5b6103e58382846109ab565b50505092915050565b600082601f830112151561040157600080fd5b813561041461040f826108b9565b610810565b9150808252602083016020830185838301111561043057600080fd5b61043b8382846109ab565b50505092915050565b6000610450823561098f565b905092915050565b6000806000806000806000806000806101408b8d03121561047857600080fd5b60006104868d828e01610289565b9a505060208b013567ffffffffffffffff8111156104a357600080fd5b6104af8d828e016103ee565b99505060408b013567ffffffffffffffff8111156104cc57600080fd5b6104d88d828e016103ee565b98505060606104e98d828e01610444565b97505060806104fa8d828e01610444565b96505060a061050b8d828e01610444565b95505060c08b013567ffffffffffffffff81111561052857600080fd5b6105348d828e0161029d565b94505060e08b013567ffffffffffffffff81111561055157600080fd5b61055d8d828e0161029d565b9350506101008b013567ffffffffffffffff81111561057b57600080fd5b6105878d828e01610313565b9250506101208b013567ffffffffffffffff8111156105a557600080fd5b6105b18d828e0161029d565b9150509295989b9194979a5092959850565b6105cc81610945565b82525050565b60006105dd826108ff565b808452602084019350836020820285016105f6856108e5565b60005b8481101561062f5783830388526106118383516106e0565b925061061c8261092b565b91506020880197506001810190506105f9565b508196508694505050505092915050565b600061064b8261090a565b80845260208401935061065d836108f2565b60005b8281101561068f57610673868351610716565b61067c82610938565b9150602086019550600181019050610660565b50849250505092915050565b6106a481610999565b82525050565b60006106b582610920565b8084526106c98160208601602086016109ba565b6106d2816109ed565b602085010191505092915050565b60006106eb82610915565b8084526106ff8160208601602086016109ba565b610708816109ed565b602085010191505092915050565b61071f81610965565b82525050565b600060208201905061073a60008301846105c3565b92915050565b6000608082019050818103600083015261075a81876105d2565b9050818103602083015261076e81866105d2565b905081810360408301526107828185610640565b9050818103606083015261079681846105d2565b905095945050505050565b600060c0820190506107b6600083018961069b565b81810360208301526107c881886106aa565b905081810360408301526107dc81876106aa565b90506107eb6060830186610716565b6107f86080830185610716565b61080560a0830184610716565b979650505050505050565b6000604051905081810181811067ffffffffffffffff8211171561083357600080fd5b8060405250919050565b600067ffffffffffffffff82111561085457600080fd5b602082029050602081019050919050565b600067ffffffffffffffff82111561087c57600080fd5b602082029050602081019050919050565b600067ffffffffffffffff8211156108a457600080fd5b601f19601f8301169050602081019050919050565b600067ffffffffffffffff8211156108d057600080fd5b601f19601f8301169050602081019050919050565b6000602082019050919050565b6000602082019050919050565b600081519050919050565b600081519050919050565b600081519050919050565b600081519050919050565b6000602082019050919050565b6000602082019050919050565b600073ffffffffffffffffffffffffffffffffffffffff82169050919050565b6000819050919050565b600073ffffffffffffffffffffffffffffffffffffffff82169050919050565b6000819050919050565b60006109a482610945565b9050919050565b82818337600083830152505050565b60005b838110156109d85780820151818401526020810190506109bd565b838111156109e7576000848401525b50505050565b6000601f19601f830116905091905056006060604052341561000f57600080fd5b6128eb8061001e6000396000f300606060405260043610610133576000357c0100000000000000000000000000000000000000000000000000000000900463ffffffff168063041f624f14610138578063137396e41461016e57806334650fad1461019757806336e18778146101d057806340588921146101f957806346d722e71461021b578063482a77a6146102445780634a53deb41461027a578063528e830a146102b05780635644e44c146102d257806356554d82146103085780637376ade2146103365780637ca4a8791461036e57806395121ee1146103975780639b679bae146103c0578063b3c4c5bd146103e2578063c08cc02d1461040b578063ca6009be14610434578063cddab28b1461046a578063d706f1c91461048c578063e959c7b9146104ae578063e979c9b8146104d7578063ec12b1991461050f575b600080fd5b341561014357600080fd5b61015860046101539036906121c8565b61053b565b604051610165919061261a565b60405180910390f35b341561017957600080fd5b6101816105f7565b60405161018e919061263c565b60405180910390f35b34156101a257600080fd5b6101b760046101b29036906121c8565b6105fd565b6040516101c79493929190612544565b60405180910390f35b34156101db57600080fd5b6101e361099f565b6040516101f0919061261a565b60405180910390f35b341561020457600080fd5b6102196004610214903690612105565b610a3d565b005b341561022657600080fd5b61022e610a9f565b60405161023b919061243e565b60405180910390f35b341561024f57600080fd5b610264600461025f9036906121c8565b610ac4565b604051610271919061263c565b60405180910390f35b341561028557600080fd5b61029a60046102959036906121c8565b610ae8565b6040516102a7919061261a565b60405180910390f35b34156102bb57600080fd5b6102d060046102cb903690611f78565b610ba4565b005b34156102dd57600080fd5b6102f260046102ed903690611fa1565b610c08565b6040516102ff91906125ff565b60405180910390f35b341561031357600080fd5b61031b610dde565b60405161032d96959493929190612459565b60405180910390f35b341561034157600080fd5b61035660046103519036906121c8565b610f70565b604051610365939291906124ff565b60405180910390f35b341561037957600080fd5b61038161128d565b60405161038e919061263c565b60405180910390f35b34156103a257600080fd5b6103aa611293565b6040516103b7919061263c565b60405180910390f35b34156103cb57600080fd5b6103e060046103db9036906121c8565b61129d565b005b34156103ed57600080fd5b6103f56112c0565b604051610402919061263c565b60405180910390f35b341561041657600080fd5b61041e6112c6565b60405161042b919061263c565b60405180910390f35b341561043f57600080fd5b610454600461044f9036906121c8565b6112d3565b604051610461919061261a565b60405180910390f35b341561047557600080fd5b61048a6004610485903690611f78565b61138f565b005b341561049757600080fd5b6104ac60046104a790369061204c565b6113f3565b005b34156104b957600080fd5b6104c1611486565b6040516104ce919061261a565b60405180910390f35b34156104e257600080fd5b6104f760046104f29036906121c8565b611524565b604051610506939291906124c8565b60405180910390f35b341561051a57600080fd5b61052261158a565b604051610532949392919061259e565b60405180910390f35b60098181548110151561054a57fe5b90600052602060002090016000915090508054600181600116156101000203166002900480601f0160208091040260200160405190810160405280929190818152602001828054600181600116156101000203166002900480156105ef5780601f106105c4576101008083540402835291602001916105ef565b820191906000526020600020905b8154815290600101906020018083116105d257829003601f168201915b505050505081565b60055481565b6106056118be565b61060d6118d2565b60006106176118e6565b6000806106226118e6565b6000600281111561062f57fe5b600b8981548110151561063e57fe5b906000526020600020906006020160050160009054906101000a900460ff16600281111561066857fe5b14156107785782805480600101828161068191906118fa565b91600052602060002090016000600b8b81548110151561069d57fe5b906000526020600020906006020160040190919091509080546106c1929190611926565b5050600b888154811015156106d257fe5b906000526020600020906006020160000160009054906101000a900473ffffffffffffffffffffffffffffffffffffffff169150600b8881548110151561071557fe5b906000526020600020906006020160020180548060200260200160405190810160405280929190818152602001828054801561077057602002820191906000526020600020905b81548152602001906001019080831161075c575b505050505090505b600983838383805480602002602001604051908101604052809291908181526020016000905b8282101561085b57838290600052602060002090018054600181600116156101000203166002900480601f0160208091040260200160405190810160405280929190818152602001828054600181600116156101000203166002900480156108475780601f1061081c57610100808354040283529160200191610847565b820191906000526020600020905b81548152906001019060200180831161082a57829003601f168201915b50505050508152602001906001019061079e565b50505050935082805480602002602001604051908101604052809291908181526020016000905b828210156109875783829060005260206000209001805480602002602001604051908101604052809291908181526020016000905b8282101561097457838290600052602060002090018054600181600116156101000203166002900480601f0160208091040260200160405190810160405280929190818152602001828054600181600116156101000203166002900480156109605780601f1061093557610100808354040283529160200191610960565b820191906000526020600020905b81548152906001019060200180831161094357829003601f168201915b5050505050815260200190600101906108b7565b5050505081526020019060010190610882565b50505050925096509650965096505050509193509193565b60028054600181600116156101000203166002900480601f016020809104026020016040519081016040528092919081815260200182805460018160011615610100020316600290048015610a355780601f10610a0a57610100808354040283529160200191610a35565b820191906000526020600020905b815481529060010190602001808311610a1857829003601f168201915b505050505081565b8360069080519060200190610a53929190611996565b508260079080519060200190610a6a929190611996565b508160089080519060200190610a819291906119f6565b508060099080519060200190610a98929190611996565b5050505050565b6000809054906101000a900473ffffffffffffffffffffffffffffffffffffffff1681565b600881815481101515610ad357fe5b90600052602060002090016000915090505481565b600781815481101515610af757fe5b90600052602060002090016000915090508054600181600116156101000203166002900480601f016020809104026020016040519081016040528092919081815260200182805460018160011615610100020316600290048015610b9c5780601f10610b7157610100808354040283529160200191610b9c565b820191906000526020600020905b815481529060010190602001808311610b7f57829003601f168201915b505050505081565b6000600c60008373ffffffffffffffffffffffffffffffffffffffff1673ffffffffffffffffffffffffffffffffffffffff16815260200190815260200160002060006101000a81548160ff02191690836002811115610c0057fe5b021790555050565b600080600080600b808054809190600101610c239190611a43565b815481101515610c2f57fe5b90600052602060002090600602019250878360000160006101000a81548173ffffffffffffffffffffffffffffffffffffffff021916908373ffffffffffffffffffffffffffffffffffffffff160217905550600091505b8651821015610d46578682815181101515610c9e57fe5b906020019060200201518360010183815481101515610cb957fe5b90600052602060002090019080519060200190610cd7929190611a75565b508582815181101515610ce657fe5b906020019060200201518360020183815481101515610d0157fe5b9060005260206000209001819055508582815181101515610d1e57fe5b9060200190602002015183600301600082825401925050819055508180600101925050610c87565b600090505b8451811015610da9578482815181101515610d6257fe5b906020019060200201518360040183815481101515610d7d57fe5b90600052602060002090019080519060200190610d9b929190611a75565b508080600101915050610d4b565b60018360050160006101000a81548160ff02191690836002811115610dca57fe5b021790555060019350505050949350505050565b6000610de8611af5565b610df0611af5565b60008060008060009054906101000a900473ffffffffffffffffffffffffffffffffffffffff1660016002600354600454600554848054600181600116156101000203166002900480601f016020809104026020016040519081016040528092919081815260200182805460018160011615610100020316600290048015610eb95780601f10610e8e57610100808354040283529160200191610eb9565b820191906000526020600020905b815481529060010190602001808311610e9c57829003601f168201915b50505050509450838054600181600116156101000203166002900480601f016020809104026020016040519081016040528092919081815260200182805460018160011615610100020316600290048015610f555780601f10610f2a57610100808354040283529160200191610f55565b820191906000526020600020905b815481529060010190602001808311610f3857829003601f168201915b50505050509350955095509550955095509550909192939495565b610f786118be565b610f806118d2565b600080600060016002811115610f9257fe5b600b87815481101515610fa157fe5b906000526020600020906006020160050160009054906101000a900460ff166002811115610fcb57fe5b141561106a57818054806001018281610fe491906118fa565b91600052602060002090016000600b8981548110151561100057fe5b90600052602060002090600602016004019091909150908054611024929190611926565b5050600b8681548110151561103557fe5b906000526020600020906006020160000160009054906101000a900473ffffffffffffffffffffffffffffffffffffffff1690505b6009828282805480602002602001604051908101604052809291908181526020016000905b8282101561114c57838290600052602060002090018054600181600116156101000203166002900480601f0160208091040260200160405190810160405280929190818152602001828054600181600116156101000203166002900480156111385780601f1061110d57610100808354040283529160200191611138565b820191906000526020600020905b81548152906001019060200180831161111b57829003601f168201915b50505050508152602001906001019061108f565b50505050925081805480602002602001604051908101604052809291908181526020016000905b828210156112785783829060005260206000209001805480602002602001604051908101604052809291908181526020016000905b8282101561126557838290600052602060002090018054600181600116156101000203166002900480601f0160208091040260200160405190810160405280929190818152602001828054600181600116156101000203166002900480156112515780601f1061122657610100808354040283529160200191611251565b820191906000526020600020905b81548152906001019060200180831161123457829003601f168201915b5050505050815260200190600101906111a8565b5050505081526020019060010190611173565b50505050915094509450945050509193909250565b60035481565b6000600354905090565b600081141580156112b057506000600a54145b156112bd5780600a819055505b50565b60045481565b6000600b80549050905090565b6006818154811015156112e257fe5b90600052602060002090016000915090508054600181600116156101000203166002900480601f0160208091040260200160405190810160405280929190818152602001828054600181600116156101000203166002900480156113875780601f1061135c57610100808354040283529160200191611387565b820191906000526020600020905b81548152906001019060200180831161136a57829003601f168201915b505050505081565b6002600c60008373ffffffffffffffffffffffffffffffffffffffff1673ffffffffffffffffffffffffffffffffffffffff16815260200190815260200160002060006101000a81548160ff021916908360028111156113eb57fe5b021790555050565b856000806101000a81548173ffffffffffffffffffffffffffffffffffffffff021916908373ffffffffffffffffffffffffffffffffffffffff1602179055508460019080519060200190611449929190611a75565b508360029080519060200190611460929190611a75565b508260038190555081600481905550806005819055506000600a81905550505050505050565b60018054600181600116156101000203166002900480601f01602080910402602001604051908101604052809291908181526020018280546001816001161561010002031660029004801561151c5780601f106114f15761010080835404028352916020019161151c565b820191906000526020600020905b8154815290600101906020018083116114ff57829003601f168201915b505050505081565b600b8181548110151561153357fe5b90600052602060002090600602016000915090508060000160009054906101000a900473ffffffffffffffffffffffffffffffffffffffff16908060030154908060050160009054906101000a900460ff16905083565b6115926118be565b61159a6118be565b6115a26118e6565b6115aa6118be565b600660076008600983805480602002602001604051908101604052809291908181526020016000905b8282101561169057838290600052602060002090018054600181600116156101000203166002900480601f01602080910402602001604051908101604052809291908181526020018280546001816001161561010002031660029004801561167c5780601f106116515761010080835404028352916020019161167c565b820191906000526020600020905b81548152906001019060200180831161165f57829003601f168201915b5050505050815260200190600101906115d3565b50505050935082805480602002602001604051908101604052809291908181526020016000905b8282101561177457838290600052602060002090018054600181600116156101000203166002900480601f0160208091040260200160405190810160405280929190818152602001828054600181600116156101000203166002900480156117605780601f1061173557610100808354040283529160200191611760565b820191906000526020600020905b81548152906001019060200180831161174357829003601f168201915b5050505050815260200190600101906116b7565b505050509250818054806020026020016040519081016040528092919081815260200182805480156117c557602002820191906000526020600020905b8154815260200190600101908083116117b1575b5050505050915080805480602002602001604051908101604052809291908181526020016000905b828210156118aa57838290600052602060002090018054600181600116156101000203166002900480601f0160208091040260200160405190810160405280929190818152602001828054600181600116156101000203166002900480156118965780601f1061186b57610100808354040283529160200191611896565b820191906000526020600020905b81548152906001019060200180831161187957829003601f168201915b5050505050815260200190600101906117ed565b505050509050935093509350935090919293565b602060405190810160405280600081525090565b602060405190810160405280600081525090565b602060405190810160405280600081525090565b815481835581811511611921578183600052602060002091820191016119209190611b09565b5b505050565b8280548282559060005260206000209081019282156119855760005260206000209182015b828111156119845782829080546001816001161561010002031660029004611974929190611b35565b509160010191906001019061194b565b5b5090506119929190611bbc565b5090565b8280548282559060005260206000209081019282156119e5579160200282015b828111156119e45782518290805190602001906119d4929190611be8565b50916020019190600101906119b6565b5b5090506119f29190611bbc565b5090565b828054828255906000526020600020908101928215611a32579160200282015b82811115611a31578251825591602001919060010190611a16565b5b509050611a3f9190611c68565b5090565b815481835581811511611a7057600602816006028360005260206000209182019101611a6f9190611c8d565b5b505050565b828054600181600116156101000203166002900490600052602060002090601f016020900481019282601f10611ab657805160ff1916838001178555611ae4565b82800160010185558215611ae4579182015b82811115611ae3578251825591602001919060010190611ac8565b5b509050611af19190611c68565b5090565b602060405190810160405280600081525090565b611b3291905b80821115611b2e5760008181611b259190611d1f565b50600101611b0f565b5090565b90565b828054600181600116156101000203166002900490600052602060002090601f016020900481019282601f10611b6e5780548555611bab565b82800160010185558215611bab57600052602060002091601f016020900482015b82811115611baa578254825591600101919060010190611b8f565b5b509050611bb89190611c68565b5090565b611be591905b80821115611be15760008181611bd89190611d40565b50600101611bc2565b5090565b90565b828054600181600116156101000203166002900490600052602060002090601f016020900481019282601f10611c2957805160ff1916838001178555611c57565b82800160010185558215611c57579182015b82811115611c56578251825591602001919060010190611c3b565b5b509050611c649190611c68565b5090565b611c8a91905b80821115611c86576000816000905550600101611c6e565b5090565b90565b611d1c91905b80821115611d1857600080820160006101000a81549073ffffffffffffffffffffffffffffffffffffffff0219169055600182016000611cd39190611d1f565b600282016000611ce39190611d88565b6003820160009055600482016000611cfb9190611d1f565b6005820160006101000a81549060ff021916905550600601611c93565b5090565b90565b5080546000825590600052602060002090810190611d3d9190611bbc565b50565b50805460018160011615610100020316600290046000825580601f10611d665750611d85565b601f016020900490600052602060002090810190611d849190611c68565b5b50565b5080546000825590600052602060002090810190611da69190611c68565b50565b6000611db58235612822565b905092915050565b600082601f8301121515611dd057600080fd5b8135611de3611dde82612684565b612657565b9150818183526020840193506020810190508360005b83811015611e295781358601611e0f8882611eb8565b845260208401935060208301925050600181019050611df9565b5050505092915050565b600082601f8301121515611e4657600080fd5b8135611e59611e54826126ac565b612657565b91508181835260208401935060208101905083856020840282011115611e7e57600080fd5b60005b83811015611eae5781611e948882611f64565b845260208401935060208301925050600181019050611e81565b5050505092915050565b600082601f8301121515611ecb57600080fd5b8135611ede611ed9826126d4565b612657565b91508082526020830160208301858383011115611efa57600080fd5b611f0583828461285e565b50505092915050565b600082601f8301121515611f2157600080fd5b8135611f34611f2f82612700565b612657565b91508082526020830160208301858383011115611f5057600080fd5b611f5b83828461285e565b50505092915050565b6000611f708235612842565b905092915050565b600060208284031215611f8a57600080fd5b6000611f9884828501611da9565b91505092915050565b60008060008060808587031215611fb757600080fd5b6000611fc587828801611da9565b945050602085013567ffffffffffffffff811115611fe257600080fd5b611fee87828801611dbd565b935050604085013567ffffffffffffffff81111561200b57600080fd5b61201787828801611e33565b925050606085013567ffffffffffffffff81111561203457600080fd5b61204087828801611dbd565b91505092959194509250565b60008060008060008060c0878903121561206557600080fd5b600061207389828a01611da9565b965050602087013567ffffffffffffffff81111561209057600080fd5b61209c89828a01611f0e565b955050604087013567ffffffffffffffff8111156120b957600080fd5b6120c589828a01611f0e565b94505060606120d689828a01611f64565b93505060806120e789828a01611f64565b92505060a06120f889828a01611f64565b9150509295509295509295565b6000806000806080858703121561211b57600080fd5b600085013567ffffffffffffffff81111561213557600080fd5b61214187828801611dbd565b945050602085013567ffffffffffffffff81111561215e57600080fd5b61216a87828801611dbd565b935050604085013567ffffffffffffffff81111561218757600080fd5b61219387828801611e33565b925050606085013567ffffffffffffffff8111156121b057600080fd5b6121bc87828801611dbd565b91505092959194509250565b6000602082840312156121da57600080fd5b60006121e884828501611f64565b91505092915050565b6121fa816127d6565b82525050565b600061220b82612760565b808452602084019350836020820285016122248561272c565b60005b8481101561225d57838303885261223f8383516122dc565b925061224a826127a2565b9150602088019750600181019050612227565b508196508694505050505092915050565b600061227982612776565b8084526020840193508360208202850161229285612746565b60005b848110156122cb5783830388526122ad8383516123f9565b92506122b8826127bc565b9150602088019750600181019050612295565b508196508694505050505092915050565b60006122e78261276b565b8084526020840193508360208202850161230085612739565b60005b8481101561233957838303885261231b8383516123f9565b9250612326826127af565b9150602088019750600181019050612303565b508196508694505050505092915050565b600061235582612781565b80845260208401935061236783612753565b60005b828110156123995761237d86835161242f565b612386826127c9565b915060208601955060018101905061236a565b50849250505092915050565b6123ae816127f6565b82525050565b6123bd8161284c565b82525050565b60006123ce82612797565b8084526123e281602086016020860161286d565b6123eb816128a0565b602085010191505092915050565b60006124048261278c565b80845261241881602086016020860161286d565b612421816128a0565b602085010191505092915050565b61243881612818565b82525050565b600060208201905061245360008301846121f1565b92915050565b600060c08201905061246e60008301896121f1565b818103602083015261248081886123c3565b9050818103604083015261249481876123c3565b90506124a3606083018661242f565b6124b0608083018561242f565b6124bd60a083018461242f565b979650505050505050565b60006060820190506124dd60008301866121f1565b6124ea602083018561242f565b6124f760408301846123b4565b949350505050565b60006060820190508181036000830152612519818661226e565b9050818103602083015261252d8185612200565b905061253c60408301846121f1565b949350505050565b6000608082019050818103600083015261255e818761226e565b905081810360208301526125728186612200565b905061258160408301856121f1565b8181036060830152612593818461234a565b905095945050505050565b600060808201905081810360008301526125b8818761226e565b905081810360208301526125cc818661226e565b905081810360408301526125e0818561234a565b905081810360608301526125f4818461226e565b905095945050505050565b600060208201905061261460008301846123a5565b92915050565b6000602082019050818103600083015261263481846123f9565b905092915050565b6000602082019050612651600083018461242f565b92915050565b6000604051905081810181811067ffffffffffffffff8211171561267a57600080fd5b8060405250919050565b600067ffffffffffffffff82111561269b57600080fd5b602082029050602081019050919050565b600067ffffffffffffffff8211156126c357600080fd5b602082029050602081019050919050565b600067ffffffffffffffff8211156126eb57600080fd5b601f19601f8301169050602081019050919050565b600067ffffffffffffffff82111561271757600080fd5b601f19601f8301169050602081019050919050565b6000602082019050919050565b6000602082019050919050565b6000602082019050919050565b6000602082019050919050565b600081519050919050565b600081519050919050565b600081519050919050565b600081519050919050565b600081519050919050565b600081519050919050565b6000602082019050919050565b6000602082019050919050565b6000602082019050919050565b6000602082019050919050565b600073ffffffffffffffffffffffffffffffffffffffff82169050919050565b60008115159050919050565b600060038210151561281057fe5b819050919050565b6000819050919050565b600073ffffffffffffffffffffffffffffffffffffffff82169050919050565b6000819050919050565b600061285782612802565b9050919050565b82818337600083830152505050565b60005b8381101561288b578082015181840152602081019050612870565b8381111561289a576000848401525b50505050565b6000601f19601f83011690509190505600a265627a7a723058200bc9bbdbcc5dfef945db1e82fd18706a3e6e7e8bc68186e5ec0c7d3bad0372e26c6578706572696d656e74616cf50037a265627a7a72305820bba99cbb1f170b7a1c83d7ed3b978ebb116fd7530028d099370db13b4d4478a86c6578706572696d656e74616cf50037",
  "source": "pragma solidity ^0.4.20;\npragma experimental ABIEncoderV2;\n\nimport \"./Tender.sol\";\n\n\ncontract FactoryTender {\n    address[] allTenders;\n\n    function FactoryTender() {\n    }\n\n    function createTender(address governmentOfficerAddress, string tenderName, string tenderId, \n    //string organisationChain, string tenderRefNum,\n    uint bidSubmissionClosingDate, uint bidOpeningDate, uint covers, string[] clauses,\n    string[] taskName, uint[] taskDays, string[] constraints) public returns (address) {\n        Tender newTender = new Tender();\n        newTender.setTenderBasic(this, tenderName, tenderId, \n        //organisationChain, tenderRefNum,\n        bidSubmissionClosingDate, bidOpeningDate, covers);\n        newTender.setTenderAdvanced(clauses,\n        taskName, taskDays, constraints);\n        allTenders.push(newTender);\n        return newTender;\n    }\n}",
  "sourcePath": "/home/scoco/Desktop/TenderSystem---Blockchain/contracts/FactoryTender.sol",
  "compiler": {
    "name": "solc",
    "version": "0.4.20+commit.3155dd80.Emscripten.clang"
  },
  "schemaVersion": "1.0.1",
  "updatedAt": "2018-03-20T16:02:08.187Z"
}