{
  "contractName": "FactoryContract",
  "abi": [
    {
      "constant": false,
      "inputs": [
        {
          "name": "tenderAddress",
          "type": "address"
        },
        {
          "name": "_contractorAddress",
          "type": "address"
        },
        {
          "name": "_contractName",
          "type": "string"
        },
        {
          "name": "_contractDocumentUrl",
          "type": "string"
        },
        {
          "name": "_taskDescription",
          "type": "string[]"
        },
        {
          "name": "_deadlineForEachTask",
          "type": "uint256[]"
        },
        {
          "name": "_amountForEachTask",
          "type": "uint256[]"
        },
        {
          "name": "_reviewtime",
          "type": "uint256"
        }
      ],
      "name": "createContract",
      "outputs": [
        {
          "name": "",
          "type": "address"
        }
      ],
      "payable": false,
      "stateMutability": "nonpayable",
      "type": "function"
    },
    {
      "inputs": [],
      "payable": false,
      "stateMutability": "nonpayable",
      "type": "constructor"
    }
  ],
  "bytecode": "0x6060604052341561000f57600080fd5b611c748061001e6000396000f300606060405260043610610041576000357c0100000000000000000000000000000000000000000000000000000000900463ffffffff16806380b341a314610046575b600080fd5b341561005157600080fd5b61006660046100619036906103d2565b61007c565b604051610073919061064f565b60405180910390f35b6000806100876101a2565b604051809103906000f080151561009d57600080fd5b90508073ffffffffffffffffffffffffffffffffffffffff166327609914308b8b8b8b8b8b8b6040518963ffffffff167c010000000000000000000000000000000000000000000000000000000002815260040161010298979695949392919061066a565b600060405180830381600087803b151561011b57600080fd5b6102c65a03f1151561012c57600080fd5b5050506000805480600101828161014391906101b2565b9160005260206000209001600083909190916101000a81548173ffffffffffffffffffffffffffffffffffffffff021916908373ffffffffffffffffffffffffffffffffffffffff160217905550508091505098975050505050505050565b604051611353806108e883390190565b8154818355818115116101d9578183600052602060002091820191016101d891906101de565b5b505050565b61020091905b808211156101fc5760008160009055506001016101e4565b5090565b90565b600061020f823561086a565b905092915050565b600082601f830112151561022a57600080fd5b813561023d61023882610738565b61070b565b9150818183526020840193506020810190508360005b8381101561028357813586016102698882610312565b845260208401935060208301925050600181019050610253565b5050505092915050565b600082601f83011215156102a057600080fd5b81356102b36102ae82610760565b61070b565b915081818352602084019350602081019050838560208402820111156102d857600080fd5b60005b8381101561030857816102ee88826103be565b8452602084019350602083019250506001810190506102db565b5050505092915050565b600082601f830112151561032557600080fd5b813561033861033382610788565b61070b565b9150808252602083016020830185838301111561035457600080fd5b61035f838284610894565b50505092915050565b600082601f830112151561037b57600080fd5b813561038e610389826107b4565b61070b565b915080825260208301602083018583830111156103aa57600080fd5b6103b5838284610894565b50505092915050565b60006103ca823561088a565b905092915050565b600080600080600080600080610100898b0312156103ef57600080fd5b60006103fd8b828c01610203565b985050602061040e8b828c01610203565b975050604089013567ffffffffffffffff81111561042b57600080fd5b6104378b828c01610368565b965050606089013567ffffffffffffffff81111561045457600080fd5b6104608b828c01610368565b955050608089013567ffffffffffffffff81111561047d57600080fd5b6104898b828c01610217565b94505060a089013567ffffffffffffffff8111156104a657600080fd5b6104b28b828c0161028d565b93505060c089013567ffffffffffffffff8111156104cf57600080fd5b6104db8b828c0161028d565b92505060e06104ec8b828c016103be565b9150509295985092959890939650565b61050581610840565b82525050565b6000610516826107fa565b8084526020840193508360208202850161052f856107e0565b60005b8481101561056857838303885261054a83835161060a565b925061055582610826565b9150602088019750600181019050610532565b508196508694505050505092915050565b600061058482610805565b808452602084019350610596836107ed565b60005b828110156105c8576105ac868351610640565b6105b582610833565b9150602086019550600181019050610599565b50849250505092915050565b60006105df8261081b565b8084526105f38160208601602086016108a3565b6105fc816108d6565b602085010191505092915050565b600061061582610810565b8084526106298160208601602086016108a3565b610632816108d6565b602085010191505092915050565b61064981610860565b82525050565b600060208201905061066460008301846104fc565b92915050565b600061010082019050610680600083018b6104fc565b61068d602083018a6104fc565b818103604083015261069f81896105d4565b905081810360608301526106b381886105d4565b905081810360808301526106c7818761050b565b905081810360a08301526106db8186610579565b905081810360c08301526106ef8185610579565b90506106fe60e0830184610640565b9998505050505050505050565b6000604051905081810181811067ffffffffffffffff8211171561072e57600080fd5b8060405250919050565b600067ffffffffffffffff82111561074f57600080fd5b602082029050602081019050919050565b600067ffffffffffffffff82111561077757600080fd5b602082029050602081019050919050565b600067ffffffffffffffff82111561079f57600080fd5b601f19601f8301169050602081019050919050565b600067ffffffffffffffff8211156107cb57600080fd5b601f19601f8301169050602081019050919050565b6000602082019050919050565b6000602082019050919050565b600081519050919050565b600081519050919050565b600081519050919050565b600081519050919050565b6000602082019050919050565b6000602082019050919050565b600073ffffffffffffffffffffffffffffffffffffffff82169050919050565b6000819050919050565b600073ffffffffffffffffffffffffffffffffffffffff82169050919050565b6000819050919050565b82818337600083830152505050565b60005b838110156108c15780820151818401526020810190506108a6565b838111156108d0576000848401525b50505050565b6000601f19601f830116905091905056006060604052341561000f57600080fd5b6113358061001e6000396000f3006060604052600436106100ba576000357c0100000000000000000000000000000000000000000000000000000000900463ffffffff1680631d65e77e146100bf57806327609914146100f95780633e959bc81461011057806345bf2d2c1461013257806346d722e7146101545780635573e3ef1461017d57806375d0c0dc1461019f5780638d977672146101c8578063a783fd9214610202578063b6e02f711461022b578063f21376af14610254578063f6397fd31461027d575b600080fd5b34156100ca57600080fd5b6100df60046100da903690610ea5565b6102a6565b6040516100f0959493929190611054565b60405180910390f35b61010e6004610109903690610d7b565b610414565b005b341561011b57600080fd5b610130600461012b903690610ea5565b610678565b005b341561013d57600080fd5b610152600461014d903690610ea5565b6106da565b005b341561015f57600080fd5b61016761073e565b6040516101749190610ffc565b60405180910390f35b341561018857600080fd5b61019d6004610198903690610ea5565b610763565b005b34156101aa57600080fd5b6101b26107c4565b6040516101bf9190611032565b60405180910390f35b34156101d357600080fd5b6101e860046101e3903690610ea5565b610862565b6040516101f99594939291906110ae565b60405180910390f35b341561020d57600080fd5b6102156108b3565b6040516102229190611017565b60405180910390f35b341561023657600080fd5b61023e6108c6565b60405161024b9190611032565b60405180910390f35b341561025f57600080fd5b610267610964565b6040516102749190610ffc565b60405180910390f35b341561028857600080fd5b61029061098a565b60405161029d9190611108565b60405180910390f35b6102ae610997565b6000806000806005868154811015156102c357fe5b90600052602060002090600502016000016005878154811015156102e357fe5b90600052602060002090600502016001015460058881548110151561030457fe5b90600052602060002090600502016002015460058981548110151561032557fe5b906000526020600020906005020160030160009054906101000a900460ff1660058a81548110151561035357fe5b906000526020600020906005020160040154848054600181600116156101000203166002900480601f0160208091040260200160405190810160405280929190818152602001828054600181600116156101000203166002900480156103fa5780601f106103cf576101008083540402835291602001916103fa565b820191906000526020600020905b8154815290600101906020018083116103dd57829003601f168201915b505050505094509450945094509450945091939590929450565b60008060008a6000806101000a81548173ffffffffffffffffffffffffffffffffffffffff021916908373ffffffffffffffffffffffffffffffffffffffff16021790555089600160006101000a81548173ffffffffffffffffffffffffffffffffffffffff021916908373ffffffffffffffffffffffffffffffffffffffff16021790555088600290805190602001906104b09291906109ab565b5087600390805190602001906104c79291906109ab565b5060009250600091505b86518210156106545760058080548091906001016104ef9190610a2b565b8154811015156104fb57fe5b90600052602060002090600502019050868281518110151561051957fe5b9060200190602002015181600001908051906020019061053a9291906109ab565b50858281518110151561054957fe5b906020019060200201518160010181905550848281518110151561056957fe5b906020019060200201518160020181905550670de0b6b3a76400008160020154028301925060008160030160006101000a81548160ff021916908360048111156105af57fe5b02179055508060046000848152602001908152602001600020600082018160000190805460018160011615610100020316600290046105ef929190610a5d565b5060018201548160010155600282015481600201556003820160009054906101000a900460ff168160030160006101000a81548160ff0219169083600481111561063557fe5b02179055506004820154816004015590505081806001019250506104d1565b670de0b6b3a7640000340283111561066b57600080fd5b5050505050505050505050565b6000600160009054906101000a900473ffffffffffffffffffffffffffffffffffffffff1673ffffffffffffffffffffffffffffffffffffffff163373ffffffffffffffffffffffffffffffffffffffff161415156106d657600080fd5b5050565b600080600160009054906101000a900473ffffffffffffffffffffffffffffffffffffffff1673ffffffffffffffffffffffffffffffffffffffff163373ffffffffffffffffffffffffffffffffffffffff1614151561073957600080fd5b505050565b6000809054906101000a900473ffffffffffffffffffffffffffffffffffffffff1681565b60008060009054906101000a900473ffffffffffffffffffffffffffffffffffffffff1673ffffffffffffffffffffffffffffffffffffffff163373ffffffffffffffffffffffffffffffffffffffff161415156107c057600080fd5b5050565b60028054600181600116156101000203166002900480601f01602080910402602001604051908101604052809291908181526020018280546001816001161561010002031660029004801561085a5780601f1061082f5761010080835404028352916020019161085a565b820191906000526020600020905b81548152906001019060200180831161083d57829003601f168201915b505050505081565b60058181548110151561087157fe5b906000526020600020906005020160009150905080600001908060010154908060020154908060030160009054906101000a900460ff16908060040154905085565b600160149054906101000a900460ff1681565b60038054600181600116156101000203166002900480601f01602080910402602001604051908101604052809291908181526020018280546001816001161561010002031660029004801561095c5780601f106109315761010080835404028352916020019161095c565b820191906000526020600020905b81548152906001019060200180831161093f57829003601f168201915b505050505081565b600160009054906101000a900473ffffffffffffffffffffffffffffffffffffffff1681565b6000600580549050905090565b602060405190810160405280600081525090565b828054600181600116156101000203166002900490600052602060002090601f016020900481019282601f106109ec57805160ff1916838001178555610a1a565b82800160010185558215610a1a579182015b82811115610a195782518255916020019190600101906109fe565b5b509050610a279190610ae4565b5090565b815481835581811511610a5857600502816005028360005260206000209182019101610a579190610b09565b5b505050565b828054600181600116156101000203166002900490600052602060002090601f016020900481019282601f10610a965780548555610ad3565b82800160010185558215610ad357600052602060002091601f016020900482015b82811115610ad2578254825591600101919060010190610ab7565b5b509050610ae09190610ae4565b5090565b610b0691905b80821115610b02576000816000905550600101610aea565b5090565b90565b610b6191905b80821115610b5d5760008082016000610b289190610b64565b600182016000905560028201600090556003820160006101000a81549060ff0219169055600482016000905550600501610b0f565b5090565b90565b50805460018160011615610100020316600290046000825580601f10610b8a5750610ba9565b601f016020900490600052602060002090810190610ba89190610ae4565b5b50565b6000610bb8823561126c565b905092915050565b600082601f8301121515610bd357600080fd5b8135610be6610be182611150565b611123565b9150818183526020840193506020810190508360005b83811015610c2c5781358601610c128882610cbb565b845260208401935060208301925050600181019050610bfc565b5050505092915050565b600082601f8301121515610c4957600080fd5b8135610c5c610c5782611178565b611123565b91508181835260208401935060208101905083856020840282011115610c8157600080fd5b60005b83811015610cb15781610c978882610d67565b845260208401935060208301925050600181019050610c84565b5050505092915050565b600082601f8301121515610cce57600080fd5b8135610ce1610cdc826111a0565b611123565b91508082526020830160208301858383011115610cfd57600080fd5b610d088382846112a8565b50505092915050565b600082601f8301121515610d2457600080fd5b8135610d37610d32826111cc565b611123565b91508082526020830160208301858383011115610d5357600080fd5b610d5e8382846112a8565b50505092915050565b6000610d73823561128c565b905092915050565b600080600080600080600080610100898b031215610d9857600080fd5b6000610da68b828c01610bac565b9850506020610db78b828c01610bac565b975050604089013567ffffffffffffffff811115610dd457600080fd5b610de08b828c01610d11565b965050606089013567ffffffffffffffff811115610dfd57600080fd5b610e098b828c01610d11565b955050608089013567ffffffffffffffff811115610e2657600080fd5b610e328b828c01610bc0565b94505060a089013567ffffffffffffffff811115610e4f57600080fd5b610e5b8b828c01610c36565b93505060c089013567ffffffffffffffff811115610e7857600080fd5b610e848b828c01610c36565b92505060e0610e958b828c01610d67565b9150509295985092959890939650565b600060208284031215610eb757600080fd5b6000610ec584828501610d67565b91505092915050565b610ed781611220565b82525050565b610ee681611240565b82525050565b610ef581611296565b82525050565b6000610f0682611215565b808452610f1a8160208601602086016112b7565b610f23816112ea565b602085010191505092915050565b6000610f3c8261120a565b808452610f508160208601602086016112b7565b610f59816112ea565b602085010191505092915050565b600081546001811660008114610f845760018114610fa457610fe5565b607f600283041680865260ff198316602087015260408601935050610fe5565b60028204808652602086019550610fba856111f8565b60005b82811015610fdc57815481890152600182019150602081019050610fbd565b80880195505050505b505092915050565b610ff681611262565b82525050565b60006020820190506110116000830184610ece565b92915050565b600060208201905061102c6000830184610edd565b92915050565b6000602082019050818103600083015261104c8184610f31565b905092915050565b600060a082019050818103600083015261106e8188610efb565b905061107d6020830187610fed565b61108a6040830186610fed565b6110976060830185610eec565b6110a46080830184610fed565b9695505050505050565b600060a08201905081810360008301526110c88188610f67565b90506110d76020830187610fed565b6110e46040830186610fed565b6110f16060830185610eec565b6110fe6080830184610fed565b9695505050505050565b600060208201905061111d6000830184610fed565b92915050565b6000604051905081810181811067ffffffffffffffff8211171561114657600080fd5b8060405250919050565b600067ffffffffffffffff82111561116757600080fd5b602082029050602081019050919050565b600067ffffffffffffffff82111561118f57600080fd5b602082029050602081019050919050565b600067ffffffffffffffff8211156111b757600080fd5b601f19601f8301169050602081019050919050565b600067ffffffffffffffff8211156111e357600080fd5b601f19601f8301169050602081019050919050565b60008160005260206000209050919050565b600081519050919050565b600081519050919050565b600073ffffffffffffffffffffffffffffffffffffffff82169050919050565b60008115159050919050565b600060058210151561125a57fe5b819050919050565b6000819050919050565b600073ffffffffffffffffffffffffffffffffffffffff82169050919050565b6000819050919050565b60006112a18261124c565b9050919050565b82818337600083830152505050565b60005b838110156112d55780820151818401526020810190506112ba565b838111156112e4576000848401525b50505050565b6000601f19601f83011690509190505600a265627a7a72305820065565475b35d61a46c996029953172480461ddff3c506880793065cac8e6f1f6c6578706572696d656e74616cf50037a265627a7a72305820ed2fa3024058780f55b49a1757e1c05def84eb0678d077ab9c7d0141a9d3cc1b6c6578706572696d656e74616cf50037",
  "source": "pragma solidity ^0.4.20;\npragma experimental ABIEncoderV2;\n\nimport \"./Contract.sol\";\n\n\ncontract FactoryContract {\n    address[] allContracts;\n\n    function FactoryContract() {\n    }\n\n    function createContract(address tenderAddress,\n        address _contractorAddress, \n         //address _specialOfficerAddress, \n        string _contractName, \n        string _contractDocumentUrl, \n        string[] _taskDescription, \n        uint[] _deadlineForEachTask, \n        uint[] _amountForEachTask, \n        uint _reviewtime) public returns (address) {\n        Contract newContract = new Contract();\n        newContract.setContract(address(this), _contractorAddress, _contractName, \n        _contractDocumentUrl, _taskDescription, _deadlineForEachTask, \n        _amountForEachTask, _reviewtime);\n        allContracts.push(newContract);\n        return newContract;\n    }\n}",
  "sourcePath": "/home/scoco/Desktop/TenderSystem---Blockchain/contracts/FactoryContract.sol",
  "compiler": {
    "name": "solc",
    "version": "0.4.20+commit.3155dd80.Emscripten.clang"
  },
  "schemaVersion": "1.0.1",
  "updatedAt": "2018-03-19T22:32:34.024Z"
}