{
  "contractName": "FactoryContractor",
  "abi": [
    {
      "constant": false,
      "inputs": [
        {
          "name": "_walletAddress",
          "type": "address"
        },
        {
          "name": "_email",
          "type": "string"
        },
        {
          "name": "_name",
          "type": "string"
        },
        {
          "name": "_phoneNumber",
          "type": "string"
        },
        {
          "name": "_panNumber",
          "type": "string"
        },
        {
          "name": "_gstNumber",
          "type": "string"
        }
      ],
      "name": "registerNewContractor",
      "outputs": [
        {
          "name": "",
          "type": "address"
        }
      ],
      "payable": false,
      "stateMutability": "nonpayable",
      "type": "function"
    },
    {
      "inputs": [],
      "payable": false,
      "stateMutability": "nonpayable",
      "type": "constructor"
    }
  ],
  "bytecode": "0x6060604052341561000f57600080fd5b610a118061001e6000396000f300606060405260043610610041576000357c0100000000000000000000000000000000000000000000000000000000900463ffffffff1680634a782bfa14610046575b600080fd5b341561005157600080fd5b6101cc600480803573ffffffffffffffffffffffffffffffffffffffff1690602001909190803590602001908201803590602001908080601f0160208091040260200160405190810160405280939291908181526020018383808284378201915050505050509190803590602001908201803590602001908080601f0160208091040260200160405190810160405280939291908181526020018383808284378201915050505050509190803590602001908201803590602001908080601f0160208091040260200160405190810160405280939291908181526020018383808284378201915050505050509190803590602001908201803590602001908080601f0160208091040260200160405190810160405280939291908181526020018383808284378201915050505050509190803590602001908201803590602001908080601f0160208091040260200160405190810160405280939291908181526020018383808284378201915050505050509190505061020e565b604051808273ffffffffffffffffffffffffffffffffffffffff1673ffffffffffffffffffffffffffffffffffffffff16815260200191505060405180910390f35b600080610219610571565b604051809103906000f080151561022f57600080fd5b90508073ffffffffffffffffffffffffffffffffffffffff1663dfeb3cf88989898989896040518763ffffffff167c0100000000000000000000000000000000000000000000000000000000028152600401808773ffffffffffffffffffffffffffffffffffffffff1673ffffffffffffffffffffffffffffffffffffffff168152602001806020018060200180602001806020018060200186810386528b818151815260200191508051906020019080838360005b838110156103005780820151818401526020810190506102e5565b50505050905090810190601f16801561032d5780820380516001836020036101000a031916815260200191505b5086810385528a818151815260200191508051906020019080838360005b8381101561036657808201518184015260208101905061034b565b50505050905090810190601f1680156103935780820380516001836020036101000a031916815260200191505b50868103845289818151815260200191508051906020019080838360005b838110156103cc5780820151818401526020810190506103b1565b50505050905090810190601f1680156103f95780820380516001836020036101000a031916815260200191505b50868103835288818151815260200191508051906020019080838360005b83811015610432578082015181840152602081019050610417565b50505050905090810190601f16801561045f5780820380516001836020036101000a031916815260200191505b50868103825287818151815260200191508051906020019080838360005b8381101561049857808201518184015260208101905061047d565b50505050905090810190601f1680156104c55780820380516001836020036101000a031916815260200191505b509b505050505050505050505050600060405180830381600087803b15156104ec57600080fd5b6102c65a03f115156104fd57600080fd5b505050600080548060010182816105149190610581565b9160005260206000209001600083909190916101000a81548173ffffffffffffffffffffffffffffffffffffffff021916908373ffffffffffffffffffffffffffffffffffffffff16021790555050809150509695505050505050565b604051610413806105d383390190565b8154818355818115116105a8578183600052602060002091820191016105a791906105ad565b5b505050565b6105cf91905b808211156105cb5760008160009055506001016105b3565b5090565b9056006060604052341561000f57600080fd5b6103f58061001e6000396000f300606060405260043610610041576000357c0100000000000000000000000000000000000000000000000000000000900463ffffffff168063dfeb3cf814610046575b600080fd5b341561005157600080fd5b6100666004610061903690610232565b610068565b005b856000806101000a81548173ffffffffffffffffffffffffffffffffffffffff021916908373ffffffffffffffffffffffffffffffffffffffff16021790555083600190805190602001906100be929190610123565b5084600290805190602001906100d5929190610123565b5082600390805190602001906100ec929190610123565b508160049080519060200190610103929190610123565b50806005908051906020019061011a929190610123565b50505050505050565b828054600181600116156101000203166002900490600052602060002090601f016020900481019282601f1061016457805160ff1916838001178555610192565b82800160010185558215610192579182015b82811115610191578251825591602001919060010190610176565b5b50905061019f91906101a3565b5090565b6101c591905b808211156101c15760008160009055506001016101a9565b5090565b90565b60006101d4823561038c565b905092915050565b600082601f83011215156101ef57600080fd5b81356102026101fd82610360565b610333565b9150808252602083016020830185838301111561021e57600080fd5b6102298382846103ac565b50505092915050565b60008060008060008060c0878903121561024b57600080fd5b600061025989828a016101c8565b965050602087013567ffffffffffffffff81111561027657600080fd5b61028289828a016101dc565b955050604087013567ffffffffffffffff81111561029f57600080fd5b6102ab89828a016101dc565b945050606087013567ffffffffffffffff8111156102c857600080fd5b6102d489828a016101dc565b935050608087013567ffffffffffffffff8111156102f157600080fd5b6102fd89828a016101dc565b92505060a087013567ffffffffffffffff81111561031a57600080fd5b61032689828a016101dc565b9150509295509295509295565b6000604051905081810181811067ffffffffffffffff8211171561035657600080fd5b8060405250919050565b600067ffffffffffffffff82111561037757600080fd5b601f19601f8301169050602081019050919050565b600073ffffffffffffffffffffffffffffffffffffffff82169050919050565b828183376000838301525050505600a265627a7a7230582019de21cd2ad152c9863bb9c083e63db8a726f77b09d14a0020f9bf98f7a4cb1b6c6578706572696d656e74616cf50037a165627a7a7230582077c9bec42158da398550afc6c04c96504caf45bde2b7c80c2e388951199a37030029",
  "source": "pragma solidity ^0.4.20;\n\nimport \"./Contractor.sol\";\n\ncontract FactoryContractor {\n    address[] allContractors;\n\n    function FactoryContractor() public {\n\n    }\n    \n    //----do not use---- adds the new contract to same byte code--useless shit.\n    function registerNewContractor(address _walletAddress, string _email, string _name,\n    string _phoneNumber, string _panNumber, string _gstNumber) public returns (address) {\n        Contractor contractor = new Contractor();\n        contractor.setContractor(_walletAddress, _email, _name,\n        _phoneNumber, _panNumber, _gstNumber);\n        allContractors.push(contractor);\n        return contractor;\n    }\n}",
  "sourcePath": "/home/scoco/Desktop/TenderSystem---Blockchain/contracts/FactoryContractor.sol",
  "compiler": {
    "name": "solc",
    "version": "0.4.20+commit.3155dd80.Emscripten.clang"
  },
  "schemaVersion": "1.0.1",
  "updatedAt": "2018-03-19T22:39:31.999Z"
}