{
  "contractName": "FactoryTender",
  "abi": [
    {
      "constant": false,
      "inputs": [
        {
          "name": "_governmentOfficerAddress",
          "type": "address"
        },
        {
          "name": "_tenderName",
          "type": "string"
        },
        {
          "name": "_clauses",
          "type": "string[]"
        },
        {
          "name": "_constraints",
          "type": "string[]"
        },
        {
          "name": "_deadline",
          "type": "uint256"
        }
      ],
      "name": "createTender",
      "outputs": [
        {
          "name": "",
          "type": "address"
        }
      ],
      "payable": false,
      "stateMutability": "nonpayable",
      "type": "function"
    },
    {
      "inputs": [],
      "payable": false,
      "stateMutability": "nonpayable",
      "type": "constructor"
    }
  ],
  "bytecode": "0x6060604052341561000f57600080fd5b6124f38061001e6000396000f300606060405260043610610041576000357c0100000000000000000000000000000000000000000000000000000000900463ffffffff16806384f75aa214610046575b600080fd5b341561005157600080fd5b6100666004610061903690610344565b61007c565b60405161007391906104fb565b60405180910390f35b600080610087610199565b604051809103906000f080151561009d57600080fd5b90508073ffffffffffffffffffffffffffffffffffffffff1663820b2fd930888888886040518663ffffffff167c01000000000000000000000000000000000000000000000000000000000281526004016100fc959493929190610516565b600060405180830381600087803b151561011557600080fd5b6102c65a03f1151561012657600080fd5b5050506000805480600101828161013d91906101a9565b9160005260206000209001600083909190916101000a81548173ffffffffffffffffffffffffffffffffffffffff021916908373ffffffffffffffffffffffffffffffffffffffff160217905550508091505095945050505050565b604051611dac8061070e83390190565b8154818355818115116101d0578183600052602060002091820191016101cf91906101d5565b5b505050565b6101f791905b808211156101f35760008160009055506001016101db565b5090565b90565b60006102068235610690565b905092915050565b600082601f830112151561022157600080fd5b813561023461022f826105ab565b61057e565b9150818183526020840193506020810190508360005b8381101561027a57813586016102608882610284565b84526020840193506020830192505060018101905061024a565b5050505092915050565b600082601f830112151561029757600080fd5b81356102aa6102a5826105d3565b61057e565b915080825260208301602083018583830111156102c657600080fd5b6102d18382846106ba565b50505092915050565b600082601f83011215156102ed57600080fd5b81356103006102fb826105ff565b61057e565b9150808252602083016020830185838301111561031c57600080fd5b6103278382846106ba565b50505092915050565b600061033c82356106b0565b905092915050565b600080600080600060a0868803121561035c57600080fd5b600061036a888289016101fa565b955050602086013567ffffffffffffffff81111561038757600080fd5b610393888289016102da565b945050604086013567ffffffffffffffff8111156103b057600080fd5b6103bc8882890161020e565b935050606086013567ffffffffffffffff8111156103d957600080fd5b6103e58882890161020e565b92505060806103f688828901610330565b9150509295509295909350565b61040c81610666565b82525050565b600061041d82610638565b808452602084019350836020820285016104368561062b565b60005b8481101561046f5783830388526104518383516104b6565b925061045c82610659565b9150602088019750600181019050610439565b508196508694505050505092915050565b600061048b8261064e565b80845261049f8160208601602086016106c9565b6104a8816106fc565b602085010191505092915050565b60006104c182610643565b8084526104d58160208601602086016106c9565b6104de816106fc565b602085010191505092915050565b6104f581610686565b82525050565b60006020820190506105106000830184610403565b92915050565b600060a08201905061052b6000830188610403565b818103602083015261053d8187610480565b905081810360408301526105518186610412565b905081810360608301526105658185610412565b905061057460808301846104ec565b9695505050505050565b6000604051905081810181811067ffffffffffffffff821117156105a157600080fd5b8060405250919050565b600067ffffffffffffffff8211156105c257600080fd5b602082029050602081019050919050565b600067ffffffffffffffff8211156105ea57600080fd5b601f19601f8301169050602081019050919050565b600067ffffffffffffffff82111561061657600080fd5b601f19601f8301169050602081019050919050565b6000602082019050919050565b600081519050919050565b600081519050919050565b600081519050919050565b6000602082019050919050565b600073ffffffffffffffffffffffffffffffffffffffff82169050919050565b6000819050919050565b600073ffffffffffffffffffffffffffffffffffffffff82169050919050565b6000819050919050565b82818337600083830152505050565b60005b838110156106e75780820151818401526020810190506106cc565b838111156106f6576000848401525b50505050565b6000601f19601f830116905091905056006060604052341561000f57600080fd5b611d8e8061001e6000396000f3006060604052600436106100c5576000357c0100000000000000000000000000000000000000000000000000000000900463ffffffff168063041f624f146100ca57806334650fad1461010057806346d722e714610139578063528e830a146101625780635644e44c146101845780637376ade2146101a6578063820b2fd9146101de5780639b679bae14610200578063c08cc02d14610222578063ca6009be1461024b578063cddab28b14610281578063e959c7b9146102a3578063e979c9b8146102cc575b600080fd5b34156100d557600080fd5b6100ea60046100e59036906117b2565b610304565b6040516100f79190611ad4565b60405180910390f35b341561010b57600080fd5b610120600461011b9036906117b2565b6103c0565b6040516101309493929190611a7a565b60405180910390f35b341561014457600080fd5b61014c610762565b60405161015991906119e3565b60405180910390f35b341561016d57600080fd5b610182600461017d90369061161f565b610787565b005b341561018f57600080fd5b6101a4600461019f903690611648565b6107eb565b005b34156101b157600080fd5b6101c660046101c19036906117b2565b6109ba565b6040516101d593929190611a35565b60405180910390f35b34156101e957600080fd5b6101fe60046101f99036906116f3565b610cd7565b005b341561020b57600080fd5b610220600461021b9036906117b2565b610d72565b005b341561022d57600080fd5b610235610d95565b6040516102429190611af6565b60405180910390f35b341561025657600080fd5b61026b60046102669036906117b2565b610da2565b6040516102789190611ad4565b60405180910390f35b341561028c57600080fd5b6102a1600461029c90369061161f565b610e5e565b005b34156102ae57600080fd5b6102b6610ec2565b6040516102c39190611ad4565b60405180910390f35b34156102d757600080fd5b6102ec60046102e79036906117b2565b610f60565b6040516102fb939291906119fe565b60405180910390f35b60038181548110151561031357fe5b90600052602060002090016000915090508054600181600116156101000203166002900480601f0160208091040260200160405190810160405280929190818152602001828054600181600116156101000203166002900480156103b85780601f1061038d576101008083540402835291602001916103b8565b820191906000526020600020905b81548152906001019060200180831161039b57829003601f168201915b505050505081565b6103c8610fc6565b6103d0610fda565b60006103da610fee565b6000806103e5610fee565b600060028111156103f257fe5b60068981548110151561040157fe5b906000526020600020906006020160050160009054906101000a900460ff16600281111561042b57fe5b141561053b578280548060010182816104449190611002565b9160005260206000209001600060068b81548110151561046057fe5b9060005260206000209060060201600401909190915090805461048492919061102e565b505060068881548110151561049557fe5b906000526020600020906006020160000160009054906101000a900473ffffffffffffffffffffffffffffffffffffffff1691506006888154811015156104d857fe5b906000526020600020906006020160020180548060200260200160405190810160405280929190818152602001828054801561053357602002820191906000526020600020905b81548152602001906001019080831161051f575b505050505090505b600383838383805480602002602001604051908101604052809291908181526020016000905b8282101561061e57838290600052602060002090018054600181600116156101000203166002900480601f01602080910402602001604051908101604052809291908181526020018280546001816001161561010002031660029004801561060a5780601f106105df5761010080835404028352916020019161060a565b820191906000526020600020905b8154815290600101906020018083116105ed57829003601f168201915b505050505081526020019060010190610561565b50505050935082805480602002602001604051908101604052809291908181526020016000905b8282101561074a5783829060005260206000209001805480602002602001604051908101604052809291908181526020016000905b8282101561073757838290600052602060002090018054600181600116156101000203166002900480601f0160208091040260200160405190810160405280929190818152602001828054600181600116156101000203166002900480156107235780601f106106f857610100808354040283529160200191610723565b820191906000526020600020905b81548152906001019060200180831161070657829003601f168201915b50505050508152602001906001019061067a565b5050505081526020019060010190610645565b50505050925096509650965096505050509193509193565b6000809054906101000a900473ffffffffffffffffffffffffffffffffffffffff1681565b6000600760008373ffffffffffffffffffffffffffffffffffffffff1673ffffffffffffffffffffffffffffffffffffffff16815260200190815260200160002060006101000a81548160ff021916908360028111156107e357fe5b021790555050565b60008060006006808054809190600101610805919061109e565b81548110151561081157fe5b90600052602060002090600602019250868360000160006101000a81548173ffffffffffffffffffffffffffffffffffffffff021916908373ffffffffffffffffffffffffffffffffffffffff160217905550600091505b855182101561092857858281518110151561088057fe5b90602001906020020151836001018381548110151561089b57fe5b906000526020600020900190805190602001906108b99291906110d0565b5084828151811015156108c857fe5b9060200190602002015183600201838154811015156108e357fe5b906000526020600020900181905550848281518110151561090057fe5b9060200190602002015183600301600082825401925050819055508180600101925050610869565b600090505b835181101561098b57838281518110151561094457fe5b90602001906020020151836004018381548110151561095f57fe5b9060005260206000209001908051906020019061097d9291906110d0565b50808060010191505061092d565b60018360050160006101000a81548160ff021916908360028111156109ac57fe5b021790555050505050505050565b6109c2610fc6565b6109ca610fda565b6000806000600160028111156109dc57fe5b6006878154811015156109eb57fe5b906000526020600020906006020160050160009054906101000a900460ff166002811115610a1557fe5b1415610ab457818054806001018281610a2e9190611002565b91600052602060002090016000600689815481101515610a4a57fe5b90600052602060002090600602016004019091909150908054610a6e92919061102e565b5050600686815481101515610a7f57fe5b906000526020600020906006020160000160009054906101000a900473ffffffffffffffffffffffffffffffffffffffff1690505b6003828282805480602002602001604051908101604052809291908181526020016000905b82821015610b9657838290600052602060002090018054600181600116156101000203166002900480601f016020809104026020016040519081016040528092919081815260200182805460018160011615610100020316600290048015610b825780601f10610b5757610100808354040283529160200191610b82565b820191906000526020600020905b815481529060010190602001808311610b6557829003601f168201915b505050505081526020019060010190610ad9565b50505050925081805480602002602001604051908101604052809291908181526020016000905b82821015610cc25783829060005260206000209001805480602002602001604051908101604052809291908181526020016000905b82821015610caf57838290600052602060002090018054600181600116156101000203166002900480601f016020809104026020016040519081016040528092919081815260200182805460018160011615610100020316600290048015610c9b5780601f10610c7057610100808354040283529160200191610c9b565b820191906000526020600020905b815481529060010190602001808311610c7e57829003601f168201915b505050505081526020019060010190610bf2565b5050505081526020019060010190610bbd565b50505050915094509450945050509193909250565b846000806101000a81548173ffffffffffffffffffffffffffffffffffffffff021916908373ffffffffffffffffffffffffffffffffffffffff1602179055508360019080519060200190610d2d9291906110d0565b508260029080519060200190610d44929190611150565b508160039080519060200190610d5b929190611150565b508060048190555060006005819055505050505050565b60008114158015610d8557506000600554145b15610d9257806005819055505b50565b6000600680549050905090565b600281815481101515610db157fe5b90600052602060002090016000915090508054600181600116156101000203166002900480601f016020809104026020016040519081016040528092919081815260200182805460018160011615610100020316600290048015610e565780601f10610e2b57610100808354040283529160200191610e56565b820191906000526020600020905b815481529060010190602001808311610e3957829003601f168201915b505050505081565b6002600760008373ffffffffffffffffffffffffffffffffffffffff1673ffffffffffffffffffffffffffffffffffffffff16815260200190815260200160002060006101000a81548160ff02191690836002811115610eba57fe5b021790555050565b60018054600181600116156101000203166002900480601f016020809104026020016040519081016040528092919081815260200182805460018160011615610100020316600290048015610f585780601f10610f2d57610100808354040283529160200191610f58565b820191906000526020600020905b815481529060010190602001808311610f3b57829003601f168201915b505050505081565b600681815481101515610f6f57fe5b90600052602060002090600602016000915090508060000160009054906101000a900473ffffffffffffffffffffffffffffffffffffffff16908060030154908060050160009054906101000a900460ff16905083565b602060405190810160405280600081525090565b602060405190810160405280600081525090565b602060405190810160405280600081525090565b8154818355818115116110295781836000526020600020918201910161102891906111b0565b5b505050565b82805482825590600052602060002090810192821561108d5760005260206000209182015b8281111561108c578282908054600181600116156101000203166002900461107c9291906111dc565b5091600101919060010190611053565b5b50905061109a9190611263565b5090565b8154818355818115116110cb576006028160060283600052602060002091820191016110ca919061128f565b5b505050565b828054600181600116156101000203166002900490600052602060002090601f016020900481019282601f1061111157805160ff191683800117855561113f565b8280016001018555821561113f579182015b8281111561113e578251825591602001919060010190611123565b5b50905061114c9190611321565b5090565b82805482825590600052602060002090810192821561119f579160200282015b8281111561119e57825182908051906020019061118e929190611346565b5091602001919060010190611170565b5b5090506111ac9190611263565b5090565b6111d991905b808211156111d557600081816111cc91906113c6565b506001016111b6565b5090565b90565b828054600181600116156101000203166002900490600052602060002090601f016020900481019282601f106112155780548555611252565b8280016001018555821561125257600052602060002091601f016020900482015b82811115611251578254825591600101919060010190611236565b5b50905061125f9190611321565b5090565b61128c91905b80821115611288576000818161127f91906113e7565b50600101611269565b5090565b90565b61131e91905b8082111561131a57600080820160006101000a81549073ffffffffffffffffffffffffffffffffffffffff02191690556001820160006112d591906113c6565b6002820160006112e5919061142f565b60038201600090556004820160006112fd91906113c6565b6005820160006101000a81549060ff021916905550600601611295565b5090565b90565b61134391905b8082111561133f576000816000905550600101611327565b5090565b90565b828054600181600116156101000203166002900490600052602060002090601f016020900481019282601f1061138757805160ff19168380011785556113b5565b828001600101855582156113b5579182015b828111156113b4578251825591602001919060010190611399565b5b5090506113c29190611321565b5090565b50805460008255906000526020600020908101906113e49190611263565b50565b50805460018160011615610100020316600290046000825580601f1061140d575061142c565b601f01602090049060005260206000209081019061142b9190611321565b5b50565b508054600082559060005260206000209081019061144d9190611321565b50565b600061145c8235611cc5565b905092915050565b600082601f830112151561147757600080fd5b813561148a61148582611b3e565b611b11565b9150818183526020840193506020810190508360005b838110156114d057813586016114b6888261155f565b8452602084019350602083019250506001810190506114a0565b5050505092915050565b600082601f83011215156114ed57600080fd5b81356115006114fb82611b66565b611b11565b9150818183526020840193506020810190508385602084028201111561152557600080fd5b60005b83811015611555578161153b888261160b565b845260208401935060208301925050600181019050611528565b5050505092915050565b600082601f830112151561157257600080fd5b813561158561158082611b8e565b611b11565b915080825260208301602083018583830111156115a157600080fd5b6115ac838284611d01565b50505092915050565b600082601f83011215156115c857600080fd5b81356115db6115d682611bba565b611b11565b915080825260208301602083018583830111156115f757600080fd5b611602838284611d01565b50505092915050565b60006116178235611ce5565b905092915050565b60006020828403121561163157600080fd5b600061163f84828501611450565b91505092915050565b6000806000806080858703121561165e57600080fd5b600061166c87828801611450565b945050602085013567ffffffffffffffff81111561168957600080fd5b61169587828801611464565b935050604085013567ffffffffffffffff8111156116b257600080fd5b6116be878288016114da565b925050606085013567ffffffffffffffff8111156116db57600080fd5b6116e787828801611464565b91505092959194509250565b600080600080600060a0868803121561170b57600080fd5b600061171988828901611450565b955050602086013567ffffffffffffffff81111561173657600080fd5b611742888289016115b5565b945050604086013567ffffffffffffffff81111561175f57600080fd5b61176b88828901611464565b935050606086013567ffffffffffffffff81111561178857600080fd5b61179488828901611464565b92505060806117a58882890161160b565b9150509295509295909350565b6000602082840312156117c457600080fd5b60006117d28482850161160b565b91505092915050565b6117e481611c85565b82525050565b60006117f582611c1a565b8084526020840193508360208202850161180e85611be6565b60005b848110156118475783830388526118298383516118c6565b925061183482611c51565b9150602088019750600181019050611811565b508196508694505050505092915050565b600061186382611c30565b8084526020840193508360208202850161187c85611c00565b60005b848110156118b557838303885261189783835161199e565b92506118a282611c6b565b915060208801975060018101905061187f565b508196508694505050505092915050565b60006118d182611c25565b808452602084019350836020820285016118ea85611bf3565b60005b8481101561192357838303885261190583835161199e565b925061191082611c5e565b91506020880197506001810190506118ed565b508196508694505050505092915050565b600061193f82611c3b565b80845260208401935061195183611c0d565b60005b82811015611983576119678683516119d4565b61197082611c78565b9150602086019550600181019050611954565b50849250505092915050565b61199881611cef565b82525050565b60006119a982611c46565b8084526119bd816020860160208601611d10565b6119c681611d43565b602085010191505092915050565b6119dd81611cbb565b82525050565b60006020820190506119f860008301846117db565b92915050565b6000606082019050611a1360008301866117db565b611a2060208301856119d4565b611a2d604083018461198f565b949350505050565b60006060820190508181036000830152611a4f8186611858565b90508181036020830152611a6381856117ea565b9050611a7260408301846117db565b949350505050565b60006080820190508181036000830152611a948187611858565b90508181036020830152611aa881866117ea565b9050611ab760408301856117db565b8181036060830152611ac98184611934565b905095945050505050565b60006020820190508181036000830152611aee818461199e565b905092915050565b6000602082019050611b0b60008301846119d4565b92915050565b6000604051905081810181811067ffffffffffffffff82111715611b3457600080fd5b8060405250919050565b600067ffffffffffffffff821115611b5557600080fd5b602082029050602081019050919050565b600067ffffffffffffffff821115611b7d57600080fd5b602082029050602081019050919050565b600067ffffffffffffffff821115611ba557600080fd5b601f19601f8301169050602081019050919050565b600067ffffffffffffffff821115611bd157600080fd5b601f19601f8301169050602081019050919050565b6000602082019050919050565b6000602082019050919050565b6000602082019050919050565b6000602082019050919050565b600081519050919050565b600081519050919050565b600081519050919050565b600081519050919050565b600081519050919050565b6000602082019050919050565b6000602082019050919050565b6000602082019050919050565b6000602082019050919050565b600073ffffffffffffffffffffffffffffffffffffffff82169050919050565b6000600382101515611cb357fe5b819050919050565b6000819050919050565b600073ffffffffffffffffffffffffffffffffffffffff82169050919050565b6000819050919050565b6000611cfa82611ca5565b9050919050565b82818337600083830152505050565b60005b83811015611d2e578082015181840152602081019050611d13565b83811115611d3d576000848401525b50505050565b6000601f19601f83011690509190505600a265627a7a723058208e6d7c10b93cbebe476f8ad987191cec5fbeee39471015de8bbaf5b2e6efd8956c6578706572696d656e74616cf50037a265627a7a7230582080b96f55d9f2c18d942b686a9c507fb8d3e8fdcb090c1f509c8083a9ae727fed6c6578706572696d656e74616cf50037",
  "source": "pragma solidity ^0.4.20;\npragma experimental ABIEncoderV2;\n\nimport \"./Tender.sol\";\n\n\ncontract FactoryTender {\n    address[] allTenders;\n\n    function FactoryTender() {\n    }\n\n    function createTender(address _governmentOfficerAddress, string _tenderName, string[] _clauses, \n    string[] _constraints, uint _deadline) public returns (address) {\n        Tender newTender = new Tender();\n        newTender.setTender(address(this), _tenderName, _clauses, \n        _constraints, _deadline);\n        allTenders.push(newTender);\n        return newTender;\n    }\n}",
  "sourcePath": "/home/scoco/Desktop/TenderSystem---Blockchain/contracts/FactoryTender.sol",
  "compiler": {
    "name": "solc",
    "version": "0.4.20+commit.3155dd80.Emscripten.clang"
  },
  "schemaVersion": "1.0.1",
  "updatedAt": "2018-03-19T22:32:34.029Z"
}