{
  "contractName": "FactoryTender",
  "abi": [
    {
      "constant": false,
      "inputs": [
        {
          "name": "governmentOfficerAddress",
          "type": "address"
        },
        {
          "name": "tenderName",
          "type": "string"
        },
        {
          "name": "tenderId",
          "type": "string"
        },
        {
          "name": "bidSubmissionClosingDate",
          "type": "uint256"
        },
        {
          "name": "bidOpeningDate",
          "type": "uint256"
        },
        {
          "name": "covers",
          "type": "uint256"
        },
        {
          "name": "clauses",
          "type": "string[]"
        },
        {
          "name": "taskName",
          "type": "string[]"
        },
        {
          "name": "taskDays",
          "type": "uint256[]"
        },
        {
          "name": "constraints",
          "type": "string[]"
        }
      ],
      "name": "createTender",
      "outputs": [
        {
          "name": "",
          "type": "address"
        }
      ],
      "payable": false,
      "stateMutability": "nonpayable",
      "type": "function"
    },
    {
      "inputs": [],
      "payable": false,
      "stateMutability": "nonpayable",
      "type": "constructor"
    }
  ],
  "bytecode": "0x6060604052341561000f57600080fd5b61352a8061001e6000396000f300606060405260043610610041576000357c0100000000000000000000000000000000000000000000000000000000900463ffffffff1680637db449b214610046575b600080fd5b341561005157600080fd5b6100666004610061903690610458565b61007c565b6040516100739190610725565b60405180910390f35b600080610087610228565b604051809103906000f080151561009d57600080fd5b90508073ffffffffffffffffffffffffffffffffffffffff1663d706f1c9308d8d8d8d8d6040518763ffffffff167c01000000000000000000000000000000000000000000000000000000000281526004016100fe969594939291906107a1565b600060405180830381600087803b151561011757600080fd5b6102c65a03f1151561012857600080fd5b5050508073ffffffffffffffffffffffffffffffffffffffff166340588921878787876040518563ffffffff167c01000000000000000000000000000000000000000000000000000000000281526004016101869493929190610740565b600060405180830381600087803b151561019f57600080fd5b6102c65a03f115156101b057600080fd5b505050600080548060010182816101c79190610238565b9160005260206000209001600083909190916101000a81548173ffffffffffffffffffffffffffffffffffffffff021916908373ffffffffffffffffffffffffffffffffffffffff16021790555050809150509a9950505050505050505050565b604051612af2806109ff83390190565b81548183558181151161025f5781836000526020600020918201910161025e9190610264565b5b505050565b61028691905b8082111561028257600081600090555060010161026a565b5090565b90565b6000610295823561096f565b905092915050565b600082601f83011215156102b057600080fd5b81356102c36102be8261083d565b610810565b9150818183526020840193506020810190508360005b8381101561030957813586016102ef8882610398565b8452602084019350602083019250506001810190506102d9565b5050505092915050565b600082601f830112151561032657600080fd5b813561033961033482610865565b610810565b9150818183526020840193506020810190508385602084028201111561035e57600080fd5b60005b8381101561038e57816103748882610444565b845260208401935060208301925050600181019050610361565b5050505092915050565b600082601f83011215156103ab57600080fd5b81356103be6103b98261088d565b610810565b915080825260208301602083018583830111156103da57600080fd5b6103e58382846109ab565b50505092915050565b600082601f830112151561040157600080fd5b813561041461040f826108b9565b610810565b9150808252602083016020830185838301111561043057600080fd5b61043b8382846109ab565b50505092915050565b6000610450823561098f565b905092915050565b6000806000806000806000806000806101408b8d03121561047857600080fd5b60006104868d828e01610289565b9a505060208b013567ffffffffffffffff8111156104a357600080fd5b6104af8d828e016103ee565b99505060408b013567ffffffffffffffff8111156104cc57600080fd5b6104d88d828e016103ee565b98505060606104e98d828e01610444565b97505060806104fa8d828e01610444565b96505060a061050b8d828e01610444565b95505060c08b013567ffffffffffffffff81111561052857600080fd5b6105348d828e0161029d565b94505060e08b013567ffffffffffffffff81111561055157600080fd5b61055d8d828e0161029d565b9350506101008b013567ffffffffffffffff81111561057b57600080fd5b6105878d828e01610313565b9250506101208b013567ffffffffffffffff8111156105a557600080fd5b6105b18d828e0161029d565b9150509295989b9194979a5092959850565b6105cc81610945565b82525050565b60006105dd826108ff565b808452602084019350836020820285016105f6856108e5565b60005b8481101561062f5783830388526106118383516106e0565b925061061c8261092b565b91506020880197506001810190506105f9565b508196508694505050505092915050565b600061064b8261090a565b80845260208401935061065d836108f2565b60005b8281101561068f57610673868351610716565b61067c82610938565b9150602086019550600181019050610660565b50849250505092915050565b6106a481610999565b82525050565b60006106b582610920565b8084526106c98160208601602086016109ba565b6106d2816109ed565b602085010191505092915050565b60006106eb82610915565b8084526106ff8160208601602086016109ba565b610708816109ed565b602085010191505092915050565b61071f81610965565b82525050565b600060208201905061073a60008301846105c3565b92915050565b6000608082019050818103600083015261075a81876105d2565b9050818103602083015261076e81866105d2565b905081810360408301526107828185610640565b9050818103606083015261079681846105d2565b905095945050505050565b600060c0820190506107b6600083018961069b565b81810360208301526107c881886106aa565b905081810360408301526107dc81876106aa565b90506107eb6060830186610716565b6107f86080830185610716565b61080560a0830184610716565b979650505050505050565b6000604051905081810181811067ffffffffffffffff8211171561083357600080fd5b8060405250919050565b600067ffffffffffffffff82111561085457600080fd5b602082029050602081019050919050565b600067ffffffffffffffff82111561087c57600080fd5b602082029050602081019050919050565b600067ffffffffffffffff8211156108a457600080fd5b601f19601f8301169050602081019050919050565b600067ffffffffffffffff8211156108d057600080fd5b601f19601f8301169050602081019050919050565b6000602082019050919050565b6000602082019050919050565b600081519050919050565b600081519050919050565b600081519050919050565b600081519050919050565b6000602082019050919050565b6000602082019050919050565b600073ffffffffffffffffffffffffffffffffffffffff82169050919050565b6000819050919050565b600073ffffffffffffffffffffffffffffffffffffffff82169050919050565b6000819050919050565b60006109a482610945565b9050919050565b82818337600083830152505050565b60005b838110156109d85780820151818401526020810190506109bd565b838111156109e7576000848401525b50505050565b6000601f19601f830116905091905056006060604052341561000f57600080fd5b612ad48061001e6000396000f300606060405260043610610149576000357c0100000000000000000000000000000000000000000000000000000000900463ffffffff168063041f624f1461014e578063137396e41461018457806334650fad146101ad57806336e18778146101e6578063405889211461020f57806346d722e714610231578063482a77a61461025a5780634a53deb414610290578063528e830a146102c65780635644e44c146102e857806356554d821461031e5780637376ade21461034c5780637ca4a8791461038457806395121ee1146103ad5780639b679bae146103d6578063b3c4c5bd146103f8578063c08cc02d14610421578063c7f758a81461044a578063ca6009be14610481578063cddab28b146104b7578063d706f1c9146104d9578063e959c7b9146104fb578063e979c9b814610524578063ec12b1991461055c578063fed4a32614610588575b600080fd5b341561015957600080fd5b61016e6004610169903690612366565b6105b1565b60405161017b91906127e1565b60405180910390f35b341561018f57600080fd5b61019761066d565b6040516101a49190612825565b60405180910390f35b34156101b857600080fd5b6101cd60046101c8903690612366565b610673565b6040516101dd949392919061270b565b60405180910390f35b34156101f157600080fd5b6101f9610a15565b60405161020691906127e1565b60405180910390f35b341561021a57600080fd5b61022f600461022a9036906122a3565b610ab3565b005b341561023c57600080fd5b610244610b15565b60405161025191906125dc565b60405180910390f35b341561026557600080fd5b61027a6004610275903690612366565b610b3a565b6040516102879190612825565b60405180910390f35b341561029b57600080fd5b6102b060046102ab903690612366565b610b5e565b6040516102bd91906127e1565b60405180910390f35b34156102d157600080fd5b6102e660046102e1903690612116565b610c1a565b005b34156102f357600080fd5b610308600461030390369061213f565b610c7e565b60405161031591906127c6565b60405180910390f35b341561032957600080fd5b610331610e54565b604051610343969594939291906125f7565b60405180910390f35b341561035757600080fd5b61036c6004610367903690612366565b610fe6565b60405161037b939291906126c6565b60405180910390f35b341561038f57600080fd5b610397611303565b6040516103a49190612825565b60405180910390f35b34156103b857600080fd5b6103c0611309565b6040516103cd9190612825565b60405180910390f35b34156103e157600080fd5b6103f660046103f1903690612366565b611313565b005b341561040357600080fd5b61040b611336565b6040516104189190612825565b60405180910390f35b341561042c57600080fd5b61043461133c565b6040516104419190612825565b60405180910390f35b341561045557600080fd5b61046a6004610465903690612366565b611349565b604051610478929190612666565b60405180910390f35b341561048c57600080fd5b6104a1600461049c903690612366565b6113c9565b6040516104ae91906127e1565b60405180910390f35b34156104c257600080fd5b6104d760046104d2903690612116565b611485565b005b34156104e457600080fd5b6104f960046104f49036906121ea565b6114e9565b005b341561050657600080fd5b61050e61157c565b60405161051b91906127e1565b60405180910390f35b341561052f57600080fd5b610544600461053f903690612366565b61161a565b6040516105539392919061268f565b60405180910390f35b341561056757600080fd5b61056f611680565b60405161057f9493929190612765565b60405180910390f35b341561059357600080fd5b61059b6119b4565b6040516105a89190612803565b60405180910390f35b6009818154811015156105c057fe5b90600052602060002090016000915090508054600181600116156101000203166002900480601f0160208091040260200160405190810160405280929190818152602001828054600181600116156101000203166002900480156106655780601f1061063a57610100808354040283529160200191610665565b820191906000526020600020905b81548152906001019060200180831161064857829003601f168201915b505050505081565b60055481565b61067b611a5c565b610683611a70565b600061068d611a84565b600080610698611a84565b600060028111156106a557fe5b600b898154811015156106b457fe5b906000526020600020906006020160050160009054906101000a900460ff1660028111156106de57fe5b14156107ee578280548060010182816106f79190611a98565b91600052602060002090016000600b8b81548110151561071357fe5b90600052602060002090600602016004019091909150908054610737929190611ac4565b5050600b8881548110151561074857fe5b906000526020600020906006020160000160009054906101000a900473ffffffffffffffffffffffffffffffffffffffff169150600b8881548110151561078b57fe5b90600052602060002090600602016002018054806020026020016040519081016040528092919081815260200182805480156107e657602002820191906000526020600020905b8154815260200190600101908083116107d2575b505050505090505b600983838383805480602002602001604051908101604052809291908181526020016000905b828210156108d157838290600052602060002090018054600181600116156101000203166002900480601f0160208091040260200160405190810160405280929190818152602001828054600181600116156101000203166002900480156108bd5780601f10610892576101008083540402835291602001916108bd565b820191906000526020600020905b8154815290600101906020018083116108a057829003601f168201915b505050505081526020019060010190610814565b50505050935082805480602002602001604051908101604052809291908181526020016000905b828210156109fd5783829060005260206000209001805480602002602001604051908101604052809291908181526020016000905b828210156109ea57838290600052602060002090018054600181600116156101000203166002900480601f0160208091040260200160405190810160405280929190818152602001828054600181600116156101000203166002900480156109d65780601f106109ab576101008083540402835291602001916109d6565b820191906000526020600020905b8154815290600101906020018083116109b957829003601f168201915b50505050508152602001906001019061092d565b50505050815260200190600101906108f8565b50505050925096509650965096505050509193509193565b60028054600181600116156101000203166002900480601f016020809104026020016040519081016040528092919081815260200182805460018160011615610100020316600290048015610aab5780601f10610a8057610100808354040283529160200191610aab565b820191906000526020600020905b815481529060010190602001808311610a8e57829003601f168201915b505050505081565b8360069080519060200190610ac9929190611b34565b508260079080519060200190610ae0929190611b34565b508160089080519060200190610af7929190611b94565b508060099080519060200190610b0e929190611b34565b5050505050565b6000809054906101000a900473ffffffffffffffffffffffffffffffffffffffff1681565b600881815481101515610b4957fe5b90600052602060002090016000915090505481565b600781815481101515610b6d57fe5b90600052602060002090016000915090508054600181600116156101000203166002900480601f016020809104026020016040519081016040528092919081815260200182805460018160011615610100020316600290048015610c125780601f10610be757610100808354040283529160200191610c12565b820191906000526020600020905b815481529060010190602001808311610bf557829003601f168201915b505050505081565b6000600c60008373ffffffffffffffffffffffffffffffffffffffff1673ffffffffffffffffffffffffffffffffffffffff16815260200190815260200160002060006101000a81548160ff02191690836002811115610c7657fe5b021790555050565b600080600080600b808054809190600101610c999190611be1565b815481101515610ca557fe5b90600052602060002090600602019250878360000160006101000a81548173ffffffffffffffffffffffffffffffffffffffff021916908373ffffffffffffffffffffffffffffffffffffffff160217905550600091505b8651821015610dbc578682815181101515610d1457fe5b906020019060200201518360010183815481101515610d2f57fe5b90600052602060002090019080519060200190610d4d929190611c13565b508582815181101515610d5c57fe5b906020019060200201518360020183815481101515610d7757fe5b9060005260206000209001819055508582815181101515610d9457fe5b9060200190602002015183600301600082825401925050819055508180600101925050610cfd565b600090505b8451811015610e1f578482815181101515610dd857fe5b906020019060200201518360040183815481101515610df357fe5b90600052602060002090019080519060200190610e11929190611c13565b508080600101915050610dc1565b60018360050160006101000a81548160ff02191690836002811115610e4057fe5b021790555060019350505050949350505050565b6000610e5e611c93565b610e66611c93565b60008060008060009054906101000a900473ffffffffffffffffffffffffffffffffffffffff1660016002600354600454600554848054600181600116156101000203166002900480601f016020809104026020016040519081016040528092919081815260200182805460018160011615610100020316600290048015610f2f5780601f10610f0457610100808354040283529160200191610f2f565b820191906000526020600020905b815481529060010190602001808311610f1257829003601f168201915b50505050509450838054600181600116156101000203166002900480601f016020809104026020016040519081016040528092919081815260200182805460018160011615610100020316600290048015610fcb5780601f10610fa057610100808354040283529160200191610fcb565b820191906000526020600020905b815481529060010190602001808311610fae57829003601f168201915b50505050509350955095509550955095509550909192939495565b610fee611a5c565b610ff6611a70565b60008060006001600281111561100857fe5b600b8781548110151561101757fe5b906000526020600020906006020160050160009054906101000a900460ff16600281111561104157fe5b14156110e05781805480600101828161105a9190611a98565b91600052602060002090016000600b8981548110151561107657fe5b9060005260206000209060060201600401909190915090805461109a929190611ac4565b5050600b868154811015156110ab57fe5b906000526020600020906006020160000160009054906101000a900473ffffffffffffffffffffffffffffffffffffffff1690505b6009828282805480602002602001604051908101604052809291908181526020016000905b828210156111c257838290600052602060002090018054600181600116156101000203166002900480601f0160208091040260200160405190810160405280929190818152602001828054600181600116156101000203166002900480156111ae5780601f10611183576101008083540402835291602001916111ae565b820191906000526020600020905b81548152906001019060200180831161119157829003601f168201915b505050505081526020019060010190611105565b50505050925081805480602002602001604051908101604052809291908181526020016000905b828210156112ee5783829060005260206000209001805480602002602001604051908101604052809291908181526020016000905b828210156112db57838290600052602060002090018054600181600116156101000203166002900480601f0160208091040260200160405190810160405280929190818152602001828054600181600116156101000203166002900480156112c75780601f1061129c576101008083540402835291602001916112c7565b820191906000526020600020905b8154815290600101906020018083116112aa57829003601f168201915b50505050508152602001906001019061121e565b50505050815260200190600101906111e9565b50505050915094509450945050509193909250565b60035481565b6000600354905090565b6000811415801561132657506000600a54145b156113335780600a819055505b50565b60045481565b6000600b80549050905090565b600080600b8054905083111561135e57600080fd5b600b8381548110151561136d57fe5b906000526020600020906006020160000160009054906101000a900473ffffffffffffffffffffffffffffffffffffffff16600b848154811015156113ae57fe5b90600052602060002090600602016003015491509150915091565b6006818154811015156113d857fe5b90600052602060002090016000915090508054600181600116156101000203166002900480601f01602080910402602001604051908101604052809291908181526020018280546001816001161561010002031660029004801561147d5780601f106114525761010080835404028352916020019161147d565b820191906000526020600020905b81548152906001019060200180831161146057829003601f168201915b505050505081565b6002600c60008373ffffffffffffffffffffffffffffffffffffffff1673ffffffffffffffffffffffffffffffffffffffff16815260200190815260200160002060006101000a81548160ff021916908360028111156114e157fe5b021790555050565b856000806101000a81548173ffffffffffffffffffffffffffffffffffffffff021916908373ffffffffffffffffffffffffffffffffffffffff160217905550846001908051906020019061153f929190611c13565b508360029080519060200190611556929190611c13565b508260038190555081600481905550806005819055506000600a81905550505050505050565b60018054600181600116156101000203166002900480601f0160208091040260200160405190810160405280929190818152602001828054600181600116156101000203166002900480156116125780601f106115e757610100808354040283529160200191611612565b820191906000526020600020905b8154815290600101906020018083116115f557829003601f168201915b505050505081565b600b8181548110151561162957fe5b90600052602060002090600602016000915090508060000160009054906101000a900473ffffffffffffffffffffffffffffffffffffffff16908060030154908060050160009054906101000a900460ff16905083565b611688611a5c565b611690611a5c565b611698611a84565b6116a0611a5c565b600660076008600983805480602002602001604051908101604052809291908181526020016000905b8282101561178657838290600052602060002090018054600181600116156101000203166002900480601f0160208091040260200160405190810160405280929190818152602001828054600181600116156101000203166002900480156117725780601f1061174757610100808354040283529160200191611772565b820191906000526020600020905b81548152906001019060200180831161175557829003601f168201915b5050505050815260200190600101906116c9565b50505050935082805480602002602001604051908101604052809291908181526020016000905b8282101561186a57838290600052602060002090018054600181600116156101000203166002900480601f0160208091040260200160405190810160405280929190818152602001828054600181600116156101000203166002900480156118565780601f1061182b57610100808354040283529160200191611856565b820191906000526020600020905b81548152906001019060200180831161183957829003601f168201915b5050505050815260200190600101906117ad565b505050509250818054806020026020016040519081016040528092919081815260200182805480156118bb57602002820191906000526020600020905b8154815260200190600101908083116118a7575b5050505050915080805480602002602001604051908101604052809291908181526020016000905b828210156119a057838290600052602060002090018054600181600116156101000203166002900480601f01602080910402602001604051908101604052809291908181526020018280546001816001161561010002031660029004801561198c5780601f106119615761010080835404028352916020019161198c565b820191906000526020600020905b81548152906001019060200180831161196f57829003601f168201915b5050505050815260200190600101906118e3565b505050509050935093509350935090919293565b6119bc611c93565b60018054600181600116156101000203166002900480601f016020809104026020016040519081016040528092919081815260200182805460018160011615610100020316600290048015611a525780601f10611a2757610100808354040283529160200191611a52565b820191906000526020600020905b815481529060010190602001808311611a3557829003601f168201915b5050505050905090565b602060405190810160405280600081525090565b602060405190810160405280600081525090565b602060405190810160405280600081525090565b815481835581811511611abf57818360005260206000209182019101611abe9190611ca7565b5b505050565b828054828255906000526020600020908101928215611b235760005260206000209182015b82811115611b225782829080546001816001161561010002031660029004611b12929190611cd3565b5091600101919060010190611ae9565b5b509050611b309190611d5a565b5090565b828054828255906000526020600020908101928215611b83579160200282015b82811115611b82578251829080519060200190611b72929190611d86565b5091602001919060010190611b54565b5b509050611b909190611d5a565b5090565b828054828255906000526020600020908101928215611bd0579160200282015b82811115611bcf578251825591602001919060010190611bb4565b5b509050611bdd9190611e06565b5090565b815481835581811511611c0e57600602816006028360005260206000209182019101611c0d9190611e2b565b5b505050565b828054600181600116156101000203166002900490600052602060002090601f016020900481019282601f10611c5457805160ff1916838001178555611c82565b82800160010185558215611c82579182015b82811115611c81578251825591602001919060010190611c66565b5b509050611c8f9190611e06565b5090565b602060405190810160405280600081525090565b611cd091905b80821115611ccc5760008181611cc39190611ebd565b50600101611cad565b5090565b90565b828054600181600116156101000203166002900490600052602060002090601f016020900481019282601f10611d0c5780548555611d49565b82800160010185558215611d4957600052602060002091601f016020900482015b82811115611d48578254825591600101919060010190611d2d565b5b509050611d569190611e06565b5090565b611d8391905b80821115611d7f5760008181611d769190611ede565b50600101611d60565b5090565b90565b828054600181600116156101000203166002900490600052602060002090601f016020900481019282601f10611dc757805160ff1916838001178555611df5565b82800160010185558215611df5579182015b82811115611df4578251825591602001919060010190611dd9565b5b509050611e029190611e06565b5090565b611e2891905b80821115611e24576000816000905550600101611e0c565b5090565b90565b611eba91905b80821115611eb657600080820160006101000a81549073ffffffffffffffffffffffffffffffffffffffff0219169055600182016000611e719190611ebd565b600282016000611e819190611f26565b6003820160009055600482016000611e999190611ebd565b6005820160006101000a81549060ff021916905550600601611e31565b5090565b90565b5080546000825590600052602060002090810190611edb9190611d5a565b50565b50805460018160011615610100020316600290046000825580601f10611f045750611f23565b601f016020900490600052602060002090810190611f229190611e06565b5b50565b5080546000825590600052602060002090810190611f449190611e06565b50565b6000611f538235612a0b565b905092915050565b600082601f8301121515611f6e57600080fd5b8135611f81611f7c8261286d565b612840565b9150818183526020840193506020810190508360005b83811015611fc75781358601611fad8882612056565b845260208401935060208301925050600181019050611f97565b5050505092915050565b600082601f8301121515611fe457600080fd5b8135611ff7611ff282612895565b612840565b9150818183526020840193506020810190508385602084028201111561201c57600080fd5b60005b8381101561204c57816120328882612102565b84526020840193506020830192505060018101905061201f565b5050505092915050565b600082601f830112151561206957600080fd5b813561207c612077826128bd565b612840565b9150808252602083016020830185838301111561209857600080fd5b6120a3838284612a47565b50505092915050565b600082601f83011215156120bf57600080fd5b81356120d26120cd826128e9565b612840565b915080825260208301602083018583830111156120ee57600080fd5b6120f9838284612a47565b50505092915050565b600061210e8235612a2b565b905092915050565b60006020828403121561212857600080fd5b600061213684828501611f47565b91505092915050565b6000806000806080858703121561215557600080fd5b600061216387828801611f47565b945050602085013567ffffffffffffffff81111561218057600080fd5b61218c87828801611f5b565b935050604085013567ffffffffffffffff8111156121a957600080fd5b6121b587828801611fd1565b925050606085013567ffffffffffffffff8111156121d257600080fd5b6121de87828801611f5b565b91505092959194509250565b60008060008060008060c0878903121561220357600080fd5b600061221189828a01611f47565b965050602087013567ffffffffffffffff81111561222e57600080fd5b61223a89828a016120ac565b955050604087013567ffffffffffffffff81111561225757600080fd5b61226389828a016120ac565b945050606061227489828a01612102565b935050608061228589828a01612102565b92505060a061229689828a01612102565b9150509295509295509295565b600080600080608085870312156122b957600080fd5b600085013567ffffffffffffffff8111156122d357600080fd5b6122df87828801611f5b565b945050602085013567ffffffffffffffff8111156122fc57600080fd5b61230887828801611f5b565b935050604085013567ffffffffffffffff81111561232557600080fd5b61233187828801611fd1565b925050606085013567ffffffffffffffff81111561234e57600080fd5b61235a87828801611f5b565b91505092959194509250565b60006020828403121561237857600080fd5b600061238684828501612102565b91505092915050565b612398816129bf565b82525050565b60006123a982612949565b808452602084019350836020820285016123c285612915565b60005b848110156123fb5783830388526123dd83835161247a565b92506123e88261298b565b91506020880197506001810190506123c5565b508196508694505050505092915050565b60006124178261295f565b808452602084019350836020820285016124308561292f565b60005b8481101561246957838303885261244b838351612597565b9250612456826129a5565b9150602088019750600181019050612433565b508196508694505050505092915050565b600061248582612954565b8084526020840193508360208202850161249e85612922565b60005b848110156124d75783830388526124b9838351612597565b92506124c482612998565b91506020880197506001810190506124a1565b508196508694505050505092915050565b60006124f38261296a565b8084526020840193506125058361293c565b60005b828110156125375761251b8683516125cd565b612524826129b2565b9150602086019550600181019050612508565b50849250505092915050565b61254c816129df565b82525050565b61255b81612a35565b82525050565b600061256c82612980565b808452612580816020860160208601612a56565b61258981612a89565b602085010191505092915050565b60006125a282612975565b8084526125b6816020860160208601612a56565b6125bf81612a89565b602085010191505092915050565b6125d681612a01565b82525050565b60006020820190506125f1600083018461238f565b92915050565b600060c08201905061260c600083018961238f565b818103602083015261261e8188612561565b905081810360408301526126328187612561565b905061264160608301866125cd565b61264e60808301856125cd565b61265b60a08301846125cd565b979650505050505050565b600060408201905061267b600083018561238f565b61268860208301846125cd565b9392505050565b60006060820190506126a4600083018661238f565b6126b160208301856125cd565b6126be6040830184612552565b949350505050565b600060608201905081810360008301526126e0818661240c565b905081810360208301526126f4818561239e565b9050612703604083018461238f565b949350505050565b60006080820190508181036000830152612725818761240c565b90508181036020830152612739818661239e565b9050612748604083018561238f565b818103606083015261275a81846124e8565b905095945050505050565b6000608082019050818103600083015261277f818761240c565b90508181036020830152612793818661240c565b905081810360408301526127a781856124e8565b905081810360608301526127bb818461240c565b905095945050505050565b60006020820190506127db6000830184612543565b92915050565b600060208201905081810360008301526127fb8184612597565b905092915050565b6000602082019050818103600083015261281d8184612561565b905092915050565b600060208201905061283a60008301846125cd565b92915050565b6000604051905081810181811067ffffffffffffffff8211171561286357600080fd5b8060405250919050565b600067ffffffffffffffff82111561288457600080fd5b602082029050602081019050919050565b600067ffffffffffffffff8211156128ac57600080fd5b602082029050602081019050919050565b600067ffffffffffffffff8211156128d457600080fd5b601f19601f8301169050602081019050919050565b600067ffffffffffffffff82111561290057600080fd5b601f19601f8301169050602081019050919050565b6000602082019050919050565b6000602082019050919050565b6000602082019050919050565b6000602082019050919050565b600081519050919050565b600081519050919050565b600081519050919050565b600081519050919050565b600081519050919050565b600081519050919050565b6000602082019050919050565b6000602082019050919050565b6000602082019050919050565b6000602082019050919050565b600073ffffffffffffffffffffffffffffffffffffffff82169050919050565b60008115159050919050565b60006003821015156129f957fe5b819050919050565b6000819050919050565b600073ffffffffffffffffffffffffffffffffffffffff82169050919050565b6000819050919050565b6000612a40826129eb565b9050919050565b82818337600083830152505050565b60005b83811015612a74578082015181840152602081019050612a59565b83811115612a83576000848401525b50505050565b6000601f19601f83011690509190505600a265627a7a723058200df13b57c54baa838225aa2232a02f4dabbb4e16d0d290314b209acced34835c6c6578706572696d656e74616cf50037a265627a7a7230582076aec63e43cddf454d440ed2f6dae94464f9fd373986b5b6020e9c7d4b88c1926c6578706572696d656e74616cf50037",
  "source": "pragma solidity ^0.4.20;\npragma experimental ABIEncoderV2;\n\nimport \"./Tender.sol\";\n\n\ncontract FactoryTender {\n    address[] allTenders;\n\n    function FactoryTender() {\n    }\n\n    function createTender(address governmentOfficerAddress, string tenderName, string tenderId, \n    //string organisationChain, string tenderRefNum,\n    uint bidSubmissionClosingDate, uint bidOpeningDate, uint covers, string[] clauses,\n    string[] taskName, uint[] taskDays, \n    string[] constraints) public returns (address) {\n        Tender newTender = new Tender();\n        newTender.setTenderBasic(this, tenderName, tenderId, \n        //organisationChain, tenderRefNum,\n        bidSubmissionClosingDate, bidOpeningDate, covers);\n        newTender.setTenderAdvanced(clauses,\n        taskName, taskDays, \n        constraints);\n        allTenders.push(newTender);\n        return newTender;\n    }\n}",
  "sourcePath": "/home/scoco/Desktop/TenderSystem---Blockchain/contracts/FactoryTender.sol",
  "compiler": {
    "name": "solc",
    "version": "0.4.20+commit.3155dd80.Emscripten.clang"
  },
  "schemaVersion": "1.0.1",
  "updatedAt": "2018-03-20T23:00:43.356Z"
}