{
  "contractName": "FactoryContract",
  "abi": [
    {
      "constant": false,
      "inputs": [
        {
          "name": "govtOfficerAddress",
          "type": "address"
        },
        {
          "name": "_contractorAddress",
          "type": "address"
        },
        {
          "name": "_contractName",
          "type": "string"
        },
        {
          "name": "_tenderId",
          "type": "string"
        },
        {
          "name": "_completionTime",
          "type": "uint256"
        },
        {
          "name": "_constraints",
          "type": "string[]"
        },
        {
          "name": "_finalQuotationAmount",
          "type": "uint256"
        },
        {
          "name": "_taskDescription",
          "type": "string[]"
        },
        {
          "name": "_deadlineForEachTask",
          "type": "uint256[]"
        },
        {
          "name": "_amountForEachTask",
          "type": "uint256[]"
        },
        {
          "name": "_reviewtime",
          "type": "uint256"
        }
      ],
      "name": "createContract",
      "outputs": [
        {
          "name": "",
          "type": "address"
        }
      ],
      "payable": true,
      "stateMutability": "payable",
      "type": "function"
    },
    {
      "inputs": [],
      "payable": false,
      "stateMutability": "nonpayable",
      "type": "constructor"
    }
  ],
  "bytecode": "0x6060604052341561000f57600080fd5b6126828061001e6000396000f300606060405260043610610041576000357c0100000000000000000000000000000000000000000000000000000000900463ffffffff168063757d4a0014610046575b600080fd5b61005b6004610056903690610450565b610071565b6040516100689190610723565b60405180910390f35b60008061007c610220565b604051809103906000f080151561009257600080fd5b90508073ffffffffffffffffffffffffffffffffffffffff1663a83752028e8e8d8d8d6040518663ffffffff167c01000000000000000000000000000000000000000000000000000000000281526004016100f195949392919061073e565b600060405180830381600087803b151561010a57600080fd5b6102c65a03f1151561011b57600080fd5b5050508073ffffffffffffffffffffffffffffffffffffffff16632e498b908c89898989896040518763ffffffff167c010000000000000000000000000000000000000000000000000000000002815260040161017d9695949392919061079f565b600060405180830381600087803b151561019657600080fd5b6102c65a03f115156101a757600080fd5b505050600080548060010182816101be9190610230565b9160005260206000209001600083909190916101000a81548173ffffffffffffffffffffffffffffffffffffffff021916908373ffffffffffffffffffffffffffffffffffffffff16021790555050809150509b9a5050505050505050505050565b604051611c50806109f983390190565b81548183558181151161025757818360005260206000209182019101610256919061025c565b5b505050565b61027e91905b8082111561027a576000816000905550600101610262565b5090565b90565b600061028d823561097b565b905092915050565b600082601f83011215156102a857600080fd5b81356102bb6102b682610849565b61081c565b9150818183526020840193506020810190508360005b8381101561030157813586016102e78882610390565b8452602084019350602083019250506001810190506102d1565b5050505092915050565b600082601f830112151561031e57600080fd5b813561033161032c82610871565b61081c565b9150818183526020840193506020810190508385602084028201111561035657600080fd5b60005b83811015610386578161036c888261043c565b845260208401935060208301925050600181019050610359565b5050505092915050565b600082601f83011215156103a357600080fd5b81356103b66103b182610899565b61081c565b915080825260208301602083018583830111156103d257600080fd5b6103dd8382846109a5565b50505092915050565b600082601f83011215156103f957600080fd5b813561040c610407826108c5565b61081c565b9150808252602083016020830185838301111561042857600080fd5b6104338382846109a5565b50505092915050565b6000610448823561099b565b905092915050565b60008060008060008060008060008060006101608c8e03121561047257600080fd5b60006104808e828f01610281565b9b505060206104918e828f01610281565b9a505060408c013567ffffffffffffffff8111156104ae57600080fd5b6104ba8e828f016103e6565b99505060608c013567ffffffffffffffff8111156104d757600080fd5b6104e38e828f016103e6565b98505060806104f48e828f0161043c565b97505060a08c013567ffffffffffffffff81111561051157600080fd5b61051d8e828f01610295565b96505060c061052e8e828f0161043c565b95505060e08c013567ffffffffffffffff81111561054b57600080fd5b6105578e828f01610295565b9450506101008c013567ffffffffffffffff81111561057557600080fd5b6105818e828f0161030b565b9350506101208c013567ffffffffffffffff81111561059f57600080fd5b6105ab8e828f0161030b565b9250506101406105bd8e828f0161043c565b9150509295989b509295989b9093969950565b6105d981610951565b82525050565b60006105ea8261090b565b80845260208401935083602082028501610603856108f1565b60005b8481101561063c57838303885261061e8383516106de565b925061062982610937565b9150602088019750600181019050610606565b508196508694505050505092915050565b600061065882610916565b80845260208401935061066a836108fe565b60005b8281101561069c57610680868351610714565b61068982610944565b915060208601955060018101905061066d565b50849250505092915050565b60006106b38261092c565b8084526106c78160208601602086016109b4565b6106d0816109e7565b602085010191505092915050565b60006106e982610921565b8084526106fd8160208601602086016109b4565b610706816109e7565b602085010191505092915050565b61071d81610971565b82525050565b600060208201905061073860008301846105d0565b92915050565b600060a08201905061075360008301886105d0565b61076060208301876105d0565b818103604083015261077281866106a8565b90506107816060830185610714565b818103608083015261079381846105df565b90509695505050505050565b600060c08201905081810360008301526107b981896106a8565b90506107c86020830188610714565b81810360408301526107da81876105df565b905081810360608301526107ee818661064d565b90508181036080830152610802818561064d565b905061081160a0830184610714565b979650505050505050565b6000604051905081810181811067ffffffffffffffff8211171561083f57600080fd5b8060405250919050565b600067ffffffffffffffff82111561086057600080fd5b602082029050602081019050919050565b600067ffffffffffffffff82111561088857600080fd5b602082029050602081019050919050565b600067ffffffffffffffff8211156108b057600080fd5b601f19601f8301169050602081019050919050565b600067ffffffffffffffff8211156108dc57600080fd5b601f19601f8301169050602081019050919050565b6000602082019050919050565b6000602082019050919050565b600081519050919050565b600081519050919050565b600081519050919050565b600081519050919050565b6000602082019050919050565b6000602082019050919050565b600073ffffffffffffffffffffffffffffffffffffffff82169050919050565b6000819050919050565b600073ffffffffffffffffffffffffffffffffffffffff82169050919050565b6000819050919050565b82818337600083830152505050565b60005b838110156109d25780820151818401526020810190506109b7565b838111156109e1576000848401525b50505050565b6000601f19601f830116905091905056006060604052341561000f57600080fd5b611c328061001e6000396000f300606060405260043610610107576000357c0100000000000000000000000000000000000000000000000000000000900463ffffffff168063041f624f1461010c57806305b34410146101425780631d65e77e1461016b5780632e498b90146101a55780633e959bc8146101bc57806344e446a4146101de57806345bf2d2c1461020957806346d722e71461023f5780635573e3ef1461026857806375d0c0dc1461029e5780638a2cfcc4146102c75780638d977672146102f0578063a783fd921461032a578063a837520214610353578063c2f218b91461036a578063e87870b614610398578063f21376af146103c1578063f5f5ba72146103ea578063f6397fd314610413575b600080fd5b341561011757600080fd5b61012c6004610127903690611639565b61043c565b6040516101399190611834565b60405180910390f35b341561014d57600080fd5b6101556104f8565b60405161016291906119e0565b60405180910390f35b341561017657600080fd5b61018b6004610186903690611639565b6104fe565b60405161019c95949392919061192c565b60405180910390f35b6101ba60046101b5903690611550565b61066c565b005b34156101c757600080fd5b6101dc60046101d7903690611639565b61084c565b005b34156101e957600080fd5b6101f16108ae565b604051610200939291906118e7565b60405180910390f35b341561021457600080fd5b6102296004610224903690611639565b610a52565b6040516102369190611819565b60405180910390f35b341561024a57600080fd5b610252610aba565b60405161025f91906117fe565b60405180910390f35b341561027357600080fd5b6102886004610283903690611639565b610adf565b6040516102959190611819565b60405180910390f35b34156102a957600080fd5b6102b1610b43565b6040516102be9190611834565b60405180910390f35b34156102d257600080fd5b6102da610be1565b6040516102e791906119e0565b60405180910390f35b34156102fb57600080fd5b610310600461030b903690611639565b610beb565b604051610321959493929190611986565b60405180910390f35b341561033557600080fd5b61033d610c3c565b60405161034a9190611819565b60405180910390f35b61036860046103639036906114a9565b610c4f565b005b341561037557600080fd5b61037d610d13565b60405161038f96959493929190611878565b60405180910390f35b34156103a357600080fd5b6103ab610ec4565b6040516103b891906119e0565b60405180910390f35b34156103cc57600080fd5b6103d4610eca565b6040516103e191906117fe565b60405180910390f35b34156103f557600080fd5b6103fd610ef0565b60405161040a9190611856565b60405180910390f35b341561041e57600080fd5b610426610f98565b60405161043391906119e0565b60405180910390f35b60058181548110151561044b57fe5b90600052602060002090016000915090508054600181600116156101000203166002900480601f0160208091040260200160405190810160405280929190818152602001828054600181600116156101000203166002900480156104f05780601f106104c5576101008083540402835291602001916104f0565b820191906000526020600020905b8154815290600101906020018083116104d357829003601f168201915b505050505081565b60035481565b610506610fa5565b600080600080600a8681548110151561051b57fe5b9060005260206000209060050201600001600a8781548110151561053b57fe5b906000526020600020906005020160010154600a8881548110151561055c57fe5b906000526020600020906005020160020154600a8981548110151561057d57fe5b906000526020600020906005020160030160009054906101000a900460ff16600a8a8154811015156105ab57fe5b906000526020600020906005020160040154848054600181600116156101000203166002900480601f0160208091040260200160405190810160405280929190818152602001828054600181600116156101000203166002900480156106525780601f1061062757610100808354040283529160200191610652565b820191906000526020600020905b81548152906001019060200180831161063557829003601f168201915b505050505094509450945094509450945091939590929450565b60008060008860089080519060200190610687929190610fb9565b508760068190555060009250600091505b865182101561081b57600a8080548091906001016106b69190611039565b8154811015156106c257fe5b9060005260206000209060050201905086828151811015156106e057fe5b90602001906020020151816000019080519060200190610701929190610fb9565b50858281518110151561071057fe5b906020019060200201518160010181905550848281518110151561073057fe5b906020019060200201518160020181905550670de0b6b3a76400008160020154028301925060008160030160006101000a81548160ff0219169083600481111561077657fe5b02179055508060096000848152602001908152602001600020600082018160000190805460018160011615610100020316600290046107b692919061106b565b5060018201548160010155600282015481600201556003820160009054906101000a900460ff168160030160006101000a81548160ff021916908360048111156107fc57fe5b0217905550600482015481600401559050508180600101925050610698565b670de0b6b3a7640000340283111561083257600080fd5b60065483111561084157600080fd5b505050505050505050565b6000600160009054906101000a900473ffffffffffffffffffffffffffffffffffffffff1673ffffffffffffffffffffffffffffffffffffffff163373ffffffffffffffffffffffffffffffffffffffff161415156108aa57600080fd5b5050565b6108b6610fa5565b60006108c06110f2565b60086006546005828054600181600116156101000203166002900480601f01602080910402602001604051908101604052809291908181526020018280546001816001161561010002031660029004801561095c5780601f106109315761010080835404028352916020019161095c565b820191906000526020600020905b81548152906001019060200180831161093f57829003601f168201915b5050505050925080805480602002602001604051908101604052809291908181526020016000905b82821015610a4157838290600052602060002090018054600181600116156101000203166002900480601f016020809104026020016040519081016040528092919081815260200182805460018160011615610100020316600290048015610a2d5780601f10610a0257610100808354040283529160200191610a2d565b820191906000526020600020905b815481529060010190602001808311610a1057829003601f168201915b505050505081526020019060010190610984565b505050509050925092509250909192565b6000806000600160009054906101000a900473ffffffffffffffffffffffffffffffffffffffff1673ffffffffffffffffffffffffffffffffffffffff163373ffffffffffffffffffffffffffffffffffffffff16141515610ab357600080fd5b5050919050565b6000809054906101000a900473ffffffffffffffffffffffffffffffffffffffff1681565b6000806000809054906101000a900473ffffffffffffffffffffffffffffffffffffffff1673ffffffffffffffffffffffffffffffffffffffff163373ffffffffffffffffffffffffffffffffffffffff16141515610b3d57600080fd5b50919050565b60088054600181600116156101000203166002900480601f016020809104026020016040519081016040528092919081815260200182805460018160011615610100020316600290048015610bd95780601f10610bae57610100808354040283529160200191610bd9565b820191906000526020600020905b815481529060010190602001808311610bbc57829003601f168201915b505050505081565b6000600454905090565b600a81815481101515610bfa57fe5b906000526020600020906005020160009150905080600001908060010154908060020154908060030160009054906101000a900460ff16908060040154905085565b600760009054906101000a900460ff1681565b846000806101000a81548173ffffffffffffffffffffffffffffffffffffffff021916908373ffffffffffffffffffffffffffffffffffffffff16021790555083600160006101000a81548173ffffffffffffffffffffffffffffffffffffffff021916908373ffffffffffffffffffffffffffffffffffffffff1602179055508260029080519060200190610ce6929190610fb9565b508060059080519060200190610cfd929190611106565b5042600381905550816004819055505050505050565b610d1b610fa5565b600080610d26610fa5565b60008060086000809054906101000a900473ffffffffffffffffffffffffffffffffffffffff16600160009054906101000a900473ffffffffffffffffffffffffffffffffffffffff166002600354600454858054600181600116156101000203166002900480601f016020809104026020016040519081016040528092919081815260200182805460018160011615610100020316600290048015610e0d5780601f10610de257610100808354040283529160200191610e0d565b820191906000526020600020905b815481529060010190602001808311610df057829003601f168201915b50505050509550828054600181600116156101000203166002900480601f016020809104026020016040519081016040528092919081815260200182805460018160011615610100020316600290048015610ea95780601f10610e7e57610100808354040283529160200191610ea9565b820191906000526020600020905b815481529060010190602001808311610e8c57829003601f168201915b50505050509250955095509550955095509550909192939495565b60045481565b600160009054906101000a900473ffffffffffffffffffffffffffffffffffffffff1681565b610ef8610fa5565b60088054600181600116156101000203166002900480601f016020809104026020016040519081016040528092919081815260200182805460018160011615610100020316600290048015610f8e5780601f10610f6357610100808354040283529160200191610f8e565b820191906000526020600020905b815481529060010190602001808311610f7157829003601f168201915b5050505050905090565b6000600a80549050905090565b602060405190810160405280600081525090565b828054600181600116156101000203166002900490600052602060002090601f016020900481019282601f10610ffa57805160ff1916838001178555611028565b82800160010185558215611028579182015b8281111561102757825182559160200191906001019061100c565b5b5090506110359190611166565b5090565b81548183558181151161106657600502816005028360005260206000209182019101611065919061118b565b5b505050565b828054600181600116156101000203166002900490600052602060002090601f016020900481019282601f106110a457805485556110e1565b828001600101855582156110e157600052602060002091601f016020900482015b828111156110e05782548255916001019190600101906110c5565b5b5090506110ee9190611166565b5090565b602060405190810160405280600081525090565b828054828255906000526020600020908101928215611155579160200282015b828111156111545782518290805190602001906111449291906111e6565b5091602001919060010190611126565b5b5090506111629190611266565b5090565b61118891905b8082111561118457600081600090555060010161116c565b5090565b90565b6111e391905b808211156111df57600080820160006111aa9190611292565b600182016000905560028201600090556003820160006101000a81549060ff0219169055600482016000905550600501611191565b5090565b90565b828054600181600116156101000203166002900490600052602060002090601f016020900481019282601f1061122757805160ff1916838001178555611255565b82800160010185558215611255579182015b82811115611254578251825591602001919060010190611239565b5b5090506112629190611166565b5090565b61128f91905b8082111561128b57600081816112829190611292565b5060010161126c565b5090565b90565b50805460018160011615610100020316600290046000825580601f106112b857506112d7565b601f0160209004906000526020600020908101906112d69190611166565b5b50565b60006112e68235611b69565b905092915050565b600082601f830112151561130157600080fd5b813561131461130f82611a28565b6119fb565b9150818183526020840193506020810190508360005b8381101561135a578135860161134088826113e9565b84526020840193506020830192505060018101905061132a565b5050505092915050565b600082601f830112151561137757600080fd5b813561138a61138582611a50565b6119fb565b915081818352602084019350602081019050838560208402820111156113af57600080fd5b60005b838110156113df57816113c58882611495565b8452602084019350602083019250506001810190506113b2565b5050505092915050565b600082601f83011215156113fc57600080fd5b813561140f61140a82611a78565b6119fb565b9150808252602083016020830185838301111561142b57600080fd5b611436838284611ba5565b50505092915050565b600082601f830112151561145257600080fd5b813561146561146082611aa4565b6119fb565b9150808252602083016020830185838301111561148157600080fd5b61148c838284611ba5565b50505092915050565b60006114a18235611b89565b905092915050565b600080600080600060a086880312156114c157600080fd5b60006114cf888289016112da565b95505060206114e0888289016112da565b945050604086013567ffffffffffffffff8111156114fd57600080fd5b6115098882890161143f565b935050606061151a88828901611495565b925050608086013567ffffffffffffffff81111561153757600080fd5b611543888289016112ee565b9150509295509295909350565b60008060008060008060c0878903121561156957600080fd5b600087013567ffffffffffffffff81111561158357600080fd5b61158f89828a0161143f565b96505060206115a089828a01611495565b955050604087013567ffffffffffffffff8111156115bd57600080fd5b6115c989828a016112ee565b945050606087013567ffffffffffffffff8111156115e657600080fd5b6115f289828a01611364565b935050608087013567ffffffffffffffff81111561160f57600080fd5b61161b89828a01611364565b92505060a061162c89828a01611495565b9150509295509295509295565b60006020828403121561164b57600080fd5b600061165984828501611495565b91505092915050565b61166b81611b1d565b82525050565b600061167c82611aef565b8084526020840193508360208202850161169585611ad0565b60005b848110156116ce5783830388526116b0838351611733565b92506116bb82611b10565b9150602088019750600181019050611698565b508196508694505050505092915050565b6116e881611b3d565b82525050565b6116f781611b93565b82525050565b600061170882611b05565b80845261171c816020860160208601611bb4565b61172581611be7565b602085010191505092915050565b600061173e82611afa565b808452611752816020860160208601611bb4565b61175b81611be7565b602085010191505092915050565b60008154600181166000811461178657600181146117a6576117e7565b607f600283041680865260ff1983166020870152604086019350506117e7565b600282048086526020860195506117bc85611add565b60005b828110156117de578154818901526001820191506020810190506117bf565b80880195505050505b505092915050565b6117f881611b5f565b82525050565b60006020820190506118136000830184611662565b92915050565b600060208201905061182e60008301846116df565b92915050565b6000602082019050818103600083015261184e8184611733565b905092915050565b6000602082019050818103600083015261187081846116fd565b905092915050565b600060c082019050818103600083015261189281896116fd565b90506118a16020830188611662565b6118ae6040830187611662565b81810360608301526118c081866116fd565b90506118cf60808301856117ef565b6118dc60a08301846117ef565b979650505050505050565b6000606082019050818103600083015261190181866116fd565b905061191060208301856117ef565b81810360408301526119228184611671565b9050949350505050565b600060a082019050818103600083015261194681886116fd565b905061195560208301876117ef565b61196260408301866117ef565b61196f60608301856116ee565b61197c60808301846117ef565b9695505050505050565b600060a08201905081810360008301526119a08188611769565b90506119af60208301876117ef565b6119bc60408301866117ef565b6119c960608301856116ee565b6119d660808301846117ef565b9695505050505050565b60006020820190506119f560008301846117ef565b92915050565b6000604051905081810181811067ffffffffffffffff82111715611a1e57600080fd5b8060405250919050565b600067ffffffffffffffff821115611a3f57600080fd5b602082029050602081019050919050565b600067ffffffffffffffff821115611a6757600080fd5b602082029050602081019050919050565b600067ffffffffffffffff821115611a8f57600080fd5b601f19601f8301169050602081019050919050565b600067ffffffffffffffff821115611abb57600080fd5b601f19601f8301169050602081019050919050565b6000602082019050919050565b60008160005260206000209050919050565b600081519050919050565b600081519050919050565b600081519050919050565b6000602082019050919050565b600073ffffffffffffffffffffffffffffffffffffffff82169050919050565b60008115159050919050565b6000600582101515611b5757fe5b819050919050565b6000819050919050565b600073ffffffffffffffffffffffffffffffffffffffff82169050919050565b6000819050919050565b6000611b9e82611b49565b9050919050565b82818337600083830152505050565b60005b83811015611bd2578082015181840152602081019050611bb7565b83811115611be1576000848401525b50505050565b6000601f19601f83011690509190505600a265627a7a72305820188eccf48da829d3973baa22afa407103e7f830017f44ca85a5fea458fb8830b6c6578706572696d656e74616cf50037a265627a7a72305820199174a8517a422342eeedb8e7196d577991d37437154735be83fa6fbcb42a526c6578706572696d656e74616cf50037",
  "source": "pragma solidity ^0.4.20;\npragma experimental ABIEncoderV2;\n\nimport \"./Contract.sol\";\n\n\ncontract FactoryContract {\n    address[] allContracts;\n\n    function FactoryContract() {\n    }\n\n    function createContract(address govtOfficerAddress,\n        address _contractorAddress, string _contractName, string _tenderId, \n        uint _completionTime, \n        string[] _constraints, \n        uint _finalQuotationAmount,\n        string[] _taskDescription, \n        uint[] _deadlineForEachTask, \n        uint[] _amountForEachTask, \n        uint _reviewtime) public payable returns (address) {\n        \n        Contract newContract = new Contract();\n        \n        newContract.setContractBasic(govtOfficerAddress, \n        _contractorAddress, \n        _tenderId,\n        _completionTime,\n        _constraints\n        );\n\n        newContract.setContractAdvanced(_contractName, \n        _finalQuotationAmount,\n        _taskDescription, \n        _deadlineForEachTask, \n        _amountForEachTask, \n        _reviewtime);\n\n        allContracts.push(newContract);\n        return newContract;\n    }\n}",
  "sourcePath": "/home/scoco/Desktop/TenderSystem---Blockchain/contracts/FactoryContract.sol",
  "compiler": {
    "name": "solc",
    "version": "0.4.20+commit.3155dd80.Emscripten.clang"
  },
  "schemaVersion": "1.0.1",
  "updatedAt": "2018-03-20T23:00:43.352Z"
}