{
  "contractName": "FactoryContract",
  "abi": [
    {
      "constant": false,
      "inputs": [
        {
          "name": "govtOfficerAddress",
          "type": "address"
        },
        {
          "name": "_contractorAddress",
          "type": "address"
        },
        {
          "name": "_contractName",
          "type": "string"
        },
        {
          "name": "_tenderId",
          "type": "string"
        },
        {
          "name": "_completionTime",
          "type": "uint256"
        },
        {
          "name": "_constraints",
          "type": "string[]"
        },
        {
          "name": "_finalQuotationAmount",
          "type": "uint256"
        },
        {
          "name": "_taskDescription",
          "type": "string[]"
        },
        {
          "name": "_deadlineForEachTask",
          "type": "uint256[]"
        },
        {
          "name": "_amountForEachTask",
          "type": "uint256[]"
        },
        {
          "name": "_reviewtime",
          "type": "uint256"
        }
      ],
      "name": "createContract",
      "outputs": [
        {
          "name": "",
          "type": "address"
        }
      ],
      "payable": false,
      "stateMutability": "nonpayable",
      "type": "function"
    },
    {
      "inputs": [],
      "payable": false,
      "stateMutability": "nonpayable",
      "type": "constructor"
    }
  ],
  "bytecode": "0x6060604052341561000f57600080fd5b61283d8061001e6000396000f300606060405260043610610041576000357c0100000000000000000000000000000000000000000000000000000000900463ffffffff168063757d4a0014610046575b600080fd5b341561005157600080fd5b610066600461006190369061045b565b61007c565b604051610073919061072e565b60405180910390f35b60008061008761022b565b604051809103906000f080151561009d57600080fd5b90508073ffffffffffffffffffffffffffffffffffffffff1663a83752028e8e8d8d8d6040518663ffffffff167c01000000000000000000000000000000000000000000000000000000000281526004016100fc959493929190610749565b600060405180830381600087803b151561011557600080fd5b6102c65a03f1151561012657600080fd5b5050508073ffffffffffffffffffffffffffffffffffffffff16632e498b908c89898989896040518763ffffffff167c0100000000000000000000000000000000000000000000000000000000028152600401610188969594939291906107aa565b600060405180830381600087803b15156101a157600080fd5b6102c65a03f115156101b257600080fd5b505050600080548060010182816101c9919061023b565b9160005260206000209001600083909190916101000a81548173ffffffffffffffffffffffffffffffffffffffff021916908373ffffffffffffffffffffffffffffffffffffffff16021790555050809150509b9a5050505050505050505050565b604051611e0080610a0483390190565b815481835581811511610262578183600052602060002091820191016102619190610267565b5b505050565b61028991905b8082111561028557600081600090555060010161026d565b5090565b90565b60006102988235610986565b905092915050565b600082601f83011215156102b357600080fd5b81356102c66102c182610854565b610827565b9150818183526020840193506020810190508360005b8381101561030c57813586016102f2888261039b565b8452602084019350602083019250506001810190506102dc565b5050505092915050565b600082601f830112151561032957600080fd5b813561033c6103378261087c565b610827565b9150818183526020840193506020810190508385602084028201111561036157600080fd5b60005b8381101561039157816103778882610447565b845260208401935060208301925050600181019050610364565b5050505092915050565b600082601f83011215156103ae57600080fd5b81356103c16103bc826108a4565b610827565b915080825260208301602083018583830111156103dd57600080fd5b6103e88382846109b0565b50505092915050565b600082601f830112151561040457600080fd5b8135610417610412826108d0565b610827565b9150808252602083016020830185838301111561043357600080fd5b61043e8382846109b0565b50505092915050565b600061045382356109a6565b905092915050565b60008060008060008060008060008060006101608c8e03121561047d57600080fd5b600061048b8e828f0161028c565b9b5050602061049c8e828f0161028c565b9a505060408c013567ffffffffffffffff8111156104b957600080fd5b6104c58e828f016103f1565b99505060608c013567ffffffffffffffff8111156104e257600080fd5b6104ee8e828f016103f1565b98505060806104ff8e828f01610447565b97505060a08c013567ffffffffffffffff81111561051c57600080fd5b6105288e828f016102a0565b96505060c06105398e828f01610447565b95505060e08c013567ffffffffffffffff81111561055657600080fd5b6105628e828f016102a0565b9450506101008c013567ffffffffffffffff81111561058057600080fd5b61058c8e828f01610316565b9350506101208c013567ffffffffffffffff8111156105aa57600080fd5b6105b68e828f01610316565b9250506101406105c88e828f01610447565b9150509295989b509295989b9093969950565b6105e48161095c565b82525050565b60006105f582610916565b8084526020840193508360208202850161060e856108fc565b60005b848110156106475783830388526106298383516106e9565b925061063482610942565b9150602088019750600181019050610611565b508196508694505050505092915050565b600061066382610921565b80845260208401935061067583610909565b60005b828110156106a75761068b86835161071f565b6106948261094f565b9150602086019550600181019050610678565b50849250505092915050565b60006106be82610937565b8084526106d28160208601602086016109bf565b6106db816109f2565b602085010191505092915050565b60006106f48261092c565b8084526107088160208601602086016109bf565b610711816109f2565b602085010191505092915050565b6107288161097c565b82525050565b600060208201905061074360008301846105db565b92915050565b600060a08201905061075e60008301886105db565b61076b60208301876105db565b818103604083015261077d81866106b3565b905061078c606083018561071f565b818103608083015261079e81846105ea565b90509695505050505050565b600060c08201905081810360008301526107c481896106b3565b90506107d3602083018861071f565b81810360408301526107e581876105ea565b905081810360608301526107f98186610658565b9050818103608083015261080d8185610658565b905061081c60a083018461071f565b979650505050505050565b6000604051905081810181811067ffffffffffffffff8211171561084a57600080fd5b8060405250919050565b600067ffffffffffffffff82111561086b57600080fd5b602082029050602081019050919050565b600067ffffffffffffffff82111561089357600080fd5b602082029050602081019050919050565b600067ffffffffffffffff8211156108bb57600080fd5b601f19601f8301169050602081019050919050565b600067ffffffffffffffff8211156108e757600080fd5b601f19601f8301169050602081019050919050565b6000602082019050919050565b6000602082019050919050565b600081519050919050565b600081519050919050565b600081519050919050565b600081519050919050565b6000602082019050919050565b6000602082019050919050565b600073ffffffffffffffffffffffffffffffffffffffff82169050919050565b6000819050919050565b600073ffffffffffffffffffffffffffffffffffffffff82169050919050565b6000819050919050565b82818337600083830152505050565b60005b838110156109dd5780820151818401526020810190506109c2565b838111156109ec576000848401525b50505050565b6000601f19601f830116905091905056006060604052341561000f57600080fd5b611de28061001e6000396000f300606060405260043610610107576000357c0100000000000000000000000000000000000000000000000000000000900463ffffffff168063041f624f1461010c57806305b34410146101425780631d65e77e1461016b5780632e498b90146101a55780633e959bc8146101bc57806344e446a4146101de57806345bf2d2c1461020a57806346d722e71461022c5780635573e3ef1461025557806375d0c0dc1461028b5780638a2cfcc4146102b45780638d977672146102dd578063a783fd9214610317578063a837520214610340578063c2f218b914610357578063e87870b614610384578063f21376af146103ad578063f5f5ba72146103d6578063f6397fd3146103ff575b600080fd5b341561011757600080fd5b61012c60046101279036906116e0565b610428565b6040516101399190611a19565b60405180910390f35b341561014d57600080fd5b6101556104e4565b6040516101629190611b6b565b60405180910390f35b341561017657600080fd5b61018b60046101869036906116e0565b6104ea565b60405161019c959493929190611ab7565b60405180910390f35b6101ba60046101b59036906115f7565b610658565b005b34156101c757600080fd5b6101dc60046101d79036906116e0565b610838565b005b34156101e957600080fd5b6101f161089a565b6040516102019493929190611a5d565b60405180910390f35b341561021557600080fd5b61022a60046102259036906116e0565b610b92565b005b341561023757600080fd5b61023f610bf6565b60405161024c9190611989565b60405180910390f35b341561026057600080fd5b61027560046102709036906116e0565b610c1b565b60405161028291906119fe565b60405180910390f35b341561029657600080fd5b61029e610c7f565b6040516102ab9190611a19565b60405180910390f35b34156102bf57600080fd5b6102c7610d1d565b6040516102d49190611b6b565b60405180910390f35b34156102e857600080fd5b6102fd60046102f89036906116e0565b610d27565b60405161030e959493929190611b11565b60405180910390f35b341561032257600080fd5b61032a610d78565b60405161033791906119fe565b60405180910390f35b6103556004610350903690611550565b610d8b565b005b341561036257600080fd5b61036a610e4f565b60405161037b9594939291906119a4565b60405180910390f35b341561038f57600080fd5b610397610f57565b6040516103a49190611b6b565b60405180910390f35b34156103b857600080fd5b6103c0610f5d565b6040516103cd9190611989565b60405180910390f35b34156103e157600080fd5b6103e9610f83565b6040516103f69190611a3b565b60405180910390f35b341561040a57600080fd5b61041261102b565b60405161041f9190611b6b565b60405180910390f35b60058181548110151561043757fe5b90600052602060002090016000915090508054600181600116156101000203166002900480601f0160208091040260200160405190810160405280929190818152602001828054600181600116156101000203166002900480156104dc5780601f106104b1576101008083540402835291602001916104dc565b820191906000526020600020905b8154815290600101906020018083116104bf57829003601f168201915b505050505081565b60035481565b6104f2611038565b600080600080600a8681548110151561050757fe5b9060005260206000209060050201600001600a8781548110151561052757fe5b906000526020600020906005020160010154600a8881548110151561054857fe5b906000526020600020906005020160020154600a8981548110151561056957fe5b906000526020600020906005020160030160009054906101000a900460ff16600a8a81548110151561059757fe5b906000526020600020906005020160040154848054600181600116156101000203166002900480601f01602080910402602001604051908101604052809291908181526020018280546001816001161561010002031660029004801561063e5780601f106106135761010080835404028352916020019161063e565b820191906000526020600020905b81548152906001019060200180831161062157829003601f168201915b505050505094509450945094509450945091939590929450565b6000806000886008908051906020019061067392919061104c565b508760068190555060009250600091505b865182101561080757600a8080548091906001016106a291906110cc565b8154811015156106ae57fe5b9060005260206000209060050201905086828151811015156106cc57fe5b906020019060200201518160000190805190602001906106ed92919061104c565b5085828151811015156106fc57fe5b906020019060200201518160010181905550848281518110151561071c57fe5b906020019060200201518160020181905550670de0b6b3a76400008160020154028301925060008160030160006101000a81548160ff0219169083600481111561076257fe5b02179055508060096000848152602001908152602001600020600082018160000190805460018160011615610100020316600290046107a29291906110fe565b5060018201548160010155600282015481600201556003820160009054906101000a900460ff168160030160006101000a81548160ff021916908360048111156107e857fe5b0217905550600482015481600401559050508180600101925050610684565b670de0b6b3a7640000340283111561081e57600080fd5b60065483111561082d57600080fd5b505050505050505050565b6000600160009054906101000a900473ffffffffffffffffffffffffffffffffffffffff1673ffffffffffffffffffffffffffffffffffffffff163373ffffffffffffffffffffffffffffffffffffffff1614151561089657600080fd5b5050565b6108a2611038565b60006108ac611185565b6108b4611199565b60086006546005600a838054600181600116156101000203166002900480601f0160208091040260200160405190810160405280929190818152602001828054600181600116156101000203166002900480156109525780601f1061092757610100808354040283529160200191610952565b820191906000526020600020905b81548152906001019060200180831161093557829003601f168201915b5050505050935081805480602002602001604051908101604052809291908181526020016000905b82821015610a3757838290600052602060002090018054600181600116156101000203166002900480601f016020809104026020016040519081016040528092919081815260200182805460018160011615610100020316600290048015610a235780601f106109f857610100808354040283529160200191610a23565b820191906000526020600020905b815481529060010190602001808311610a0657829003601f168201915b50505050508152602001906001019061097a565b50505050915080805480602002602001604051908101604052809291908181526020016000905b82821015610b7e578382906000526020600020906005020160a06040519081016040529081600082018054600181600116156101000203166002900480601f016020809104026020016040519081016040528092919081815260200182805460018160011615610100020316600290048015610b1b5780601f10610af057610100808354040283529160200191610b1b565b820191906000526020600020905b815481529060010190602001808311610afe57829003601f168201915b5050505050815260200160018201548152602001600282015481526020016003820160009054906101000a900460ff166004811115610b5657fe5b6004811115610b6157fe5b815260200160048201548152505081526020019060010190610a5e565b505050509050935093509350935090919293565b600080600160009054906101000a900473ffffffffffffffffffffffffffffffffffffffff1673ffffffffffffffffffffffffffffffffffffffff163373ffffffffffffffffffffffffffffffffffffffff16141515610bf157600080fd5b505050565b6000809054906101000a900473ffffffffffffffffffffffffffffffffffffffff1681565b6000806000809054906101000a900473ffffffffffffffffffffffffffffffffffffffff1673ffffffffffffffffffffffffffffffffffffffff163373ffffffffffffffffffffffffffffffffffffffff16141515610c7957600080fd5b50919050565b60088054600181600116156101000203166002900480601f016020809104026020016040519081016040528092919081815260200182805460018160011615610100020316600290048015610d155780601f10610cea57610100808354040283529160200191610d15565b820191906000526020600020905b815481529060010190602001808311610cf857829003601f168201915b505050505081565b6000600454905090565b600a81815481101515610d3657fe5b906000526020600020906005020160009150905080600001908060010154908060020154908060030160009054906101000a900460ff16908060040154905085565b600760009054906101000a900460ff1681565b846000806101000a81548173ffffffffffffffffffffffffffffffffffffffff021916908373ffffffffffffffffffffffffffffffffffffffff16021790555083600160006101000a81548173ffffffffffffffffffffffffffffffffffffffff021916908373ffffffffffffffffffffffffffffffffffffffff1602179055508260029080519060200190610e2292919061104c565b508060059080519060200190610e399291906111ad565b5042600381905550816004819055505050505050565b600080610e5a611038565b6000806000809054906101000a900473ffffffffffffffffffffffffffffffffffffffff16600160009054906101000a900473ffffffffffffffffffffffffffffffffffffffff166002600354600454828054600181600116156101000203166002900480601f016020809104026020016040519081016040528092919081815260200182805460018160011615610100020316600290048015610f3f5780601f10610f1457610100808354040283529160200191610f3f565b820191906000526020600020905b815481529060010190602001808311610f2257829003601f168201915b50505050509250945094509450945094509091929394565b60045481565b600160009054906101000a900473ffffffffffffffffffffffffffffffffffffffff1681565b610f8b611038565b60088054600181600116156101000203166002900480601f0160208091040260200160405190810160405280929190818152602001828054600181600116156101000203166002900480156110215780601f10610ff657610100808354040283529160200191611021565b820191906000526020600020905b81548152906001019060200180831161100457829003601f168201915b5050505050905090565b6000600a80549050905090565b602060405190810160405280600081525090565b828054600181600116156101000203166002900490600052602060002090601f016020900481019282601f1061108d57805160ff19168380011785556110bb565b828001600101855582156110bb579182015b828111156110ba57825182559160200191906001019061109f565b5b5090506110c8919061120d565b5090565b8154818355818115116110f9576005028160050283600052602060002091820191016110f89190611232565b5b505050565b828054600181600116156101000203166002900490600052602060002090601f016020900481019282601f106111375780548555611174565b8280016001018555821561117457600052602060002091601f016020900482015b82811115611173578254825591600101919060010190611158565b5b509050611181919061120d565b5090565b602060405190810160405280600081525090565b602060405190810160405280600081525090565b8280548282559060005260206000209081019282156111fc579160200282015b828111156111fb5782518290805190602001906111eb92919061128d565b50916020019190600101906111cd565b5b509050611209919061130d565b5090565b61122f91905b8082111561122b576000816000905550600101611213565b5090565b90565b61128a91905b8082111561128657600080820160006112519190611339565b600182016000905560028201600090556003820160006101000a81549060ff0219169055600482016000905550600501611238565b5090565b90565b828054600181600116156101000203166002900490600052602060002090601f016020900481019282601f106112ce57805160ff19168380011785556112fc565b828001600101855582156112fc579182015b828111156112fb5782518255916020019190600101906112e0565b5b509050611309919061120d565b5090565b61133691905b8082111561133257600081816113299190611339565b50600101611313565b5090565b90565b50805460018160011615610100020316600290046000825580601f1061135f575061137e565b601f01602090049060005260206000209081019061137d919061120d565b5b50565b600061138d8235611d19565b905092915050565b600082601f83011215156113a857600080fd5b81356113bb6113b682611bb3565b611b86565b9150818183526020840193506020810190508360005b8381101561140157813586016113e78882611490565b8452602084019350602083019250506001810190506113d1565b5050505092915050565b600082601f830112151561141e57600080fd5b813561143161142c82611bdb565b611b86565b9150818183526020840193506020810190508385602084028201111561145657600080fd5b60005b83811015611486578161146c888261153c565b845260208401935060208301925050600181019050611459565b5050505092915050565b600082601f83011215156114a357600080fd5b81356114b66114b182611c03565b611b86565b915080825260208301602083018583830111156114d257600080fd5b6114dd838284611d55565b50505092915050565b600082601f83011215156114f957600080fd5b813561150c61150782611c2f565b611b86565b9150808252602083016020830185838301111561152857600080fd5b611533838284611d55565b50505092915050565b60006115488235611d39565b905092915050565b600080600080600060a0868803121561156857600080fd5b600061157688828901611381565b955050602061158788828901611381565b945050604086013567ffffffffffffffff8111156115a457600080fd5b6115b0888289016114e6565b93505060606115c18882890161153c565b925050608086013567ffffffffffffffff8111156115de57600080fd5b6115ea88828901611395565b9150509295509295909350565b60008060008060008060c0878903121561161057600080fd5b600087013567ffffffffffffffff81111561162a57600080fd5b61163689828a016114e6565b965050602061164789828a0161153c565b955050604087013567ffffffffffffffff81111561166457600080fd5b61167089828a01611395565b945050606087013567ffffffffffffffff81111561168d57600080fd5b61169989828a0161140b565b935050608087013567ffffffffffffffff8111156116b657600080fd5b6116c289828a0161140b565b92505060a06116d389828a0161153c565b9150509295509295509295565b6000602082840312156116f257600080fd5b60006117008482850161153c565b91505092915050565b61171281611ccd565b82525050565b600061172382611c87565b8084526020840193508360208202850161173c85611c5b565b60005b84811015611775578383038852611757838351611848565b925061176282611cb3565b915060208801975060018101905061173f565b508196508694505050505092915050565b600061179182611c92565b808452602084019350836020820285016117aa85611c68565b60005b848110156117e35783830388526117c5838351611904565b92506117d082611cc0565b91506020880197506001810190506117ad565b508196508694505050505092915050565b6117fd81611ced565b82525050565b61180c81611d43565b82525050565b600061181d82611ca8565b808452611831816020860160208601611d64565b61183a81611d97565b602085010191505092915050565b600061185382611c9d565b808452611867816020860160208601611d64565b61187081611d97565b602085010191505092915050565b60008154600181166000811461189b57600181146118bb576118fc565b607f600283041680865260ff1983166020870152604086019350506118fc565b600282048086526020860195506118d185611c75565b60005b828110156118f3578154818901526001820191506020810190506118d4565b80880195505050505b505092915050565b600060a08301600083015184820360008601526119218282611848565b9150506020830151611936602086018261197a565b506040830151611949604086018261197a565b50606083015161195c6060860182611803565b50608083015161196f608086018261197a565b508091505092915050565b61198381611d0f565b82525050565b600060208201905061199e6000830184611709565b92915050565b600060a0820190506119b96000830188611709565b6119c66020830187611709565b81810360408301526119d88186611812565b90506119e7606083018561197a565b6119f4608083018461197a565b9695505050505050565b6000602082019050611a1360008301846117f4565b92915050565b60006020820190508181036000830152611a338184611848565b905092915050565b60006020820190508181036000830152611a558184611812565b905092915050565b60006080820190508181036000830152611a778187611812565b9050611a86602083018661197a565b8181036040830152611a988185611718565b90508181036060830152611aac8184611786565b905095945050505050565b600060a0820190508181036000830152611ad18188611812565b9050611ae0602083018761197a565b611aed604083018661197a565b611afa6060830185611803565b611b07608083018461197a565b9695505050505050565b600060a0820190508181036000830152611b2b818861187e565b9050611b3a602083018761197a565b611b47604083018661197a565b611b546060830185611803565b611b61608083018461197a565b9695505050505050565b6000602082019050611b80600083018461197a565b92915050565b6000604051905081810181811067ffffffffffffffff82111715611ba957600080fd5b8060405250919050565b600067ffffffffffffffff821115611bca57600080fd5b602082029050602081019050919050565b600067ffffffffffffffff821115611bf257600080fd5b602082029050602081019050919050565b600067ffffffffffffffff821115611c1a57600080fd5b601f19601f8301169050602081019050919050565b600067ffffffffffffffff821115611c4657600080fd5b601f19601f8301169050602081019050919050565b6000602082019050919050565b6000602082019050919050565b60008160005260206000209050919050565b600081519050919050565b600081519050919050565b600081519050919050565b600081519050919050565b6000602082019050919050565b6000602082019050919050565b600073ffffffffffffffffffffffffffffffffffffffff82169050919050565b60008115159050919050565b6000600582101515611d0757fe5b819050919050565b6000819050919050565b600073ffffffffffffffffffffffffffffffffffffffff82169050919050565b6000819050919050565b6000611d4e82611cf9565b9050919050565b82818337600083830152505050565b60005b83811015611d82578082015181840152602081019050611d67565b83811115611d91576000848401525b50505050565b6000601f19601f83011690509190505600a265627a7a72305820a7453e817d394a125d966c56994a99c3d3f538322e57119490d3f03c1e99d67e6c6578706572696d656e74616cf50037a265627a7a7230582055cd6ed8dcfe36a9ee3ec008143340c3aad60a749545b6a2ee0ffb8ca8d0b95c6c6578706572696d656e74616cf50037",
  "source": "pragma solidity ^0.4.20;\npragma experimental ABIEncoderV2;\n\nimport \"./Contract.sol\";\n\n\ncontract FactoryContract {\n    address[] allContracts;\n\n    function FactoryContract() {\n    }\n\n    function createContract(address govtOfficerAddress,\n        address _contractorAddress, string _contractName, string _tenderId, \n        uint _completionTime, \n        string[] _constraints, \n        uint _finalQuotationAmount,\n        string[] _taskDescription, \n        uint[] _deadlineForEachTask, \n        uint[] _amountForEachTask, \n        uint _reviewtime) public returns (address) {\n        \n        Contract newContract = new Contract();\n        \n        newContract.setContractBasic(govtOfficerAddress, \n        _contractorAddress, \n        _tenderId,\n        _completionTime,\n        _constraints\n        );\n\n        newContract.setContractAdvanced(_contractName, \n        _finalQuotationAmount,\n        _taskDescription, \n        _deadlineForEachTask, \n        _amountForEachTask, \n        _reviewtime);\n\n        allContracts.push(newContract);\n        return newContract;\n    }\n}",
  "sourcePath": "/home/scoco/Desktop/TenderSystem---Blockchain/contracts/FactoryContract.sol",
  "compiler": {
    "name": "solc",
    "version": "0.4.20+commit.3155dd80.Emscripten.clang"
  },
  "schemaVersion": "1.0.1",
  "updatedAt": "2018-03-20T16:02:08.182Z"
}