{
  "contractName": "FactoryGovernmentOfficer",
  "abi": [
    {
      "constant": false,
      "inputs": [
        {
          "name": "_walletAddress",
          "type": "address"
        },
        {
          "name": "_email",
          "type": "string"
        },
        {
          "name": "_name",
          "type": "string"
        },
        {
          "name": "_phoneNumber",
          "type": "string"
        },
        {
          "name": "_employeeId",
          "type": "string"
        }
      ],
      "name": "registerOfficer",
      "outputs": [
        {
          "name": "",
          "type": "address"
        }
      ],
      "payable": false,
      "stateMutability": "nonpayable",
      "type": "function"
    },
    {
      "inputs": [],
      "payable": false,
      "stateMutability": "nonpayable",
      "type": "constructor"
    }
  ],
  "bytecode": "0x6060604052341561000f57600080fd5b611caf8061001e6000396000f300606060405260043610610041576000357c0100000000000000000000000000000000000000000000000000000000900463ffffffff1680635eaab2e814610046575b600080fd5b341561005157600080fd5b6100666004610061903690610264565b61007c565b6040516100739190610380565b60405180910390f35b600080610087610199565b604051809103906000f080151561009d57600080fd5b90508073ffffffffffffffffffffffffffffffffffffffff166371750db688888888886040518663ffffffff167c01000000000000000000000000000000000000000000000000000000000281526004016100fc95949392919061039b565b600060405180830381600087803b151561011557600080fd5b6102c65a03f1151561012657600080fd5b5050506000805480600101828161013d91906101a9565b9160005260206000209001600083909190916101000a81548173ffffffffffffffffffffffffffffffffffffffff021916908373ffffffffffffffffffffffffffffffffffffffff160217905550508091505095945050505050565b6040516117748061050283390190565b8154818355818115116101d0578183600052602060002091820191016101cf91906101d5565b5b505050565b6101f791905b808211156101f35760008160009055506001016101db565b5090565b90565b6000610206823561048e565b905092915050565b600082601f830112151561022157600080fd5b813561023461022f82610437565b61040a565b9150808252602083016020830185838301111561025057600080fd5b61025b8382846104ae565b50505092915050565b600080600080600060a0868803121561027c57600080fd5b600061028a888289016101fa565b955050602086013567ffffffffffffffff8111156102a757600080fd5b6102b38882890161020e565b945050604086013567ffffffffffffffff8111156102d057600080fd5b6102dc8882890161020e565b935050606086013567ffffffffffffffff8111156102f957600080fd5b6103058882890161020e565b925050608086013567ffffffffffffffff81111561032257600080fd5b61032e8882890161020e565b9150509295509295909350565b6103448161046e565b82525050565b600061035582610463565b8084526103698160208601602086016104bd565b610372816104f0565b602085010191505092915050565b6000602082019050610395600083018461033b565b92915050565b600060a0820190506103b0600083018861033b565b81810360208301526103c2818761034a565b905081810360408301526103d6818661034a565b905081810360608301526103ea818561034a565b905081810360808301526103fe818461034a565b90509695505050505050565b6000604051905081810181811067ffffffffffffffff8211171561042d57600080fd5b8060405250919050565b600067ffffffffffffffff82111561044e57600080fd5b601f19601f8301169050602081019050919050565b600081519050919050565b600073ffffffffffffffffffffffffffffffffffffffff82169050919050565b600073ffffffffffffffffffffffffffffffffffffffff82169050919050565b82818337600083830152505050565b60005b838110156104db5780820151818401526020810190506104c0565b838111156104ea576000848401525b50505050565b6000601f19601f830116905091905056006060604052341561000f57600080fd5b6117568061001e6000396000f30060606040526004361061011d576000357c0100000000000000000000000000000000000000000000000000000000900463ffffffff16806306fdde031461012257806316f4f3041461014b5780631ad86bf21461018157806336b811d514610196578063423d4f80146101cc578063465e1def14610202578063474da79a14610238578063534f9c531461026e57806366a0a6d9146102a45780636ad5b3ea146102da57806371750db61461030357806373c6617214610325578063747f33801461035b578063820e93f51461038457806384ab30a5146103ad578063c1fb28ec146103d6578063cd57d0531461040c578063d41ed8e714610442578063e2c2538b14610478578063eddd1d1d146104ae578063f9ae20e6146104e4575b600080fd5b341561012d57600080fd5b61013561051a565b60405161014291906115c8565b60405180910390f35b341561015657600080fd5b61016b6004610166903690611498565b6105b8565b6040516101789190611570565b60405180910390f35b341561018c57600080fd5b6101946105f7565b005b34156101a157600080fd5b6101b660046101b1903690611403565b610614565b6040516101c3919061158b565b60405180910390f35b34156101d757600080fd5b6101ec60046101e79036906112f0565b6106aa565b6040516101f991906115ad565b60405180910390f35b341561020d57600080fd5b610222600461021d903690611498565b610962565b60405161022f9190611570565b60405180910390f35b341561024357600080fd5b6102586004610253903690611498565b6109a1565b6040516102659190611570565b60405180910390f35b341561027957600080fd5b61028e60046102899036906112c7565b6109e0565b60405161029b91906115ad565b60405180910390f35b34156102af57600080fd5b6102c460046102bf903690611498565b610a00565b6040516102d19190611570565b60405180910390f35b34156102e557600080fd5b6102ed610a3f565b6040516102fa9190611570565b60405180910390f35b341561030e57600080fd5b610323600461031e90369061132c565b610a64565b005b341561033057600080fd5b6103456004610340903690611444565b610b22565b6040516103529190611570565b60405180910390f35b341561036657600080fd5b61036e610b8d565b60405161037b91906115c8565b60405180910390f35b341561038f57600080fd5b610397610c2b565b6040516103a491906115c8565b60405180910390f35b34156103b857600080fd5b6103c0610cc9565b6040516103cd91906115c8565b60405180910390f35b34156103e157600080fd5b6103f660046103f19036906112c7565b610d67565b6040516104039190611570565b60405180910390f35b341561041757600080fd5b61042c6004610427903690611403565b610d9a565b604051610439919061158b565b60405180910390f35b341561044d57600080fd5b610462600461045d903690611403565b610e30565b60405161046f919061158b565b60405180910390f35b341561048357600080fd5b6104986004610493903690611444565b610ec6565b6040516104a591906115ad565b60405180910390f35b34156104b957600080fd5b6104ce60046104c9903690611444565b611063565b6040516104db9190611570565b60405180910390f35b34156104ef57600080fd5b61050460046104ff903690611403565b6110ce565b604051610511919061158b565b60405180910390f35b60038054600181600116156101000203166002900480601f0160208091040260200160405190810160405280929190818152602001828054600181600116156101000203166002900480156105b05780601f10610585576101008083540402835291602001916105b0565b820191906000526020600020905b81548152906001019060200180831161059357829003601f168201915b505050505081565b6007818154811015156105c757fe5b90600052602060002090016000915054906101000a900473ffffffffffffffffffffffffffffffffffffffff1681565b6001600560006101000a81548160ff021916908315150217905550565b61061c611164565b600880548060200260200160405190810160405280929190818152602001828054801561069e57602002820191906000526020600020905b8160009054906101000a900473ffffffffffffffffffffffffffffffffffffffff1673ffffffffffffffffffffffffffffffffffffffff1681526020019060010190808311610654575b50505050509050919050565b600080600090505b600680549050811015610956578373ffffffffffffffffffffffffffffffffffffffff166006828154811015156106e557fe5b906000526020600020900160009054906101000a900473ffffffffffffffffffffffffffffffffffffffff1673ffffffffffffffffffffffffffffffffffffffff16141561094957600780548060010182816107419190611178565b9160005260206000209001600086909190916101000a81548173ffffffffffffffffffffffffffffffffffffffff021916908373ffffffffffffffffffffffffffffffffffffffff1602179055505082600b60006006848154811015156107a457fe5b906000526020600020900160009054906101000a900473ffffffffffffffffffffffffffffffffffffffff1673ffffffffffffffffffffffffffffffffffffffff1673ffffffffffffffffffffffffffffffffffffffff16815260200190815260200160002060006101000a81548173ffffffffffffffffffffffffffffffffffffffff021916908373ffffffffffffffffffffffffffffffffffffffff1602179055506008805480600101828161085c9190611178565b9160005260206000209001600085909190916101000a81548173ffffffffffffffffffffffffffffffffffffffff021916908373ffffffffffffffffffffffffffffffffffffffff160217905550506000600a60008573ffffffffffffffffffffffffffffffffffffffff1673ffffffffffffffffffffffffffffffffffffffff16815260200190815260200160002060006101000a81548160ff02191690831515021790555060068181548110151561091257fe5b906000526020600020900160006101000a81549073ffffffffffffffffffffffffffffffffffffffff02191690556001915061095b565b80806001019150506106b2565b600091505b5092915050565b60068181548110151561097157fe5b90600052602060002090016000915054906101000a900473ffffffffffffffffffffffffffffffffffffffff1681565b6008818154811015156109b057fe5b90600052602060002090016000915054906101000a900473ffffffffffffffffffffffffffffffffffffffff1681565b600a6020528060005260406000206000915054906101000a900460ff1681565b600981815481101515610a0f57fe5b90600052602060002090016000915054906101000a900473ffffffffffffffffffffffffffffffffffffffff1681565b6000809054906101000a900473ffffffffffffffffffffffffffffffffffffffff1681565b846000806101000a81548173ffffffffffffffffffffffffffffffffffffffff021916908373ffffffffffffffffffffffffffffffffffffffff1602179055508360019080519060200190610aba9291906111a4565b508160029080519060200190610ad19291906111a4565b508260039080519060200190610ae89291906111a4565b508060049080519060200190610aff9291906111a4565b506000600560006101000a81548160ff0219169083151502179055505050505050565b600060068054806001018281610b389190611178565b9160005260206000209001600084909190916101000a81548173ffffffffffffffffffffffffffffffffffffffff021916908373ffffffffffffffffffffffffffffffffffffffff1602179055505092915050565b60028054600181600116156101000203166002900480601f016020809104026020016040519081016040528092919081815260200182805460018160011615610100020316600290048015610c235780601f10610bf857610100808354040283529160200191610c23565b820191906000526020600020905b815481529060010190602001808311610c0657829003601f168201915b505050505081565b60018054600181600116156101000203166002900480601f016020809104026020016040519081016040528092919081815260200182805460018160011615610100020316600290048015610cc15780601f10610c9657610100808354040283529160200191610cc1565b820191906000526020600020905b815481529060010190602001808311610ca457829003601f168201915b505050505081565b60048054600181600116156101000203166002900480601f016020809104026020016040519081016040528092919081815260200182805460018160011615610100020316600290048015610d5f5780601f10610d3457610100808354040283529160200191610d5f565b820191906000526020600020905b815481529060010190602001808311610d4257829003601f168201915b505050505081565b600b6020528060005260406000206000915054906101000a900473ffffffffffffffffffffffffffffffffffffffff1681565b610da2611164565b6007805480602002602001604051908101604052809291908181526020018280548015610e2457602002820191906000526020600020905b8160009054906101000a900473ffffffffffffffffffffffffffffffffffffffff1673ffffffffffffffffffffffffffffffffffffffff1681526020019060010190808311610dda575b50505050509050919050565b610e38611164565b6006805480602002602001604051908101604052809291908181526020018280548015610eba57602002820191906000526020600020905b8160009054906101000a900473ffffffffffffffffffffffffffffffffffffffff1673ffffffffffffffffffffffffffffffffffffffff1681526020019060010190808311610e70575b50505050509050919050565b600080600090505b600880549050811015611057578273ffffffffffffffffffffffffffffffffffffffff16600882815481101515610f0157fe5b906000526020600020900160009054906101000a900473ffffffffffffffffffffffffffffffffffffffff1673ffffffffffffffffffffffffffffffffffffffff16141561104a5760098054806001018281610f5d9190611178565b9160005260206000209001600085909190916101000a81548173ffffffffffffffffffffffffffffffffffffffff021916908373ffffffffffffffffffffffffffffffffffffffff160217905550506001600a60008573ffffffffffffffffffffffffffffffffffffffff1673ffffffffffffffffffffffffffffffffffffffff16815260200190815260200160002060006101000a81548160ff02191690831515021790555060088181548110151561101357fe5b906000526020600020900160006101000a81549073ffffffffffffffffffffffffffffffffffffffff02191690556001915061105c565b8080600101915050610ece565b600091505b5092915050565b6000600880548060010182816110799190611178565b9160005260206000209001600084909190916101000a81548173ffffffffffffffffffffffffffffffffffffffff021916908373ffffffffffffffffffffffffffffffffffffffff1602179055505092915050565b6110d6611164565b600980548060200260200160405190810160405280929190818152602001828054801561115857602002820191906000526020600020905b8160009054906101000a900473ffffffffffffffffffffffffffffffffffffffff1673ffffffffffffffffffffffffffffffffffffffff168152602001906001019080831161110e575b50505050509050919050565b602060405190810160405280600081525090565b81548183558181151161119f5781836000526020600020918201910161119e9190611224565b5b505050565b828054600181600116156101000203166002900490600052602060002090601f016020900481019282601f106111e557805160ff1916838001178555611213565b82800160010185558215611213579182015b828111156112125782518255916020019190600101906111f7565b5b5090506112209190611224565b5090565b61124691905b8082111561124257600081600090555060010161122a565b5090565b90565b6000611255823561169f565b905092915050565b600082601f830112151561127057600080fd5b813561128361127e82611617565b6115ea565b9150808252602083016020830185838301111561129f57600080fd5b6112aa8382846116c9565b50505092915050565b60006112bf82356116bf565b905092915050565b6000602082840312156112d957600080fd5b60006112e784828501611249565b91505092915050565b6000806040838503121561130357600080fd5b600061131185828601611249565b925050602061132285828601611249565b9150509250929050565b600080600080600060a0868803121561134457600080fd5b600061135288828901611249565b955050602086013567ffffffffffffffff81111561136f57600080fd5b61137b8882890161125d565b945050604086013567ffffffffffffffff81111561139857600080fd5b6113a48882890161125d565b935050606086013567ffffffffffffffff8111156113c157600080fd5b6113cd8882890161125d565b925050608086013567ffffffffffffffff8111156113ea57600080fd5b6113f68882890161125d565b9150509295509295909350565b60006020828403121561141557600080fd5b600082013567ffffffffffffffff81111561142f57600080fd5b61143b8482850161125d565b91505092915050565b6000806040838503121561145757600080fd5b600083013567ffffffffffffffff81111561147157600080fd5b61147d8582860161125d565b925050602061148e85828601611249565b9150509250929050565b6000602082840312156114aa57600080fd5b60006114b8848285016112b3565b91505092915050565b6114ca81611673565b82525050565b60006114db82611650565b8084526020840193506114ed83611643565b60005b8281101561151f576115038683516114c1565b61150c82611666565b91506020860195506001810190506114f0565b50849250505092915050565b61153481611693565b82525050565b60006115458261165b565b8084526115598160208601602086016116d8565b6115628161170b565b602085010191505092915050565b600060208201905061158560008301846114c1565b92915050565b600060208201905081810360008301526115a581846114d0565b905092915050565b60006020820190506115c2600083018461152b565b92915050565b600060208201905081810360008301526115e2818461153a565b905092915050565b6000604051905081810181811067ffffffffffffffff8211171561160d57600080fd5b8060405250919050565b600067ffffffffffffffff82111561162e57600080fd5b601f19601f8301169050602081019050919050565b6000602082019050919050565b600081519050919050565b600081519050919050565b6000602082019050919050565b600073ffffffffffffffffffffffffffffffffffffffff82169050919050565b60008115159050919050565b600073ffffffffffffffffffffffffffffffffffffffff82169050919050565b6000819050919050565b82818337600083830152505050565b60005b838110156116f65780820151818401526020810190506116db565b83811115611705576000848401525b50505050565b6000601f19601f83011690509190505600a265627a7a723058207e674fb35795d5d33fea31cfb2bd474d126da149b7856fc29f5ac8e38b81b3696c6578706572696d656e74616cf50037a265627a7a7230582022c1d7577f3158a27f8ba595cedcf7ee1f669daca7f7ba5ac71facca356274e86c6578706572696d656e74616cf50037",
  "source": "pragma solidity ^0.4.20;\npragma experimental ABIEncoderV2;\n\nimport \"./GovernmentOfficer.sol\";\n\n\ncontract FactoryGovernmentOfficer {\n    address[] allOfficers;\n\n    function FactoryGovernmentOfficer() {\n    }\n\n    function registerOfficer(address _walletAddress, string _email, string _name, \n    string _phoneNumber, string _employeeId) public returns (address) {\n        GovernmentOfficer newOfficer = new GovernmentOfficer();\n        newOfficer.setGovernmentOfficer(_walletAddress, _email, _name, \n        _phoneNumber, _employeeId);\n        allOfficers.push(newOfficer);\n        return newOfficer;\n    }\n}",
  "sourcePath": "/home/scoco/Desktop/TenderSystem---Blockchain/contracts/FactoryGovernmentOfficer.sol",
  "compiler": {
    "name": "solc",
    "version": "0.4.20+commit.3155dd80.Emscripten.clang"
  },
  "schemaVersion": "1.0.1",
  "updatedAt": "2018-03-19T22:32:34.027Z"
}