{
  "contractName": "FactoryContractor",
  "abi": [
    {
      "constant": false,
      "inputs": [
        {
          "name": "_walletAddress",
          "type": "address"
        },
        {
          "name": "_email",
          "type": "string"
        },
        {
          "name": "_name",
          "type": "string"
        },
        {
          "name": "_phoneNumber",
          "type": "string"
        },
        {
          "name": "_panNumber",
          "type": "string"
        },
        {
          "name": "_gstNumber",
          "type": "string"
        }
      ],
      "name": "registerNewContractor",
      "outputs": [
        {
          "name": "",
          "type": "address"
        }
      ],
      "payable": false,
      "stateMutability": "nonpayable",
      "type": "function"
    },
    {
      "inputs": [],
      "payable": false,
      "stateMutability": "nonpayable",
      "type": "constructor"
    }
  ],
  "bytecode": "0x6060604052341561000f57600080fd5b6112778061001e6000396000f300606060405260043610610041576000357c0100000000000000000000000000000000000000000000000000000000900463ffffffff1680634a782bfa14610046575b600080fd5b341561005157600080fd5b6101cc600480803573ffffffffffffffffffffffffffffffffffffffff1690602001909190803590602001908201803590602001908080601f0160208091040260200160405190810160405280939291908181526020018383808284378201915050505050509190803590602001908201803590602001908080601f0160208091040260200160405190810160405280939291908181526020018383808284378201915050505050509190803590602001908201803590602001908080601f0160208091040260200160405190810160405280939291908181526020018383808284378201915050505050509190803590602001908201803590602001908080601f0160208091040260200160405190810160405280939291908181526020018383808284378201915050505050509190803590602001908201803590602001908080601f0160208091040260200160405190810160405280939291908181526020018383808284378201915050505050509190505061020e565b604051808273ffffffffffffffffffffffffffffffffffffffff1673ffffffffffffffffffffffffffffffffffffffff16815260200191505060405180910390f35b600080610219610571565b604051809103906000f080151561022f57600080fd5b90508073ffffffffffffffffffffffffffffffffffffffff1663dfeb3cf88989898989896040518763ffffffff167c0100000000000000000000000000000000000000000000000000000000028152600401808773ffffffffffffffffffffffffffffffffffffffff1673ffffffffffffffffffffffffffffffffffffffff168152602001806020018060200180602001806020018060200186810386528b818151815260200191508051906020019080838360005b838110156103005780820151818401526020810190506102e5565b50505050905090810190601f16801561032d5780820380516001836020036101000a031916815260200191505b5086810385528a818151815260200191508051906020019080838360005b8381101561036657808201518184015260208101905061034b565b50505050905090810190601f1680156103935780820380516001836020036101000a031916815260200191505b50868103845289818151815260200191508051906020019080838360005b838110156103cc5780820151818401526020810190506103b1565b50505050905090810190601f1680156103f95780820380516001836020036101000a031916815260200191505b50868103835288818151815260200191508051906020019080838360005b83811015610432578082015181840152602081019050610417565b50505050905090810190601f16801561045f5780820380516001836020036101000a031916815260200191505b50868103825287818151815260200191508051906020019080838360005b8381101561049857808201518184015260208101905061047d565b50505050905090810190601f1680156104c55780820380516001836020036101000a031916815260200191505b509b505050505050505050505050600060405180830381600087803b15156104ec57600080fd5b6102c65a03f115156104fd57600080fd5b505050600080548060010182816105149190610581565b9160005260206000209001600083909190916101000a81548173ffffffffffffffffffffffffffffffffffffffff021916908373ffffffffffffffffffffffffffffffffffffffff16021790555050809150509695505050505050565b604051610c79806105d383390190565b8154818355818115116105a8578183600052602060002091820191016105a791906105ad565b5b505050565b6105cf91905b808211156105cb5760008160009055506001016105b3565b5090565b9056006060604052341561000f57600080fd5b610c5b8061001e6000396000f3006060604052600436106100ba576000357c0100000000000000000000000000000000000000000000000000000000900463ffffffff168063125716d6146100bf5780631ad86bf2146100f557806327340f841461010a578063534f9c531461013357806356810be714610169578063791d50891461019f578063c007175f146101d5578063c3a2a93a146101f7578063dfeb3cf814610220578063e012463314610242578063e494015714610264578063ea86abc31461029a575b600080fd5b34156100ca57600080fd5b6100df60046100da903690610968565b6102d0565b6040516100ec9190610b2d565b60405180910390f35b341561010057600080fd5b610108610326565b005b341561011557600080fd5b61011d610343565b60405161012a9190610b0b565b60405180910390f35b341561013e57600080fd5b610153600461014e903690610968565b6103d7565b6040516101609190610b2d565b60405180910390f35b341561017457600080fd5b6101896004610184903690610968565b6103f7565b6040516101969190610b2d565b60405180910390f35b34156101aa57600080fd5b6101bf60046101ba903690610968565b610417565b6040516101cc9190610b2d565b60405180910390f35b34156101e057600080fd5b6101f560046101f0903690610968565b61046d565b005b341561020257600080fd5b61020a6104c8565b6040516102179190610b0b565b60405180910390f35b341561022b57600080fd5b610240600461023b903690610991565b61055c565b005b341561024d57600080fd5b610262600461025d903690610968565b610632565b005b341561026f57600080fd5b610284600461027f903690610968565b61068d565b6040516102919190610b2d565b60405180910390f35b34156102a557600080fd5b6102ba60046102b5903690610968565b610753565b6040516102c79190610b2d565b60405180910390f35b6000600a60008373ffffffffffffffffffffffffffffffffffffffff1673ffffffffffffffffffffffffffffffffffffffff16815260200190815260200160002060009054906101000a900460ff169050919050565b6001600660006101000a81548160ff021916908315150217905550565b61034b610819565b60078054806020026020016040519081016040528092919081815260200182805480156103cd57602002820191906000526020600020905b8160009054906101000a900473ffffffffffffffffffffffffffffffffffffffff1673ffffffffffffffffffffffffffffffffffffffff1681526020019060010190808311610383575b5050505050905090565b600a6020528060005260406000206000915054906101000a900460ff1681565b60086020528060005260406000206000915054906101000a900460ff1681565b6000600860008373ffffffffffffffffffffffffffffffffffffffff1673ffffffffffffffffffffffffffffffffffffffff16815260200190815260200160002060009054906101000a900460ff169050919050565b6000600a60008373ffffffffffffffffffffffffffffffffffffffff1673ffffffffffffffffffffffffffffffffffffffff16815260200190815260200160002060006101000a81548160ff02191690831515021790555050565b6104d0610819565b600980548060200260200160405190810160405280929190818152602001828054801561055257602002820191906000526020600020905b8160009054906101000a900473ffffffffffffffffffffffffffffffffffffffff1673ffffffffffffffffffffffffffffffffffffffff1681526020019060010190808311610508575b5050505050905090565b856000806101000a81548173ffffffffffffffffffffffffffffffffffffffff021916908373ffffffffffffffffffffffffffffffffffffffff16021790555083600190805190602001906105b292919061082d565b5084600290805190602001906105c992919061082d565b5082600390805190602001906105e092919061082d565b5081600490805190602001906105f792919061082d565b50806005908051906020019061060e92919061082d565b506000600660006101000a81548160ff021916908315150217905550505050505050565b6001600860008373ffffffffffffffffffffffffffffffffffffffff1673ffffffffffffffffffffffffffffffffffffffff16815260200190815260200160002060006101000a81548160ff02191690831515021790555050565b6000600780548060010182816106a391906108ad565b9160005260206000209001600084909190916101000a81548173ffffffffffffffffffffffffffffffffffffffff021916908373ffffffffffffffffffffffffffffffffffffffff160217905550506000600860008473ffffffffffffffffffffffffffffffffffffffff1673ffffffffffffffffffffffffffffffffffffffff16815260200190815260200160002060006101000a81548160ff02191690831515021790555060019050919050565b60006009805480600101828161076991906108ad565b9160005260206000209001600084909190916101000a81548173ffffffffffffffffffffffffffffffffffffffff021916908373ffffffffffffffffffffffffffffffffffffffff160217905550506001600a60008473ffffffffffffffffffffffffffffffffffffffff1673ffffffffffffffffffffffffffffffffffffffff16815260200190815260200160002060006101000a81548160ff02191690831515021790555060019050919050565b602060405190810160405280600081525090565b828054600181600116156101000203166002900490600052602060002090601f016020900481019282601f1061086e57805160ff191683800117855561089c565b8280016001018555821561089c579182015b8281111561089b578251825591602001919060010190610880565b5b5090506108a991906108d9565b5090565b8154818355818115116108d4578183600052602060002091820191016108d391906108d9565b5b505050565b6108fb91905b808211156108f75760008160009055506001016108df565b5090565b90565b600061090a8235610bf2565b905092915050565b600082601f830112151561092557600080fd5b813561093861093382610b75565b610b48565b9150808252602083016020830185838301111561095457600080fd5b61095f838284610c12565b50505092915050565b60006020828403121561097a57600080fd5b6000610988848285016108fe565b91505092915050565b60008060008060008060c087890312156109aa57600080fd5b60006109b889828a016108fe565b965050602087013567ffffffffffffffff8111156109d557600080fd5b6109e189828a01610912565b955050604087013567ffffffffffffffff8111156109fe57600080fd5b610a0a89828a01610912565b945050606087013567ffffffffffffffff811115610a2757600080fd5b610a3389828a01610912565b935050608087013567ffffffffffffffff811115610a5057600080fd5b610a5c89828a01610912565b92505060a087013567ffffffffffffffff811115610a7957600080fd5b610a8589828a01610912565b9150509295509295509295565b610a9b81610bc6565b82525050565b6000610aac82610bae565b808452602084019350610abe83610ba1565b60005b82811015610af057610ad4868351610a92565b610add82610bb9565b9150602086019550600181019050610ac1565b50849250505092915050565b610b0581610be6565b82525050565b60006020820190508181036000830152610b258184610aa1565b905092915050565b6000602082019050610b426000830184610afc565b92915050565b6000604051905081810181811067ffffffffffffffff82111715610b6b57600080fd5b8060405250919050565b600067ffffffffffffffff821115610b8c57600080fd5b601f19601f8301169050602081019050919050565b6000602082019050919050565b600081519050919050565b6000602082019050919050565b600073ffffffffffffffffffffffffffffffffffffffff82169050919050565b60008115159050919050565b600073ffffffffffffffffffffffffffffffffffffffff82169050919050565b828183376000838301525050505600a265627a7a72305820d6a6700f0b21e4abd0eeaebe321d23d329a7ea367608c76ab725c1113c75e8ab6c6578706572696d656e74616cf50037a165627a7a723058200820e63adcb0940f5e6c87c309e594b6233d624bbdf33eab4284c691350d3f870029",
  "source": "pragma solidity ^0.4.20;\n\nimport \"./Contractor.sol\";\n\ncontract FactoryContractor {\n    address[] allContractors;\n\n    function FactoryContractor() public {\n\n    }\n    \n    //----do not use---- adds the new contract to same byte code--useless shit.\n    function registerNewContractor(address _walletAddress, string _email, string _name,\n    string _phoneNumber, string _panNumber, string _gstNumber) public returns (address) {\n        Contractor contractor = new Contractor();\n        contractor.setContractor(_walletAddress, _email, _name,\n        _phoneNumber, _panNumber, _gstNumber);\n        allContractors.push(contractor);\n        return contractor;\n    }\n}",
  "sourcePath": "/home/scoco/Desktop/TenderSystem---Blockchain/contracts/FactoryContractor.sol",
  "compiler": {
    "name": "solc",
    "version": "0.4.20+commit.3155dd80.Emscripten.clang"
  },
  "schemaVersion": "1.0.1",
  "updatedAt": "2018-03-20T16:02:08.184Z"
}