{
  "contractName": "GovernmentOfficerRepo",
  "abi": [
    {
      "constant": true,
      "inputs": [
        {
          "name": "officerAddress",
          "type": "address"
        }
      ],
      "name": "getVerifier",
      "outputs": [
        {
          "name": "",
          "type": "address"
        }
      ],
      "payable": false,
      "stateMutability": "view",
      "type": "function"
    },
    {
      "constant": true,
      "inputs": [],
      "name": "getVerifiedOfficersCount",
      "outputs": [
        {
          "name": "",
          "type": "uint256"
        }
      ],
      "payable": false,
      "stateMutability": "view",
      "type": "function"
    },
    {
      "constant": true,
      "inputs": [],
      "name": "getOfficers",
      "outputs": [
        {
          "name": "",
          "type": "address[]"
        }
      ],
      "payable": false,
      "stateMutability": "view",
      "type": "function"
    },
    {
      "constant": false,
      "inputs": [
        {
          "name": "officerAddress",
          "type": "address"
        },
        {
          "name": "verifierAdress",
          "type": "address"
        }
      ],
      "name": "verifyOfficer",
      "outputs": [],
      "payable": false,
      "stateMutability": "nonpayable",
      "type": "function"
    },
    {
      "constant": true,
      "inputs": [
        {
          "name": "index",
          "type": "uint256"
        }
      ],
      "name": "getUnverifiedOfficers",
      "outputs": [
        {
          "name": "",
          "type": "address"
        }
      ],
      "payable": false,
      "stateMutability": "view",
      "type": "function"
    },
    {
      "constant": true,
      "inputs": [
        {
          "name": "",
          "type": "uint256"
        }
      ],
      "name": "verifiedOfficers",
      "outputs": [
        {
          "name": "",
          "type": "address"
        }
      ],
      "payable": false,
      "stateMutability": "view",
      "type": "function"
    },
    {
      "constant": false,
      "inputs": [
        {
          "name": "officerToAppend",
          "type": "address"
        }
      ],
      "name": "newOfficer",
      "outputs": [],
      "payable": false,
      "stateMutability": "nonpayable",
      "type": "function"
    },
    {
      "constant": true,
      "inputs": [
        {
          "name": "officerAddress",
          "type": "address"
        }
      ],
      "name": "getVerifiedStatus",
      "outputs": [
        {
          "name": "",
          "type": "bool"
        }
      ],
      "payable": false,
      "stateMutability": "view",
      "type": "function"
    },
    {
      "constant": true,
      "inputs": [
        {
          "name": "",
          "type": "uint256"
        }
      ],
      "name": "officers",
      "outputs": [
        {
          "name": "",
          "type": "address"
        }
      ],
      "payable": false,
      "stateMutability": "view",
      "type": "function"
    },
    {
      "constant": true,
      "inputs": [],
      "name": "getVerifiedOfficers",
      "outputs": [
        {
          "name": "",
          "type": "address[]"
        }
      ],
      "payable": false,
      "stateMutability": "view",
      "type": "function"
    },
    {
      "constant": true,
      "inputs": [
        {
          "name": "",
          "type": "address"
        }
      ],
      "name": "officerToVerifier",
      "outputs": [
        {
          "name": "",
          "type": "address"
        }
      ],
      "payable": false,
      "stateMutability": "view",
      "type": "function"
    },
    {
      "constant": true,
      "inputs": [],
      "name": "getOfficersCount",
      "outputs": [
        {
          "name": "",
          "type": "uint256"
        }
      ],
      "payable": false,
      "stateMutability": "view",
      "type": "function"
    },
    {
      "constant": true,
      "inputs": [
        {
          "name": "",
          "type": "address"
        }
      ],
      "name": "verifiedStatus",
      "outputs": [
        {
          "name": "",
          "type": "bool"
        }
      ],
      "payable": false,
      "stateMutability": "view",
      "type": "function"
    },
    {
      "inputs": [],
      "payable": false,
      "stateMutability": "nonpayable",
      "type": "constructor"
    }
  ],
  "bytecode": "0x6060604052341561000f57600080fd5b610bb88061001e6000396000f3006060604052600436106100c5576000357c0100000000000000000000000000000000000000000000000000000000900463ffffffff168063059ce95d146100ca5780630cc7bf9c146101005780630f7151dc1461012957806310ffb5dc146101525780631142f021146101745780631dac6a30146101aa578063363037c3146101e05780635306fa8b146102025780636b291d9f146102385780636f6f77211461026e578063d6de1dcb14610297578063e4974ca9146102cd578063fac0d090146102f6575b600080fd5b34156100d557600080fd5b6100ea60046100e5903690610970565b61032c565b6040516100f79190610a86565b60405180910390f35b341561010b57600080fd5b610113610395565b6040516101209190610ade565b60405180910390f35b341561013457600080fd5b61013c6103a2565b6040516101499190610aa1565b60405180910390f35b341561015d57600080fd5b610172600461016d903690610999565b610436565b005b341561017f57600080fd5b610194600461018f9036906109d5565b610573565b6040516101a19190610a86565b60405180910390f35b34156101b557600080fd5b6101ca60046101c59036906109d5565b61065e565b6040516101d79190610a86565b60405180910390f35b34156101eb57600080fd5b61020060046101fb903690610970565b61069d565b005b341561020d57600080fd5b610222600461021d903690610970565b61075b565b60405161022f9190610ac3565b60405180910390f35b341561024357600080fd5b61025860046102539036906109d5565b6107b1565b6040516102659190610a86565b60405180910390f35b341561027957600080fd5b6102816107f0565b60405161028e9190610aa1565b60405180910390f35b34156102a257600080fd5b6102b760046102b2903690610970565b610884565b6040516102c49190610a86565b60405180910390f35b34156102d857600080fd5b6102e06108b7565b6040516102ed9190610ade565b60405180910390f35b341561030157600080fd5b6103166004610311903690610970565b6108c3565b6040516103239190610ac3565b60405180910390f35b6000600360008373ffffffffffffffffffffffffffffffffffffffff1673ffffffffffffffffffffffffffffffffffffffff16815260200190815260200160002060009054906101000a900473ffffffffffffffffffffffffffffffffffffffff169050919050565b6000600180549050905090565b6103aa6108e3565b600080548060200260200160405190810160405280929190818152602001828054801561042c57602002820191906000526020600020905b8160009054906101000a900473ffffffffffffffffffffffffffffffffffffffff1673ffffffffffffffffffffffffffffffffffffffff16815260200190600101908083116103e2575b5050505050905090565b6001805480600101828161044a91906108f7565b9160005260206000209001600084909190916101000a81548173ffffffffffffffffffffffffffffffffffffffff021916908373ffffffffffffffffffffffffffffffffffffffff160217905550506001600260008473ffffffffffffffffffffffffffffffffffffffff1673ffffffffffffffffffffffffffffffffffffffff16815260200190815260200160002060006101000a81548160ff02191690831515021790555080600360008473ffffffffffffffffffffffffffffffffffffffff1673ffffffffffffffffffffffffffffffffffffffff16815260200190815260200160002060006101000a81548173ffffffffffffffffffffffffffffffffffffffff021916908373ffffffffffffffffffffffffffffffffffffffff1602179055505050565b6000808054905082111561058657600080fd5b60026000808481548110151561059857fe5b906000526020600020900160009054906101000a900473ffffffffffffffffffffffffffffffffffffffff1673ffffffffffffffffffffffffffffffffffffffff1673ffffffffffffffffffffffffffffffffffffffff16815260200190815260200160002060009054906101000a900460ff1615156106545760008281548110151561062157fe5b906000526020600020900160009054906101000a900473ffffffffffffffffffffffffffffffffffffffff169050610659565b600080fd5b919050565b60018181548110151561066d57fe5b90600052602060002090016000915054906101000a900473ffffffffffffffffffffffffffffffffffffffff1681565b600080548060010182816106b191906108f7565b9160005260206000209001600083909190916101000a81548173ffffffffffffffffffffffffffffffffffffffff021916908373ffffffffffffffffffffffffffffffffffffffff160217905550506000600260008373ffffffffffffffffffffffffffffffffffffffff1673ffffffffffffffffffffffffffffffffffffffff16815260200190815260200160002060006101000a81548160ff02191690831515021790555050565b6000600260008373ffffffffffffffffffffffffffffffffffffffff1673ffffffffffffffffffffffffffffffffffffffff16815260200190815260200160002060009054906101000a900460ff169050919050565b6000818154811015156107c057fe5b90600052602060002090016000915054906101000a900473ffffffffffffffffffffffffffffffffffffffff1681565b6107f86108e3565b600180548060200260200160405190810160405280929190818152602001828054801561087a57602002820191906000526020600020905b8160009054906101000a900473ffffffffffffffffffffffffffffffffffffffff1673ffffffffffffffffffffffffffffffffffffffff1681526020019060010190808311610830575b5050505050905090565b60036020528060005260406000206000915054906101000a900473ffffffffffffffffffffffffffffffffffffffff1681565b60008080549050905090565b60026020528060005260406000206000915054906101000a900460ff1681565b602060405190810160405280600081525090565b81548183558181151161091e5781836000526020600020918201910161091d9190610923565b5b505050565b61094591905b80821115610941576000816000905550600101610929565b5090565b90565b60006109548235610b54565b905092915050565b60006109688235610b74565b905092915050565b60006020828403121561098257600080fd5b600061099084828501610948565b91505092915050565b600080604083850312156109ac57600080fd5b60006109ba85828601610948565b92505060206109cb85828601610948565b9150509250929050565b6000602082840312156109e757600080fd5b60006109f58482850161095c565b91505092915050565b610a0781610b1e565b82525050565b6000610a1882610b06565b808452602084019350610a2a83610af9565b60005b82811015610a5c57610a408683516109fe565b610a4982610b11565b9150602086019550600181019050610a2d565b50849250505092915050565b610a7181610b3e565b82525050565b610a8081610b4a565b82525050565b6000602082019050610a9b60008301846109fe565b92915050565b60006020820190508181036000830152610abb8184610a0d565b905092915050565b6000602082019050610ad86000830184610a68565b92915050565b6000602082019050610af36000830184610a77565b92915050565b6000602082019050919050565b600081519050919050565b6000602082019050919050565b600073ffffffffffffffffffffffffffffffffffffffff82169050919050565b60008115159050919050565b6000819050919050565b600073ffffffffffffffffffffffffffffffffffffffff82169050919050565b60008190509190505600a265627a7a72305820479629b3ef8e8c59aea442206c4e6fe289d36979e6c61aeef0ae1412567edc1c6c6578706572696d656e74616cf50037",
  "source": "pragma solidity ^0.4.20;\npragma experimental ABIEncoderV2;\n\n//import \"./GovernmentOfficer.sol\";\n\n\ncontract GovernmentOfficerRepo {\n    address[] public officers; //all officers verified + unverified\n    address[] public verifiedOfficers;\n    mapping (address=>bool) public verifiedStatus; //true=>verified, false => unverified\n    mapping (address=>address) public officerToVerifier;\n\n    function GovernmentOfficerRepo() public {\n\n    }\n\n    //----do not use---- adds the new contract to same byte code\n    // function registerOfficer(address _walletAddress, string _email, string _name, \n    // string _phoneNumber, string _employeeId) public returns (address) {\n    //     GovernmentOfficer officer = new GovernmentOfficer();\n    //     officer.setGovernmentOfficer(_walletAddress, _email, _name, \n    //     _phoneNumber, _employeeId);\n    //     this.newOfficer(address(officer));\n    //     return officer;\n    // }\n\n    function newOfficer(address officerToAppend) public {\n        officers.push(officerToAppend);\n        verifiedStatus[officerToAppend] = false;\n    }\n    \n    function verifyOfficer(address officerAddress, address verifierAdress) public {\n        verifiedOfficers.push(officerAddress);\n        verifiedStatus[officerAddress] = true;\n        officerToVerifier[officerAddress] = verifierAdress;\n    }\n    \n    function getOfficersCount() public view returns (uint256) {\n        return officers.length;\n    }\n\n    function getVerifiedOfficersCount() public view returns (uint256) {\n        return verifiedOfficers.length;\n    }\n\n    function getOfficers () public view returns (address[]) {\n        return officers;\n    }\n\n    function getVerifiedOfficers () public view returns (address[]) {\n        return verifiedOfficers;\n    }\n\n    function getVerifier(address officerAddress) public view returns (address) {\n        return officerToVerifier[officerAddress];\n    }\n\n    function getVerifiedStatus(address officerAddress) public view returns (bool) {\n        return verifiedStatus[officerAddress];\n    }\n\n    function getUnverifiedOfficers(uint256 index) public view returns (address) {\n        //loop at web3\n        if (index > officers.length) revert();\n        if (!verifiedStatus[officers[index]]) {\n            return officers[index]; \n        }\n        revert();\n    }\n    \n}",
  "sourcePath": "/home/scoco/Desktop/TenderSystem---Blockchain/contracts/GovernmentOfficerRepo.sol",
  "compiler": {
    "name": "solc",
    "version": "0.4.20+commit.3155dd80.Emscripten.clang"
  },
  "schemaVersion": "1.0.1",
  "updatedAt": "2018-03-19T22:39:54.596Z"
}