{
  "contractName": "GovernmentOfficer",
  "abi": [
    {
      "constant": true,
      "inputs": [],
      "name": "name",
      "outputs": [
        {
          "name": "",
          "type": "string"
        }
      ],
      "payable": false,
      "stateMutability": "view",
      "type": "function"
    },
    {
      "constant": true,
      "inputs": [
        {
          "name": "",
          "type": "uint256"
        }
      ],
      "name": "pastTenders",
      "outputs": [
        {
          "name": "",
          "type": "address"
        }
      ],
      "payable": false,
      "stateMutability": "view",
      "type": "function"
    },
    {
      "constant": false,
      "inputs": [],
      "name": "updateOfficerVerifiedStatus",
      "outputs": [],
      "payable": false,
      "stateMutability": "nonpayable",
      "type": "function"
    },
    {
      "constant": true,
      "inputs": [
        {
          "name": "tenderAddress",
          "type": "address"
        }
      ],
      "name": "addToMyTenders",
      "outputs": [
        {
          "name": "",
          "type": "address"
        }
      ],
      "payable": false,
      "stateMutability": "view",
      "type": "function"
    },
    {
      "constant": false,
      "inputs": [
        {
          "name": "tenderAddress",
          "type": "address"
        },
        {
          "name": "contractAddress",
          "type": "address"
        }
      ],
      "name": "updateTenderToContract",
      "outputs": [
        {
          "name": "",
          "type": "bool"
        }
      ],
      "payable": false,
      "stateMutability": "nonpayable",
      "type": "function"
    },
    {
      "constant": true,
      "inputs": [
        {
          "name": "",
          "type": "uint256"
        }
      ],
      "name": "tenders",
      "outputs": [
        {
          "name": "",
          "type": "address"
        }
      ],
      "payable": false,
      "stateMutability": "view",
      "type": "function"
    },
    {
      "constant": true,
      "inputs": [
        {
          "name": "",
          "type": "uint256"
        }
      ],
      "name": "contracts",
      "outputs": [
        {
          "name": "",
          "type": "address"
        }
      ],
      "payable": false,
      "stateMutability": "view",
      "type": "function"
    },
    {
      "constant": true,
      "inputs": [
        {
          "name": "",
          "type": "address"
        }
      ],
      "name": "contractStatus",
      "outputs": [
        {
          "name": "",
          "type": "bool"
        }
      ],
      "payable": false,
      "stateMutability": "view",
      "type": "function"
    },
    {
      "constant": true,
      "inputs": [],
      "name": "getPastContracts",
      "outputs": [
        {
          "name": "",
          "type": "address[]"
        }
      ],
      "payable": false,
      "stateMutability": "view",
      "type": "function"
    },
    {
      "constant": true,
      "inputs": [],
      "name": "getExpiredTenders",
      "outputs": [
        {
          "name": "",
          "type": "address[]"
        }
      ],
      "payable": false,
      "stateMutability": "view",
      "type": "function"
    },
    {
      "constant": true,
      "inputs": [
        {
          "name": "",
          "type": "uint256"
        }
      ],
      "name": "pastContracts",
      "outputs": [
        {
          "name": "",
          "type": "address"
        }
      ],
      "payable": false,
      "stateMutability": "view",
      "type": "function"
    },
    {
      "constant": true,
      "inputs": [],
      "name": "walletAddress",
      "outputs": [
        {
          "name": "",
          "type": "address"
        }
      ],
      "payable": false,
      "stateMutability": "view",
      "type": "function"
    },
    {
      "constant": false,
      "inputs": [
        {
          "name": "_walletAddress",
          "type": "address"
        },
        {
          "name": "_email",
          "type": "string"
        },
        {
          "name": "_name",
          "type": "string"
        },
        {
          "name": "_phoneNumber",
          "type": "string"
        },
        {
          "name": "_employeeId",
          "type": "string"
        }
      ],
      "name": "setGovernmentOfficer",
      "outputs": [],
      "payable": false,
      "stateMutability": "nonpayable",
      "type": "function"
    },
    {
      "constant": true,
      "inputs": [],
      "name": "phoneNumber",
      "outputs": [
        {
          "name": "",
          "type": "string"
        }
      ],
      "payable": false,
      "stateMutability": "view",
      "type": "function"
    },
    {
      "constant": true,
      "inputs": [],
      "name": "email",
      "outputs": [
        {
          "name": "",
          "type": "string"
        }
      ],
      "payable": false,
      "stateMutability": "view",
      "type": "function"
    },
    {
      "constant": true,
      "inputs": [],
      "name": "employeeId",
      "outputs": [
        {
          "name": "",
          "type": "string"
        }
      ],
      "payable": false,
      "stateMutability": "view",
      "type": "function"
    },
    {
      "constant": true,
      "inputs": [
        {
          "name": "",
          "type": "uint256"
        }
      ],
      "name": "expiredTenders",
      "outputs": [
        {
          "name": "",
          "type": "address"
        }
      ],
      "payable": false,
      "stateMutability": "view",
      "type": "function"
    },
    {
      "constant": false,
      "inputs": [
        {
          "name": "contractAddress",
          "type": "address"
        }
      ],
      "name": "markContractCompleted",
      "outputs": [
        {
          "name": "",
          "type": "bool"
        }
      ],
      "payable": false,
      "stateMutability": "nonpayable",
      "type": "function"
    },
    {
      "constant": true,
      "inputs": [],
      "name": "getPastTenders",
      "outputs": [
        {
          "name": "",
          "type": "address[]"
        }
      ],
      "payable": false,
      "stateMutability": "view",
      "type": "function"
    },
    {
      "constant": true,
      "inputs": [
        {
          "name": "",
          "type": "address"
        }
      ],
      "name": "tenderToContract",
      "outputs": [
        {
          "name": "",
          "type": "address"
        }
      ],
      "payable": false,
      "stateMutability": "view",
      "type": "function"
    },
    {
      "constant": true,
      "inputs": [],
      "name": "getMyContracts",
      "outputs": [
        {
          "name": "",
          "type": "address[]"
        }
      ],
      "payable": false,
      "stateMutability": "view",
      "type": "function"
    },
    {
      "constant": false,
      "inputs": [
        {
          "name": "tenderAddress",
          "type": "address"
        }
      ],
      "name": "updateTenderToExpired",
      "outputs": [
        {
          "name": "",
          "type": "bool"
        }
      ],
      "payable": false,
      "stateMutability": "nonpayable",
      "type": "function"
    },
    {
      "constant": true,
      "inputs": [
        {
          "name": "contractAddress",
          "type": "address"
        }
      ],
      "name": "addToMyContracts",
      "outputs": [
        {
          "name": "",
          "type": "address"
        }
      ],
      "payable": false,
      "stateMutability": "view",
      "type": "function"
    },
    {
      "constant": true,
      "inputs": [],
      "name": "getMyTenders",
      "outputs": [
        {
          "name": "",
          "type": "address[]"
        }
      ],
      "payable": false,
      "stateMutability": "view",
      "type": "function"
    },
    {
      "inputs": [],
      "payable": false,
      "stateMutability": "nonpayable",
      "type": "constructor"
    }
  ],
  "bytecode": "0x6060604052341561000f57600080fd5b61194f8061001e6000396000f30060606040526004361061013e576000357c0100000000000000000000000000000000000000000000000000000000900463ffffffff16806306fdde031461014357806316f4f3041461016c5780631ad86bf2146101a257806329fe9095146101b7578063423d4f80146101ed578063465e1def14610223578063474da79a14610259578063534f9c531461028f57806353ff87ac146102c557806360415df0146102ee57806366a0a6d9146103175780636ad5b3ea1461034d57806371750db614610376578063747f338014610398578063820e93f5146103c157806384ab30a5146103ea5780639370f3c214610413578063aa8ed41014610449578063b808fad41461047f578063c1fb28ec146104a8578063c81bde15146104de578063c900b1f814610507578063d19641721461053d578063e7b7349314610573575b600080fd5b341561014e57600080fd5b61015661059c565b60405161016391906117c1565b60405180910390f35b341561017757600080fd5b61018c6004610187903690611691565b61063a565b6040516101999190611769565b60405180910390f35b34156101ad57600080fd5b6101b5610679565b005b34156101c257600080fd5b6101d760046101d2903690611555565b610696565b6040516101e49190611769565b60405180910390f35b34156101f857600080fd5b61020d600461020890369061157e565b610700565b60405161021a91906117a6565b60405180910390f35b341561022e57600080fd5b610243600461023e903690611691565b6109b8565b6040516102509190611769565b60405180910390f35b341561026457600080fd5b6102796004610274903690611691565b6109f7565b6040516102869190611769565b60405180910390f35b341561029a57600080fd5b6102af60046102aa903690611555565b610a36565b6040516102bc91906117a6565b60405180910390f35b34156102d057600080fd5b6102d8610a56565b6040516102e59190611784565b60405180910390f35b34156102f957600080fd5b610301610aea565b60405161030e9190611784565b60405180910390f35b341561032257600080fd5b6103376004610332903690611691565b610b7e565b6040516103449190611769565b60405180910390f35b341561035857600080fd5b610360610bbd565b60405161036d9190611769565b60405180910390f35b341561038157600080fd5b61039660046103919036906115ba565b610be2565b005b34156103a357600080fd5b6103ab610ca0565b6040516103b891906117c1565b60405180910390f35b34156103cc57600080fd5b6103d4610d3e565b6040516103e191906117c1565b60405180910390f35b34156103f557600080fd5b6103fd610ddc565b60405161040a91906117c1565b60405180910390f35b341561041e57600080fd5b610433600461042e903690611691565b610e7a565b6040516104409190611769565b60405180910390f35b341561045457600080fd5b6104696004610464903690611555565b610eb9565b60405161047691906117a6565b60405180910390f35b341561048a57600080fd5b610492611055565b60405161049f9190611784565b60405180910390f35b34156104b357600080fd5b6104c860046104c3903690611555565b6110e9565b6040516104d59190611769565b60405180910390f35b34156104e957600080fd5b6104f161111c565b6040516104fe9190611784565b60405180910390f35b341561051257600080fd5b6105276004610522903690611555565b6111b0565b60405161053491906117a6565b60405180910390f35b341561054857600080fd5b61055d6004610558903690611555565b6112f4565b60405161056a9190611769565b60405180910390f35b341561057e57600080fd5b61058661135e565b6040516105939190611784565b60405180910390f35b60038054600181600116156101000203166002900480601f0160208091040260200160405190810160405280929190818152602001828054600181600116156101000203166002900480156106325780601f1061060757610100808354040283529160200191610632565b820191906000526020600020905b81548152906001019060200180831161061557829003601f168201915b505050505081565b60078181548110151561064957fe5b90600052602060002090016000915054906101000a900473ffffffffffffffffffffffffffffffffffffffff1681565b6001600560006101000a81548160ff021916908315150217905550565b6000600680548060010182816106ac91906113f2565b9160005260206000209001600084909190916101000a81548173ffffffffffffffffffffffffffffffffffffffff021916908373ffffffffffffffffffffffffffffffffffffffff16021790555050919050565b600080600090505b6006805490508110156109ac578373ffffffffffffffffffffffffffffffffffffffff1660088281548110151561073b57fe5b906000526020600020900160009054906101000a900473ffffffffffffffffffffffffffffffffffffffff1673ffffffffffffffffffffffffffffffffffffffff16141561099f576007805480600101828161079791906113f2565b9160005260206000209001600086909190916101000a81548173ffffffffffffffffffffffffffffffffffffffff021916908373ffffffffffffffffffffffffffffffffffffffff1602179055505082600c60006008848154811015156107fa57fe5b906000526020600020900160009054906101000a900473ffffffffffffffffffffffffffffffffffffffff1673ffffffffffffffffffffffffffffffffffffffff1673ffffffffffffffffffffffffffffffffffffffff16815260200190815260200160002060006101000a81548173ffffffffffffffffffffffffffffffffffffffff021916908373ffffffffffffffffffffffffffffffffffffffff160217905550600980548060010182816108b291906113f2565b9160005260206000209001600085909190916101000a81548173ffffffffffffffffffffffffffffffffffffffff021916908373ffffffffffffffffffffffffffffffffffffffff160217905550506000600b60008573ffffffffffffffffffffffffffffffffffffffff1673ffffffffffffffffffffffffffffffffffffffff16815260200190815260200160002060006101000a81548160ff02191690831515021790555060088181548110151561096857fe5b906000526020600020900160006101000a81549073ffffffffffffffffffffffffffffffffffffffff0219169055600191506109b1565b8080600101915050610708565b600091505b5092915050565b6006818154811015156109c757fe5b90600052602060002090016000915054906101000a900473ffffffffffffffffffffffffffffffffffffffff1681565b600981815481101515610a0657fe5b90600052602060002090016000915054906101000a900473ffffffffffffffffffffffffffffffffffffffff1681565b600b6020528060005260406000206000915054906101000a900460ff1681565b610a5e61141e565b600a805480602002602001604051908101604052809291908181526020018280548015610ae057602002820191906000526020600020905b8160009054906101000a900473ffffffffffffffffffffffffffffffffffffffff1673ffffffffffffffffffffffffffffffffffffffff1681526020019060010190808311610a96575b5050505050905090565b610af261141e565b6008805480602002602001604051908101604052809291908181526020018280548015610b7457602002820191906000526020600020905b8160009054906101000a900473ffffffffffffffffffffffffffffffffffffffff1673ffffffffffffffffffffffffffffffffffffffff1681526020019060010190808311610b2a575b5050505050905090565b600a81815481101515610b8d57fe5b90600052602060002090016000915054906101000a900473ffffffffffffffffffffffffffffffffffffffff1681565b6000809054906101000a900473ffffffffffffffffffffffffffffffffffffffff1681565b846000806101000a81548173ffffffffffffffffffffffffffffffffffffffff021916908373ffffffffffffffffffffffffffffffffffffffff1602179055508360019080519060200190610c38929190611432565b508160029080519060200190610c4f929190611432565b508260039080519060200190610c66929190611432565b508060049080519060200190610c7d929190611432565b506000600560006101000a81548160ff0219169083151502179055505050505050565b60028054600181600116156101000203166002900480601f016020809104026020016040519081016040528092919081815260200182805460018160011615610100020316600290048015610d365780601f10610d0b57610100808354040283529160200191610d36565b820191906000526020600020905b815481529060010190602001808311610d1957829003601f168201915b505050505081565b60018054600181600116156101000203166002900480601f016020809104026020016040519081016040528092919081815260200182805460018160011615610100020316600290048015610dd45780601f10610da957610100808354040283529160200191610dd4565b820191906000526020600020905b815481529060010190602001808311610db757829003601f168201915b505050505081565b60048054600181600116156101000203166002900480601f016020809104026020016040519081016040528092919081815260200182805460018160011615610100020316600290048015610e725780601f10610e4757610100808354040283529160200191610e72565b820191906000526020600020905b815481529060010190602001808311610e5557829003601f168201915b505050505081565b600881815481101515610e8957fe5b90600052602060002090016000915054906101000a900473ffffffffffffffffffffffffffffffffffffffff1681565b600080600090505b60098054905081101561104a578273ffffffffffffffffffffffffffffffffffffffff16600982815481101515610ef457fe5b906000526020600020900160009054906101000a900473ffffffffffffffffffffffffffffffffffffffff1673ffffffffffffffffffffffffffffffffffffffff16141561103d57600a8054806001018281610f5091906113f2565b9160005260206000209001600085909190916101000a81548173ffffffffffffffffffffffffffffffffffffffff021916908373ffffffffffffffffffffffffffffffffffffffff160217905550506001600b60008573ffffffffffffffffffffffffffffffffffffffff1673ffffffffffffffffffffffffffffffffffffffff16815260200190815260200160002060006101000a81548160ff02191690831515021790555060098181548110151561100657fe5b906000526020600020900160006101000a81549073ffffffffffffffffffffffffffffffffffffffff02191690556001915061104f565b8080600101915050610ec1565b600091505b50919050565b61105d61141e565b60078054806020026020016040519081016040528092919081815260200182805480156110df57602002820191906000526020600020905b8160009054906101000a900473ffffffffffffffffffffffffffffffffffffffff1673ffffffffffffffffffffffffffffffffffffffff1681526020019060010190808311611095575b5050505050905090565b600c6020528060005260406000206000915054906101000a900473ffffffffffffffffffffffffffffffffffffffff1681565b61112461141e565b60098054806020026020016040519081016040528092919081815260200182805480156111a657602002820191906000526020600020905b8160009054906101000a900473ffffffffffffffffffffffffffffffffffffffff1673ffffffffffffffffffffffffffffffffffffffff168152602001906001019080831161115c575b5050505050905090565b600080600090505b6006805490508110156112e9578273ffffffffffffffffffffffffffffffffffffffff166006828154811015156111eb57fe5b906000526020600020900160009054906101000a900473ffffffffffffffffffffffffffffffffffffffff1673ffffffffffffffffffffffffffffffffffffffff1614156112dc576008805480600101828161124791906113f2565b9160005260206000209001600085909190916101000a81548173ffffffffffffffffffffffffffffffffffffffff021916908373ffffffffffffffffffffffffffffffffffffffff160217905550506006818154811015156112a557fe5b906000526020600020900160006101000a81549073ffffffffffffffffffffffffffffffffffffffff0219169055600191506112ee565b80806001019150506111b8565b600091505b50919050565b60006009805480600101828161130a91906113f2565b9160005260206000209001600084909190916101000a81548173ffffffffffffffffffffffffffffffffffffffff021916908373ffffffffffffffffffffffffffffffffffffffff16021790555050919050565b61136661141e565b60068054806020026020016040519081016040528092919081815260200182805480156113e857602002820191906000526020600020905b8160009054906101000a900473ffffffffffffffffffffffffffffffffffffffff1673ffffffffffffffffffffffffffffffffffffffff168152602001906001019080831161139e575b5050505050905090565b8154818355818115116114195781836000526020600020918201910161141891906114b2565b5b505050565b602060405190810160405280600081525090565b828054600181600116156101000203166002900490600052602060002090601f016020900481019282601f1061147357805160ff19168380011785556114a1565b828001600101855582156114a1579182015b828111156114a0578251825591602001919060010190611485565b5b5090506114ae91906114b2565b5090565b6114d491905b808211156114d05760008160009055506001016114b8565b5090565b90565b60006114e38235611898565b905092915050565b600082601f83011215156114fe57600080fd5b813561151161150c82611810565b6117e3565b9150808252602083016020830185838301111561152d57600080fd5b6115388382846118c2565b50505092915050565b600061154d82356118b8565b905092915050565b60006020828403121561156757600080fd5b6000611575848285016114d7565b91505092915050565b6000806040838503121561159157600080fd5b600061159f858286016114d7565b92505060206115b0858286016114d7565b9150509250929050565b600080600080600060a086880312156115d257600080fd5b60006115e0888289016114d7565b955050602086013567ffffffffffffffff8111156115fd57600080fd5b611609888289016114eb565b945050604086013567ffffffffffffffff81111561162657600080fd5b611632888289016114eb565b935050606086013567ffffffffffffffff81111561164f57600080fd5b61165b888289016114eb565b925050608086013567ffffffffffffffff81111561167857600080fd5b611684888289016114eb565b9150509295509295909350565b6000602082840312156116a357600080fd5b60006116b184828501611541565b91505092915050565b6116c38161186c565b82525050565b60006116d482611849565b8084526020840193506116e68361183c565b60005b82811015611718576116fc8683516116ba565b6117058261185f565b91506020860195506001810190506116e9565b50849250505092915050565b61172d8161188c565b82525050565b600061173e82611854565b8084526117528160208601602086016118d1565b61175b81611904565b602085010191505092915050565b600060208201905061177e60008301846116ba565b92915050565b6000602082019050818103600083015261179e81846116c9565b905092915050565b60006020820190506117bb6000830184611724565b92915050565b600060208201905081810360008301526117db8184611733565b905092915050565b6000604051905081810181811067ffffffffffffffff8211171561180657600080fd5b8060405250919050565b600067ffffffffffffffff82111561182757600080fd5b601f19601f8301169050602081019050919050565b6000602082019050919050565b600081519050919050565b600081519050919050565b6000602082019050919050565b600073ffffffffffffffffffffffffffffffffffffffff82169050919050565b60008115159050919050565b600073ffffffffffffffffffffffffffffffffffffffff82169050919050565b6000819050919050565b82818337600083830152505050565b60005b838110156118ef5780820151818401526020810190506118d4565b838111156118fe576000848401525b50505050565b6000601f19601f83011690509190505600a265627a7a7230582066eceec46725f129ea1a321f906d6f22bbac97aebe79d4cd949ed399fa21991d6c6578706572696d656e74616cf50037",
  "source": "pragma solidity ^0.4.20;\npragma experimental ABIEncoderV2;\n\n\ncontract GovernmentOfficer {\n    \n    address public walletAddress;\n    string public email;\n    string public phoneNumber;\n    string public name;\n    string public employeeId; \n    bool isVerified;\n\n    address[] public tenders;\n    address[] public pastTenders;\n    address[] public expiredTenders;\n\n    address[] public contracts;\n    address[] public pastContracts;\n\n    mapping (address=>bool) public contractStatus; //true => past, false => active\n    mapping (address=>address) public tenderToContract;\n\n    function GovernmentOfficer() public {\n\n    }\n\n    function setGovernmentOfficer(address _walletAddress, string _email, string _name, \n    string _phoneNumber, string _employeeId) {\n        walletAddress = _walletAddress;\n        email = _email;\n        phoneNumber = _phoneNumber;\n        name = _name;\n        employeeId = _employeeId;\n        isVerified = false;\n    }\n\n    function getMyContracts() public view returns (address[]) {\n        return contracts;\n    }\n\n    function getPastContracts() public view returns (address[]) {\n        return pastContracts;\n    }\n\n    function markContractCompleted (address contractAddress) public returns (bool) {\n        //remove from contracts and add to pastContracts\n        for (uint256 i=0; i < contracts.length; i++) {\n            if (contracts[i] == contractAddress) {\n                pastContracts.push(contractAddress);\n                contractStatus[contractAddress] = true;\n                delete contracts[i];\n                return true;\n            }\n        }\n        return false;\n    }\n\n    function addToMyContracts(address contractAddress) public view returns (address) {\n        //call when createContract button is clicked => web3\n        contracts.push(contractAddress);\n    }\n\n    function addToMyTenders(address tenderAddress) public view returns (address) {\n        //look at web3 for address \n        tenders.push(tenderAddress);\n    }\n\n    function getMyTenders() public view returns (address[]) {\n        return tenders;\n    }\n\n    function getPastTenders() public view returns (address[]) {\n        return pastTenders;\n    }\n\n    function updateTenderToExpired(address tenderAddress) \n    public returns (bool) {\n        //removeFromMyTender and add to past Tenders\n        for (uint i=0; i < tenders.length; i++) {\n            if (tenders[i] == tenderAddress) {\n                expiredTenders.push(tenderAddress);\n                delete tenders[i];\n                return true;\n            }\n        }\n        return false;\n    }\n\n    function getExpiredTenders() public view returns (address[]) {\n        return expiredTenders;\n    }\n\n    function updateTenderToContract(address tenderAddress, address contractAddress) \n    public returns (bool) {\n        //removeFromMyTender and add to past Tenders\n        for (uint i=0; i < tenders.length; i++) {\n            if (expiredTenders[i] == tenderAddress) {\n                pastTenders.push(tenderAddress);\n                tenderToContract[expiredTenders[i]] = contractAddress;\n                contracts.push(contractAddress);\n                contractStatus[contractAddress] = false;\n                delete expiredTenders[i];\n                return true;\n            }\n        }\n        return false;\n    }\n\n    function updateOfficerVerifiedStatus() public {\n        isVerified = true;\n    }\n\n}",
  "sourcePath": "/home/scoco/Desktop/TenderSystem---Blockchain/contracts/GovernmentOfficer.sol",
  "compiler": {
    "name": "solc",
    "version": "0.4.20+commit.3155dd80.Emscripten.clang"
  },
  "schemaVersion": "1.0.1",
  "updatedAt": "2018-03-20T16:02:08.189Z"
}