{
  "contractName": "GovernmentOfficerRepo",
  "abi": [
    {
      "constant": true,
      "inputs": [
        {
          "name": "officerAddress",
          "type": "address"
        }
      ],
      "name": "getVerifier",
      "outputs": [
        {
          "name": "",
          "type": "address"
        }
      ],
      "payable": false,
      "stateMutability": "view",
      "type": "function"
    },
    {
      "constant": true,
      "inputs": [],
      "name": "getVerifiedOfficersCount",
      "outputs": [
        {
          "name": "",
          "type": "uint256"
        }
      ],
      "payable": false,
      "stateMutability": "view",
      "type": "function"
    },
    {
      "constant": true,
      "inputs": [],
      "name": "getOfficers",
      "outputs": [
        {
          "name": "",
          "type": "address[]"
        }
      ],
      "payable": false,
      "stateMutability": "view",
      "type": "function"
    },
    {
      "constant": false,
      "inputs": [
        {
          "name": "officerAddress",
          "type": "address"
        },
        {
          "name": "verifierAdress",
          "type": "address"
        }
      ],
      "name": "verifyOfficer",
      "outputs": [],
      "payable": false,
      "stateMutability": "nonpayable",
      "type": "function"
    },
    {
      "constant": true,
      "inputs": [
        {
          "name": "index",
          "type": "uint256"
        }
      ],
      "name": "getUnverifiedOfficers",
      "outputs": [
        {
          "name": "",
          "type": "address"
        }
      ],
      "payable": false,
      "stateMutability": "view",
      "type": "function"
    },
    {
      "constant": true,
      "inputs": [
        {
          "name": "walletAddress",
          "type": "address"
        }
      ],
      "name": "getNodeAddress",
      "outputs": [
        {
          "name": "",
          "type": "address"
        }
      ],
      "payable": false,
      "stateMutability": "view",
      "type": "function"
    },
    {
      "constant": true,
      "inputs": [
        {
          "name": "",
          "type": "uint256"
        }
      ],
      "name": "verifiedOfficers",
      "outputs": [
        {
          "name": "",
          "type": "address"
        }
      ],
      "payable": false,
      "stateMutability": "view",
      "type": "function"
    },
    {
      "constant": false,
      "inputs": [
        {
          "name": "walletAddress",
          "type": "address"
        },
        {
          "name": "nodeAddress",
          "type": "address"
        }
      ],
      "name": "mapWalletAddressToNode",
      "outputs": [],
      "payable": false,
      "stateMutability": "nonpayable",
      "type": "function"
    },
    {
      "constant": true,
      "inputs": [
        {
          "name": "officerAddress",
          "type": "address"
        }
      ],
      "name": "getVerifiedStatus",
      "outputs": [
        {
          "name": "",
          "type": "bool"
        }
      ],
      "payable": false,
      "stateMutability": "view",
      "type": "function"
    },
    {
      "constant": true,
      "inputs": [
        {
          "name": "",
          "type": "uint256"
        }
      ],
      "name": "officers",
      "outputs": [
        {
          "name": "",
          "type": "address"
        }
      ],
      "payable": false,
      "stateMutability": "view",
      "type": "function"
    },
    {
      "constant": true,
      "inputs": [],
      "name": "getVerifiedOfficers",
      "outputs": [
        {
          "name": "",
          "type": "address[]"
        }
      ],
      "payable": false,
      "stateMutability": "view",
      "type": "function"
    },
    {
      "constant": true,
      "inputs": [
        {
          "name": "",
          "type": "address"
        }
      ],
      "name": "officerToVerifier",
      "outputs": [
        {
          "name": "",
          "type": "address"
        }
      ],
      "payable": false,
      "stateMutability": "view",
      "type": "function"
    },
    {
      "constant": true,
      "inputs": [],
      "name": "getOfficersCount",
      "outputs": [
        {
          "name": "",
          "type": "uint256"
        }
      ],
      "payable": false,
      "stateMutability": "view",
      "type": "function"
    },
    {
      "constant": true,
      "inputs": [
        {
          "name": "",
          "type": "address"
        }
      ],
      "name": "walletAddressToNode",
      "outputs": [
        {
          "name": "",
          "type": "address"
        }
      ],
      "payable": false,
      "stateMutability": "view",
      "type": "function"
    },
    {
      "constant": false,
      "inputs": [
        {
          "name": "walletAddress",
          "type": "address"
        },
        {
          "name": "nodeAddress",
          "type": "address"
        }
      ],
      "name": "newOfficer",
      "outputs": [
        {
          "name": "",
          "type": "bool"
        }
      ],
      "payable": false,
      "stateMutability": "nonpayable",
      "type": "function"
    },
    {
      "constant": true,
      "inputs": [
        {
          "name": "",
          "type": "address"
        }
      ],
      "name": "verifiedStatus",
      "outputs": [
        {
          "name": "",
          "type": "bool"
        }
      ],
      "payable": false,
      "stateMutability": "view",
      "type": "function"
    },
    {
      "inputs": [],
      "payable": false,
      "stateMutability": "nonpayable",
      "type": "constructor"
    }
  ],
  "bytecode": "0x6060604052341561000f57600080fd5b610dab8061001e6000396000f3006060604052600436106100e6576000357c0100000000000000000000000000000000000000000000000000000000900463ffffffff168063059ce95d146100eb5780630cc7bf9c146101215780630f7151dc1461014a57806310ffb5dc146101735780631142f0211461019557806311f217c7146101cb5780631dac6a301461020157806323ff85f9146102375780635306fa8b146102595780636b291d9f1461028f5780636f6f7721146102c5578063d6de1dcb146102ee578063e4974ca914610324578063e544a7fd1461034d578063ec54b7f914610383578063fac0d090146103b9575b600080fd5b34156100f657600080fd5b61010b6004610106903690610b63565b6103ef565b6040516101189190610c79565b60405180910390f35b341561012c57600080fd5b610134610458565b6040516101419190610cd1565b60405180910390f35b341561015557600080fd5b61015d610465565b60405161016a9190610c94565b60405180910390f35b341561017e57600080fd5b610193600461018e903690610b8c565b6104f9565b005b34156101a057600080fd5b6101b560046101b0903690610bc8565b610636565b6040516101c29190610c79565b60405180910390f35b34156101d657600080fd5b6101eb60046101e6903690610b63565b610721565b6040516101f89190610c79565b60405180910390f35b341561020c57600080fd5b610221600461021c903690610bc8565b61078a565b60405161022e9190610c79565b60405180910390f35b341561024257600080fd5b6102576004610252903690610b8c565b6107c9565b005b341561026457600080fd5b6102796004610274903690610b63565b61084b565b6040516102869190610cb6565b60405180910390f35b341561029a57600080fd5b6102af60046102aa903690610bc8565b6108a1565b6040516102bc9190610c79565b60405180910390f35b34156102d057600080fd5b6102d86108e0565b6040516102e59190610c94565b60405180910390f35b34156102f957600080fd5b61030e6004610309903690610b63565b610974565b60405161031b9190610c79565b60405180910390f35b341561032f57600080fd5b6103376109a7565b6040516103449190610cd1565b60405180910390f35b341561035857600080fd5b61036d6004610368903690610b63565b6109b3565b60405161037a9190610c79565b60405180910390f35b341561038e57600080fd5b6103a3600461039e903690610b8c565b6109e6565b6040516103b09190610cb6565b60405180910390f35b34156103c457600080fd5b6103d960046103d4903690610b63565b610ab6565b6040516103e69190610cb6565b60405180910390f35b6000600360008373ffffffffffffffffffffffffffffffffffffffff1673ffffffffffffffffffffffffffffffffffffffff16815260200190815260200160002060009054906101000a900473ffffffffffffffffffffffffffffffffffffffff169050919050565b6000600180549050905090565b61046d610ad6565b60008054806020026020016040519081016040528092919081815260200182805480156104ef57602002820191906000526020600020905b8160009054906101000a900473ffffffffffffffffffffffffffffffffffffffff1673ffffffffffffffffffffffffffffffffffffffff16815260200190600101908083116104a5575b5050505050905090565b6001805480600101828161050d9190610aea565b9160005260206000209001600084909190916101000a81548173ffffffffffffffffffffffffffffffffffffffff021916908373ffffffffffffffffffffffffffffffffffffffff160217905550506001600260008473ffffffffffffffffffffffffffffffffffffffff1673ffffffffffffffffffffffffffffffffffffffff16815260200190815260200160002060006101000a81548160ff02191690831515021790555080600360008473ffffffffffffffffffffffffffffffffffffffff1673ffffffffffffffffffffffffffffffffffffffff16815260200190815260200160002060006101000a81548173ffffffffffffffffffffffffffffffffffffffff021916908373ffffffffffffffffffffffffffffffffffffffff1602179055505050565b6000808054905082111561064957600080fd5b60026000808481548110151561065b57fe5b906000526020600020900160009054906101000a900473ffffffffffffffffffffffffffffffffffffffff1673ffffffffffffffffffffffffffffffffffffffff1673ffffffffffffffffffffffffffffffffffffffff16815260200190815260200160002060009054906101000a900460ff161515610717576000828154811015156106e457fe5b906000526020600020900160009054906101000a900473ffffffffffffffffffffffffffffffffffffffff16905061071c565b600080fd5b919050565b6000600460008373ffffffffffffffffffffffffffffffffffffffff1673ffffffffffffffffffffffffffffffffffffffff16815260200190815260200160002060009054906101000a900473ffffffffffffffffffffffffffffffffffffffff169050919050565b60018181548110151561079957fe5b90600052602060002090016000915054906101000a900473ffffffffffffffffffffffffffffffffffffffff1681565b80600460008473ffffffffffffffffffffffffffffffffffffffff1673ffffffffffffffffffffffffffffffffffffffff16815260200190815260200160002060006101000a81548173ffffffffffffffffffffffffffffffffffffffff021916908373ffffffffffffffffffffffffffffffffffffffff1602179055505050565b6000600260008373ffffffffffffffffffffffffffffffffffffffff1673ffffffffffffffffffffffffffffffffffffffff16815260200190815260200160002060009054906101000a900460ff169050919050565b6000818154811015156108b057fe5b90600052602060002090016000915054906101000a900473ffffffffffffffffffffffffffffffffffffffff1681565b6108e8610ad6565b600180548060200260200160405190810160405280929190818152602001828054801561096a57602002820191906000526020600020905b8160009054906101000a900473ffffffffffffffffffffffffffffffffffffffff1673ffffffffffffffffffffffffffffffffffffffff1681526020019060010190808311610920575b5050505050905090565b60036020528060005260406000206000915054906101000a900473ffffffffffffffffffffffffffffffffffffffff1681565b60008080549050905090565b60046020528060005260406000206000915054906101000a900473ffffffffffffffffffffffffffffffffffffffff1681565b60008080548060010182816109fb9190610aea565b9160005260206000209001600084909190916101000a81548173ffffffffffffffffffffffffffffffffffffffff021916908373ffffffffffffffffffffffffffffffffffffffff160217905550506000600260008473ffffffffffffffffffffffffffffffffffffffff1673ffffffffffffffffffffffffffffffffffffffff16815260200190815260200160002060006101000a81548160ff021916908315150217905550610aac83836107c9565b6001905092915050565b60026020528060005260406000206000915054906101000a900460ff1681565b602060405190810160405280600081525090565b815481835581811511610b1157818360005260206000209182019101610b109190610b16565b5b505050565b610b3891905b80821115610b34576000816000905550600101610b1c565b5090565b90565b6000610b478235610d47565b905092915050565b6000610b5b8235610d67565b905092915050565b600060208284031215610b7557600080fd5b6000610b8384828501610b3b565b91505092915050565b60008060408385031215610b9f57600080fd5b6000610bad85828601610b3b565b9250506020610bbe85828601610b3b565b9150509250929050565b600060208284031215610bda57600080fd5b6000610be884828501610b4f565b91505092915050565b610bfa81610d11565b82525050565b6000610c0b82610cf9565b808452602084019350610c1d83610cec565b60005b82811015610c4f57610c33868351610bf1565b610c3c82610d04565b9150602086019550600181019050610c20565b50849250505092915050565b610c6481610d31565b82525050565b610c7381610d3d565b82525050565b6000602082019050610c8e6000830184610bf1565b92915050565b60006020820190508181036000830152610cae8184610c00565b905092915050565b6000602082019050610ccb6000830184610c5b565b92915050565b6000602082019050610ce66000830184610c6a565b92915050565b6000602082019050919050565b600081519050919050565b6000602082019050919050565b600073ffffffffffffffffffffffffffffffffffffffff82169050919050565b60008115159050919050565b6000819050919050565b600073ffffffffffffffffffffffffffffffffffffffff82169050919050565b60008190509190505600a265627a7a7230582086aea84d774308347a2a3fa2cef016b8060e6dd4378333b124a1051636f03be86c6578706572696d656e74616cf50037",
  "source": "pragma solidity ^0.4.20;\npragma experimental ABIEncoderV2;\n\n//import \"./GovernmentOfficer.sol\";\n\n\ncontract GovernmentOfficerRepo {\n    address[] public officers; //all officers verified + unverified\n    address[] public verifiedOfficers;\n    mapping (address=>bool) public verifiedStatus; //true=>verified, false => unverified\n    mapping (address=>address) public officerToVerifier;\n    mapping (address=>address) public walletAddressToNode;\n    function GovernmentOfficerRepo() public {\n\n    }\n\n    //----do not use---- adds the new contract to same byte code\n    // function registerOfficer(address _walletAddress, string _email, string _name, \n    // string _phoneNumber, string _employeeId) public returns (address) {\n    //     GovernmentOfficer officer = new GovernmentOfficer();\n    //     officer.setGovernmentOfficer(_walletAddress, _email, _name, \n    //     _phoneNumber, _employeeId);\n    //     this.newOfficer(address(officer));\n    //     return officer;\n    // }\n\n    function newOfficer(address walletAddress, address nodeAddress) public returns (bool) {\n        officers.push(nodeAddress);\n        verifiedStatus[nodeAddress] = false;\n        mapWalletAddressToNode(walletAddress, nodeAddress);\n        return true;\n    }\n    \n    function mapWalletAddressToNode(address walletAddress, address nodeAddress) public {\n        walletAddressToNode[walletAddress] = nodeAddress;\n    }\n\n    function getNodeAddress(address walletAddress) public view returns (address) {\n        return walletAddressToNode[walletAddress];\n    }\n    \n    function verifyOfficer(address officerAddress, address verifierAdress) public {\n        verifiedOfficers.push(officerAddress);\n        verifiedStatus[officerAddress] = true;\n        officerToVerifier[officerAddress] = verifierAdress;\n    }\n    \n    function getOfficersCount() public view returns (uint256) {\n        return officers.length;\n    }\n\n    function getVerifiedOfficersCount() public view returns (uint256) {\n        return verifiedOfficers.length;\n    }\n\n    function getOfficers () public view returns (address[]) {\n        return officers;\n    }\n\n    function getVerifiedOfficers () public view returns (address[]) {\n        return verifiedOfficers;\n    }\n\n    function getVerifier(address officerAddress) public view returns (address) {\n        return officerToVerifier[officerAddress];\n    }\n\n    function getVerifiedStatus(address officerAddress) public view returns (bool) {\n        return verifiedStatus[officerAddress];\n    }\n\n    function getUnverifiedOfficers(uint256 index) public view returns (address) {\n        //loop at web3\n        if (index > officers.length) revert();\n        if (!verifiedStatus[officers[index]]) {\n            return officers[index]; \n        }\n        revert();\n    }\n    \n}",
  "sourcePath": "/home/scoco/Desktop/TenderSystem---Blockchain/contracts/GovernmentOfficerRepo.sol",
  "compiler": {
    "name": "solc",
    "version": "0.4.20+commit.3155dd80.Emscripten.clang"
  },
  "schemaVersion": "1.0.1",
  "updatedAt": "2018-03-20T16:15:25.721Z"
}