{
  "contractName": "Main",
  "abi": [
    {
      "constant": false,
      "inputs": [],
      "name": "getAllTenders",
      "outputs": [
        {
          "name": "",
          "type": "address[]"
        }
      ],
      "payable": false,
      "stateMutability": "nonpayable",
      "type": "function"
    },
    {
      "constant": false,
      "inputs": [],
      "name": "getAllOngoingContracts",
      "outputs": [
        {
          "name": "",
          "type": "address[]"
        }
      ],
      "payable": false,
      "stateMutability": "nonpayable",
      "type": "function"
    }
  ],
  "bytecode": "0x6060604052341561000f57600080fd5b6101d88061001e6000396000f30060606040526004361061004c576000357c0100000000000000000000000000000000000000000000000000000000900463ffffffff1680632358c04614610051578063ab0b59371461007a575b600080fd5b341561005c57600080fd5b6100646100a3565b6040516100719190610137565b60405180910390f35b341561008557600080fd5b61008d6100ae565b60405161009a9190610137565b60405180910390f35b6100ab6100b9565b90565b6100b66100b9565b90565b602060405190810160405280600081525090565b6100d68161017e565b82525050565b60006100e782610166565b8084526020840193506100f983610159565b60005b8281101561012b5761010f8683516100cd565b61011882610171565b91506020860195506001810190506100fc565b50849250505092915050565b6000602082019050818103600083015261015181846100dc565b905092915050565b6000602082019050919050565b600081519050919050565b6000602082019050919050565b600073ffffffffffffffffffffffffffffffffffffffff821690509190505600a265627a7a723058209ed8e2e7684fa79a0aff10056c2a91beeeb5ddf52be26b1bb200bd5a5fd2c2ef6c6578706572696d656e74616cf50037",
  "source": "pragma solidity ^0.4.20;\npragma experimental ABIEncoderV2;\n\ncontract Main{\n    \n    function encrypt(address userAddress, string role) internal returns (string){\n    }\n\n    function decrypt(string token) internal returns (address){\n    }\n\n    // comman man => extra fields to fetch\n    function getAllTenders() public returns (address[]){\n    }\n\n    function getAllOngoingContracts() public returns (address[]){\n    }\n}",
  "sourcePath": "/home/scoco/Desktop/TenderSystem---Blockchain/contracts/Main.sol",
  "compiler": {
    "name": "solc",
    "version": "0.4.20+commit.3155dd80.Emscripten.clang"
  },
  "schemaVersion": "1.0.1",
  "updatedAt": "2018-03-19T22:07:57.248Z"
}