{
  "contractName": "SpecialOfficer",
  "abi": [
    {
      "constant": false,
      "inputs": [],
      "name": "logout",
      "outputs": [
        {
          "name": "",
          "type": "bool"
        }
      ],
      "payable": false,
      "stateMutability": "nonpayable",
      "type": "function"
    },
    {
      "constant": false,
      "inputs": [],
      "name": "getAllTenders",
      "outputs": [
        {
          "name": "",
          "type": "address[]"
        }
      ],
      "payable": false,
      "stateMutability": "nonpayable",
      "type": "function"
    },
    {
      "constant": false,
      "inputs": [
        {
          "name": "userAddress",
          "type": "address"
        },
        {
          "name": "role",
          "type": "string"
        }
      ],
      "name": "login",
      "outputs": [
        {
          "name": "",
          "type": "string"
        }
      ],
      "payable": false,
      "stateMutability": "nonpayable",
      "type": "function"
    },
    {
      "constant": false,
      "inputs": [],
      "name": "getAllOngoingContracts",
      "outputs": [
        {
          "name": "",
          "type": "address[]"
        }
      ],
      "payable": false,
      "stateMutability": "nonpayable",
      "type": "function"
    },
    {
      "inputs": [
        {
          "name": "_walletAddress",
          "type": "address"
        },
        {
          "name": "_email",
          "type": "string"
        },
        {
          "name": "_phoneNumber",
          "type": "string"
        },
        {
          "name": "_name",
          "type": "string"
        },
        {
          "name": "_employeeId",
          "type": "string"
        }
      ],
      "payable": false,
      "stateMutability": "nonpayable",
      "type": "constructor"
    }
  ],
  "bytecode": "0x6060604052341561000f57600080fd5b6040516108133803806108138339810160405261003590678000000000000000906101ea565b846000806101000a81548173ffffffffffffffffffffffffffffffffffffffff021916908373ffffffffffffffffffffffffffffffffffffffff160217905550836001908051906020019061008b9291906100db565b5082600290805190602001906100a29291906100db565b5081600390805190602001906100b99291906100db565b5080600490805190602001906100d09291906100db565b50505050505061036d565b828054600181600116156101000203166002900490600052602060002090601f016020900481019282601f1061011c57805160ff191683800117855561014a565b8280016001018555821561014a579182015b8281111561014957825182559160200191906001019061012e565b5b509050610157919061015b565b5090565b61017d91905b80821115610179576000816000905550600101610161565b5090565b90565b600061018c825161031a565b905092915050565b600082601f83011215156101a757600080fd5b81516101ba6101b5826102ee565b6102c1565b915080825260208301602083018583830111156101d657600080fd5b6101e183828461033a565b50505092915050565b600080600080600060a0868803121561020257600080fd5b600061021088828901610180565b955050602086015167ffffffffffffffff81111561022d57600080fd5b61023988828901610194565b945050604086015167ffffffffffffffff81111561025657600080fd5b61026288828901610194565b935050606086015167ffffffffffffffff81111561027f57600080fd5b61028b88828901610194565b925050608086015167ffffffffffffffff8111156102a857600080fd5b6102b488828901610194565b9150509295509295909350565b6000604051905081810181811067ffffffffffffffff821117156102e457600080fd5b8060405250919050565b600067ffffffffffffffff82111561030557600080fd5b601f19601f8301169050602081019050919050565b600073ffffffffffffffffffffffffffffffffffffffff82169050919050565b60005b8381101561035857808201518184015260208101905061033d565b83811115610367576000848401525b50505050565b6104978061037c6000396000f300606060405260043610610062576000357c0100000000000000000000000000000000000000000000000000000000900463ffffffff1680631f3c99c3146100675780632358c046146100905780632f19d50b146100b9578063ab0b5937146100ef575b600080fd5b341561007257600080fd5b61007a610118565b60405161008791906102f8565b60405180910390f35b341561009b57600080fd5b6100a361011d565b6040516100b091906102d6565b60405180910390f35b34156100c457600080fd5b6100d960046100d49036906101d3565b610128565b6040516100e69190610313565b60405180910390f35b34156100fa57600080fd5b610102610136565b60405161010f91906102d6565b60405180910390f35b600090565b610125610141565b90565b610130610155565b92915050565b61013e610141565b90565b602060405190810160405280600081525090565b602060405190810160405280600081525090565b600061017582356103ea565b905092915050565b600082601f830112151561019057600080fd5b81356101a361019e82610362565b610335565b915080825260208301602083018583830111156101bf57600080fd5b6101ca83828461040a565b50505092915050565b600080604083850312156101e657600080fd5b60006101f485828601610169565b925050602083013567ffffffffffffffff81111561021157600080fd5b61021d8582860161017d565b9150509250929050565b610230816103be565b82525050565b60006102418261039b565b8084526020840193506102538361038e565b60005b8281101561028557610269868351610227565b610272826103b1565b9150602086019550600181019050610256565b50849250505092915050565b61029a816103de565b82525050565b60006102ab826103a6565b8084526102bf816020860160208601610419565b6102c88161044c565b602085010191505092915050565b600060208201905081810360008301526102f08184610236565b905092915050565b600060208201905061030d6000830184610291565b92915050565b6000602082019050818103600083015261032d81846102a0565b905092915050565b6000604051905081810181811067ffffffffffffffff8211171561035857600080fd5b8060405250919050565b600067ffffffffffffffff82111561037957600080fd5b601f19601f8301169050602081019050919050565b6000602082019050919050565b600081519050919050565b600081519050919050565b6000602082019050919050565b600073ffffffffffffffffffffffffffffffffffffffff82169050919050565b60008115159050919050565b600073ffffffffffffffffffffffffffffffffffffffff82169050919050565b82818337600083830152505050565b60005b8381101561043757808201518184015260208101905061041c565b83811115610446576000848401525b50505050565b6000601f19601f83011690509190505600a265627a7a72305820fa10c7b99590cc95731d07ecf1f817d7639b07ccb6c03122fb620b0fb4264ec66c6578706572696d656e74616cf50037",
  "source": "pragma solidity ^0.4.20;\npragma experimental ABIEncoderV2;\n\nimport \"./Main.sol\";\n\n\ncontract SpecialOfficer is Main {\n    \n    address walletAddress;\n    string email;\n    string phoneNumber;\n    string name;\n    string employeeId; \n\n    function SpecialOfficer (address _walletAddress, string _email, string _phoneNumber, \n    string _name, string _employeeId) public {\n        walletAddress = _walletAddress;\n        email = _email;\n        phoneNumber = _phoneNumber;\n        name = _name;\n        employeeId = _employeeId;\n    }\n\n    function login(address userAddress, string role) public  returns (string) {\n    }\n\n    function logout() public returns (bool) {\n\n    }\n}",
  "sourcePath": "/home/scoco/Desktop/TenderSystem---Blockchain/contracts/SpecialOfficer.sol",
  "compiler": {
    "name": "solc",
    "version": "0.4.20+commit.3155dd80.Emscripten.clang"
  },
  "schemaVersion": "1.0.1",
  "updatedAt": "2018-03-20T16:02:08.198Z"
}