{
  "contractName": "TenderRepo",
  "abi": [
    {
      "constant": false,
      "inputs": [
        {
          "name": "tenderAddress",
          "type": "address"
        }
      ],
      "name": "updateTenderStatusToDeployed",
      "outputs": [],
      "payable": false,
      "stateMutability": "nonpayable",
      "type": "function"
    },
    {
      "constant": true,
      "inputs": [],
      "name": "getAllTenders",
      "outputs": [
        {
          "name": "",
          "type": "address[]"
        }
      ],
      "payable": false,
      "stateMutability": "view",
      "type": "function"
    },
    {
      "constant": false,
      "inputs": [
        {
          "name": "tenderAddress",
          "type": "address"
        }
      ],
      "name": "updateTenderStatusToBiddingComplete",
      "outputs": [],
      "payable": false,
      "stateMutability": "nonpayable",
      "type": "function"
    },
    {
      "constant": true,
      "inputs": [],
      "name": "getTenderCount",
      "outputs": [
        {
          "name": "",
          "type": "uint256"
        }
      ],
      "payable": false,
      "stateMutability": "view",
      "type": "function"
    },
    {
      "constant": false,
      "inputs": [
        {
          "name": "tenderToAppend",
          "type": "address"
        }
      ],
      "name": "addToTenders",
      "outputs": [],
      "payable": false,
      "stateMutability": "nonpayable",
      "type": "function"
    },
    {
      "constant": true,
      "inputs": [
        {
          "name": "index",
          "type": "uint256"
        }
      ],
      "name": "getOngoingTenders",
      "outputs": [
        {
          "name": "",
          "type": "address"
        }
      ],
      "payable": false,
      "stateMutability": "view",
      "type": "function"
    },
    {
      "constant": true,
      "inputs": [
        {
          "name": "",
          "type": "address"
        }
      ],
      "name": "tenderMapping",
      "outputs": [
        {
          "name": "",
          "type": "uint8"
        }
      ],
      "payable": false,
      "stateMutability": "view",
      "type": "function"
    },
    {
      "constant": true,
      "inputs": [
        {
          "name": "",
          "type": "uint256"
        }
      ],
      "name": "tenderAddress",
      "outputs": [
        {
          "name": "",
          "type": "address"
        }
      ],
      "payable": false,
      "stateMutability": "view",
      "type": "function"
    },
    {
      "inputs": [],
      "payable": false,
      "stateMutability": "nonpayable",
      "type": "constructor"
    }
  ],
  "bytecode": "0x6060604052341561000f57600080fd5b6108328061001e6000396000f30060606040526004361061008e576000357c0100000000000000000000000000000000000000000000000000000000900463ffffffff16806304a01abe146100935780632358c046146100b557806336b4181c146100de5780635850b383146101005780635c48eebc1461012957806380650c861461014b578063b6af93c814610181578063e8de1898146101b7575b600080fd5b341561009e57600080fd5b6100b360046100ae90369061060a565b6101ed565b005b34156100c057600080fd5b6100c8610251565b6040516100d591906106ff565b60405180910390f35b34156100e957600080fd5b6100fe60046100f990369061060a565b6102e5565b005b341561010b57600080fd5b610113610348565b604051610120919061073c565b60405180910390f35b341561013457600080fd5b610149600461014490369061060a565b610354565b005b341561015657600080fd5b61016b6004610166903690610633565b61041b565b60405161017891906106e4565b60405180910390f35b341561018c57600080fd5b6101a1600461019c90369061060a565b61051e565b6040516101ae9190610721565b60405180910390f35b34156101c257600080fd5b6101d760046101d2903690610633565b61053e565b6040516101e491906106e4565b60405180910390f35b6002600160008373ffffffffffffffffffffffffffffffffffffffff1673ffffffffffffffffffffffffffffffffffffffff16815260200190815260200160002060006101000a81548160ff0219169083600281111561024957fe5b021790555050565b61025961057d565b60008054806020026020016040519081016040528092919081815260200182805480156102db57602002820191906000526020600020905b8160009054906101000a900473ffffffffffffffffffffffffffffffffffffffff1673ffffffffffffffffffffffffffffffffffffffff1681526020019060010190808311610291575b5050505050905090565b60018060008373ffffffffffffffffffffffffffffffffffffffff1673ffffffffffffffffffffffffffffffffffffffff16815260200190815260200160002060006101000a81548160ff0219169083600281111561034057fe5b021790555050565b60008080549050905090565b600080548060010182816103689190610591565b9160005260206000209001600083909190916101000a81548173ffffffffffffffffffffffffffffffffffffffff021916908373ffffffffffffffffffffffffffffffffffffffff160217905550506000600160008373ffffffffffffffffffffffffffffffffffffffff1673ffffffffffffffffffffffffffffffffffffffff16815260200190815260200160002060006101000a81548160ff0219169083600281111561041357fe5b021790555050565b6000808054905082111561042e57600080fd5b6000600281111561043b57fe5b60016000808581548110151561044d57fe5b906000526020600020900160009054906101000a900473ffffffffffffffffffffffffffffffffffffffff1673ffffffffffffffffffffffffffffffffffffffff1673ffffffffffffffffffffffffffffffffffffffff16815260200190815260200160002060009054906101000a900460ff1660028111156104cc57fe5b1415610514576000828154811015156104e157fe5b906000526020600020900160009054906101000a900473ffffffffffffffffffffffffffffffffffffffff169050610519565b600080fd5b919050565b60016020528060005260406000206000915054906101000a900460ff1681565b60008181548110151561054d57fe5b90600052602060002090016000915054906101000a900473ffffffffffffffffffffffffffffffffffffffff1681565b602060405190810160405280600081525090565b8154818355818115116105b8578183600052602060002091820191016105b791906105bd565b5b505050565b6105df91905b808211156105db5760008160009055506001016105c3565b5090565b90565b60006105ee82356107bc565b905092915050565b600061060282356107dc565b905092915050565b60006020828403121561061c57600080fd5b600061062a848285016105e2565b91505092915050565b60006020828403121561064557600080fd5b6000610653848285016105f6565b91505092915050565b6106658161077c565b82525050565b600061067682610764565b80845260208401935061068883610757565b60005b828110156106ba5761069e86835161065c565b6106a78261076f565b915060208601955060018101905061068b565b50849250505092915050565b6106cf816107e6565b82525050565b6106de816107b2565b82525050565b60006020820190506106f9600083018461065c565b92915050565b60006020820190508181036000830152610719818461066b565b905092915050565b600060208201905061073660008301846106c6565b92915050565b600060208201905061075160008301846106d5565b92915050565b6000602082019050919050565b600081519050919050565b6000602082019050919050565b600073ffffffffffffffffffffffffffffffffffffffff82169050919050565b60006003821015156107aa57fe5b819050919050565b6000819050919050565b600073ffffffffffffffffffffffffffffffffffffffff82169050919050565b6000819050919050565b60006107f18261079c565b90509190505600a265627a7a72305820d5507906c2ddf44574764b08ea919dbe66055a01cd7f5cec10a823551e41ffd06c6578706572696d656e74616cf50037",
  "source": "pragma solidity ^0.4.20;\npragma experimental ABIEncoderV2;\n\n\ncontract TenderRepo {\n    address[] public tenderAddress;\n\n    enum TenderStatus {\n        activeOnBid,\n        biddingComplete,\n        contractDeployed\n    }\n\n    mapping (address => TenderStatus) public tenderMapping;\n\n    function TenderRepo() public {\n        \n    }\n\n    function addToTenders(address tenderToAppend) public {\n        tenderAddress.push(tenderToAppend);\n        tenderMapping[tenderToAppend] = TenderStatus.activeOnBid;\n    }\n\n    function getAllTenders() public view returns (address[]) {\n        //to be used by verifier\n        return tenderAddress;\n    }\n\n    function getTenderCount() public view returns (uint256) {\n        return tenderAddress.length;\n    }\n\n    function getOngoingTenders(uint256 index) public view returns (address) {\n        //loop at web3\n        if (index > tenderAddress.length) revert();\n        if (tenderMapping[tenderAddress[index]] == TenderStatus.activeOnBid) {\n            return tenderAddress[index]; \n        }\n        revert();\n    }\n\n    function updateTenderStatusToBiddingComplete(address tenderAddress) public {\n        tenderMapping[tenderAddress] = TenderStatus.biddingComplete;\n    }\n\n    function updateTenderStatusToDeployed(address tenderAddress) public {\n        tenderMapping[tenderAddress] = TenderStatus.contractDeployed;\n    }\n}",
  "sourcePath": "/home/scoco/Desktop/TenderSystem---Blockchain/contracts/TenderRepo.sol",
  "compiler": {
    "name": "solc",
    "version": "0.4.20+commit.3155dd80.Emscripten.clang"
  },
  "schemaVersion": "1.0.1",
  "updatedAt": "2018-03-19T22:39:54.605Z"
}