{
  "contractName": "Tender",
  "abi": [
    {
      "constant": true,
      "inputs": [
        {
          "name": "",
          "type": "uint256"
        }
      ],
      "name": "constraints",
      "outputs": [
        {
          "name": "",
          "type": "string"
        }
      ],
      "payable": false,
      "stateMutability": "view",
      "type": "function"
    },
    {
      "constant": false,
      "inputs": [
        {
          "name": "index",
          "type": "uint256"
        }
      ],
      "name": "getVerifiedProposals",
      "outputs": [
        {
          "name": "",
          "type": "string[]"
        },
        {
          "name": "",
          "type": "string[][]"
        },
        {
          "name": "",
          "type": "address"
        },
        {
          "name": "",
          "type": "uint256[]"
        }
      ],
      "payable": false,
      "stateMutability": "nonpayable",
      "type": "function"
    },
    {
      "constant": true,
      "inputs": [],
      "name": "governmentOfficerAddress",
      "outputs": [
        {
          "name": "",
          "type": "address"
        }
      ],
      "payable": false,
      "stateMutability": "view",
      "type": "function"
    },
    {
      "constant": false,
      "inputs": [
        {
          "name": "contractorAddress",
          "type": "address"
        }
      ],
      "name": "verifyProposal",
      "outputs": [],
      "payable": false,
      "stateMutability": "nonpayable",
      "type": "function"
    },
    {
      "constant": false,
      "inputs": [
        {
          "name": "_contractorAddress",
          "type": "address"
        },
        {
          "name": "_quotationClause",
          "type": "string[]"
        },
        {
          "name": "_quotationAmount",
          "type": "uint256[]"
        },
        {
          "name": "_constraintDocuments",
          "type": "string[]"
        }
      ],
      "name": "bid",
      "outputs": [],
      "payable": false,
      "stateMutability": "nonpayable",
      "type": "function"
    },
    {
      "constant": false,
      "inputs": [
        {
          "name": "index",
          "type": "uint256"
        }
      ],
      "name": "getProposalsToVerify",
      "outputs": [
        {
          "name": "",
          "type": "string[]"
        },
        {
          "name": "",
          "type": "string[][]"
        },
        {
          "name": "",
          "type": "address"
        }
      ],
      "payable": false,
      "stateMutability": "nonpayable",
      "type": "function"
    },
    {
      "constant": false,
      "inputs": [
        {
          "name": "_governmentOfficerAddress",
          "type": "address"
        },
        {
          "name": "_tenderName",
          "type": "string"
        },
        {
          "name": "_clauses",
          "type": "string[]"
        },
        {
          "name": "_constraints",
          "type": "string[]"
        },
        {
          "name": "_deadline",
          "type": "uint256"
        }
      ],
      "name": "setTender",
      "outputs": [],
      "payable": false,
      "stateMutability": "nonpayable",
      "type": "function"
    },
    {
      "constant": false,
      "inputs": [
        {
          "name": "amount",
          "type": "uint256"
        }
      ],
      "name": "setTenderAmount",
      "outputs": [],
      "payable": false,
      "stateMutability": "nonpayable",
      "type": "function"
    },
    {
      "constant": true,
      "inputs": [],
      "name": "getProposalCount",
      "outputs": [
        {
          "name": "",
          "type": "uint256"
        }
      ],
      "payable": false,
      "stateMutability": "view",
      "type": "function"
    },
    {
      "constant": true,
      "inputs": [
        {
          "name": "",
          "type": "uint256"
        }
      ],
      "name": "clauses",
      "outputs": [
        {
          "name": "",
          "type": "string"
        }
      ],
      "payable": false,
      "stateMutability": "view",
      "type": "function"
    },
    {
      "constant": false,
      "inputs": [
        {
          "name": "contractorAddress",
          "type": "address"
        }
      ],
      "name": "rejectProposal",
      "outputs": [],
      "payable": false,
      "stateMutability": "nonpayable",
      "type": "function"
    },
    {
      "constant": true,
      "inputs": [],
      "name": "tenderName",
      "outputs": [
        {
          "name": "",
          "type": "string"
        }
      ],
      "payable": false,
      "stateMutability": "view",
      "type": "function"
    },
    {
      "constant": true,
      "inputs": [
        {
          "name": "",
          "type": "uint256"
        }
      ],
      "name": "allContractorProposals",
      "outputs": [
        {
          "name": "contractorAddress",
          "type": "address"
        },
        {
          "name": "proposalAmount",
          "type": "uint256"
        },
        {
          "name": "status",
          "type": "uint8"
        }
      ],
      "payable": false,
      "stateMutability": "view",
      "type": "function"
    },
    {
      "inputs": [],
      "payable": false,
      "stateMutability": "nonpayable",
      "type": "constructor"
    }
  ],
  "bytecode": "0x6060604052341561000f57600080fd5b611d8e8061001e6000396000f3006060604052600436106100c5576000357c0100000000000000000000000000000000000000000000000000000000900463ffffffff168063041f624f146100ca57806334650fad1461010057806346d722e714610139578063528e830a146101625780635644e44c146101845780637376ade2146101a6578063820b2fd9146101de5780639b679bae14610200578063c08cc02d14610222578063ca6009be1461024b578063cddab28b14610281578063e959c7b9146102a3578063e979c9b8146102cc575b600080fd5b34156100d557600080fd5b6100ea60046100e59036906117b2565b610304565b6040516100f79190611ad4565b60405180910390f35b341561010b57600080fd5b610120600461011b9036906117b2565b6103c0565b6040516101309493929190611a7a565b60405180910390f35b341561014457600080fd5b61014c610762565b60405161015991906119e3565b60405180910390f35b341561016d57600080fd5b610182600461017d90369061161f565b610787565b005b341561018f57600080fd5b6101a4600461019f903690611648565b6107eb565b005b34156101b157600080fd5b6101c660046101c19036906117b2565b6109ba565b6040516101d593929190611a35565b60405180910390f35b34156101e957600080fd5b6101fe60046101f99036906116f3565b610cd7565b005b341561020b57600080fd5b610220600461021b9036906117b2565b610d72565b005b341561022d57600080fd5b610235610d95565b6040516102429190611af6565b60405180910390f35b341561025657600080fd5b61026b60046102669036906117b2565b610da2565b6040516102789190611ad4565b60405180910390f35b341561028c57600080fd5b6102a1600461029c90369061161f565b610e5e565b005b34156102ae57600080fd5b6102b6610ec2565b6040516102c39190611ad4565b60405180910390f35b34156102d757600080fd5b6102ec60046102e79036906117b2565b610f60565b6040516102fb939291906119fe565b60405180910390f35b60038181548110151561031357fe5b90600052602060002090016000915090508054600181600116156101000203166002900480601f0160208091040260200160405190810160405280929190818152602001828054600181600116156101000203166002900480156103b85780601f1061038d576101008083540402835291602001916103b8565b820191906000526020600020905b81548152906001019060200180831161039b57829003601f168201915b505050505081565b6103c8610fc6565b6103d0610fda565b60006103da610fee565b6000806103e5610fee565b600060028111156103f257fe5b60068981548110151561040157fe5b906000526020600020906006020160050160009054906101000a900460ff16600281111561042b57fe5b141561053b578280548060010182816104449190611002565b9160005260206000209001600060068b81548110151561046057fe5b9060005260206000209060060201600401909190915090805461048492919061102e565b505060068881548110151561049557fe5b906000526020600020906006020160000160009054906101000a900473ffffffffffffffffffffffffffffffffffffffff1691506006888154811015156104d857fe5b906000526020600020906006020160020180548060200260200160405190810160405280929190818152602001828054801561053357602002820191906000526020600020905b81548152602001906001019080831161051f575b505050505090505b600383838383805480602002602001604051908101604052809291908181526020016000905b8282101561061e57838290600052602060002090018054600181600116156101000203166002900480601f01602080910402602001604051908101604052809291908181526020018280546001816001161561010002031660029004801561060a5780601f106105df5761010080835404028352916020019161060a565b820191906000526020600020905b8154815290600101906020018083116105ed57829003601f168201915b505050505081526020019060010190610561565b50505050935082805480602002602001604051908101604052809291908181526020016000905b8282101561074a5783829060005260206000209001805480602002602001604051908101604052809291908181526020016000905b8282101561073757838290600052602060002090018054600181600116156101000203166002900480601f0160208091040260200160405190810160405280929190818152602001828054600181600116156101000203166002900480156107235780601f106106f857610100808354040283529160200191610723565b820191906000526020600020905b81548152906001019060200180831161070657829003601f168201915b50505050508152602001906001019061067a565b5050505081526020019060010190610645565b50505050925096509650965096505050509193509193565b6000809054906101000a900473ffffffffffffffffffffffffffffffffffffffff1681565b6000600760008373ffffffffffffffffffffffffffffffffffffffff1673ffffffffffffffffffffffffffffffffffffffff16815260200190815260200160002060006101000a81548160ff021916908360028111156107e357fe5b021790555050565b60008060006006808054809190600101610805919061109e565b81548110151561081157fe5b90600052602060002090600602019250868360000160006101000a81548173ffffffffffffffffffffffffffffffffffffffff021916908373ffffffffffffffffffffffffffffffffffffffff160217905550600091505b855182101561092857858281518110151561088057fe5b90602001906020020151836001018381548110151561089b57fe5b906000526020600020900190805190602001906108b99291906110d0565b5084828151811015156108c857fe5b9060200190602002015183600201838154811015156108e357fe5b906000526020600020900181905550848281518110151561090057fe5b9060200190602002015183600301600082825401925050819055508180600101925050610869565b600090505b835181101561098b57838281518110151561094457fe5b90602001906020020151836004018381548110151561095f57fe5b9060005260206000209001908051906020019061097d9291906110d0565b50808060010191505061092d565b60018360050160006101000a81548160ff021916908360028111156109ac57fe5b021790555050505050505050565b6109c2610fc6565b6109ca610fda565b6000806000600160028111156109dc57fe5b6006878154811015156109eb57fe5b906000526020600020906006020160050160009054906101000a900460ff166002811115610a1557fe5b1415610ab457818054806001018281610a2e9190611002565b91600052602060002090016000600689815481101515610a4a57fe5b90600052602060002090600602016004019091909150908054610a6e92919061102e565b5050600686815481101515610a7f57fe5b906000526020600020906006020160000160009054906101000a900473ffffffffffffffffffffffffffffffffffffffff1690505b6003828282805480602002602001604051908101604052809291908181526020016000905b82821015610b9657838290600052602060002090018054600181600116156101000203166002900480601f016020809104026020016040519081016040528092919081815260200182805460018160011615610100020316600290048015610b825780601f10610b5757610100808354040283529160200191610b82565b820191906000526020600020905b815481529060010190602001808311610b6557829003601f168201915b505050505081526020019060010190610ad9565b50505050925081805480602002602001604051908101604052809291908181526020016000905b82821015610cc25783829060005260206000209001805480602002602001604051908101604052809291908181526020016000905b82821015610caf57838290600052602060002090018054600181600116156101000203166002900480601f016020809104026020016040519081016040528092919081815260200182805460018160011615610100020316600290048015610c9b5780601f10610c7057610100808354040283529160200191610c9b565b820191906000526020600020905b815481529060010190602001808311610c7e57829003601f168201915b505050505081526020019060010190610bf2565b5050505081526020019060010190610bbd565b50505050915094509450945050509193909250565b846000806101000a81548173ffffffffffffffffffffffffffffffffffffffff021916908373ffffffffffffffffffffffffffffffffffffffff1602179055508360019080519060200190610d2d9291906110d0565b508260029080519060200190610d44929190611150565b508160039080519060200190610d5b929190611150565b508060048190555060006005819055505050505050565b60008114158015610d8557506000600554145b15610d9257806005819055505b50565b6000600680549050905090565b600281815481101515610db157fe5b90600052602060002090016000915090508054600181600116156101000203166002900480601f016020809104026020016040519081016040528092919081815260200182805460018160011615610100020316600290048015610e565780601f10610e2b57610100808354040283529160200191610e56565b820191906000526020600020905b815481529060010190602001808311610e3957829003601f168201915b505050505081565b6002600760008373ffffffffffffffffffffffffffffffffffffffff1673ffffffffffffffffffffffffffffffffffffffff16815260200190815260200160002060006101000a81548160ff02191690836002811115610eba57fe5b021790555050565b60018054600181600116156101000203166002900480601f016020809104026020016040519081016040528092919081815260200182805460018160011615610100020316600290048015610f585780601f10610f2d57610100808354040283529160200191610f58565b820191906000526020600020905b815481529060010190602001808311610f3b57829003601f168201915b505050505081565b600681815481101515610f6f57fe5b90600052602060002090600602016000915090508060000160009054906101000a900473ffffffffffffffffffffffffffffffffffffffff16908060030154908060050160009054906101000a900460ff16905083565b602060405190810160405280600081525090565b602060405190810160405280600081525090565b602060405190810160405280600081525090565b8154818355818115116110295781836000526020600020918201910161102891906111b0565b5b505050565b82805482825590600052602060002090810192821561108d5760005260206000209182015b8281111561108c578282908054600181600116156101000203166002900461107c9291906111dc565b5091600101919060010190611053565b5b50905061109a9190611263565b5090565b8154818355818115116110cb576006028160060283600052602060002091820191016110ca919061128f565b5b505050565b828054600181600116156101000203166002900490600052602060002090601f016020900481019282601f1061111157805160ff191683800117855561113f565b8280016001018555821561113f579182015b8281111561113e578251825591602001919060010190611123565b5b50905061114c9190611321565b5090565b82805482825590600052602060002090810192821561119f579160200282015b8281111561119e57825182908051906020019061118e929190611346565b5091602001919060010190611170565b5b5090506111ac9190611263565b5090565b6111d991905b808211156111d557600081816111cc91906113c6565b506001016111b6565b5090565b90565b828054600181600116156101000203166002900490600052602060002090601f016020900481019282601f106112155780548555611252565b8280016001018555821561125257600052602060002091601f016020900482015b82811115611251578254825591600101919060010190611236565b5b50905061125f9190611321565b5090565b61128c91905b80821115611288576000818161127f91906113e7565b50600101611269565b5090565b90565b61131e91905b8082111561131a57600080820160006101000a81549073ffffffffffffffffffffffffffffffffffffffff02191690556001820160006112d591906113c6565b6002820160006112e5919061142f565b60038201600090556004820160006112fd91906113c6565b6005820160006101000a81549060ff021916905550600601611295565b5090565b90565b61134391905b8082111561133f576000816000905550600101611327565b5090565b90565b828054600181600116156101000203166002900490600052602060002090601f016020900481019282601f1061138757805160ff19168380011785556113b5565b828001600101855582156113b5579182015b828111156113b4578251825591602001919060010190611399565b5b5090506113c29190611321565b5090565b50805460008255906000526020600020908101906113e49190611263565b50565b50805460018160011615610100020316600290046000825580601f1061140d575061142c565b601f01602090049060005260206000209081019061142b9190611321565b5b50565b508054600082559060005260206000209081019061144d9190611321565b50565b600061145c8235611cc5565b905092915050565b600082601f830112151561147757600080fd5b813561148a61148582611b3e565b611b11565b9150818183526020840193506020810190508360005b838110156114d057813586016114b6888261155f565b8452602084019350602083019250506001810190506114a0565b5050505092915050565b600082601f83011215156114ed57600080fd5b81356115006114fb82611b66565b611b11565b9150818183526020840193506020810190508385602084028201111561152557600080fd5b60005b83811015611555578161153b888261160b565b845260208401935060208301925050600181019050611528565b5050505092915050565b600082601f830112151561157257600080fd5b813561158561158082611b8e565b611b11565b915080825260208301602083018583830111156115a157600080fd5b6115ac838284611d01565b50505092915050565b600082601f83011215156115c857600080fd5b81356115db6115d682611bba565b611b11565b915080825260208301602083018583830111156115f757600080fd5b611602838284611d01565b50505092915050565b60006116178235611ce5565b905092915050565b60006020828403121561163157600080fd5b600061163f84828501611450565b91505092915050565b6000806000806080858703121561165e57600080fd5b600061166c87828801611450565b945050602085013567ffffffffffffffff81111561168957600080fd5b61169587828801611464565b935050604085013567ffffffffffffffff8111156116b257600080fd5b6116be878288016114da565b925050606085013567ffffffffffffffff8111156116db57600080fd5b6116e787828801611464565b91505092959194509250565b600080600080600060a0868803121561170b57600080fd5b600061171988828901611450565b955050602086013567ffffffffffffffff81111561173657600080fd5b611742888289016115b5565b945050604086013567ffffffffffffffff81111561175f57600080fd5b61176b88828901611464565b935050606086013567ffffffffffffffff81111561178857600080fd5b61179488828901611464565b92505060806117a58882890161160b565b9150509295509295909350565b6000602082840312156117c457600080fd5b60006117d28482850161160b565b91505092915050565b6117e481611c85565b82525050565b60006117f582611c1a565b8084526020840193508360208202850161180e85611be6565b60005b848110156118475783830388526118298383516118c6565b925061183482611c51565b9150602088019750600181019050611811565b508196508694505050505092915050565b600061186382611c30565b8084526020840193508360208202850161187c85611c00565b60005b848110156118b557838303885261189783835161199e565b92506118a282611c6b565b915060208801975060018101905061187f565b508196508694505050505092915050565b60006118d182611c25565b808452602084019350836020820285016118ea85611bf3565b60005b8481101561192357838303885261190583835161199e565b925061191082611c5e565b91506020880197506001810190506118ed565b508196508694505050505092915050565b600061193f82611c3b565b80845260208401935061195183611c0d565b60005b82811015611983576119678683516119d4565b61197082611c78565b9150602086019550600181019050611954565b50849250505092915050565b61199881611cef565b82525050565b60006119a982611c46565b8084526119bd816020860160208601611d10565b6119c681611d43565b602085010191505092915050565b6119dd81611cbb565b82525050565b60006020820190506119f860008301846117db565b92915050565b6000606082019050611a1360008301866117db565b611a2060208301856119d4565b611a2d604083018461198f565b949350505050565b60006060820190508181036000830152611a4f8186611858565b90508181036020830152611a6381856117ea565b9050611a7260408301846117db565b949350505050565b60006080820190508181036000830152611a948187611858565b90508181036020830152611aa881866117ea565b9050611ab760408301856117db565b8181036060830152611ac98184611934565b905095945050505050565b60006020820190508181036000830152611aee818461199e565b905092915050565b6000602082019050611b0b60008301846119d4565b92915050565b6000604051905081810181811067ffffffffffffffff82111715611b3457600080fd5b8060405250919050565b600067ffffffffffffffff821115611b5557600080fd5b602082029050602081019050919050565b600067ffffffffffffffff821115611b7d57600080fd5b602082029050602081019050919050565b600067ffffffffffffffff821115611ba557600080fd5b601f19601f8301169050602081019050919050565b600067ffffffffffffffff821115611bd157600080fd5b601f19601f8301169050602081019050919050565b6000602082019050919050565b6000602082019050919050565b6000602082019050919050565b6000602082019050919050565b600081519050919050565b600081519050919050565b600081519050919050565b600081519050919050565b600081519050919050565b6000602082019050919050565b6000602082019050919050565b6000602082019050919050565b6000602082019050919050565b600073ffffffffffffffffffffffffffffffffffffffff82169050919050565b6000600382101515611cb357fe5b819050919050565b6000819050919050565b600073ffffffffffffffffffffffffffffffffffffffff82169050919050565b6000819050919050565b6000611cfa82611ca5565b9050919050565b82818337600083830152505050565b60005b83811015611d2e578082015181840152602081019050611d13565b83811115611d3d576000848401525b50505050565b6000601f19601f83011690509190505600a265627a7a723058208e6d7c10b93cbebe476f8ad987191cec5fbeee39471015de8bbaf5b2e6efd8956c6578706572696d656e74616cf50037",
  "source": "pragma solidity ^0.4.20;\npragma experimental ABIEncoderV2;\n\n\ncontract Tender {   \n    address public governmentOfficerAddress;\n    string public tenderName;\n    string[] public clauses;\n    string[] public constraints;\n    uint deadline;\n    uint finalTenderAmount;\n\n    struct ContractorProposal {\n        address contractorAddress;\n        string[] quotationClause;\n        uint[] quotationAmount;\n        uint proposalAmount;\n        //mapping(string=>uint) quotations;\n        string[] constraintDocuments;\n        ProposalStatus status;\n    }\n\n    enum ProposalStatus {\n        verified,\n        unverified,\n        rejected\n    }\n\n    ContractorProposal[] public allContractorProposals;\n    mapping (address => ProposalStatus) isProposalVerified;\n\n    function Tender() public {\n        \n    }\n\n    function setTender(address _governmentOfficerAddress, string _tenderName, string[] _clauses, \n    string[] _constraints, uint _deadline) public {\n        governmentOfficerAddress = _governmentOfficerAddress;   \n        tenderName = _tenderName;\n        clauses = _clauses;\n        constraints = _constraints;\n        deadline = _deadline;\n        finalTenderAmount = 0;\n    }\n    \n    function bid(address _contractorAddress,\n    string[] _quotationClause, uint[] _quotationAmount, string[] _constraintDocuments) public {\n        ContractorProposal storage temp = allContractorProposals[allContractorProposals.length++];\n        temp.contractorAddress = _contractorAddress;\n        for (uint i=0; i < _quotationClause.length; i++) {\n            temp.quotationClause[i] = _quotationClause[i];\n            temp.quotationAmount[i] = _quotationAmount[i];\n            temp.proposalAmount += _quotationAmount[i];\n        }\n        for (uint j=0; j < _constraintDocuments.length; j++) {\n            temp.constraintDocuments[i] = _constraintDocuments[i];\n        }\n        temp.status = ProposalStatus.unverified;\n    }  \n\n    function getProposalCount() public view returns (uint256) {\n        return allContractorProposals.length;\n    }\n\n    function setTenderAmount(uint amount) public {\n        if (amount != 0 && finalTenderAmount == 0)\n            finalTenderAmount = amount;\n    }\n\n    function getProposalsToVerify(uint index) public returns (string[], string[][], address) {\n        //loop at web3\n        string[][] tempDocuments;\n        address tempAddresses;\n        if (allContractorProposals[index].status == ProposalStatus.unverified) {\n            tempDocuments.push(allContractorProposals[index].constraintDocuments);\n            tempAddresses = allContractorProposals[index].contractorAddress;\n        }\n        return (constraints, tempDocuments, tempAddresses);\n    }\n\n    function verifyProposal(address contractorAddress) public {\n        isProposalVerified[contractorAddress] = ProposalStatus.verified;\n    }\n\n    function rejectProposal(address contractorAddress) public {\n        isProposalVerified[contractorAddress] = ProposalStatus.rejected;\n    }\n\n    function getVerifiedProposals(uint index) public returns (string[], string[][], address, uint[]) {\n        //loop at web3\n        string[][]  tempDocuments;\n        address tempAddresses;\n        uint[] memory tempAmount;\n        if (allContractorProposals[index].status == ProposalStatus.verified) {\n            tempDocuments.push(allContractorProposals[index].constraintDocuments);\n            tempAddresses = allContractorProposals[index].contractorAddress;\n            tempAmount = allContractorProposals[index].quotationAmount;\n        }\n        return (constraints, tempDocuments, tempAddresses, tempAmount);\n    }\n    \n}",
  "sourcePath": "/home/scoco/Desktop/TenderSystem---Blockchain/contracts/Tender.sol",
  "compiler": {
    "name": "solc",
    "version": "0.4.20+commit.3155dd80.Emscripten.clang"
  },
  "schemaVersion": "1.0.1",
  "updatedAt": "2018-03-19T22:39:54.671Z"
}