{
  "contractName": "TenderContract",
  "abi": [
    {
      "constant": true,
      "inputs": [],
      "name": "specialOfficerAddress",
      "outputs": [
        {
          "name": "",
          "type": "address"
        }
      ],
      "payable": false,
      "stateMutability": "view",
      "type": "function"
    },
    {
      "constant": true,
      "inputs": [
        {
          "name": "index",
          "type": "uint256"
        }
      ],
      "name": "getTask",
      "outputs": [
        {
          "name": "",
          "type": "string"
        },
        {
          "name": "",
          "type": "uint256"
        },
        {
          "name": "",
          "type": "uint256"
        },
        {
          "name": "",
          "type": "uint8"
        },
        {
          "name": "",
          "type": "uint256"
        }
      ],
      "payable": false,
      "stateMutability": "view",
      "type": "function"
    },
    {
      "constant": false,
      "inputs": [
        {
          "name": "_taskIndex",
          "type": "uint256"
        }
      ],
      "name": "taskCompletedByContractor",
      "outputs": [],
      "payable": false,
      "stateMutability": "nonpayable",
      "type": "function"
    },
    {
      "constant": false,
      "inputs": [
        {
          "name": "_taskIndex",
          "type": "uint256"
        }
      ],
      "name": "withdrawForTask",
      "outputs": [],
      "payable": false,
      "stateMutability": "nonpayable",
      "type": "function"
    },
    {
      "constant": true,
      "inputs": [],
      "name": "governmentOfficerAddress",
      "outputs": [
        {
          "name": "",
          "type": "address"
        }
      ],
      "payable": false,
      "stateMutability": "view",
      "type": "function"
    },
    {
      "constant": false,
      "inputs": [
        {
          "name": "_taskIndex",
          "type": "uint256"
        }
      ],
      "name": "verifyTask",
      "outputs": [],
      "payable": false,
      "stateMutability": "nonpayable",
      "type": "function"
    },
    {
      "constant": true,
      "inputs": [],
      "name": "contractName",
      "outputs": [
        {
          "name": "",
          "type": "string"
        }
      ],
      "payable": false,
      "stateMutability": "view",
      "type": "function"
    },
    {
      "constant": true,
      "inputs": [
        {
          "name": "",
          "type": "uint256"
        }
      ],
      "name": "tasks",
      "outputs": [
        {
          "name": "description",
          "type": "string"
        },
        {
          "name": "deadlineTime",
          "type": "uint256"
        },
        {
          "name": "amount",
          "type": "uint256"
        },
        {
          "name": "status",
          "type": "uint8"
        },
        {
          "name": "completionTime",
          "type": "uint256"
        }
      ],
      "payable": false,
      "stateMutability": "view",
      "type": "function"
    },
    {
      "constant": true,
      "inputs": [],
      "name": "specialOfficerVerified",
      "outputs": [
        {
          "name": "",
          "type": "bool"
        }
      ],
      "payable": false,
      "stateMutability": "view",
      "type": "function"
    },
    {
      "constant": true,
      "inputs": [],
      "name": "governmentOfficerVerified",
      "outputs": [
        {
          "name": "",
          "type": "bool"
        }
      ],
      "payable": false,
      "stateMutability": "view",
      "type": "function"
    },
    {
      "constant": true,
      "inputs": [],
      "name": "contractDocumentUrl",
      "outputs": [
        {
          "name": "",
          "type": "string"
        }
      ],
      "payable": false,
      "stateMutability": "view",
      "type": "function"
    },
    {
      "constant": true,
      "inputs": [],
      "name": "contractorAddress",
      "outputs": [
        {
          "name": "",
          "type": "address"
        }
      ],
      "payable": false,
      "stateMutability": "view",
      "type": "function"
    },
    {
      "constant": true,
      "inputs": [],
      "name": "getNumberOfTasks",
      "outputs": [
        {
          "name": "",
          "type": "uint256"
        }
      ],
      "payable": false,
      "stateMutability": "view",
      "type": "function"
    },
    {
      "inputs": [
        {
          "name": "_governmentOfficerAddress",
          "type": "address"
        },
        {
          "name": "_contractorAddress",
          "type": "address"
        },
        {
          "name": "_specialOfficerAddress",
          "type": "address"
        },
        {
          "name": "_contractName",
          "type": "string"
        },
        {
          "name": "_contractDocumentUrl",
          "type": "string"
        },
        {
          "name": "_taskDescription",
          "type": "string[]"
        },
        {
          "name": "_deadlineForEachTask",
          "type": "uint256[]"
        },
        {
          "name": "_amountForEachTask",
          "type": "uint256[]"
        },
        {
          "name": "_reviewtime",
          "type": "uint256"
        }
      ],
      "payable": true,
      "stateMutability": "payable",
      "type": "constructor"
    }
  ],
  "bytecode": "0x60606040526040516200150538038062001505833981016040526200002e9067800000000000000090620006ff565b60008060008b6000806101000a81548173ffffffffffffffffffffffffffffffffffffffff021916908373ffffffffffffffffffffffffffffffffffffffff1602179055508a600160006101000a81548173ffffffffffffffffffffffffffffffffffffffff021916908373ffffffffffffffffffffffffffffffffffffffff16021790555089600260006101000a81548173ffffffffffffffffffffffffffffffffffffffff021916908373ffffffffffffffffffffffffffffffffffffffff16021790555088600390805190602001906200010d929190620002eb565b50876004908051906020019062000126929190620002eb565b5060009250600091505b8651821015620002c157600680805480919060010162000151919062000372565b8154811015156200015e57fe5b9060005260206000209060050201905086828151811015156200017d57fe5b90602001906020020151816000019080519060200190620001a0929190620002eb565b508582815181101515620001b057fe5b9060200190602002015181600101819055508482815181101515620001d157fe5b906020019060200201518160020181905550670de0b6b3a76400008160020154028301925060008160030160006101000a81548160ff021916908360048111156200021857fe5b02179055508060056000848152602001908152602001600020600082018160000190805460018160011615610100020316600290046200025a929190620003a7565b5060018201548160010155600282015481600201556003820160009054906101000a900460ff168160030160006101000a81548160ff02191690836004811115620002a157fe5b021790555060048201548160040155905050818060010192505062000130565b670de0b6b3a76400003402831115620002d957600080fd5b5050505050505050505050506200098f565b828054600181600116156101000203166002900490600052602060002090601f016020900481019282601f106200032e57805160ff19168380011785556200035f565b828001600101855582156200035f579182015b828111156200035e57825182559160200191906001019062000341565b5b5090506200036e919062000435565b5090565b815481835581811511620003a257600502816005028360005260206000209182019101620003a191906200045d565b5b505050565b828054600181600116156101000203166002900490600052602060002090601f016020900481019282601f10620003e2578054855562000422565b828001600101855582156200042257600052602060002091601f016020900482015b828111156200042157825482559160010191906001019062000404565b5b50905062000431919062000435565b5090565b6200045a91905b80821115620004565760008160009055506001016200043c565b5090565b90565b620004ba91905b80821115620004b65760008082016000620004809190620004bd565b600182016000905560028201600090556003820160006101000a81549060ff021916905560048201600090555060050162000464565b5090565b90565b50805460018160011615610100020316600290046000825580601f10620004e5575062000506565b601f01602090049060005260206000209081019062000505919062000435565b5b50565b60006200051782516200092f565b905092915050565b600082601f83011215156200053357600080fd5b81516200054a620005448262000883565b62000855565b9150818183526020840193506020810190508360005b838110156200059457815186016200057988826200062d565b84526020840193506020830192505060018101905062000560565b5050505092915050565b600082601f8301121515620005b257600080fd5b8151620005c9620005c382620008ac565b62000855565b91508181835260208401935060208101905083856020840282011115620005ef57600080fd5b60005b83811015620006235781620006088882620006e9565b845260208401935060208301925050600181019050620005f2565b5050505092915050565b600082601f83011215156200064157600080fd5b8151620006586200065282620008d5565b62000855565b915080825260208301602083018583830111156200067557600080fd5b6200068283828462000959565b50505092915050565b600082601f83011215156200069f57600080fd5b8151620006b6620006b08262000902565b62000855565b91508082526020830160208301858383011115620006d357600080fd5b620006e083828462000959565b50505092915050565b6000620006f782516200094f565b905092915050565b60008060008060008060008060006101208a8c0312156200071f57600080fd5b60006200072f8c828d0162000509565b9950506020620007428c828d0162000509565b9850506040620007558c828d0162000509565b97505060608a015167ffffffffffffffff8111156200077357600080fd5b620007818c828d016200068b565b96505060808a015167ffffffffffffffff8111156200079f57600080fd5b620007ad8c828d016200068b565b95505060a08a015167ffffffffffffffff811115620007cb57600080fd5b620007d98c828d016200051f565b94505060c08a015167ffffffffffffffff811115620007f757600080fd5b620008058c828d016200059e565b93505060e08a015167ffffffffffffffff8111156200082357600080fd5b620008318c828d016200059e565b925050610100620008458c828d01620006e9565b9150509295985092959850929598565b6000604051905081810181811067ffffffffffffffff821117156200087957600080fd5b8060405250919050565b600067ffffffffffffffff8211156200089b57600080fd5b602082029050602081019050919050565b600067ffffffffffffffff821115620008c457600080fd5b602082029050602081019050919050565b600067ffffffffffffffff821115620008ed57600080fd5b601f19601f8301169050602081019050919050565b600067ffffffffffffffff8211156200091a57600080fd5b601f19601f8301169050602081019050919050565b600073ffffffffffffffffffffffffffffffffffffffff82169050919050565b6000819050919050565b60005b83811015620009795780820151818401526020810190506200095c565b8381111562000989576000848401525b50505050565b610b66806200099f6000396000f3006060604052600436106100c5576000357c0100000000000000000000000000000000000000000000000000000000900463ffffffff168063160a600c146100ca5780631d65e77e146100f35780633e959bc81461012d57806345bf2d2c1461014f57806346d722e7146101715780635573e3ef1461019a57806375d0c0dc146101bc5780638d977672146101e5578063a4d4e0fe1461021f578063a783fd9214610248578063b6e02f7114610271578063f21376af1461029a578063f6397fd3146102c3575b600080fd5b34156100d557600080fd5b6100dd6102ec565b6040516100ea9190610931565b60405180910390f35b34156100fe57600080fd5b610113600461010e9036906107da565b610312565b604051610124959493929190610989565b60405180910390f35b341561013857600080fd5b61014d60046101489036906107da565b610480565b005b341561015a57600080fd5b61016f600461016a9036906107da565b6104e2565b005b341561017c57600080fd5b610184610546565b6040516101919190610931565b60405180910390f35b34156101a557600080fd5b6101ba60046101b59036906107da565b61056b565b005b34156101c757600080fd5b6101cf6105cc565b6040516101dc9190610967565b60405180910390f35b34156101f057600080fd5b61020560046102009036906107da565b61066a565b6040516102169594939291906109e3565b60405180910390f35b341561022a57600080fd5b6102326106bb565b60405161023f919061094c565b60405180910390f35b341561025357600080fd5b61025b6106ce565b604051610268919061094c565b60405180910390f35b341561027c57600080fd5b6102846106e1565b6040516102919190610967565b60405180910390f35b34156102a557600080fd5b6102ad61077f565b6040516102ba9190610931565b60405180910390f35b34156102ce57600080fd5b6102d66107a5565b6040516102e39190610a3d565b60405180910390f35b600260009054906101000a900473ffffffffffffffffffffffffffffffffffffffff1681565b61031a6107b2565b60008060008060068681548110151561032f57fe5b906000526020600020906005020160000160068781548110151561034f57fe5b90600052602060002090600502016001015460068881548110151561037057fe5b90600052602060002090600502016002015460068981548110151561039157fe5b906000526020600020906005020160030160009054906101000a900460ff1660068a8154811015156103bf57fe5b906000526020600020906005020160040154848054600181600116156101000203166002900480601f0160208091040260200160405190810160405280929190818152602001828054600181600116156101000203166002900480156104665780601f1061043b57610100808354040283529160200191610466565b820191906000526020600020905b81548152906001019060200180831161044957829003601f168201915b505050505094509450945094509450945091939590929450565b6000600160009054906101000a900473ffffffffffffffffffffffffffffffffffffffff1673ffffffffffffffffffffffffffffffffffffffff163373ffffffffffffffffffffffffffffffffffffffff161415156104de57600080fd5b5050565b600080600160009054906101000a900473ffffffffffffffffffffffffffffffffffffffff1673ffffffffffffffffffffffffffffffffffffffff163373ffffffffffffffffffffffffffffffffffffffff1614151561054157600080fd5b505050565b6000809054906101000a900473ffffffffffffffffffffffffffffffffffffffff1681565b60008060009054906101000a900473ffffffffffffffffffffffffffffffffffffffff1673ffffffffffffffffffffffffffffffffffffffff163373ffffffffffffffffffffffffffffffffffffffff161415156105c857600080fd5b5050565b60038054600181600116156101000203166002900480601f0160208091040260200160405190810160405280929190818152602001828054600181600116156101000203166002900480156106625780601f1061063757610100808354040283529160200191610662565b820191906000526020600020905b81548152906001019060200180831161064557829003601f168201915b505050505081565b60068181548110151561067957fe5b906000526020600020906005020160009150905080600001908060010154908060020154908060030160009054906101000a900460ff16908060040154905085565b600260159054906101000a900460ff1681565b600260149054906101000a900460ff1681565b60048054600181600116156101000203166002900480601f0160208091040260200160405190810160405280929190818152602001828054600181600116156101000203166002900480156107775780601f1061074c57610100808354040283529160200191610777565b820191906000526020600020905b81548152906001019060200180831161075a57829003601f168201915b505050505081565b600160009054906101000a900473ffffffffffffffffffffffffffffffffffffffff1681565b6000600680549050905090565b602060405190810160405280600081525090565b60006107d28235610acc565b905092915050565b6000602082840312156107ec57600080fd5b60006107fa848285016107c6565b91505092915050565b61080c81610a80565b82525050565b61081b81610aa0565b82525050565b61082a81610ad6565b82525050565b600061083b82610a75565b80845261084f816020860160208601610ae8565b61085881610b1b565b602085010191505092915050565b600061087182610a6a565b808452610885816020860160208601610ae8565b61088e81610b1b565b602085010191505092915050565b6000815460018116600081146108b957600181146108d95761091a565b607f600283041680865260ff19831660208701526040860193505061091a565b600282048086526020860195506108ef85610a58565b60005b82811015610911578154818901526001820191506020810190506108f2565b80880195505050505b505092915050565b61092b81610ac2565b82525050565b60006020820190506109466000830184610803565b92915050565b60006020820190506109616000830184610812565b92915050565b600060208201905081810360008301526109818184610866565b905092915050565b600060a08201905081810360008301526109a38188610830565b90506109b26020830187610922565b6109bf6040830186610922565b6109cc6060830185610821565b6109d96080830184610922565b9695505050505050565b600060a08201905081810360008301526109fd818861089c565b9050610a0c6020830187610922565b610a196040830186610922565b610a266060830185610821565b610a336080830184610922565b9695505050505050565b6000602082019050610a526000830184610922565b92915050565b60008160005260206000209050919050565b600081519050919050565b600081519050919050565b600073ffffffffffffffffffffffffffffffffffffffff82169050919050565b60008115159050919050565b6000600582101515610aba57fe5b819050919050565b6000819050919050565b6000819050919050565b6000610ae182610aac565b9050919050565b60005b83811015610b06578082015181840152602081019050610aeb565b83811115610b15576000848401525b50505050565b6000601f19601f83011690509190505600a265627a7a723058209cac0007bf812619c07723a97d16161113a066e41b600cd40d8b50adad0efbcd6c6578706572696d656e74616cf50037",
  "source": "pragma solidity ^0.4.20;\npragma experimental ABIEncoderV2;\n\n\ncontract TenderContract {   \n    address public governmentOfficerAddress;\n    address public contractorAddress;\n    address public specialOfficerAddress;\n\n    bool public governmentOfficerVerified;\n    bool public specialOfficerVerified;\n\n    string public contractName;\n    string public contractDocumentUrl;\n\n    mapping (uint=>Task) private taskIndexMapping;\n    \n    struct Task {\n        string description;\n        uint deadlineTime;\n        uint amount; \n        TaskStatus status;\n        uint completionTime; \n    }\n\n    enum TaskStatus {\n        pending,\n        reportedComplete,\n        partiallyVerified,\n        complete,\n        contractorPaid\n    }\n\n    Task[] public tasks;\n\n    modifier onlyGovernmentOfficer {\n        if (msg.sender != governmentOfficerAddress) {\n            revert();\n            _;\n        }\n    }\n\n    modifier onlyContractor {\n        if (msg.sender != contractorAddress) {\n            revert();\n            _;\n        }\n    }\n\n    modifier onlySpecialOfficer {\n        if (msg.sender != specialOfficerAddress) {\n            revert();\n            _;\n        }\n    }\n\n    function TenderContract (\n        address _governmentOfficerAddress, \n        address _contractorAddress, \n        address _specialOfficerAddress, \n        string _contractName, \n        string _contractDocumentUrl, \n        string[] _taskDescription, \n        uint[] _deadlineForEachTask, \n        uint[] _amountForEachTask, \n        uint _reviewtime) public payable {\n        governmentOfficerAddress = _governmentOfficerAddress;\n        contractorAddress = _contractorAddress;\n        specialOfficerAddress = _specialOfficerAddress;\n        contractName = _contractName;\n        contractDocumentUrl = _contractDocumentUrl;\n        uint totalAmount = 0;\n        for (uint i=0; i < _taskDescription.length; i++) {\n            Task storage task = tasks[tasks.length++];\n            task.description = _taskDescription[i];\n            task.deadlineTime = _deadlineForEachTask[i];\n            task.amount = _amountForEachTask[i];\n            totalAmount += task.amount*(1 ether);\n            task.status = TaskStatus.pending;\n            taskIndexMapping[i] = task;\n        }\n        if (totalAmount > msg.value*(1 ether)) {\n            revert();\n        }\n        //ContractDeployed();\n    }\n\n    function getNumberOfTasks() public constant returns (uint) {\n        return tasks.length;\n    }\n\n    function getTask(uint index) public constant returns(string, uint, uint, TaskStatus, uint) {\n        return (tasks[index].description, tasks[index].deadlineTime, tasks[index].amount,\n        tasks[index].status, tasks[index].completionTime);\n    }\n\n    function taskCompletedByContractor(uint _taskIndex) public onlyContractor {\n        if (_taskIndex >= tasks.length) revert();\n        Task storage task = tasks[_taskIndex];\n\n        if (msg.sender != contractorAddress) revert();\n        if (task.status != TaskStatus.pending) revert();\n        if (now > task.deadlineTime) revert();\n        task.status = TaskStatus.reportedComplete;\n        task.completionTime = now;\n        //eventToFire\n    }\n\n    function verifyTask(uint _taskIndex) public onlyGovernmentOfficer onlySpecialOfficer {\n        if (_taskIndex >= tasks.length) revert();\n        Task storage task = tasks[_taskIndex];\n\n        if (task.status != TaskStatus.reportedComplete) revert();\n        if (msg.sender == governmentOfficerAddress) {\n            governmentOfficerVerified = true;\n            task.status = TaskStatus.partiallyVerified;\n        }else if (msg.sender == specialOfficerAddress) {\n            specialOfficerVerified = true;\n            task.status = TaskStatus.partiallyVerified;\n        }else {\n            revert();\n        }\n\n        if (governmentOfficerVerified && specialOfficerVerified) {\n            task.status = TaskStatus.complete;\n        }\n    }\n\n    function withdrawForTask(uint _taskIndex) public onlyContractor {\n        if (_taskIndex >= tasks.length) revert();\n        Task storage task = tasks[_taskIndex];\n\n        if (msg.sender != contractorAddress) revert();\n        if (task.status != TaskStatus.complete) revert();\n\n        uint amount = task.amount*(1 ether);\n        task.status = TaskStatus.contractorPaid;\n        msg.sender.transfer(amount);\n    }\n}\n\n",
  "sourcePath": "/home/scoco/Desktop/Rajasthan-Hack/contracts/TenderContract.sol",
  "compiler": {
    "name": "solc",
    "version": "0.4.20+commit.3155dd80.Emscripten.clang"
  },
  "schemaVersion": "1.0.1",
  "updatedAt": "2018-03-17T10:28:47.454Z"
}