{
  "contractName": "Tender",
  "abi": [
    {
      "constant": true,
      "inputs": [
        {
          "name": "",
          "type": "uint256"
        }
      ],
      "name": "constraints",
      "outputs": [
        {
          "name": "",
          "type": "string"
        }
      ],
      "payable": false,
      "stateMutability": "view",
      "type": "function"
    },
    {
      "constant": true,
      "inputs": [],
      "name": "covers",
      "outputs": [
        {
          "name": "",
          "type": "uint256"
        }
      ],
      "payable": false,
      "stateMutability": "view",
      "type": "function"
    },
    {
      "constant": false,
      "inputs": [
        {
          "name": "index",
          "type": "uint256"
        }
      ],
      "name": "getVerifiedProposals",
      "outputs": [
        {
          "name": "",
          "type": "string[]"
        },
        {
          "name": "",
          "type": "string[][]"
        },
        {
          "name": "",
          "type": "address"
        },
        {
          "name": "",
          "type": "uint256[]"
        }
      ],
      "payable": false,
      "stateMutability": "nonpayable",
      "type": "function"
    },
    {
      "constant": true,
      "inputs": [],
      "name": "tenderId",
      "outputs": [
        {
          "name": "",
          "type": "string"
        }
      ],
      "payable": false,
      "stateMutability": "view",
      "type": "function"
    },
    {
      "constant": false,
      "inputs": [
        {
          "name": "_clauses",
          "type": "string[]"
        },
        {
          "name": "_taskName",
          "type": "string[]"
        },
        {
          "name": "_taskDays",
          "type": "uint256[]"
        },
        {
          "name": "_constraints",
          "type": "string[]"
        }
      ],
      "name": "setTenderAdvanced",
      "outputs": [],
      "payable": false,
      "stateMutability": "nonpayable",
      "type": "function"
    },
    {
      "constant": true,
      "inputs": [],
      "name": "governmentOfficerAddress",
      "outputs": [
        {
          "name": "",
          "type": "address"
        }
      ],
      "payable": false,
      "stateMutability": "view",
      "type": "function"
    },
    {
      "constant": true,
      "inputs": [
        {
          "name": "",
          "type": "uint256"
        }
      ],
      "name": "taskDays",
      "outputs": [
        {
          "name": "",
          "type": "uint256"
        }
      ],
      "payable": false,
      "stateMutability": "view",
      "type": "function"
    },
    {
      "constant": true,
      "inputs": [
        {
          "name": "",
          "type": "uint256"
        }
      ],
      "name": "taskName",
      "outputs": [
        {
          "name": "",
          "type": "string"
        }
      ],
      "payable": false,
      "stateMutability": "view",
      "type": "function"
    },
    {
      "constant": false,
      "inputs": [
        {
          "name": "contractorAddress",
          "type": "address"
        }
      ],
      "name": "verifyProposal",
      "outputs": [],
      "payable": false,
      "stateMutability": "nonpayable",
      "type": "function"
    },
    {
      "constant": false,
      "inputs": [
        {
          "name": "_contractorAddress",
          "type": "address"
        },
        {
          "name": "_quotationClause",
          "type": "string[]"
        },
        {
          "name": "_quotationAmount",
          "type": "uint256[]"
        },
        {
          "name": "_constraintDocuments",
          "type": "string[]"
        }
      ],
      "name": "bid",
      "outputs": [
        {
          "name": "",
          "type": "bool"
        }
      ],
      "payable": false,
      "stateMutability": "nonpayable",
      "type": "function"
    },
    {
      "constant": true,
      "inputs": [],
      "name": "getTenderBasic",
      "outputs": [
        {
          "name": "",
          "type": "address"
        },
        {
          "name": "",
          "type": "string"
        },
        {
          "name": "",
          "type": "string"
        },
        {
          "name": "",
          "type": "uint256"
        },
        {
          "name": "",
          "type": "uint256"
        },
        {
          "name": "",
          "type": "uint256"
        }
      ],
      "payable": false,
      "stateMutability": "view",
      "type": "function"
    },
    {
      "constant": false,
      "inputs": [
        {
          "name": "index",
          "type": "uint256"
        }
      ],
      "name": "getProposalsToVerify",
      "outputs": [
        {
          "name": "",
          "type": "string[]"
        },
        {
          "name": "",
          "type": "string[][]"
        },
        {
          "name": "",
          "type": "address"
        }
      ],
      "payable": false,
      "stateMutability": "nonpayable",
      "type": "function"
    },
    {
      "constant": true,
      "inputs": [],
      "name": "bidSubmissionClosingDate",
      "outputs": [
        {
          "name": "",
          "type": "uint256"
        }
      ],
      "payable": false,
      "stateMutability": "view",
      "type": "function"
    },
    {
      "constant": false,
      "inputs": [],
      "name": "getBiddindCloseDate",
      "outputs": [
        {
          "name": "",
          "type": "uint256"
        }
      ],
      "payable": false,
      "stateMutability": "nonpayable",
      "type": "function"
    },
    {
      "constant": false,
      "inputs": [
        {
          "name": "amount",
          "type": "uint256"
        }
      ],
      "name": "setTenderAmount",
      "outputs": [],
      "payable": false,
      "stateMutability": "nonpayable",
      "type": "function"
    },
    {
      "constant": true,
      "inputs": [],
      "name": "bidOpeningDate",
      "outputs": [
        {
          "name": "",
          "type": "uint256"
        }
      ],
      "payable": false,
      "stateMutability": "view",
      "type": "function"
    },
    {
      "constant": true,
      "inputs": [],
      "name": "getProposalCount",
      "outputs": [
        {
          "name": "",
          "type": "uint256"
        }
      ],
      "payable": false,
      "stateMutability": "view",
      "type": "function"
    },
    {
      "constant": true,
      "inputs": [
        {
          "name": "index",
          "type": "uint256"
        }
      ],
      "name": "getProposal",
      "outputs": [
        {
          "name": "",
          "type": "address"
        },
        {
          "name": "",
          "type": "uint256"
        },
        {
          "name": "",
          "type": "string[]"
        },
        {
          "name": "",
          "type": "uint256[]"
        },
        {
          "name": "",
          "type": "uint8"
        }
      ],
      "payable": false,
      "stateMutability": "view",
      "type": "function"
    },
    {
      "constant": true,
      "inputs": [
        {
          "name": "",
          "type": "uint256"
        }
      ],
      "name": "clauses",
      "outputs": [
        {
          "name": "",
          "type": "string"
        }
      ],
      "payable": false,
      "stateMutability": "view",
      "type": "function"
    },
    {
      "constant": false,
      "inputs": [
        {
          "name": "contractorAddress",
          "type": "address"
        }
      ],
      "name": "rejectProposal",
      "outputs": [],
      "payable": false,
      "stateMutability": "nonpayable",
      "type": "function"
    },
    {
      "constant": false,
      "inputs": [
        {
          "name": "_governmentOfficerAddress",
          "type": "address"
        },
        {
          "name": "_tenderName",
          "type": "string"
        },
        {
          "name": "_tenderId",
          "type": "string"
        },
        {
          "name": "_bidSubmissionClosingDate",
          "type": "uint256"
        },
        {
          "name": "_bidOpeningDate",
          "type": "uint256"
        },
        {
          "name": "_covers",
          "type": "uint256"
        }
      ],
      "name": "setTenderBasic",
      "outputs": [],
      "payable": false,
      "stateMutability": "nonpayable",
      "type": "function"
    },
    {
      "constant": true,
      "inputs": [],
      "name": "tenderName",
      "outputs": [
        {
          "name": "",
          "type": "string"
        }
      ],
      "payable": false,
      "stateMutability": "view",
      "type": "function"
    },
    {
      "constant": true,
      "inputs": [
        {
          "name": "",
          "type": "uint256"
        }
      ],
      "name": "allContractorProposals",
      "outputs": [
        {
          "name": "contractorAddress",
          "type": "address"
        },
        {
          "name": "proposalAmount",
          "type": "uint256"
        },
        {
          "name": "status",
          "type": "uint8"
        }
      ],
      "payable": false,
      "stateMutability": "view",
      "type": "function"
    },
    {
      "constant": true,
      "inputs": [],
      "name": "getTenderAdvanced",
      "outputs": [
        {
          "name": "",
          "type": "string[]"
        },
        {
          "name": "",
          "type": "string[]"
        },
        {
          "name": "",
          "type": "uint256[]"
        },
        {
          "name": "",
          "type": "string[]"
        }
      ],
      "payable": false,
      "stateMutability": "view",
      "type": "function"
    },
    {
      "constant": true,
      "inputs": [],
      "name": "getTenderName",
      "outputs": [
        {
          "name": "",
          "type": "string"
        }
      ],
      "payable": false,
      "stateMutability": "view",
      "type": "function"
    },
    {
      "inputs": [],
      "payable": false,
      "stateMutability": "nonpayable",
      "type": "constructor"
    }
  ],
  "bytecode": "0x6060604052341561000f57600080fd5b612ccf8061001e6000396000f300606060405260043610610149576000357c0100000000000000000000000000000000000000000000000000000000900463ffffffff168063041f624f1461014e578063137396e41461018457806334650fad146101ad57806336e18778146101e6578063405889211461020f57806346d722e714610231578063482a77a61461025a5780634a53deb414610290578063528e830a146102c65780635644e44c146102e857806356554d821461031e5780637376ade21461034c5780637ca4a8791461038457806395121ee1146103ad5780639b679bae146103d6578063b3c4c5bd146103f8578063c08cc02d14610421578063c7f758a81461044a578063ca6009be14610484578063cddab28b146104ba578063d706f1c9146104dc578063e959c7b9146104fe578063e979c9b814610527578063ec12b1991461055f578063fed4a3261461058b575b600080fd5b341561015957600080fd5b61016e6004610169903690612529565b6105b4565b60405161017b91906129dc565b60405180910390f35b341561018f57600080fd5b610197610670565b6040516101a49190612a20565b60405180910390f35b34156101b857600080fd5b6101cd60046101c8903690612529565b610676565b6040516101dd9493929190612906565b60405180910390f35b34156101f157600080fd5b6101f9610a18565b60405161020691906129dc565b60405180910390f35b341561021a57600080fd5b61022f600461022a903690612466565b610ab6565b005b341561023c57600080fd5b610244610b18565b604051610251919061279f565b60405180910390f35b341561026557600080fd5b61027a6004610275903690612529565b610b3d565b6040516102879190612a20565b60405180910390f35b341561029b57600080fd5b6102b060046102ab903690612529565b610b61565b6040516102bd91906129dc565b60405180910390f35b34156102d157600080fd5b6102e660046102e19036906122d9565b610c1d565b005b34156102f357600080fd5b6103086004610303903690612302565b610c81565b60405161031591906129c1565b60405180910390f35b341561032957600080fd5b610331610e57565b604051610343969594939291906127ba565b60405180910390f35b341561035757600080fd5b61036c6004610367903690612529565b610fe9565b60405161037b939291906128c1565b60405180910390f35b341561038f57600080fd5b610397611306565b6040516103a49190612a20565b60405180910390f35b34156103b857600080fd5b6103c061130c565b6040516103cd9190612a20565b60405180910390f35b34156103e157600080fd5b6103f660046103f1903690612529565b611316565b005b341561040357600080fd5b61040b611339565b6040516104189190612a20565b60405180910390f35b341561042c57600080fd5b61043461133f565b6040516104419190612a20565b60405180910390f35b341561045557600080fd5b61046a6004610465903690612529565b61134c565b60405161047b959493929190612829565b60405180910390f35b341561048f57600080fd5b6104a4600461049f903690612529565b61158c565b6040516104b191906129dc565b60405180910390f35b34156104c557600080fd5b6104da60046104d59036906122d9565b611648565b005b34156104e757600080fd5b6104fc60046104f79036906123ad565b6116ac565b005b341561050957600080fd5b61051161173f565b60405161051e91906129dc565b60405180910390f35b341561053257600080fd5b6105476004610542903690612529565b6117dd565b6040516105569392919061288a565b60405180910390f35b341561056a57600080fd5b610572611843565b6040516105829493929190612960565b60405180910390f35b341561059657600080fd5b61059e611b77565b6040516105ab91906129fe565b60405180910390f35b6009818154811015156105c357fe5b90600052602060002090016000915090508054600181600116156101000203166002900480601f0160208091040260200160405190810160405280929190818152602001828054600181600116156101000203166002900480156106685780601f1061063d57610100808354040283529160200191610668565b820191906000526020600020905b81548152906001019060200180831161064b57829003601f168201915b505050505081565b60055481565b61067e611c1f565b610686611c33565b6000610690611c47565b60008061069b611c47565b600060028111156106a857fe5b600b898154811015156106b757fe5b906000526020600020906006020160050160009054906101000a900460ff1660028111156106e157fe5b14156107f1578280548060010182816106fa9190611c5b565b91600052602060002090016000600b8b81548110151561071657fe5b9060005260206000209060060201600401909190915090805461073a929190611c87565b5050600b8881548110151561074b57fe5b906000526020600020906006020160000160009054906101000a900473ffffffffffffffffffffffffffffffffffffffff169150600b8881548110151561078e57fe5b90600052602060002090600602016002018054806020026020016040519081016040528092919081815260200182805480156107e957602002820191906000526020600020905b8154815260200190600101908083116107d5575b505050505090505b600983838383805480602002602001604051908101604052809291908181526020016000905b828210156108d457838290600052602060002090018054600181600116156101000203166002900480601f0160208091040260200160405190810160405280929190818152602001828054600181600116156101000203166002900480156108c05780601f10610895576101008083540402835291602001916108c0565b820191906000526020600020905b8154815290600101906020018083116108a357829003601f168201915b505050505081526020019060010190610817565b50505050935082805480602002602001604051908101604052809291908181526020016000905b82821015610a005783829060005260206000209001805480602002602001604051908101604052809291908181526020016000905b828210156109ed57838290600052602060002090018054600181600116156101000203166002900480601f0160208091040260200160405190810160405280929190818152602001828054600181600116156101000203166002900480156109d95780601f106109ae576101008083540402835291602001916109d9565b820191906000526020600020905b8154815290600101906020018083116109bc57829003601f168201915b505050505081526020019060010190610930565b50505050815260200190600101906108fb565b50505050925096509650965096505050509193509193565b60028054600181600116156101000203166002900480601f016020809104026020016040519081016040528092919081815260200182805460018160011615610100020316600290048015610aae5780601f10610a8357610100808354040283529160200191610aae565b820191906000526020600020905b815481529060010190602001808311610a9157829003601f168201915b505050505081565b8360069080519060200190610acc929190611cf7565b508260079080519060200190610ae3929190611cf7565b508160089080519060200190610afa929190611d57565b508060099080519060200190610b11929190611cf7565b5050505050565b6000809054906101000a900473ffffffffffffffffffffffffffffffffffffffff1681565b600881815481101515610b4c57fe5b90600052602060002090016000915090505481565b600781815481101515610b7057fe5b90600052602060002090016000915090508054600181600116156101000203166002900480601f016020809104026020016040519081016040528092919081815260200182805460018160011615610100020316600290048015610c155780601f10610bea57610100808354040283529160200191610c15565b820191906000526020600020905b815481529060010190602001808311610bf857829003601f168201915b505050505081565b6000600c60008373ffffffffffffffffffffffffffffffffffffffff1673ffffffffffffffffffffffffffffffffffffffff16815260200190815260200160002060006101000a81548160ff02191690836002811115610c7957fe5b021790555050565b600080600080600b808054809190600101610c9c9190611da4565b815481101515610ca857fe5b90600052602060002090600602019250878360000160006101000a81548173ffffffffffffffffffffffffffffffffffffffff021916908373ffffffffffffffffffffffffffffffffffffffff160217905550600091505b8651821015610dbf578682815181101515610d1757fe5b906020019060200201518360010183815481101515610d3257fe5b90600052602060002090019080519060200190610d50929190611dd6565b508582815181101515610d5f57fe5b906020019060200201518360020183815481101515610d7a57fe5b9060005260206000209001819055508582815181101515610d9757fe5b9060200190602002015183600301600082825401925050819055508180600101925050610d00565b600090505b8451811015610e22578482815181101515610ddb57fe5b906020019060200201518360040183815481101515610df657fe5b90600052602060002090019080519060200190610e14929190611dd6565b508080600101915050610dc4565b60018360050160006101000a81548160ff02191690836002811115610e4357fe5b021790555060019350505050949350505050565b6000610e61611e56565b610e69611e56565b60008060008060009054906101000a900473ffffffffffffffffffffffffffffffffffffffff1660016002600354600454600554848054600181600116156101000203166002900480601f016020809104026020016040519081016040528092919081815260200182805460018160011615610100020316600290048015610f325780601f10610f0757610100808354040283529160200191610f32565b820191906000526020600020905b815481529060010190602001808311610f1557829003601f168201915b50505050509450838054600181600116156101000203166002900480601f016020809104026020016040519081016040528092919081815260200182805460018160011615610100020316600290048015610fce5780601f10610fa357610100808354040283529160200191610fce565b820191906000526020600020905b815481529060010190602001808311610fb157829003601f168201915b50505050509350955095509550955095509550909192939495565b610ff1611c1f565b610ff9611c33565b60008060006001600281111561100b57fe5b600b8781548110151561101a57fe5b906000526020600020906006020160050160009054906101000a900460ff16600281111561104457fe5b14156110e35781805480600101828161105d9190611c5b565b91600052602060002090016000600b8981548110151561107957fe5b9060005260206000209060060201600401909190915090805461109d929190611c87565b5050600b868154811015156110ae57fe5b906000526020600020906006020160000160009054906101000a900473ffffffffffffffffffffffffffffffffffffffff1690505b6009828282805480602002602001604051908101604052809291908181526020016000905b828210156111c557838290600052602060002090018054600181600116156101000203166002900480601f0160208091040260200160405190810160405280929190818152602001828054600181600116156101000203166002900480156111b15780601f10611186576101008083540402835291602001916111b1565b820191906000526020600020905b81548152906001019060200180831161119457829003601f168201915b505050505081526020019060010190611108565b50505050925081805480602002602001604051908101604052809291908181526020016000905b828210156112f15783829060005260206000209001805480602002602001604051908101604052809291908181526020016000905b828210156112de57838290600052602060002090018054600181600116156101000203166002900480601f0160208091040260200160405190810160405280929190818152602001828054600181600116156101000203166002900480156112ca5780601f1061129f576101008083540402835291602001916112ca565b820191906000526020600020905b8154815290600101906020018083116112ad57829003601f168201915b505050505081526020019060010190611221565b50505050815260200190600101906111ec565b50505050915094509450945050509193909250565b60035481565b6000600354905090565b6000811415801561132957506000600a54145b156113365780600a819055505b50565b60045481565b6000600b80549050905090565b600080611357611c1f565b61135f611c47565b6000600b8054905086111561137357600080fd5b600b8681548110151561138257fe5b906000526020600020906006020160000160009054906101000a900473ffffffffffffffffffffffffffffffffffffffff16600b878154811015156113c357fe5b906000526020600020906006020160030154600b888154811015156113e457fe5b9060005260206000209060060201600101600b8981548110151561140457fe5b9060005260206000209060060201600201600b8a81548110151561142457fe5b906000526020600020906006020160050160009054906101000a900460ff1682805480602002602001604051908101604052809291908181526020016000905b8282101561152157838290600052602060002090018054600181600116156101000203166002900480601f01602080910402602001604051908101604052809291908181526020018280546001816001161561010002031660029004801561150d5780601f106114e25761010080835404028352916020019161150d565b820191906000526020600020905b8154815290600101906020018083116114f057829003601f168201915b505050505081526020019060010190611464565b5050505092508180548060200260200160405190810160405280929190818152602001828054801561157257602002820191906000526020600020905b81548152602001906001019080831161155e575b505050505091509450945094509450945091939590929450565b60068181548110151561159b57fe5b90600052602060002090016000915090508054600181600116156101000203166002900480601f0160208091040260200160405190810160405280929190818152602001828054600181600116156101000203166002900480156116405780601f1061161557610100808354040283529160200191611640565b820191906000526020600020905b81548152906001019060200180831161162357829003601f168201915b505050505081565b6002600c60008373ffffffffffffffffffffffffffffffffffffffff1673ffffffffffffffffffffffffffffffffffffffff16815260200190815260200160002060006101000a81548160ff021916908360028111156116a457fe5b021790555050565b856000806101000a81548173ffffffffffffffffffffffffffffffffffffffff021916908373ffffffffffffffffffffffffffffffffffffffff1602179055508460019080519060200190611702929190611dd6565b508360029080519060200190611719929190611dd6565b508260038190555081600481905550806005819055506000600a81905550505050505050565b60018054600181600116156101000203166002900480601f0160208091040260200160405190810160405280929190818152602001828054600181600116156101000203166002900480156117d55780601f106117aa576101008083540402835291602001916117d5565b820191906000526020600020905b8154815290600101906020018083116117b857829003601f168201915b505050505081565b600b818154811015156117ec57fe5b90600052602060002090600602016000915090508060000160009054906101000a900473ffffffffffffffffffffffffffffffffffffffff16908060030154908060050160009054906101000a900460ff16905083565b61184b611c1f565b611853611c1f565b61185b611c47565b611863611c1f565b600660076008600983805480602002602001604051908101604052809291908181526020016000905b8282101561194957838290600052602060002090018054600181600116156101000203166002900480601f0160208091040260200160405190810160405280929190818152602001828054600181600116156101000203166002900480156119355780601f1061190a57610100808354040283529160200191611935565b820191906000526020600020905b81548152906001019060200180831161191857829003601f168201915b50505050508152602001906001019061188c565b50505050935082805480602002602001604051908101604052809291908181526020016000905b82821015611a2d57838290600052602060002090018054600181600116156101000203166002900480601f016020809104026020016040519081016040528092919081815260200182805460018160011615610100020316600290048015611a195780601f106119ee57610100808354040283529160200191611a19565b820191906000526020600020905b8154815290600101906020018083116119fc57829003601f168201915b505050505081526020019060010190611970565b50505050925081805480602002602001604051908101604052809291908181526020018280548015611a7e57602002820191906000526020600020905b815481526020019060010190808311611a6a575b5050505050915080805480602002602001604051908101604052809291908181526020016000905b82821015611b6357838290600052602060002090018054600181600116156101000203166002900480601f016020809104026020016040519081016040528092919081815260200182805460018160011615610100020316600290048015611b4f5780601f10611b2457610100808354040283529160200191611b4f565b820191906000526020600020905b815481529060010190602001808311611b3257829003601f168201915b505050505081526020019060010190611aa6565b505050509050935093509350935090919293565b611b7f611e56565b60018054600181600116156101000203166002900480601f016020809104026020016040519081016040528092919081815260200182805460018160011615610100020316600290048015611c155780601f10611bea57610100808354040283529160200191611c15565b820191906000526020600020905b815481529060010190602001808311611bf857829003601f168201915b5050505050905090565b602060405190810160405280600081525090565b602060405190810160405280600081525090565b602060405190810160405280600081525090565b815481835581811511611c8257818360005260206000209182019101611c819190611e6a565b5b505050565b828054828255906000526020600020908101928215611ce65760005260206000209182015b82811115611ce55782829080546001816001161561010002031660029004611cd5929190611e96565b5091600101919060010190611cac565b5b509050611cf39190611f1d565b5090565b828054828255906000526020600020908101928215611d46579160200282015b82811115611d45578251829080519060200190611d35929190611f49565b5091602001919060010190611d17565b5b509050611d539190611f1d565b5090565b828054828255906000526020600020908101928215611d93579160200282015b82811115611d92578251825591602001919060010190611d77565b5b509050611da09190611fc9565b5090565b815481835581811511611dd157600602816006028360005260206000209182019101611dd09190611fee565b5b505050565b828054600181600116156101000203166002900490600052602060002090601f016020900481019282601f10611e1757805160ff1916838001178555611e45565b82800160010185558215611e45579182015b82811115611e44578251825591602001919060010190611e29565b5b509050611e529190611fc9565b5090565b602060405190810160405280600081525090565b611e9391905b80821115611e8f5760008181611e869190612080565b50600101611e70565b5090565b90565b828054600181600116156101000203166002900490600052602060002090601f016020900481019282601f10611ecf5780548555611f0c565b82800160010185558215611f0c57600052602060002091601f016020900482015b82811115611f0b578254825591600101919060010190611ef0565b5b509050611f199190611fc9565b5090565b611f4691905b80821115611f425760008181611f3991906120a1565b50600101611f23565b5090565b90565b828054600181600116156101000203166002900490600052602060002090601f016020900481019282601f10611f8a57805160ff1916838001178555611fb8565b82800160010185558215611fb8579182015b82811115611fb7578251825591602001919060010190611f9c565b5b509050611fc59190611fc9565b5090565b611feb91905b80821115611fe7576000816000905550600101611fcf565b5090565b90565b61207d91905b8082111561207957600080820160006101000a81549073ffffffffffffffffffffffffffffffffffffffff02191690556001820160006120349190612080565b60028201600061204491906120e9565b600382016000905560048201600061205c9190612080565b6005820160006101000a81549060ff021916905550600601611ff4565b5090565b90565b508054600082559060005260206000209081019061209e9190611f1d565b50565b50805460018160011615610100020316600290046000825580601f106120c757506120e6565b601f0160209004906000526020600020908101906120e59190611fc9565b5b50565b50805460008255906000526020600020908101906121079190611fc9565b50565b60006121168235612c06565b905092915050565b600082601f830112151561213157600080fd5b813561214461213f82612a68565b612a3b565b9150818183526020840193506020810190508360005b8381101561218a57813586016121708882612219565b84526020840193506020830192505060018101905061215a565b5050505092915050565b600082601f83011215156121a757600080fd5b81356121ba6121b582612a90565b612a3b565b915081818352602084019350602081019050838560208402820111156121df57600080fd5b60005b8381101561220f57816121f588826122c5565b8452602084019350602083019250506001810190506121e2565b5050505092915050565b600082601f830112151561222c57600080fd5b813561223f61223a82612ab8565b612a3b565b9150808252602083016020830185838301111561225b57600080fd5b612266838284612c42565b50505092915050565b600082601f830112151561228257600080fd5b813561229561229082612ae4565b612a3b565b915080825260208301602083018583830111156122b157600080fd5b6122bc838284612c42565b50505092915050565b60006122d18235612c26565b905092915050565b6000602082840312156122eb57600080fd5b60006122f98482850161210a565b91505092915050565b6000806000806080858703121561231857600080fd5b60006123268782880161210a565b945050602085013567ffffffffffffffff81111561234357600080fd5b61234f8782880161211e565b935050604085013567ffffffffffffffff81111561236c57600080fd5b61237887828801612194565b925050606085013567ffffffffffffffff81111561239557600080fd5b6123a18782880161211e565b91505092959194509250565b60008060008060008060c087890312156123c657600080fd5b60006123d489828a0161210a565b965050602087013567ffffffffffffffff8111156123f157600080fd5b6123fd89828a0161226f565b955050604087013567ffffffffffffffff81111561241a57600080fd5b61242689828a0161226f565b945050606061243789828a016122c5565b935050608061244889828a016122c5565b92505060a061245989828a016122c5565b9150509295509295509295565b6000806000806080858703121561247c57600080fd5b600085013567ffffffffffffffff81111561249657600080fd5b6124a28782880161211e565b945050602085013567ffffffffffffffff8111156124bf57600080fd5b6124cb8782880161211e565b935050604085013567ffffffffffffffff8111156124e857600080fd5b6124f487828801612194565b925050606085013567ffffffffffffffff81111561251157600080fd5b61251d8782880161211e565b91505092959194509250565b60006020828403121561253b57600080fd5b6000612549848285016122c5565b91505092915050565b61255b81612bba565b82525050565b600061256c82612b44565b8084526020840193508360208202850161258585612b10565b60005b848110156125be5783830388526125a083835161263d565b92506125ab82612b86565b9150602088019750600181019050612588565b508196508694505050505092915050565b60006125da82612b5a565b808452602084019350836020820285016125f385612b2a565b60005b8481101561262c57838303885261260e83835161275a565b925061261982612ba0565b91506020880197506001810190506125f6565b508196508694505050505092915050565b600061264882612b4f565b8084526020840193508360208202850161266185612b1d565b60005b8481101561269a57838303885261267c83835161275a565b925061268782612b93565b9150602088019750600181019050612664565b508196508694505050505092915050565b60006126b682612b65565b8084526020840193506126c883612b37565b60005b828110156126fa576126de868351612790565b6126e782612bad565b91506020860195506001810190506126cb565b50849250505092915050565b61270f81612bda565b82525050565b61271e81612c30565b82525050565b600061272f82612b7b565b808452612743816020860160208601612c51565b61274c81612c84565b602085010191505092915050565b600061276582612b70565b808452612779816020860160208601612c51565b61278281612c84565b602085010191505092915050565b61279981612bfc565b82525050565b60006020820190506127b46000830184612552565b92915050565b600060c0820190506127cf6000830189612552565b81810360208301526127e18188612724565b905081810360408301526127f58187612724565b90506128046060830186612790565b6128116080830185612790565b61281e60a0830184612790565b979650505050505050565b600060a08201905061283e6000830188612552565b61284b6020830187612790565b818103604083015261285d81866125cf565b9050818103606083015261287181856126ab565b90506128806080830184612715565b9695505050505050565b600060608201905061289f6000830186612552565b6128ac6020830185612790565b6128b96040830184612715565b949350505050565b600060608201905081810360008301526128db81866125cf565b905081810360208301526128ef8185612561565b90506128fe6040830184612552565b949350505050565b6000608082019050818103600083015261292081876125cf565b905081810360208301526129348186612561565b90506129436040830185612552565b818103606083015261295581846126ab565b905095945050505050565b6000608082019050818103600083015261297a81876125cf565b9050818103602083015261298e81866125cf565b905081810360408301526129a281856126ab565b905081810360608301526129b681846125cf565b905095945050505050565b60006020820190506129d66000830184612706565b92915050565b600060208201905081810360008301526129f6818461275a565b905092915050565b60006020820190508181036000830152612a188184612724565b905092915050565b6000602082019050612a356000830184612790565b92915050565b6000604051905081810181811067ffffffffffffffff82111715612a5e57600080fd5b8060405250919050565b600067ffffffffffffffff821115612a7f57600080fd5b602082029050602081019050919050565b600067ffffffffffffffff821115612aa757600080fd5b602082029050602081019050919050565b600067ffffffffffffffff821115612acf57600080fd5b601f19601f8301169050602081019050919050565b600067ffffffffffffffff821115612afb57600080fd5b601f19601f8301169050602081019050919050565b6000602082019050919050565b6000602082019050919050565b6000602082019050919050565b6000602082019050919050565b600081519050919050565b600081519050919050565b600081519050919050565b600081519050919050565b600081519050919050565b600081519050919050565b6000602082019050919050565b6000602082019050919050565b6000602082019050919050565b6000602082019050919050565b600073ffffffffffffffffffffffffffffffffffffffff82169050919050565b60008115159050919050565b6000600382101515612bf457fe5b819050919050565b6000819050919050565b600073ffffffffffffffffffffffffffffffffffffffff82169050919050565b6000819050919050565b6000612c3b82612be6565b9050919050565b82818337600083830152505050565b60005b83811015612c6f578082015181840152602081019050612c54565b83811115612c7e576000848401525b50505050565b6000601f19601f83011690509190505600a265627a7a72305820eb38489097d3e3e782007187424a4629c9f119980200424b7ede390f848aff006c6578706572696d656e74616cf50037",
  "source": "pragma solidity ^0.4.20;\npragma experimental ABIEncoderV2;\n\n\ncontract Tender {   \n    address public governmentOfficerAddress;\n    string public tenderName; \n    string public tenderId;\n    //string public organisationChain;\n    //string public tenderRefNum;\n    //string public tenderType;\n    //string public tenderCategory;\n    uint256 public bidSubmissionClosingDate;\n    uint256 public bidOpeningDate;\n    uint256 public covers;\n    string[] public clauses;\n    string[] public taskName;\n    uint256[] public taskDays;\n    string[] public constraints;\n    uint256 finalTenderAmount;\n\n    struct ContractorProposal {\n        address contractorAddress;\n        string[] quotationClause;\n        uint256[] quotationAmount;\n        uint256 proposalAmount;\n        //mapping(string=>uint) quotations;\n        string[] constraintDocuments;\n        ProposalStatus status;\n    }\n\n    enum ProposalStatus {\n        verified,\n        unverified,\n        rejected\n    }\n\n    ContractorProposal[] public allContractorProposals;\n    mapping (address => ProposalStatus) isProposalVerified;\n\n    function Tender() public {\n        \n    }\n\n    function getTenderName() public view returns (string) {\n        return tenderName;\n    }\n\n    function setTenderBasic(address _governmentOfficerAddress, string _tenderName, string _tenderId, \n    //string _organisationChain, string _tenderRefNum,\n    uint256 _bidSubmissionClosingDate, uint256 _bidOpeningDate, uint256 _covers) public {\n        governmentOfficerAddress = _governmentOfficerAddress;   \n        tenderName = _tenderName;\n        tenderId = _tenderId;\n        //organisationChain = _organisationChain;\n        //tenderRefNum = _tenderRefNum;\n        // tenderType = _tenderType;\n        // tenderCategory = _tenderCategory;\n        bidSubmissionClosingDate = _bidSubmissionClosingDate;\n        bidOpeningDate = _bidOpeningDate;\n        covers = _covers;\n        finalTenderAmount = 0;\n    }\n    \n    function setTenderAdvanced(string[] _clauses,\n    string[] _taskName, uint256[] _taskDays,\n    string[] _constraints) public {\n        clauses = _clauses;\n        taskName = _taskName;\n        taskDays = _taskDays;\n        constraints = _constraints;\n    }\n\n    function getTenderBasic() public view returns (address, string, string,\n    uint, uint, uint) {\n        return (governmentOfficerAddress, tenderName, tenderId, \n        bidSubmissionClosingDate, bidOpeningDate, covers);\n    }\n\n    function getTenderAdvanced() public view returns (string[], string[], uint256[], string[]) {\n        return (clauses, taskName, taskDays, constraints );\n    }\n\n    function bid(address _contractorAddress,\n    string[] _quotationClause, uint256[] _quotationAmount, string[] _constraintDocuments) public returns (bool) {\n        ContractorProposal storage temp = allContractorProposals[allContractorProposals.length++];\n        temp.contractorAddress = _contractorAddress;\n        for (uint i=0; i < _quotationClause.length; i++) {\n            temp.quotationClause[i] = _quotationClause[i];\n            temp.quotationAmount[i] = _quotationAmount[i];\n            temp.proposalAmount += _quotationAmount[i];\n        }\n        for (uint j=0; j < _constraintDocuments.length; j++) {\n            temp.constraintDocuments[i] = _constraintDocuments[i];\n        }\n        temp.status = ProposalStatus.unverified;\n        return true;\n    }  \n\n    function getBiddindCloseDate() public returns (uint256) {\n        return bidSubmissionClosingDate;\n    }\n\n    function getProposalCount() public view returns (uint256) {\n        return allContractorProposals.length;\n    }\n\n    function setTenderAmount(uint256 amount) public {\n        if (amount != 0 && finalTenderAmount == 0)\n            finalTenderAmount = amount;\n    }\n\n    function getProposalsToVerify(uint index) public returns (string[], string[][], address) {\n        //loop at web3\n        string[][] tempDocuments;\n\n        address tempAddresses;\n        if (allContractorProposals[index].status == ProposalStatus.unverified) {\n            tempDocuments.push(allContractorProposals[index].constraintDocuments);\n            tempAddresses = allContractorProposals[index].contractorAddress;\n        }\n        return (constraints, tempDocuments, tempAddresses);\n    }\n\n    function verifyProposal(address contractorAddress) public {\n        isProposalVerified[contractorAddress] = ProposalStatus.verified;\n    }\n\n    function rejectProposal(address contractorAddress) public {\n        isProposalVerified[contractorAddress] = ProposalStatus.rejected;\n    }\n\n    function getProposal(uint256 index) public view returns (address, uint256, string[], uint256[], ProposalStatus) {\n        if (index > allContractorProposals.length) revert();\n        return (allContractorProposals[index].contractorAddress, \n        allContractorProposals[index].proposalAmount, allContractorProposals[index].quotationClause,\n        allContractorProposals[index].quotationAmount, allContractorProposals[index].status);\n    }\n\n    function getVerifiedProposals(uint index) public returns (string[], string[][], address, uint[]) {\n        //loop at web3\n        string[][]  tempDocuments;\n        address tempAddresses;\n        uint[] memory tempAmount;\n        if (allContractorProposals[index].status == ProposalStatus.verified) {\n            tempDocuments.push(allContractorProposals[index].constraintDocuments);\n            tempAddresses = allContractorProposals[index].contractorAddress;\n            tempAmount = allContractorProposals[index].quotationAmount;\n        }\n        return (constraints, tempDocuments, tempAddresses, tempAmount);\n    }\n    \n}",
  "sourcePath": "/home/scoco/Desktop/TenderSystem---Blockchain/contracts/Tender.sol",
  "compiler": {
    "name": "solc",
    "version": "0.4.20+commit.3155dd80.Emscripten.clang"
  },
  "schemaVersion": "1.0.1",
  "updatedAt": "2018-03-20T23:55:36.581Z"
}