{
  "contractName": "TenderRepo",
  "abi": [
    {
      "constant": false,
      "inputs": [
        {
          "name": "tenderAddress",
          "type": "address"
        }
      ],
      "name": "updateTenderStatusToDeployed",
      "outputs": [],
      "payable": false,
      "stateMutability": "nonpayable",
      "type": "function"
    },
    {
      "constant": false,
      "inputs": [
        {
          "name": "tenderToAppend",
          "type": "address"
        }
      ],
      "name": "newTender",
      "outputs": [
        {
          "name": "",
          "type": "bool"
        }
      ],
      "payable": false,
      "stateMutability": "nonpayable",
      "type": "function"
    },
    {
      "constant": true,
      "inputs": [],
      "name": "getAllTenders",
      "outputs": [
        {
          "name": "",
          "type": "address[]"
        }
      ],
      "payable": false,
      "stateMutability": "view",
      "type": "function"
    },
    {
      "constant": false,
      "inputs": [
        {
          "name": "tenderAddress",
          "type": "address"
        }
      ],
      "name": "updateTenderStatusToBiddingComplete",
      "outputs": [],
      "payable": false,
      "stateMutability": "nonpayable",
      "type": "function"
    },
    {
      "constant": true,
      "inputs": [
        {
          "name": "",
          "type": "uint256"
        }
      ],
      "name": "tenders",
      "outputs": [
        {
          "name": "",
          "type": "address"
        }
      ],
      "payable": false,
      "stateMutability": "view",
      "type": "function"
    },
    {
      "constant": true,
      "inputs": [],
      "name": "getTenderCount",
      "outputs": [
        {
          "name": "",
          "type": "uint256"
        }
      ],
      "payable": false,
      "stateMutability": "view",
      "type": "function"
    },
    {
      "constant": true,
      "inputs": [
        {
          "name": "index",
          "type": "uint256"
        }
      ],
      "name": "getOngoingTenders",
      "outputs": [
        {
          "name": "",
          "type": "address"
        }
      ],
      "payable": false,
      "stateMutability": "view",
      "type": "function"
    },
    {
      "constant": true,
      "inputs": [
        {
          "name": "",
          "type": "address"
        }
      ],
      "name": "tenderMapping",
      "outputs": [
        {
          "name": "",
          "type": "uint8"
        }
      ],
      "payable": false,
      "stateMutability": "view",
      "type": "function"
    },
    {
      "inputs": [],
      "payable": false,
      "stateMutability": "nonpayable",
      "type": "constructor"
    }
  ],
  "bytecode": "0x6060604052341561000f57600080fd5b6108838061001e6000396000f30060606040526004361061008e576000357c0100000000000000000000000000000000000000000000000000000000900463ffffffff16806304a01abe146100935780631ee1acb6146100b55780632358c046146100eb57806336b4181c14610114578063465e1def146101365780635850b3831461016c57806380650c8614610195578063b6af93c8146101cb575b600080fd5b341561009e57600080fd5b6100b360046100ae903690610625565b610201565b005b34156100c057600080fd5b6100d560046100d0903690610625565b610265565b6040516100e2919061074b565b60405180910390f35b34156100f657600080fd5b6100fe610333565b60405161010b9190610729565b60405180910390f35b341561011f57600080fd5b610134600461012f903690610625565b6103c7565b005b341561014157600080fd5b610156600461015190369061064e565b61042a565b604051610163919061070e565b60405180910390f35b341561017757600080fd5b61017f610469565b60405161018c9190610781565b60405180910390f35b34156101a057600080fd5b6101b560046101b090369061064e565b610475565b6040516101c2919061070e565b60405180910390f35b34156101d657600080fd5b6101eb60046101e6903690610625565b610578565b6040516101f89190610766565b60405180910390f35b6002600160008373ffffffffffffffffffffffffffffffffffffffff1673ffffffffffffffffffffffffffffffffffffffff16815260200190815260200160002060006101000a81548160ff0219169083600281111561025d57fe5b021790555050565b600080805480600101828161027a9190610598565b9160005260206000209001600084909190916101000a81548173ffffffffffffffffffffffffffffffffffffffff021916908373ffffffffffffffffffffffffffffffffffffffff160217905550506000600160008473ffffffffffffffffffffffffffffffffffffffff1673ffffffffffffffffffffffffffffffffffffffff16815260200190815260200160002060006101000a81548160ff0219169083600281111561032557fe5b021790555060019050919050565b61033b6105c4565b60008054806020026020016040519081016040528092919081815260200182805480156103bd57602002820191906000526020600020905b8160009054906101000a900473ffffffffffffffffffffffffffffffffffffffff1673ffffffffffffffffffffffffffffffffffffffff1681526020019060010190808311610373575b5050505050905090565b60018060008373ffffffffffffffffffffffffffffffffffffffff1673ffffffffffffffffffffffffffffffffffffffff16815260200190815260200160002060006101000a81548160ff0219169083600281111561042257fe5b021790555050565b60008181548110151561043957fe5b90600052602060002090016000915054906101000a900473ffffffffffffffffffffffffffffffffffffffff1681565b60008080549050905090565b6000808054905082111561048857600080fd5b6000600281111561049557fe5b6001600080858154811015156104a757fe5b906000526020600020900160009054906101000a900473ffffffffffffffffffffffffffffffffffffffff1673ffffffffffffffffffffffffffffffffffffffff1673ffffffffffffffffffffffffffffffffffffffff16815260200190815260200160002060009054906101000a900460ff16600281111561052657fe5b141561056e5760008281548110151561053b57fe5b906000526020600020900160009054906101000a900473ffffffffffffffffffffffffffffffffffffffff169050610573565b600080fd5b919050565b60016020528060005260406000206000915054906101000a900460ff1681565b8154818355818115116105bf578183600052602060002091820191016105be91906105d8565b5b505050565b602060405190810160405280600081525090565b6105fa91905b808211156105f65760008160009055506001016105de565b5090565b90565b6000610609823561080d565b905092915050565b600061061d823561082d565b905092915050565b60006020828403121561063757600080fd5b6000610645848285016105fd565b91505092915050565b60006020828403121561066057600080fd5b600061066e84828501610611565b91505092915050565b610680816107c1565b82525050565b6000610691826107a9565b8084526020840193506106a38361079c565b60005b828110156106d5576106b9868351610677565b6106c2826107b4565b91506020860195506001810190506106a6565b50849250505092915050565b6106ea816107e1565b82525050565b6106f981610837565b82525050565b61070881610803565b82525050565b60006020820190506107236000830184610677565b92915050565b600060208201905081810360008301526107438184610686565b905092915050565b600060208201905061076060008301846106e1565b92915050565b600060208201905061077b60008301846106f0565b92915050565b600060208201905061079660008301846106ff565b92915050565b6000602082019050919050565b600081519050919050565b6000602082019050919050565b600073ffffffffffffffffffffffffffffffffffffffff82169050919050565b60008115159050919050565b60006003821015156107fb57fe5b819050919050565b6000819050919050565b600073ffffffffffffffffffffffffffffffffffffffff82169050919050565b6000819050919050565b6000610842826107ed565b90509190505600a265627a7a7230582073a4450cbca6c7490a21ae4f8c3a1798f624ccb34c4ae9d2b213c57cff077b206c6578706572696d656e74616cf50037",
  "source": "pragma solidity ^0.4.20;\npragma experimental ABIEncoderV2;\n\n\ncontract TenderRepo {\n    address[] public tenders;\n    \n    enum TenderStatus {\n        activeOnBid,\n        biddingComplete,\n        contractDeployed\n    }\n\n    mapping (address => TenderStatus) public tenderMapping;\n\n    function TenderRepo() public {\n        \n    }\n\n    function newTender(address tenderToAppend) public returns (bool) {\n        tenders.push(tenderToAppend);\n        tenderMapping[tenderToAppend] = TenderStatus.activeOnBid;\n        return true;\n    }\n\n    function getAllTenders() public view returns (address[]) {\n        //to be used by verifier\n        return tenders;\n    }\n\n    function getTenderCount() public view returns (uint256) {\n        return tenders.length;\n    }\n\n    function getOngoingTenders(uint256 index) public view returns (address) {\n        //loop at web3\n        if (index > tenders.length) revert();\n        if (tenderMapping[tenders[index]] == TenderStatus.activeOnBid) {\n            return tenders[index]; \n        }\n        revert();\n    }\n\n    function updateTenderStatusToBiddingComplete(address tenderAddress) public {\n        tenderMapping[tenderAddress] = TenderStatus.biddingComplete;\n    }\n\n    function updateTenderStatusToDeployed(address tenderAddress) public {\n        tenderMapping[tenderAddress] = TenderStatus.contractDeployed;\n    }\n}",
  "sourcePath": "/home/scoco/Desktop/TenderSystem---Blockchain/contracts/TenderRepo.sol",
  "compiler": {
    "name": "solc",
    "version": "0.4.20+commit.3155dd80.Emscripten.clang"
  },
  "schemaVersion": "1.0.1",
  "updatedAt": "2018-03-20T16:15:25.730Z"
}