{
  "contractName": "TenderRepo",
  "abi": [
    {
      "constant": false,
      "inputs": [
        {
          "name": "tenderAddress",
          "type": "address"
        }
      ],
      "name": "updateTenderStatusToDeployed",
      "outputs": [],
      "payable": false,
      "stateMutability": "nonpayable",
      "type": "function"
    },
    {
      "constant": false,
      "inputs": [
        {
          "name": "tenderToAppend",
          "type": "address"
        }
      ],
      "name": "newTender",
      "outputs": [
        {
          "name": "",
          "type": "bool"
        }
      ],
      "payable": false,
      "stateMutability": "nonpayable",
      "type": "function"
    },
    {
      "constant": true,
      "inputs": [],
      "name": "getAllTenders",
      "outputs": [
        {
          "name": "",
          "type": "address[]"
        }
      ],
      "payable": false,
      "stateMutability": "view",
      "type": "function"
    },
    {
      "constant": false,
      "inputs": [
        {
          "name": "tenderAddress",
          "type": "address"
        }
      ],
      "name": "updateTenderStatusToBiddingComplete",
      "outputs": [],
      "payable": false,
      "stateMutability": "nonpayable",
      "type": "function"
    },
    {
      "constant": true,
      "inputs": [
        {
          "name": "",
          "type": "uint256"
        }
      ],
      "name": "tenders",
      "outputs": [
        {
          "name": "",
          "type": "address"
        }
      ],
      "payable": false,
      "stateMutability": "view",
      "type": "function"
    },
    {
      "constant": true,
      "inputs": [],
      "name": "getTenderCount",
      "outputs": [
        {
          "name": "",
          "type": "uint256"
        }
      ],
      "payable": false,
      "stateMutability": "view",
      "type": "function"
    },
    {
      "constant": true,
      "inputs": [
        {
          "name": "index",
          "type": "uint256"
        }
      ],
      "name": "getOngoingTenders",
      "outputs": [
        {
          "name": "",
          "type": "address"
        }
      ],
      "payable": false,
      "stateMutability": "view",
      "type": "function"
    },
    {
      "constant": false,
      "inputs": [
        {
          "name": "tenderAddress",
          "type": "address"
        }
      ],
      "name": "getTenderStatus",
      "outputs": [
        {
          "name": "",
          "type": "uint8"
        }
      ],
      "payable": false,
      "stateMutability": "nonpayable",
      "type": "function"
    },
    {
      "constant": true,
      "inputs": [
        {
          "name": "",
          "type": "address"
        }
      ],
      "name": "tenderMapping",
      "outputs": [
        {
          "name": "",
          "type": "uint8"
        }
      ],
      "payable": false,
      "stateMutability": "view",
      "type": "function"
    },
    {
      "inputs": [],
      "payable": false,
      "stateMutability": "nonpayable",
      "type": "constructor"
    }
  ],
  "bytecode": "0x6060604052341561000f57600080fd5b61091a8061001e6000396000f300606060405260043610610099576000357c0100000000000000000000000000000000000000000000000000000000900463ffffffff16806304a01abe1461009e5780631ee1acb6146100c05780632358c046146100f657806336b4181c1461011f578063465e1def146101415780635850b3831461017757806380650c86146101a05780639f53827f146101d6578063b6af93c81461020c575b600080fd5b34156100a957600080fd5b6100be60046100b99036906106bc565b610242565b005b34156100cb57600080fd5b6100e060046100db9036906106bc565b6102a6565b6040516100ed91906107e2565b60405180910390f35b341561010157600080fd5b610109610374565b60405161011691906107c0565b60405180910390f35b341561012a57600080fd5b61013f600461013a9036906106bc565b610408565b005b341561014c57600080fd5b610161600461015c9036906106e5565b61046b565b60405161016e91906107a5565b60405180910390f35b341561018257600080fd5b61018a6104aa565b6040516101979190610818565b60405180910390f35b34156101ab57600080fd5b6101c060046101bb9036906106e5565b6104b6565b6040516101cd91906107a5565b60405180910390f35b34156101e157600080fd5b6101f660046101f19036906106bc565b6105b9565b60405161020391906107fd565b60405180910390f35b341561021757600080fd5b61022c60046102279036906106bc565b61060f565b60405161023991906107fd565b60405180910390f35b6002600160008373ffffffffffffffffffffffffffffffffffffffff1673ffffffffffffffffffffffffffffffffffffffff16815260200190815260200160002060006101000a81548160ff0219169083600281111561029e57fe5b021790555050565b60008080548060010182816102bb919061062f565b9160005260206000209001600084909190916101000a81548173ffffffffffffffffffffffffffffffffffffffff021916908373ffffffffffffffffffffffffffffffffffffffff160217905550506000600160008473ffffffffffffffffffffffffffffffffffffffff1673ffffffffffffffffffffffffffffffffffffffff16815260200190815260200160002060006101000a81548160ff0219169083600281111561036657fe5b021790555060019050919050565b61037c61065b565b60008054806020026020016040519081016040528092919081815260200182805480156103fe57602002820191906000526020600020905b8160009054906101000a900473ffffffffffffffffffffffffffffffffffffffff1673ffffffffffffffffffffffffffffffffffffffff16815260200190600101908083116103b4575b5050505050905090565b60018060008373ffffffffffffffffffffffffffffffffffffffff1673ffffffffffffffffffffffffffffffffffffffff16815260200190815260200160002060006101000a81548160ff0219169083600281111561046357fe5b021790555050565b60008181548110151561047a57fe5b90600052602060002090016000915054906101000a900473ffffffffffffffffffffffffffffffffffffffff1681565b60008080549050905090565b600080805490508211156104c957600080fd5b600060028111156104d657fe5b6001600080858154811015156104e857fe5b906000526020600020900160009054906101000a900473ffffffffffffffffffffffffffffffffffffffff1673ffffffffffffffffffffffffffffffffffffffff1673ffffffffffffffffffffffffffffffffffffffff16815260200190815260200160002060009054906101000a900460ff16600281111561056757fe5b14156105af5760008281548110151561057c57fe5b906000526020600020900160009054906101000a900473ffffffffffffffffffffffffffffffffffffffff1690506105b4565b600080fd5b919050565b6000600160008373ffffffffffffffffffffffffffffffffffffffff1673ffffffffffffffffffffffffffffffffffffffff16815260200190815260200160002060009054906101000a900460ff169050919050565b60016020528060005260406000206000915054906101000a900460ff1681565b81548183558181151161065657818360005260206000209182019101610655919061066f565b5b505050565b602060405190810160405280600081525090565b61069191905b8082111561068d576000816000905550600101610675565b5090565b90565b60006106a082356108a4565b905092915050565b60006106b482356108c4565b905092915050565b6000602082840312156106ce57600080fd5b60006106dc84828501610694565b91505092915050565b6000602082840312156106f757600080fd5b6000610705848285016106a8565b91505092915050565b61071781610858565b82525050565b600061072882610840565b80845260208401935061073a83610833565b60005b8281101561076c5761075086835161070e565b6107598261084b565b915060208601955060018101905061073d565b50849250505092915050565b61078181610878565b82525050565b610790816108ce565b82525050565b61079f8161089a565b82525050565b60006020820190506107ba600083018461070e565b92915050565b600060208201905081810360008301526107da818461071d565b905092915050565b60006020820190506107f76000830184610778565b92915050565b60006020820190506108126000830184610787565b92915050565b600060208201905061082d6000830184610796565b92915050565b6000602082019050919050565b600081519050919050565b6000602082019050919050565b600073ffffffffffffffffffffffffffffffffffffffff82169050919050565b60008115159050919050565b600060038210151561089257fe5b819050919050565b6000819050919050565b600073ffffffffffffffffffffffffffffffffffffffff82169050919050565b6000819050919050565b60006108d982610884565b90509190505600a265627a7a72305820ec33f2d539462d9b7571e3267ba1dec1fcd11c7c56b968acd28badeb30aa71b96c6578706572696d656e74616cf50037",
  "source": "pragma solidity ^0.4.20;\npragma experimental ABIEncoderV2;\n\n\ncontract TenderRepo {\n    address[] public tenders;\n    \n    enum TenderStatus {\n        activeOnBid,\n        biddingComplete,\n        contractDeployed\n    }\n\n    mapping (address => TenderStatus) public tenderMapping;\n\n    function TenderRepo() public {\n        \n    }\n\n    function newTender(address tenderToAppend) public returns (bool) {\n        tenders.push(tenderToAppend);\n        tenderMapping[tenderToAppend] = TenderStatus.activeOnBid;\n        return true;\n    }\n\n    function getTenderStatus(address tenderAddress) public returns (TenderStatus) {\n        return tenderMapping[tenderAddress];\n    }\n\n    function getAllTenders() public view returns (address[]) {\n        //to be used by verifier\n        return tenders;\n    }\n\n    function getTenderCount() public view returns (uint256) {\n        return tenders.length;\n    }\n\n    function getOngoingTenders(uint256 index) public view returns (address) {\n        //loop at web3\n        if (index > tenders.length) revert();\n        if (tenderMapping[tenders[index]] == TenderStatus.activeOnBid) {\n            return tenders[index]; \n        }\n        revert();\n    }\n\n    function updateTenderStatusToBiddingComplete(address tenderAddress) public {\n        tenderMapping[tenderAddress] = TenderStatus.biddingComplete;\n    }\n\n    function updateTenderStatusToDeployed(address tenderAddress) public {\n        tenderMapping[tenderAddress] = TenderStatus.contractDeployed;\n    }\n}",
  "sourcePath": "/home/scoco/Desktop/TenderSystem---Blockchain/contracts/TenderRepo.sol",
  "compiler": {
    "name": "solc",
    "version": "0.4.20+commit.3155dd80.Emscripten.clang"
  },
  "schemaVersion": "1.0.1",
  "updatedAt": "2018-03-20T23:00:43.382Z"
}