{
  "contractName": "Verifier",
  "abi": [
    {
      "constant": true,
      "inputs": [],
      "name": "myVerifiedContractors",
      "outputs": [
        {
          "name": "",
          "type": "address[]"
        }
      ],
      "payable": false,
      "stateMutability": "view",
      "type": "function"
    },
    {
      "constant": false,
      "inputs": [
        {
          "name": "tender",
          "type": "address"
        }
      ],
      "name": "verifyProposalDocuments",
      "outputs": [
        {
          "name": "",
          "type": "bool"
        }
      ],
      "payable": false,
      "stateMutability": "nonpayable",
      "type": "function"
    },
    {
      "constant": false,
      "inputs": [],
      "name": "logout",
      "outputs": [
        {
          "name": "",
          "type": "bool"
        }
      ],
      "payable": false,
      "stateMutability": "nonpayable",
      "type": "function"
    },
    {
      "constant": false,
      "inputs": [
        {
          "name": "govtOfficer",
          "type": "address"
        }
      ],
      "name": "verifyGovernmentOfficer",
      "outputs": [
        {
          "name": "",
          "type": "bool"
        }
      ],
      "payable": false,
      "stateMutability": "nonpayable",
      "type": "function"
    },
    {
      "constant": true,
      "inputs": [],
      "name": "myVerifiedDocuments",
      "outputs": [
        {
          "name": "",
          "type": "address[]"
        }
      ],
      "payable": false,
      "stateMutability": "view",
      "type": "function"
    },
    {
      "constant": false,
      "inputs": [
        {
          "name": "_walletAddress",
          "type": "address"
        },
        {
          "name": "_email",
          "type": "string"
        },
        {
          "name": "_phoneNumber",
          "type": "string"
        },
        {
          "name": "_name",
          "type": "string"
        },
        {
          "name": "_employeeId",
          "type": "string"
        }
      ],
      "name": "setVerifier",
      "outputs": [
        {
          "name": "",
          "type": "bool"
        }
      ],
      "payable": false,
      "stateMutability": "nonpayable",
      "type": "function"
    },
    {
      "constant": false,
      "inputs": [
        {
          "name": "contrator",
          "type": "address"
        }
      ],
      "name": "verifyContractor",
      "outputs": [
        {
          "name": "",
          "type": "bool"
        }
      ],
      "payable": false,
      "stateMutability": "nonpayable",
      "type": "function"
    },
    {
      "constant": true,
      "inputs": [],
      "name": "myVerifiedOfficers",
      "outputs": [
        {
          "name": "",
          "type": "address[]"
        }
      ],
      "payable": false,
      "stateMutability": "view",
      "type": "function"
    },
    {
      "inputs": [],
      "payable": false,
      "stateMutability": "nonpayable",
      "type": "constructor"
    }
  ],
  "bytecode": "0x6060604052341561000f57600080fd5b6109dd8061001e6000396000f30060606040526004361061008e576000357c0100000000000000000000000000000000000000000000000000000000900463ffffffff16806308793b9a14610093578063131b592c146100bc5780631f3c99c3146100f25780632e0784521461011b578063ad43f2ec14610151578063c12bddae1461017a578063dc7a72e7146101b0578063ed015aa6146101e6575b600080fd5b341561009e57600080fd5b6100a661020f565b6040516100b3919061088d565b60405180910390f35b34156100c757600080fd5b6100dc60046100d7903690610714565b6102a3565b6040516100e991906108af565b60405180910390f35b34156100fd57600080fd5b610105610311565b60405161011291906108af565b60405180910390f35b341561012657600080fd5b61013b6004610136903690610714565b610316565b60405161014891906108af565b60405180910390f35b341561015c57600080fd5b610164610384565b604051610171919061088d565b60405180910390f35b341561018557600080fd5b61019a600461019590369061073d565b610418565b6040516101a791906108af565b60405180910390f35b34156101bb57600080fd5b6101d060046101cb903690610714565b6104c3565b6040516101dd91906108af565b60405180910390f35b34156101f157600080fd5b6101f9610531565b604051610206919061088d565b60405180910390f35b6102176105c5565b600780548060200260200160405190810160405280929190818152602001828054801561029957602002820191906000526020600020905b8160009054906101000a900473ffffffffffffffffffffffffffffffffffffffff1673ffffffffffffffffffffffffffffffffffffffff168152602001906001019080831161024f575b5050505050905090565b6000600580548060010182816102b991906105d9565b9160005260206000209001600084909190916101000a81548173ffffffffffffffffffffffffffffffffffffffff021916908373ffffffffffffffffffffffffffffffffffffffff1602179055505060019050919050565b600090565b60006006805480600101828161032c91906105d9565b9160005260206000209001600084909190916101000a81548173ffffffffffffffffffffffffffffffffffffffff021916908373ffffffffffffffffffffffffffffffffffffffff1602179055505060019050919050565b61038c6105c5565b600580548060200260200160405190810160405280929190818152602001828054801561040e57602002820191906000526020600020905b8160009054906101000a900473ffffffffffffffffffffffffffffffffffffffff1673ffffffffffffffffffffffffffffffffffffffff16815260200190600101908083116103c4575b5050505050905090565b6000856000806101000a81548173ffffffffffffffffffffffffffffffffffffffff021916908373ffffffffffffffffffffffffffffffffffffffff1602179055508460019080519060200190610470929190610605565b508360029080519060200190610487929190610605565b50826003908051906020019061049e929190610605565b5081600490805190602001906104b5929190610605565b506001905095945050505050565b6000600780548060010182816104d991906105d9565b9160005260206000209001600084909190916101000a81548173ffffffffffffffffffffffffffffffffffffffff021916908373ffffffffffffffffffffffffffffffffffffffff1602179055505060019050919050565b6105396105c5565b60068054806020026020016040519081016040528092919081815260200182805480156105bb57602002820191906000526020600020905b8160009054906101000a900473ffffffffffffffffffffffffffffffffffffffff1673ffffffffffffffffffffffffffffffffffffffff1681526020019060010190808311610571575b5050505050905090565b602060405190810160405280600081525090565b815481835581811511610600578183600052602060002091820191016105ff9190610685565b5b505050565b828054600181600116156101000203166002900490600052602060002090601f016020900481019282601f1061064657805160ff1916838001178555610674565b82800160010185558215610674579182015b82811115610673578251825591602001919060010190610658565b5b5090506106819190610685565b5090565b6106a791905b808211156106a357600081600090555060010161068b565b5090565b90565b60006106b68235610974565b905092915050565b600082601f83011215156106d157600080fd5b81356106e46106df826108f7565b6108ca565b9150808252602083016020830185838301111561070057600080fd5b61070b838284610994565b50505092915050565b60006020828403121561072657600080fd5b6000610734848285016106aa565b91505092915050565b600080600080600060a0868803121561075557600080fd5b6000610763888289016106aa565b955050602086013567ffffffffffffffff81111561078057600080fd5b61078c888289016106be565b945050604086013567ffffffffffffffff8111156107a957600080fd5b6107b5888289016106be565b935050606086013567ffffffffffffffff8111156107d257600080fd5b6107de888289016106be565b925050608086013567ffffffffffffffff8111156107fb57600080fd5b610807888289016106be565b9150509295509295909350565b61081d81610948565b82525050565b600061082e82610930565b80845260208401935061084083610923565b60005b8281101561087257610856868351610814565b61085f8261093b565b9150602086019550600181019050610843565b50849250505092915050565b61088781610968565b82525050565b600060208201905081810360008301526108a78184610823565b905092915050565b60006020820190506108c4600083018461087e565b92915050565b6000604051905081810181811067ffffffffffffffff821117156108ed57600080fd5b8060405250919050565b600067ffffffffffffffff82111561090e57600080fd5b601f19601f8301169050602081019050919050565b6000602082019050919050565b600081519050919050565b6000602082019050919050565b600073ffffffffffffffffffffffffffffffffffffffff82169050919050565b60008115159050919050565b600073ffffffffffffffffffffffffffffffffffffffff82169050919050565b828183376000838301525050505600a265627a7a72305820eb76f7083ccc0f0ca988382f7ab0da1a697dde10cc5d454591fbe5505e89f4176c6578706572696d656e74616cf50037",
  "source": "pragma solidity ^0.4.20;\npragma experimental ABIEncoderV2;\n\n\ncontract Verifier {\n\n    address walletAddress;\n    string email;\n    string phoneNumber;\n    string name;\n    string employeeId;\n    address[] documentsVerified;\n    address[] officersVerified;\n    address[] contractorsVerified;\n\n    function Verifier() public {\n\n    }\n    \n    function setVerifier (address _walletAddress, string _email, string _phoneNumber, string _name, \n    string _employeeId) public returns (bool) {\n        walletAddress = _walletAddress;\n        email = _email;\n        phoneNumber = _phoneNumber;\n        name = _name;\n        employeeId = _employeeId;\n        return true;\n    }\n\n    // function login(address userAddress, string role) public  returns (string) {\n    // }\n\n    // //unverified\n    // function getAllUnverifiedGovernmentOfficers(string token) public returns (address[]) {\n    //     //defined in GovernmentOfficerRepo\n    // }    \n\n    // function getAllUnverifiedContractors(string token) public returns (address[]) {\n    //     //defined in ContractorRepo\n    // }   \n\n    // function getAllUnverifiedDocuments(string token) public returns (string[]) {\n    //     //getProposalToVerify() in Tender.sol\n    // }\n\n\n    // verification\n    function verifyGovernmentOfficer(address govtOfficer) public returns (bool) {\n        officersVerified.push(govtOfficer);\n        return true;\n    }\n\n    function verifyContractor(address contrator) public returns (bool) {\n        contractorsVerified.push(contrator);\n        return true;\n    }\n\n    function verifyProposalDocuments(address tender) public returns (bool) {\n        documentsVerified.push(tender);\n        return true;\n    }\n\n    function myVerifiedDocuments() public view returns (address[]) {\n        return documentsVerified;\n    }\n\n    function myVerifiedOfficers() public view returns (address[]) {\n        return officersVerified;\n    }\n\n    function myVerifiedContractors() public view returns (address[]) {\n        return contractorsVerified;\n    }\n\n    function logout() public returns(bool) {\n\n    }\n}",
  "sourcePath": "/home/scoco/Desktop/TenderSystem---Blockchain/contracts/Verifier.sol",
  "compiler": {
    "name": "solc",
    "version": "0.4.20+commit.3155dd80.Emscripten.clang"
  },
  "schemaVersion": "1.0.1",
  "updatedAt": "2018-03-20T16:02:08.209Z"
}