{
  "contractName": "Verifier",
  "abi": [
    {
      "constant": false,
      "inputs": [
        {
          "name": "token",
          "type": "string"
        }
      ],
      "name": "getAllUnverifiedDocuments",
      "outputs": [
        {
          "name": "",
          "type": "string[]"
        }
      ],
      "payable": false,
      "stateMutability": "nonpayable",
      "type": "function"
    },
    {
      "constant": false,
      "inputs": [],
      "name": "logout",
      "outputs": [
        {
          "name": "",
          "type": "bool"
        }
      ],
      "payable": false,
      "stateMutability": "nonpayable",
      "type": "function"
    },
    {
      "constant": false,
      "inputs": [],
      "name": "getAllTenders",
      "outputs": [
        {
          "name": "",
          "type": "address[]"
        }
      ],
      "payable": false,
      "stateMutability": "nonpayable",
      "type": "function"
    },
    {
      "constant": false,
      "inputs": [
        {
          "name": "token",
          "type": "string"
        },
        {
          "name": "govtOfficer",
          "type": "address"
        }
      ],
      "name": "verifyGovernmentOfficer",
      "outputs": [
        {
          "name": "",
          "type": "bool"
        }
      ],
      "payable": false,
      "stateMutability": "nonpayable",
      "type": "function"
    },
    {
      "constant": false,
      "inputs": [
        {
          "name": "token",
          "type": "string"
        }
      ],
      "name": "myVerifiedContractors",
      "outputs": [
        {
          "name": "",
          "type": "address[]"
        }
      ],
      "payable": false,
      "stateMutability": "nonpayable",
      "type": "function"
    },
    {
      "constant": false,
      "inputs": [
        {
          "name": "userAddress",
          "type": "address"
        },
        {
          "name": "role",
          "type": "string"
        }
      ],
      "name": "login",
      "outputs": [
        {
          "name": "",
          "type": "string"
        }
      ],
      "payable": false,
      "stateMutability": "nonpayable",
      "type": "function"
    },
    {
      "constant": false,
      "inputs": [
        {
          "name": "token",
          "type": "string"
        },
        {
          "name": "tender",
          "type": "address"
        }
      ],
      "name": "verifyProposalDocuments",
      "outputs": [
        {
          "name": "",
          "type": "bool"
        }
      ],
      "payable": false,
      "stateMutability": "nonpayable",
      "type": "function"
    },
    {
      "constant": false,
      "inputs": [
        {
          "name": "token",
          "type": "string"
        }
      ],
      "name": "myVerifiedDocuments",
      "outputs": [
        {
          "name": "",
          "type": "address[]"
        }
      ],
      "payable": false,
      "stateMutability": "nonpayable",
      "type": "function"
    },
    {
      "constant": false,
      "inputs": [],
      "name": "getAllOngoingContracts",
      "outputs": [
        {
          "name": "",
          "type": "address[]"
        }
      ],
      "payable": false,
      "stateMutability": "nonpayable",
      "type": "function"
    },
    {
      "constant": false,
      "inputs": [
        {
          "name": "token",
          "type": "string"
        }
      ],
      "name": "getAllUnverifiedGovernmentOfficers",
      "outputs": [
        {
          "name": "",
          "type": "address[]"
        }
      ],
      "payable": false,
      "stateMutability": "nonpayable",
      "type": "function"
    },
    {
      "constant": false,
      "inputs": [
        {
          "name": "token",
          "type": "string"
        }
      ],
      "name": "getAllUnverifiedContractors",
      "outputs": [
        {
          "name": "",
          "type": "address[]"
        }
      ],
      "payable": false,
      "stateMutability": "nonpayable",
      "type": "function"
    },
    {
      "constant": false,
      "inputs": [
        {
          "name": "token",
          "type": "string"
        },
        {
          "name": "contrator",
          "type": "address"
        }
      ],
      "name": "verifyContractor",
      "outputs": [
        {
          "name": "",
          "type": "bool"
        }
      ],
      "payable": false,
      "stateMutability": "nonpayable",
      "type": "function"
    },
    {
      "constant": false,
      "inputs": [
        {
          "name": "token",
          "type": "string"
        }
      ],
      "name": "myVerifiedOfficers",
      "outputs": [
        {
          "name": "",
          "type": "address[]"
        }
      ],
      "payable": false,
      "stateMutability": "nonpayable",
      "type": "function"
    },
    {
      "inputs": [
        {
          "name": "_walletAddress",
          "type": "address"
        },
        {
          "name": "_email",
          "type": "string"
        },
        {
          "name": "_phoneNumber",
          "type": "string"
        },
        {
          "name": "_name",
          "type": "string"
        },
        {
          "name": "_employeeId",
          "type": "string"
        }
      ],
      "payable": false,
      "stateMutability": "nonpayable",
      "type": "constructor"
    }
  ],
  "bytecode": "0x606060405234156200001057600080fd5b60405162000fb938038062000fb9833981016040526200003a90678000000000000000906200020c565b846000806101000a81548173ffffffffffffffffffffffffffffffffffffffff021916908373ffffffffffffffffffffffffffffffffffffffff160217905550836001908051906020019062000092929190620000e9565b508260029080519060200190620000ab929190620000e9565b508160039080519060200190620000c4929190620000e9565b508060049080519060200190620000dd929190620000e9565b505050505050620003a3565b828054600181600116156101000203166002900490600052602060002090601f016020900481019282601f106200012c57805160ff19168380011785556200015d565b828001600101855582156200015d579182015b828111156200015c5782518255916020019190600101906200013f565b5b5090506200016c919062000170565b5090565b6200019591905b808211156200019157600081600090555060010162000177565b5090565b90565b6000620001a682516200034d565b905092915050565b600082601f8301121515620001c257600080fd5b8151620001d9620001d38262000320565b620002f2565b91508082526020830160208301858383011115620001f657600080fd5b620002038382846200036d565b50505092915050565b600080600080600060a086880312156200022557600080fd5b6000620002358882890162000198565b955050602086015167ffffffffffffffff8111156200025357600080fd5b6200026188828901620001ae565b945050604086015167ffffffffffffffff8111156200027f57600080fd5b6200028d88828901620001ae565b935050606086015167ffffffffffffffff811115620002ab57600080fd5b620002b988828901620001ae565b925050608086015167ffffffffffffffff811115620002d757600080fd5b620002e588828901620001ae565b9150509295509295909350565b6000604051905081810181811067ffffffffffffffff821117156200031657600080fd5b8060405250919050565b600067ffffffffffffffff8211156200033857600080fd5b601f19601f8301169050602081019050919050565b600073ffffffffffffffffffffffffffffffffffffffff82169050919050565b60005b838110156200038d57808201518184015260208101905062000370565b838111156200039d576000848401525b50505050565b610c0680620003b36000396000f3006060604052600436106100c5576000357c0100000000000000000000000000000000000000000000000000000000900463ffffffff1680631399e363146100ca5780631f3c99c3146101005780632358c0461461012957806327bfe5e7146101525780632c2d895b146101885780632f19d50b146101be578063459d9d21146101f457806373bc63481461022a578063ab0b593714610260578063b6126c0714610289578063c4a63ee4146102bf578063e4e57941146102f5578063f08cb5cb1461032b575b600080fd5b34156100d557600080fd5b6100ea60046100e590369061080b565b610361565b6040516100f79190610a15565b60405180910390f35b341561010b57600080fd5b61011361036e565b6040516101209190610a37565b60405180910390f35b341561013457600080fd5b61013c610373565b60405161014991906109f3565b60405180910390f35b341561015d57600080fd5b610172600461016d90369061084c565b61037e565b60405161017f9190610a37565b60405180910390f35b341561019357600080fd5b6101a860046101a390369061080b565b6103ed565b6040516101b591906109f3565b60405180910390f35b34156101c957600080fd5b6101de60046101d99036906107b7565b610483565b6040516101eb9190610a52565b60405180910390f35b34156101ff57600080fd5b610214600461020f90369061084c565b610491565b6040516102219190610a37565b60405180910390f35b341561023557600080fd5b61024a600461024590369061080b565b610500565b60405161025791906109f3565b60405180910390f35b341561026b57600080fd5b610273610596565b60405161028091906109f3565b60405180910390f35b341561029457600080fd5b6102a960046102a490369061080b565b6105a1565b6040516102b691906109f3565b60405180910390f35b34156102ca57600080fd5b6102df60046102da90369061080b565b6105ae565b6040516102ec91906109f3565b60405180910390f35b341561030057600080fd5b610315600461031090369061084c565b6105bb565b6040516103229190610a37565b60405180910390f35b341561033657600080fd5b61034b600461034690369061080b565b61062a565b60405161035891906109f3565b60405180910390f35b6103696106c0565b919050565b600090565b61037b6106d4565b90565b60006006805480600101828161039491906106e8565b9160005260206000209001600084909190916101000a81548173ffffffffffffffffffffffffffffffffffffffff021916908373ffffffffffffffffffffffffffffffffffffffff160217905550506001905092915050565b6103f56106d4565b600780548060200260200160405190810160405280929190818152602001828054801561047757602002820191906000526020600020905b8160009054906101000a900473ffffffffffffffffffffffffffffffffffffffff1673ffffffffffffffffffffffffffffffffffffffff168152602001906001019080831161042d575b50505050509050919050565b61048b610714565b92915050565b6000600580548060010182816104a791906106e8565b9160005260206000209001600084909190916101000a81548173ffffffffffffffffffffffffffffffffffffffff021916908373ffffffffffffffffffffffffffffffffffffffff160217905550506001905092915050565b6105086106d4565b600580548060200260200160405190810160405280929190818152602001828054801561058a57602002820191906000526020600020905b8160009054906101000a900473ffffffffffffffffffffffffffffffffffffffff1673ffffffffffffffffffffffffffffffffffffffff1681526020019060010190808311610540575b50505050509050919050565b61059e6106d4565b90565b6105a96106d4565b919050565b6105b66106d4565b919050565b6000600780548060010182816105d191906106e8565b9160005260206000209001600084909190916101000a81548173ffffffffffffffffffffffffffffffffffffffff021916908373ffffffffffffffffffffffffffffffffffffffff160217905550506001905092915050565b6106326106d4565b60068054806020026020016040519081016040528092919081815260200182805480156106b457602002820191906000526020600020905b8160009054906101000a900473ffffffffffffffffffffffffffffffffffffffff1673ffffffffffffffffffffffffffffffffffffffff168152602001906001019080831161066a575b50505050509050919050565b602060405190810160405280600081525090565b602060405190810160405280600081525090565b81548183558181151161070f5781836000526020600020918201910161070e9190610728565b5b505050565b602060405190810160405280600081525090565b61074a91905b8082111561074657600081600090555060010161072e565b5090565b90565b60006107598235610b59565b905092915050565b600082601f830112151561077457600080fd5b813561078761078282610aa1565b610a74565b915080825260208301602083018583830111156107a357600080fd5b6107ae838284610b79565b50505092915050565b600080604083850312156107ca57600080fd5b60006107d88582860161074d565b925050602083013567ffffffffffffffff8111156107f557600080fd5b61080185828601610761565b9150509250929050565b60006020828403121561081d57600080fd5b600082013567ffffffffffffffff81111561083757600080fd5b61084384828501610761565b91505092915050565b6000806040838503121561085f57600080fd5b600083013567ffffffffffffffff81111561087957600080fd5b61088585828601610761565b92505060206108968582860161074d565b9150509250929050565b6108a981610b2d565b82525050565b60006108ba82610ae7565b8084526020840193506108cc83610acd565b60005b828110156108fe576108e28683516108a0565b6108eb82610b13565b91506020860195506001810190506108cf565b50849250505092915050565b600061091582610af2565b8084526020840193508360208202850161092e85610ada565b60005b848110156109675783830388526109498383516109bd565b925061095482610b20565b9150602088019750600181019050610931565b508196508694505050505092915050565b61098181610b4d565b82525050565b600061099282610b08565b8084526109a6816020860160208601610b88565b6109af81610bbb565b602085010191505092915050565b60006109c882610afd565b8084526109dc816020860160208601610b88565b6109e581610bbb565b602085010191505092915050565b60006020820190508181036000830152610a0d81846108af565b905092915050565b60006020820190508181036000830152610a2f818461090a565b905092915050565b6000602082019050610a4c6000830184610978565b92915050565b60006020820190508181036000830152610a6c8184610987565b905092915050565b6000604051905081810181811067ffffffffffffffff82111715610a9757600080fd5b8060405250919050565b600067ffffffffffffffff821115610ab857600080fd5b601f19601f8301169050602081019050919050565b6000602082019050919050565b6000602082019050919050565b600081519050919050565b600081519050919050565b600081519050919050565b600081519050919050565b6000602082019050919050565b6000602082019050919050565b600073ffffffffffffffffffffffffffffffffffffffff82169050919050565b60008115159050919050565b600073ffffffffffffffffffffffffffffffffffffffff82169050919050565b82818337600083830152505050565b60005b83811015610ba6578082015181840152602081019050610b8b565b83811115610bb5576000848401525b50505050565b6000601f19601f83011690509190505600a265627a7a72305820a0e6f5b2cfa6ccc20367db27ec0fbeab7b46a2df1e2fd1bd48370c1b7260a0896c6578706572696d656e74616cf50037",
  "source": "pragma solidity ^0.4.20;\npragma experimental ABIEncoderV2;\n\nimport \"./Main.sol\";\n\n\ncontract Verifier is Main {\n\n    address walletAddress;\n    string email;\n    string phoneNumber;\n    string name;\n    string employeeId;\n    address[] documentsVerified;\n    address[] officersVerified;\n    address[] contractorsVerified;\n\n    function Verifier (address _walletAddress, string _email, string _phoneNumber, string _name, \n    string _employeeId) public {\n        walletAddress = _walletAddress;\n        email = _email;\n        phoneNumber = _phoneNumber;\n        name = _name;\n        employeeId = _employeeId;\n    }\n\n    function login(address userAddress, string role) public  returns (string) {\n    }\n\n    //unverified\n    function getAllUnverifiedGovernmentOfficers(string token) public returns (address[]) {\n        //defined in GovernmentOfficerRepo\n    }    \n\n    function getAllUnverifiedContractors(string token) public returns (address[]) {\n        //defined in ContractorRepo\n    }   \n\n    function getAllUnverifiedDocuments(string token) public returns (string[]) {\n        //getProposalToVerify() in Tender.sol\n    }\n\n\n    // verification\n    function verifyGovernmentOfficer(string token,address govtOfficer) public returns (bool) {\n        officersVerified.push(govtOfficer);\n        return true;\n    }\n\n    function verifyContractor(string token, address contrator) public returns (bool) {\n        contractorsVerified.push(contrator);\n        return true;\n    }\n\n    function verifyProposalDocuments(string token, address tender) public returns (bool) {\n        documentsVerified.push(tender);\n        return true;\n    }\n\n    function myVerifiedDocuments(string token) public returns (address[]) {\n        return documentsVerified;\n    }\n\n    function myVerifiedOfficers(string token) public returns (address[]) {\n        return officersVerified;\n    }\n\n    function myVerifiedContractors(string token) public returns (address[]) {\n        return contractorsVerified;\n    }\n\n    function logout() public returns(bool) {\n\n    }\n}",
  "sourcePath": "/home/scoco/Desktop/TenderSystem---Blockchain/contracts/Verifier.sol",
  "compiler": {
    "name": "solc",
    "version": "0.4.20+commit.3155dd80.Emscripten.clang"
  },
  "schemaVersion": "1.0.1",
  "updatedAt": "2018-03-19T22:07:57.255Z"
}